{
    "_format": "hh-sol-artifact-1",
    "contractName": "Crowdfund",
    "sourceName": "contracts/thread/Crowdfund.sol",
    "abi": [
        {
            "inputs": [],
            "stateMutability": "nonpayable",
            "type": "constructor"
        },
        {
            "inputs": [
                {
                    "internalType": "uint256",
                    "name": "id",
                    "type": "uint256"
                },
                {
                    "internalType": "address",
                    "name": "person",
                    "type": "address"
                }
            ],
            "name": "AlreadyClaimed",
            "type": "error"
        },
        {
            "inputs": [],
            "name": "CrowdfundNotReached",
            "type": "error"
        },
        {
            "inputs": [],
            "name": "CrowdfundReached",
            "type": "error"
        },
        {
            "inputs": [],
            "name": "CrowdfundTransfer",
            "type": "error"
        },
        {
            "inputs": [],
            "name": "Delegation",
            "type": "error"
        },
        {
            "inputs": [
                {
                    "internalType": "address",
                    "name": "token",
                    "type": "address"
                }
            ],
            "name": "FeeOnTransfer",
            "type": "error"
        },
        {
            "inputs": [
                {
                    "internalType": "enum ICrowdfund.State",
                    "name": "current",
                    "type": "uint8"
                },
                {
                    "internalType": "enum ICrowdfund.State",
                    "name": "expected",
                    "type": "uint8"
                }
            ],
            "name": "InvalidState",
            "type": "error"
        },
        {
            "inputs": [
                {
                    "internalType": "address",
                    "name": "caller",
                    "type": "address"
                },
                {
                    "internalType": "address",
                    "name": "governor",
                    "type": "address"
                }
            ],
            "name": "NotGovernor",
            "type": "error"
        },
        {
            "inputs": [
                {
                    "internalType": "address",
                    "name": "person",
                    "type": "address"
                }
            ],
            "name": "NotKYC",
            "type": "error"
        },
        {
            "inputs": [],
            "name": "ZeroAmount",
            "type": "error"
        },
        {
            "inputs": [],
            "name": "ZeroPrice",
            "type": "error"
        },
        {
            "anonymous": false,
            "inputs": [
                {
                    "indexed": true,
                    "internalType": "address",
                    "name": "owner",
                    "type": "address"
                },
                {
                    "indexed": true,
                    "internalType": "address",
                    "name": "spender",
                    "type": "address"
                },
                {
                    "indexed": false,
                    "internalType": "uint256",
                    "name": "value",
                    "type": "uint256"
                }
            ],
            "name": "Approval",
            "type": "event"
        },
        {
            "anonymous": false,
            "inputs": [
                {
                    "indexed": true,
                    "internalType": "uint256",
                    "name": "id",
                    "type": "uint256"
                },
                {
                    "indexed": true,
                    "internalType": "address",
                    "name": "person",
                    "type": "address"
                },
                {
                    "indexed": false,
                    "internalType": "uint112",
                    "name": "amount",
                    "type": "uint112"
                }
            ],
            "name": "Claim",
            "type": "event"
        },
        {
            "anonymous": false,
            "inputs": [
                {
                    "indexed": true,
                    "internalType": "address",
                    "name": "delegator",
                    "type": "address"
                },
                {
                    "indexed": true,
                    "internalType": "address",
                    "name": "fromDelegate",
                    "type": "address"
                },
                {
                    "indexed": true,
                    "internalType": "address",
                    "name": "toDelegate",
                    "type": "address"
                }
            ],
            "name": "DelegateChanged",
            "type": "event"
        },
        {
            "anonymous": false,
            "inputs": [
                {
                    "indexed": true,
                    "internalType": "address",
                    "name": "delegate",
                    "type": "address"
                },
                {
                    "indexed": false,
                    "internalType": "uint256",
                    "name": "previousBalance",
                    "type": "uint256"
                },
                {
                    "indexed": false,
                    "internalType": "uint256",
                    "name": "newBalance",
                    "type": "uint256"
                }
            ],
            "name": "DelegateVotesChanged",
            "type": "event"
        },
        {
            "anonymous": false,
            "inputs": [
                {
                    "indexed": true,
                    "internalType": "address",
                    "name": "depositor",
                    "type": "address"
                },
                {
                    "indexed": false,
                    "internalType": "uint112",
                    "name": "amount",
                    "type": "uint112"
                }
            ],
            "name": "Deposit",
            "type": "event"
        },
        {
            "anonymous": false,
            "inputs": [
                {
                    "indexed": true,
                    "internalType": "uint256",
                    "name": "id",
                    "type": "uint256"
                },
                {
                    "indexed": true,
                    "internalType": "address",
                    "name": "token",
                    "type": "address"
                },
                {
                    "indexed": false,
                    "internalType": "uint112",
                    "name": "amount",
                    "type": "uint112"
                }
            ],
            "name": "Distribution",
            "type": "event"
        },
        {
            "anonymous": false,
            "inputs": [
                {
                    "indexed": true,
                    "internalType": "address",
                    "name": "depositor",
                    "type": "address"
                },
                {
                    "indexed": false,
                    "internalType": "uint112",
                    "name": "refundAmount",
                    "type": "uint112"
                }
            ],
            "name": "Refund",
            "type": "event"
        },
        {
            "anonymous": false,
            "inputs": [
                {
                    "indexed": true,
                    "internalType": "enum ICrowdfund.State",
                    "name": "state",
                    "type": "uint8"
                }
            ],
            "name": "StateChange",
            "type": "event"
        },
        {
            "anonymous": false,
            "inputs": [
                {
                    "indexed": true,
                    "internalType": "address",
                    "name": "from",
                    "type": "address"
                },
                {
                    "indexed": true,
                    "internalType": "address",
                    "name": "to",
                    "type": "address"
                },
                {
                    "indexed": false,
                    "internalType": "uint256",
                    "name": "value",
                    "type": "uint256"
                }
            ],
            "name": "Transfer",
            "type": "event"
        },
        {
            "anonymous": false,
            "inputs": [
                {
                    "indexed": true,
                    "internalType": "address",
                    "name": "depositor",
                    "type": "address"
                },
                {
                    "indexed": false,
                    "internalType": "uint112",
                    "name": "amount",
                    "type": "uint112"
                }
            ],
            "name": "Withdraw",
            "type": "event"
        },
        {
            "inputs": [],
            "name": "DOMAIN_SEPARATOR",
            "outputs": [
                {
                    "internalType": "bytes32",
                    "name": "",
                    "type": "bytes32"
                }
            ],
            "stateMutability": "view",
            "type": "function"
        },
        {
            "inputs": [
                {
                    "internalType": "address",
                    "name": "owner",
                    "type": "address"
                },
                {
                    "internalType": "address",
                    "name": "spender",
                    "type": "address"
                }
            ],
            "name": "allowance",
            "outputs": [
                {
                    "internalType": "uint256",
                    "name": "",
                    "type": "uint256"
                }
            ],
            "stateMutability": "view",
            "type": "function"
        },
        {
            "inputs": [
                {
                    "internalType": "address",
                    "name": "spender",
                    "type": "address"
                },
                {
                    "internalType": "uint256",
                    "name": "amount",
                    "type": "uint256"
                }
            ],
            "name": "approve",
            "outputs": [
                {
                    "internalType": "bool",
                    "name": "",
                    "type": "bool"
                }
            ],
            "stateMutability": "nonpayable",
            "type": "function"
        },
        {
            "inputs": [
                {
                    "internalType": "address",
                    "name": "account",
                    "type": "address"
                }
            ],
            "name": "balanceOf",
            "outputs": [
                {
                    "internalType": "uint256",
                    "name": "",
                    "type": "uint256"
                }
            ],
            "stateMutability": "view",
            "type": "function"
        },
        {
            "inputs": [],
            "name": "cancel",
            "outputs": [],
            "stateMutability": "nonpayable",
            "type": "function"
        },
        {
            "inputs": [
                {
                    "internalType": "address",
                    "name": "account",
                    "type": "address"
                },
                {
                    "internalType": "uint32",
                    "name": "pos",
                    "type": "uint32"
                }
            ],
            "name": "checkpoints",
            "outputs": [
                {
                    "components": [
                        {
                            "internalType": "uint32",
                            "name": "fromBlock",
                            "type": "uint32"
                        },
                        {
                            "internalType": "uint224",
                            "name": "votes",
                            "type": "uint224"
                        }
                    ],
                    "internalType": "struct ERC20VotesUpgradeable.Checkpoint",
                    "name": "",
                    "type": "tuple"
                }
            ],
            "stateMutability": "view",
            "type": "function"
        },
        {
            "inputs": [
                {
                    "internalType": "uint256",
                    "name": "id",
                    "type": "uint256"
                },
                {
                    "internalType": "address",
                    "name": "person",
                    "type": "address"
                }
            ],
            "name": "claim",
            "outputs": [],
            "stateMutability": "nonpayable",
            "type": "function"
        },
        {
            "inputs": [
                {
                    "internalType": "uint256",
                    "name": "",
                    "type": "uint256"
                },
                {
                    "internalType": "address",
                    "name": "",
                    "type": "address"
                }
            ],
            "name": "claimed",
            "outputs": [
                {
                    "internalType": "bool",
                    "name": "",
                    "type": "bool"
                }
            ],
            "stateMutability": "view",
            "type": "function"
        },
        {
            "inputs": [],
            "name": "contractName",
            "outputs": [
                {
                    "internalType": "bytes32",
                    "name": "",
                    "type": "bytes32"
                }
            ],
            "stateMutability": "view",
            "type": "function"
        },
        {
            "inputs": [],
            "name": "decimals",
            "outputs": [
                {
                    "internalType": "uint8",
                    "name": "",
                    "type": "uint8"
                }
            ],
            "stateMutability": "view",
            "type": "function"
        },
        {
            "inputs": [
                {
                    "internalType": "address",
                    "name": "spender",
                    "type": "address"
                },
                {
                    "internalType": "uint256",
                    "name": "subtractedValue",
                    "type": "uint256"
                }
            ],
            "name": "decreaseAllowance",
            "outputs": [
                {
                    "internalType": "bool",
                    "name": "",
                    "type": "bool"
                }
            ],
            "stateMutability": "nonpayable",
            "type": "function"
        },
        {
            "inputs": [
                {
                    "internalType": "address",
                    "name": "delegatee",
                    "type": "address"
                }
            ],
            "name": "delegate",
            "outputs": [],
            "stateMutability": "nonpayable",
            "type": "function"
        },
        {
            "inputs": [
                {
                    "internalType": "address",
                    "name": "delegatee",
                    "type": "address"
                },
                {
                    "internalType": "uint256",
                    "name": "nonce",
                    "type": "uint256"
                },
                {
                    "internalType": "uint256",
                    "name": "expiry",
                    "type": "uint256"
                },
                {
                    "internalType": "uint8",
                    "name": "v",
                    "type": "uint8"
                },
                {
                    "internalType": "bytes32",
                    "name": "r",
                    "type": "bytes32"
                },
                {
                    "internalType": "bytes32",
                    "name": "s",
                    "type": "bytes32"
                }
            ],
            "name": "delegateBySig",
            "outputs": [],
            "stateMutability": "nonpayable",
            "type": "function"
        },
        {
            "inputs": [
                {
                    "internalType": "address",
                    "name": "account",
                    "type": "address"
                }
            ],
            "name": "delegates",
            "outputs": [
                {
                    "internalType": "address",
                    "name": "",
                    "type": "address"
                }
            ],
            "stateMutability": "view",
            "type": "function"
        },
        {
            "inputs": [
                {
                    "internalType": "uint112",
                    "name": "amount",
                    "type": "uint112"
                }
            ],
            "name": "deposit",
            "outputs": [
                {
                    "internalType": "uint112",
                    "name": "",
                    "type": "uint112"
                }
            ],
            "stateMutability": "nonpayable",
            "type": "function"
        },
        {
            "inputs": [
                {
                    "internalType": "address",
                    "name": "token",
                    "type": "address"
                },
                {
                    "internalType": "uint112",
                    "name": "amount",
                    "type": "uint112"
                }
            ],
            "name": "distribute",
            "outputs": [
                {
                    "internalType": "uint256",
                    "name": "",
                    "type": "uint256"
                }
            ],
            "stateMutability": "nonpayable",
            "type": "function"
        },
        {
            "inputs": [],
            "name": "execute",
            "outputs": [],
            "stateMutability": "nonpayable",
            "type": "function"
        },
        {
            "inputs": [],
            "name": "finish",
            "outputs": [],
            "stateMutability": "nonpayable",
            "type": "function"
        },
        {
            "inputs": [
                {
                    "internalType": "uint256",
                    "name": "blockNumber",
                    "type": "uint256"
                }
            ],
            "name": "getPastTotalSupply",
            "outputs": [
                {
                    "internalType": "uint256",
                    "name": "",
                    "type": "uint256"
                }
            ],
            "stateMutability": "view",
            "type": "function"
        },
        {
            "inputs": [
                {
                    "internalType": "address",
                    "name": "account",
                    "type": "address"
                },
                {
                    "internalType": "uint256",
                    "name": "blockNumber",
                    "type": "uint256"
                }
            ],
            "name": "getPastVotes",
            "outputs": [
                {
                    "internalType": "uint256",
                    "name": "",
                    "type": "uint256"
                }
            ],
            "stateMutability": "view",
            "type": "function"
        },
        {
            "inputs": [
                {
                    "internalType": "address",
                    "name": "account",
                    "type": "address"
                }
            ],
            "name": "getVotes",
            "outputs": [
                {
                    "internalType": "uint256",
                    "name": "",
                    "type": "uint256"
                }
            ],
            "stateMutability": "view",
            "type": "function"
        },
        {
            "inputs": [],
            "name": "governor",
            "outputs": [
                {
                    "internalType": "address",
                    "name": "",
                    "type": "address"
                }
            ],
            "stateMutability": "view",
            "type": "function"
        },
        {
            "inputs": [
                {
                    "internalType": "address",
                    "name": "spender",
                    "type": "address"
                },
                {
                    "internalType": "uint256",
                    "name": "addedValue",
                    "type": "uint256"
                }
            ],
            "name": "increaseAllowance",
            "outputs": [
                {
                    "internalType": "bool",
                    "name": "",
                    "type": "bool"
                }
            ],
            "stateMutability": "nonpayable",
            "type": "function"
        },
        {
            "inputs": [
                {
                    "internalType": "string",
                    "name": "name",
                    "type": "string"
                },
                {
                    "internalType": "string",
                    "name": "symbol",
                    "type": "string"
                },
                {
                    "internalType": "address",
                    "name": "_whitelist",
                    "type": "address"
                },
                {
                    "internalType": "address",
                    "name": "_governor",
                    "type": "address"
                },
                {
                    "internalType": "address",
                    "name": "_thread",
                    "type": "address"
                },
                {
                    "internalType": "address",
                    "name": "_token",
                    "type": "address"
                },
                {
                    "internalType": "uint112",
                    "name": "_target",
                    "type": "uint112"
                }
            ],
            "name": "initialize",
            "outputs": [
                {
                    "internalType": "uint256",
                    "name": "",
                    "type": "uint256"
                }
            ],
            "stateMutability": "nonpayable",
            "type": "function"
        },
        {
            "inputs": [],
            "name": "lastDepositTime",
            "outputs": [
                {
                    "internalType": "uint64",
                    "name": "",
                    "type": "uint64"
                }
            ],
            "stateMutability": "view",
            "type": "function"
        },
        {
            "inputs": [],
            "name": "name",
            "outputs": [
                {
                    "internalType": "string",
                    "name": "",
                    "type": "string"
                }
            ],
            "stateMutability": "view",
            "type": "function"
        },
        {
            "inputs": [
                {
                    "internalType": "address",
                    "name": "owner",
                    "type": "address"
                }
            ],
            "name": "nonces",
            "outputs": [
                {
                    "internalType": "uint256",
                    "name": "",
                    "type": "uint256"
                }
            ],
            "stateMutability": "view",
            "type": "function"
        },
        {
            "inputs": [
                {
                    "internalType": "uint256",
                    "name": "amount",
                    "type": "uint256"
                }
            ],
            "name": "normalizeRaiseToThread",
            "outputs": [
                {
                    "internalType": "uint256",
                    "name": "",
                    "type": "uint256"
                }
            ],
            "stateMutability": "view",
            "type": "function"
        },
        {
            "inputs": [
                {
                    "internalType": "address",
                    "name": "account",
                    "type": "address"
                }
            ],
            "name": "numCheckpoints",
            "outputs": [
                {
                    "internalType": "uint32",
                    "name": "",
                    "type": "uint32"
                }
            ],
            "stateMutability": "view",
            "type": "function"
        },
        {
            "inputs": [],
            "name": "outstanding",
            "outputs": [
                {
                    "internalType": "uint112",
                    "name": "",
                    "type": "uint112"
                }
            ],
            "stateMutability": "view",
            "type": "function"
        },
        {
            "inputs": [
                {
                    "internalType": "address",
                    "name": "owner",
                    "type": "address"
                },
                {
                    "internalType": "address",
                    "name": "spender",
                    "type": "address"
                },
                {
                    "internalType": "uint256",
                    "name": "value",
                    "type": "uint256"
                },
                {
                    "internalType": "uint256",
                    "name": "deadline",
                    "type": "uint256"
                },
                {
                    "internalType": "uint8",
                    "name": "v",
                    "type": "uint8"
                },
                {
                    "internalType": "bytes32",
                    "name": "r",
                    "type": "bytes32"
                },
                {
                    "internalType": "bytes32",
                    "name": "s",
                    "type": "bytes32"
                }
            ],
            "name": "permit",
            "outputs": [],
            "stateMutability": "nonpayable",
            "type": "function"
        },
        {
            "inputs": [
                {
                    "internalType": "address",
                    "name": "depositor",
                    "type": "address"
                }
            ],
            "name": "redeem",
            "outputs": [],
            "stateMutability": "nonpayable",
            "type": "function"
        },
        {
            "inputs": [
                {
                    "internalType": "uint112",
                    "name": "amount",
                    "type": "uint112"
                }
            ],
            "name": "refund",
            "outputs": [],
            "stateMutability": "nonpayable",
            "type": "function"
        },
        {
            "inputs": [],
            "name": "state",
            "outputs": [
                {
                    "internalType": "enum ICrowdfund.State",
                    "name": "",
                    "type": "uint8"
                }
            ],
            "stateMutability": "view",
            "type": "function"
        },
        {
            "inputs": [
                {
                    "internalType": "bytes4",
                    "name": "",
                    "type": "bytes4"
                }
            ],
            "name": "supportsInterface",
            "outputs": [
                {
                    "internalType": "bool",
                    "name": "",
                    "type": "bool"
                }
            ],
            "stateMutability": "view",
            "type": "function"
        },
        {
            "inputs": [],
            "name": "symbol",
            "outputs": [
                {
                    "internalType": "string",
                    "name": "",
                    "type": "string"
                }
            ],
            "stateMutability": "view",
            "type": "function"
        },
        {
            "inputs": [],
            "name": "target",
            "outputs": [
                {
                    "internalType": "uint112",
                    "name": "",
                    "type": "uint112"
                }
            ],
            "stateMutability": "view",
            "type": "function"
        },
        {
            "inputs": [],
            "name": "thread",
            "outputs": [
                {
                    "internalType": "address",
                    "name": "",
                    "type": "address"
                }
            ],
            "stateMutability": "view",
            "type": "function"
        },
        {
            "inputs": [],
            "name": "token",
            "outputs": [
                {
                    "internalType": "address",
                    "name": "",
                    "type": "address"
                }
            ],
            "stateMutability": "view",
            "type": "function"
        },
        {
            "inputs": [],
            "name": "totalSupply",
            "outputs": [
                {
                    "internalType": "uint256",
                    "name": "",
                    "type": "uint256"
                }
            ],
            "stateMutability": "view",
            "type": "function"
        },
        {
            "inputs": [
                {
                    "internalType": "address",
                    "name": "to",
                    "type": "address"
                },
                {
                    "internalType": "uint256",
                    "name": "amount",
                    "type": "uint256"
                }
            ],
            "name": "transfer",
            "outputs": [
                {
                    "internalType": "bool",
                    "name": "",
                    "type": "bool"
                }
            ],
            "stateMutability": "nonpayable",
            "type": "function"
        },
        {
            "inputs": [
                {
                    "internalType": "address",
                    "name": "from",
                    "type": "address"
                },
                {
                    "internalType": "address",
                    "name": "to",
                    "type": "address"
                },
                {
                    "internalType": "uint256",
                    "name": "amount",
                    "type": "uint256"
                }
            ],
            "name": "transferFrom",
            "outputs": [
                {
                    "internalType": "bool",
                    "name": "",
                    "type": "bool"
                }
            ],
            "stateMutability": "nonpayable",
            "type": "function"
        },
        {
            "inputs": [],
            "name": "version",
            "outputs": [
                {
                    "internalType": "uint256",
                    "name": "",
                    "type": "uint256"
                }
            ],
            "stateMutability": "view",
            "type": "function"
        },
        {
            "inputs": [],
            "name": "whitelist",
            "outputs": [
                {
                    "internalType": "address",
                    "name": "",
                    "type": "address"
                }
            ],
            "stateMutability": "view",
            "type": "function"
        },
        {
            "inputs": [
                {
                    "internalType": "uint112",
                    "name": "amount",
                    "type": "uint112"
                }
            ],
            "name": "withdraw",
            "outputs": [],
            "stateMutability": "nonpayable",
            "type": "function"
        }
    ],
    "bytecode": "0x60806040523480156200001157600080fd5b5060408051808201909152600981526810dc9bddd9199d5b9960ba1b6020918201527f81c1f89d4fe48b489c21defbc40d04d7e367f5ffcf3a269d63bc316a872bf7206101305561013290527fbfdca884c20f1970d190a9892ea3dc7ca5897ecf939df5d245d18e9a550727c1805460ff19908116600190811790925563084b636360e21b60009081527f2767cd4e04bcc9a7d5578e3ff0a40b07ec56bb8dad7cfc16e34e6e96531b2a808054909216909217905554610100900460ff16620000e15760005460ff1615620000eb565b620000eb62000190565b620001535760405162461bcd60e51b815260206004820152602e60248201527f496e697469616c697a61626c653a20636f6e747261637420697320616c72656160448201526d191e481a5b9a5d1a585b1a5e995960921b606482015260840160405180910390fd5b600054610100900460ff1615801562000176576000805461ffff19166101011790555b801562000189576000805461ff00191690555b50620001bd565b6000620001a830620001ae60201b62001df21760201c565b15905090565b6001600160a01b03163b151590565b613f2d80620001cd6000396000f3fe608060405234801561001057600080fd5b506004361061027f5760003560e01c80637ecebe001161015c578063c3cda520116100ce578063e50d33e311610087578063e50d33e3146105dd578063ea8a1af0146105e5578063eb60dcde146105ed578063ef38d3c014610600578063f1127ed814610614578063fc0c546a1461065157600080fd5b8063c3cda52014610568578063d4b839921461057b578063d505accf1461059c578063d56b2889146105af578063dd62ed3e146105b7578063ddd5e1b2146105ca57600080fd5b80639ab24eb0116101205780639ab24eb0146104c75780639ec99453146104da578063a457c2d7146104ed578063a9059cbb14610500578063bd28f35114610513578063c19d93fb1461054657600080fd5b80637ecebe001461046d5780638e539e8c1461048057806393e59dc11461049357806395a2251f146104ac57806395d89b41146104bf57600080fd5b80633a46b1a8116101f55780635c19a95c116101b95780635c19a95c146103fa578063614619541461040d5780636c02d89c146104155780636fcfff451461042857806370a082311461045057806375d0c0dc1461046357600080fd5b80633a46b1a8146103a25780633bc0e4b8146103b55780633d2c834d146103ca57806354fd4d50146103dd578063587cde1e146103e757600080fd5b806318160ddd1161024757806318160ddd14610335578063196e8c6f1461034757806323b872dd1461035a578063313ce5671461036d5780633644e51514610387578063395093511461038f57600080fd5b806301ffc9a71461028457806306fdde03146102bd578063095ea7b3146102d25780630c340a24146102e5578063120aa87714610306575b600080fd5b6102a8610292366004613601565b6101326020526000908152604090205460ff1681565b60405190151581526020015b60405180910390f35b6102c5610665565b6040516102b49190613657565b6102a86102e036600461369f565b6106f7565b6101ff546102f9906001600160a01b031681565b6040516102b491906136cb565b6102a86103143660046136df565b61019960209081526000928352604080842090915290825290205460ff1681565b6067545b6040519081526020016102b4565b6103396103553660046137c8565b610711565b6102a8610368366004613886565b61098b565b6103756109b1565b60405160ff90911681526020016102b4565b610339610a36565b6102a861039d36600461369f565b610a45565b6103396103b036600461369f565b610a84565b6103c86103c33660046138c7565b610ac7565b005b6103396103d83660046138e2565b610c27565b6103396101315481565b6102f96103f5366004613917565b610de5565b6103c8610408366004613917565b610e03565b6103c8610e0d565b610339610423366004613934565b610f4c565b61043b610436366004613917565b610f76565b60405163ffffffff90911681526020016102b4565b61033961045e366004613917565b610f98565b6103396101305481565b61033961047b366004613917565b610fb3565b61033961048e366004613934565b610fd1565b6101fe546102f99061010090046001600160a01b031681565b6103c86104ba366004613917565b610ffe565b6102c561112c565b6103396104d5366004613917565b61113b565b6103c86104e83660046138c7565b6111c1565b6102a86104fb36600461369f565b6112be565b6102a861050e36600461369f565b61135b565b6102025461052e90600160701b90046001600160401b031681565b6040516001600160401b0390911681526020016102b4565b6101ff5461055b90600160a01b900460ff1681565b6040516102b49190613985565b6103c86105763660046139a2565b611369565b6102025461058f906001600160701b031681565b6040516102b491906139fe565b6103c86105aa366004613a12565b61149b565b6103c86115e1565b6103396105c5366004613a83565b6116ba565b6103c86105d83660046136df565b6116e5565b61058f61185e565b6103c8611869565b61058f6105fb3660046138c7565b6119fa565b610200546102f9906001600160a01b031681565b610627610622366004613ab1565b611d6f565b60408051825163ffffffff1681526020928301516001600160e01b031692810192909252016102b4565b610201546102f9906001600160a01b031681565b60606068805461067490613ae8565b80601f01602080910402602001604051908101604052809291908181526020018280546106a090613ae8565b80156106ed5780601f106106c2576101008083540402835291602001916106ed565b820191906000526020600020905b8154815290600101906020018083116106d057829003601f168201915b5050505050905090565b600033610705818585611e01565b60019150505b92915050565b60008054610100900460ff1661072d5760005460ff1615610735565b610735611f25565b61079d5760405162461bcd60e51b815260206004820152602e60248201527f496e697469616c697a61626c653a20636f6e747261637420697320616c72656160448201526d191e481a5b9a5d1a585b1a5e995960921b60648201526084015b60405180910390fd5b600054610100900460ff161580156107bf576000805461ffff19166101011790555b610807896040516020016107d39190613b1d565b604051602081830303815290604052896040516020016107f39190613b4f565b604051602081830303815290604052611f36565b6108336040518060400160405280600981526020016810dc9bddd9199d5b9960ba1b815250600061201b565b63288b000f60e01b6000526101326020527f74675ff993c396ca49f8940abd7b913096ff4422fb482bce4384cb6d10c368eb805460ff191660011790556101fe80546001600160a01b03808a1661010002610100600160a81b0319909216919091179091556101ff80548883166001600160a01b03199182161790915561020080548884169083161790556102018054928716929091169190911790556001600160701b0383166108f757604051634dfba02360e01b815260040160405180910390fd5b61020280546001600160701b0319166001600160701b0385161790556101ff805460ff60a01b191690819055600160a01b900460ff16600381111561093e5761093e61394d565b604051600080516020613eb883398151915290600090a26102025461096b906001600160701b0316610f4c565b9150801561097f576000805461ff00191690555b50979650505050505050565b6000336109998582856120d5565b6109a485858561214f565b60019150505b9392505050565b610201546040805163313ce56760e01b815290516000926001600160a01b03169163313ce567916004808301926020929190829003018186803b1580156109f757600080fd5b505afa925050508015610a27575060408051601f3d908101601f19168201909252610a2491810190613b7a565b60015b610a315750601290565b919050565b6000610a4061231c565b905090565b3360008181526066602090815260408083206001600160a01b03871684529091528120549091906107059082908690610a7f908790613bad565b611e01565b6000438210610aa55760405162461bcd60e51b815260040161079490613bc5565b6001600160a01b038316600090815260ff602052604090206109aa9083612397565b60006101ff54600160a01b900460ff166003811115610ae857610ae861394d565b14610b18576101ff54604051633bf2e2f960e11b815261079491600160a01b900460ff1690600090600401613bfc565b6001600160701b038116610b3f57604051631f2a200560e01b815260040160405180910390fd5b610202546001600160701b0316610b5461185e565b6001600160701b0316148015610b91575061020254600160701b90046001600160401b0316610b866201518042613c17565b6001600160401b0316105b15610baf576040516358ef995760e11b815260040160405180910390fd5b610bc233826001600160701b0316612453565b336001600160a01b03167f8e744e2dd83c4621a543ae247f4270575c80f8a1f47342770b3c74b539fe5a2582604051610bfb91906139fe565b60405180910390a261020154610c24906001600160a01b0316336001600160701b03841661247a565b50565b600060026001541415610c7c5760405162461bcd60e51b815260206004820152601f60248201527f5265656e7472616e637947756172643a207265656e7472616e742063616c6c006044820152606401610794565b60026001556040516370a0823160e01b81526000906001600160a01b038516906370a0823190610cb09030906004016136cb565b60206040518083038186803b158015610cc857600080fd5b505afa158015610cdc573d6000803e3d6000fd5b505050506040513d601f19601f82011682018060405250810190610d009190613c2e565b9050610d206001600160a01b03851633306001600160701b0387166124e2565b610d336001600160701b03841682613bad565b6040516370a0823160e01b81526001600160a01b038616906370a0823190610d5f9030906004016136cb565b60206040518083038186803b158015610d7757600080fd5b505afa158015610d8b573d6000803e3d6000fd5b505050506040513d601f19601f82011682018060405250810190610daf9190613c2e565b14610dcf578360405163153b0dd160e31b815260040161079491906136cb565b610dd9848461251a565b60018055949350505050565b6001600160a01b03908116600090815260fe60205260409020541690565b610c243382612671565b6101ff546001600160a01b03163314610e4b576101ff54604051631670800160e31b81526107949133916001600160a01b0390911690600401613c47565b610202546001600160701b0316610e6061185e565b6001600160701b031614610e87576040516306d766b360e21b815260040160405180910390fd5b60006101ff54600160a01b900460ff166003811115610ea857610ea861394d565b14610ed8576101ff54604051633bf2e2f960e11b815261079491600160a01b900460ff1690600090600401613bfc565b6101ff805460ff60a01b1916600160a01b90811791829055900460ff166003811115610f0657610f0661394d565b604051600080516020613eb883398151915290600090a26101ff546102025461020154610f4a926001600160a01b03918216929116906001600160701b031661247a565b565b6000610f566109b1565b610f61906012613c61565b610f6c90600a613d68565b61070b9083613d77565b6001600160a01b038116600090815260ff602052604081205461070b9061268a565b6001600160a01b031660009081526065602052604090205490565b6001600160a01b038116600090815260cb602052604081205461070b565b6000438210610ff25760405162461bcd60e51b815260040161079490613bc5565b61070b61010083612397565b60036101ff54600160a01b900460ff16600381111561101f5761101f61394d565b1461104f576101ff54604051633bf2e2f960e11b815261079491600160a01b900460ff1690600390600401613bfc565b600061105a82610f98565b90508061107a57604051631f2a200560e01b815260040160405180910390fd5b6110848282612453565b6111288261109183610f4c565b61020060009054906101000a90046001600160a01b03166001600160a01b031663785e9e866040518163ffffffff1660e01b815260040160206040518083038186803b1580156110e057600080fd5b505afa1580156110f4573d6000803e3d6000fd5b505050506040513d601f19601f820116820180604052508101906111189190613d96565b6001600160a01b0316919061247a565b5050565b60606069805461067490613ae8565b6001600160a01b038116600090815260ff602052604081205480156111ae576001600160a01b038316600090815260ff6020526040902061117d600183613c17565b8154811061118d5761118d613db3565b600091825260209091200154600160201b90046001600160e01b03166111b1565b60005b6001600160e01b03169392505050565b6101ff546001600160a01b031633146111ff576101ff54604051631670800160e31b81526107949133916001600160a01b0390911690600401613c47565b60016101ff54600160a01b900460ff1660038111156112205761122061394d565b14611250576101ff54604051633bf2e2f960e11b815261079491600160a01b900460ff1690600190600401613bfc565b6101ff805460ff60a01b1916600160a11b1790819055600160a01b900460ff1660038111156112815761128161394d565b604051600080516020613eb883398151915290600090a26001600160701b03811615610c245761020154611128906001600160a01b031682610c27565b3360008181526066602090815260408083206001600160a01b0387168452909152812054909190838110156113435760405162461bcd60e51b815260206004820152602560248201527f45524332303a2064656372656173656420616c6c6f77616e63652062656c6f77604482015264207a65726f60d81b6064820152608401610794565b6113508286868403611e01565b506001949350505050565b60003361070581858561214f565b834211156113b95760405162461bcd60e51b815260206004820152601d60248201527f4552433230566f7465733a207369676e617475726520657870697265640000006044820152606401610794565b604080517fe48329057bfd03d55e49b547132e39cffd9c1820ad7b9d4c5307691425d15adf60208201526001600160a01b0388169181019190915260608101869052608081018590526000906114339061142b9060a001604051602081830303815290604052805190602001206126f3565b858585612741565b905061143e81612769565b86146114885760405162461bcd60e51b81526020600482015260196024820152784552433230566f7465733a20696e76616c6964206e6f6e636560381b6044820152606401610794565b6114928188612671565b50505050505050565b834211156114eb5760405162461bcd60e51b815260206004820152601d60248201527f45524332305065726d69743a206578706972656420646561646c696e650000006044820152606401610794565b600060cc548888886114fc8c612769565b6040805160208101969096526001600160a01b0394851690860152929091166060840152608083015260a082015260c0810186905260e0016040516020818303038152906040528051906020012090506000611557826126f3565b9050600061156782878787612741565b9050896001600160a01b0316816001600160a01b0316146115ca5760405162461bcd60e51b815260206004820152601e60248201527f45524332305065726d69743a20696e76616c6964207369676e617475726500006044820152606401610794565b6115d58a8a8a611e01565b50505050505050505050565b6101ff546001600160a01b0316331461161f576101ff54604051631670800160e31b81526107949133916001600160a01b0390911690600401613c47565b60016101ff54600160a01b900460ff1660038111156116405761164061394d565b14611670576101ff54604051633bf2e2f960e11b815261079491600160a01b900460ff1690600190600401613bfc565b6101ff805460ff60a01b1916600360a01b1790819055600160a01b900460ff1660038111156116a1576116a161394d565b604051600080516020613eb883398151915290600090a2565b6001600160a01b03918216600090815260666020908152604080832093909416825291909152205490565b6000828152610199602090815260408083206001600160a01b038516845290915290205460ff161561173c576040516302a4851560e61b8152600481018390526001600160a01b0382166024820152604401610794565b6000828152610199602090815260408083206001600160a01b038516845282528083208054600160ff1990911681179091558584526101989092528220908101548154919291600160701b9091046001600160701b0316906117ac908590600160a01b900463ffffffff16610a84565b60018401546117c491906001600160701b0316613d77565b6117ce9190613dc9565b90506001600160701b0381166117f757604051631f2a200560e01b815260040160405180910390fd5b8154611816906001600160a01b0316846001600160701b03841661247a565b826001600160a01b0316847f427893df932b6d79359d4741393831d42f145dadfe265989f41667dbf3a66a938360405161185091906139fe565b60405180910390a350505050565b6000610a4060675490565b6101ff546001600160a01b031633146118a7576101ff54604051631670800160e31b81526107949133916001600160a01b0390911690600401613c47565b60006101ff54600160a01b900460ff1660038111156118c8576118c861394d565b146118f8576101ff54604051633bf2e2f960e11b815261079491600160a01b900460ff1690600090600401613bfc565b6101ff805460ff60a01b1916600160a11b179055610201546040516370a0823160e01b81526000916001600160a01b0316906370a082319061193e9030906004016136cb565b60206040518083038186803b15801561195657600080fd5b505afa15801561196a573d6000803e3d6000fd5b505050506040513d601f19601f8201168201806040525081019061198e9190613c2e565b90506001600160701b038111156119a957506001600160701b035b610201546119c0906001600160a01b03168261251a565b506101ff54600160a01b900460ff1660038111156119e0576119e061394d565b604051600080516020613eb883398151915290600090a250565b6000806101ff54600160a01b900460ff166003811115611a1c57611a1c61394d565b14611a4c576101ff54604051633bf2e2f960e11b815261079491600160a01b900460ff1690600090600401613bfc565b611a5461185e565b61020254611a6b91906001600160701b0316613deb565b6001600160701b0316826001600160701b03161115611aa657611a8c61185e565b61020254611aa391906001600160701b0316613deb565b91505b6001600160701b038216611acd57604051631f2a200560e01b815260040160405180910390fd5b6101fe54604051632924f43160e11b81526101009091046001600160a01b031690635249e86290611b029033906004016136cb565b60206040518083038186803b158015611b1a57600080fd5b505afa158015611b2e573d6000803e3d6000fd5b505050506040513d601f19601f82011682018060405250810190611b529190613e13565b611b715733604051639941450d60e01b815260040161079491906136cb565b6101fe805460ff19166001179055611b92336001600160701b038416612791565b6101fe805460ff19169055610201546040516370a0823160e01b81526000916001600160a01b0316906370a0823190611bcf9030906004016136cb565b60206040518083038186803b158015611be757600080fd5b505afa158015611bfb573d6000803e3d6000fd5b505050506040513d601f19601f82011682018060405250810190611c1f9190613c2e565b61020154909150611c44906001600160a01b031633306001600160701b0387166124e2565b610201546040516370a0823160e01b81526001600160701b0385169183916001600160a01b03909116906370a0823190611c829030906004016136cb565b60206040518083038186803b158015611c9a57600080fd5b505afa158015611cae573d6000803e3d6000fd5b505050506040513d601f19601f82011682018060405250810190611cd29190613c2e565b611cdc9190613c17565b14611d08576102015460405163153b0dd160e31b8152610794916001600160a01b0316906004016136cb565b610202805467ffffffffffffffff60701b1916600160701b426001600160401b03160217905560405133907f34ff2b0419cb396f67bc2d446d6acb1936768eadc70b91c0688c324ecab6c01790611d609086906139fe565b60405180910390a25090919050565b60408051808201909152600080825260208201526001600160a01b038316600090815260ff60205260409020805463ffffffff8416908110611db357611db3613db3565b60009182526020918290206040805180820190915291015463ffffffff81168252600160201b90046001600160e01b0316918101919091529392505050565b6001600160a01b03163b151590565b6001600160a01b038316611e635760405162461bcd60e51b8152602060048201526024808201527f45524332303a20617070726f76652066726f6d20746865207a65726f206164646044820152637265737360e01b6064820152608401610794565b6001600160a01b038216611ec45760405162461bcd60e51b815260206004820152602260248201527f45524332303a20617070726f766520746f20746865207a65726f206164647265604482015261737360f01b6064820152608401610794565b6001600160a01b0383811660008181526066602090815260408083209487168084529482529182902085905590518481527f8c5be1e5ebec7d5bd14f71427d1e84f3dd0314c0f7b2291e5b200ac8c7c3b925910160405180910390a3505050565b6000611f3030611df2565b15905090565b611f3e61281c565b611f48828261284b565b611f518261287c565b611f596128cf565b50506101326020527f15ab120e1aff5f3bff3fffc26d8feda7ef1eac9c836324fab01b4fe9d36cc7038054600160ff1991821681179092557fa0fe25cc4a64394ec23991e41f60ddec015d6d710b4745009162a4887a4ac0ca80548216831790557f8a0582d39b3a3df961ad628026e20350f156214fa5164e09caf1bdd8a91fe1c28054821683179055631e5e795160e31b6000527f8c1f44c7ac916cf192019b0b7211dec7433303f614858ffc10adb292f9fd79cb80549091169091179055565b600054610100900460ff166120425760405162461bcd60e51b815260040161079490613e35565b81516020830120610130558061205d57600161013155612065565b600019610131555b50506101326020527fbfdca884c20f1970d190a9892ea3dc7ca5897ecf939df5d245d18e9a550727c18054600160ff19918216811790925563084b636360e21b6000527f2767cd4e04bcc9a7d5578e3ff0a40b07ec56bb8dad7cfc16e34e6e96531b2a8080549091169091179055565b60006120e184846116ba565b90506000198114612149578181101561213c5760405162461bcd60e51b815260206004820152601d60248201527f45524332303a20696e73756666696369656e7420616c6c6f77616e63650000006044820152606401610794565b6121498484848403611e01565b50505050565b6001600160a01b0383166121b35760405162461bcd60e51b815260206004820152602560248201527f45524332303a207472616e736665722066726f6d20746865207a65726f206164604482015264647265737360d81b6064820152608401610794565b6001600160a01b0382166122155760405162461bcd60e51b815260206004820152602360248201527f45524332303a207472616e7366657220746f20746865207a65726f206164647260448201526265737360e81b6064820152608401610794565b6122208383836128f6565b6001600160a01b038316600090815260656020526040902054818110156122985760405162461bcd60e51b815260206004820152602660248201527f45524332303a207472616e7366657220616d6f756e7420657863656564732062604482015265616c616e636560d01b6064820152608401610794565b6001600160a01b038085166000908152606560205260408082208585039055918516815290812080548492906122cf908490613bad565b92505081905550826001600160a01b0316846001600160a01b0316600080516020613ed88339815191528460405161230991815260200190565b60405180910390a361214984848461291a565b6000610a407f8b73c3c69bb8fe3d512ecc4cf759cc79239f7b179b0ffacaa9a75d522b39400f61234b60975490565b6098546040805160208101859052908101839052606081018290524660808201523060a082015260009060c0016040516020818303038152906040528051906020012090509392505050565b8154600090815b818110156123fb5760006123b28284612949565b9050848682815481106123c7576123c7613db3565b60009182526020909120015463ffffffff1611156123e7578092506123f5565b6123f2816001613bad565b91505b5061239e565b811561243e578461240d600184613c17565b8154811061241d5761241d613db3565b600091825260209091200154600160201b90046001600160e01b0316612441565b60005b6001600160e01b031695945050505050565b6101fe805460ff1916600117905561246b8282612964565b50506101fe805460ff19169055565b6040516001600160a01b0383166024820152604481018290526124dd90849063a9059cbb60e01b906064015b60408051601f198184030181529190526020810180516001600160e01b03166001600160e01b03199093169290921790915261297d565b505050565b6040516001600160a01b03808516602483015283166044820152606481018290526121499085906323b872dd60e01b906084016124a6565b60006001600160701b03821661254357604051631f2a200560e01b815260040160405180910390fd5b506101978054908190600061255783613e80565b91905055506040518060800160405280846001600160a01b031681526020016001436125839190613c17565b63ffffffff1681526001600160701b03841660208201526040016125ab61048e600143613c17565b6001600160701b0390811690915260008381526101986020908152604091829020845181549286015163ffffffff16600160a01b026001600160c01b03199093166001600160a01b039182161792909217815584830151600190910180546060909601518516600160701b026001600160e01b0319909616919094161793909317909155519084169082907f9e7eb20b4391e2d00ff94dc0eccaabf043c2b1670cda23357d826ee40eec1696906126639086906139fe565b60405180910390a392915050565b604051636c7a9e7560e01b815260040160405180910390fd5b600063ffffffff8211156126ef5760405162461bcd60e51b815260206004820152602660248201527f53616665436173743a2076616c756520646f65736e27742066697420696e203360448201526532206269747360d01b6064820152608401610794565b5090565b600061070b61270061231c565b8360405161190160f01b6020820152602281018390526042810182905260009060620160405160208183030381529060405280519060200120905092915050565b600080600061275287878787612a4f565b9150915061275f81612b32565b5095945050505050565b6001600160a01b038116600090815260cb602052604090208054600181018255905b50919050565b61279b8282612ce8565b6067546001600160e01b03101561280d5760405162461bcd60e51b815260206004820152603060248201527f4552433230566f7465733a20746f74616c20737570706c79207269736b73206f60448201526f766572666c6f77696e6720766f74657360801b6064820152608401610794565b612149610100612dc983612dd5565b600054610100900460ff166128435760405162461bcd60e51b815260040161079490613e35565b610f4a612f4c565b600054610100900460ff166128725760405162461bcd60e51b815260040161079490613e35565b6111288282612f79565b600054610100900460ff166128a35760405162461bcd60e51b815260040161079490613e35565b6128c681604051806040016040528060018152602001603160f81b815250612fc7565b610c2481613008565b600054610100900460ff16610f4a5760405162461bcd60e51b815260040161079490613e35565b6101fe5460ff166124dd5760405163d198c28360e01b815260040160405180910390fd5b612925838383613056565b600061293083610de5565b6001600160a01b031614156124dd576124dd8283613071565b60006129586002848418613dc9565b6109aa90848416613bad565b61296e82826130f1565b61214961010061324083612dd5565b60006129d2826040518060400160405280602081526020017f5361666545524332303a206c6f772d6c6576656c2063616c6c206661696c6564815250856001600160a01b031661324c9092919063ffffffff16565b8051909150156124dd57808060200190518101906129f09190613e13565b6124dd5760405162461bcd60e51b815260206004820152602a60248201527f5361666545524332303a204552433230206f7065726174696f6e20646964206e6044820152691bdd081cdd58d8d9595960b21b6064820152608401610794565b6000806fa2a8918ca85bafe22016d0b997e4df60600160ff1b03831115612a7c5750600090506003612b29565b8460ff16601b14158015612a9457508460ff16601c14155b15612aa55750600090506004612b29565b6040805160008082526020820180845289905260ff881692820192909252606081018690526080810185905260019060a0016020604051602081039080840390855afa158015612af9573d6000803e3d6000fd5b5050604051601f1901519150506001600160a01b038116612b2257600060019250925050612b29565b9150600090505b94509492505050565b6000816004811115612b4657612b4661394d565b1415612b4f5750565b6001816004811115612b6357612b6361394d565b1415612bac5760405162461bcd60e51b815260206004820152601860248201527745434453413a20696e76616c6964207369676e617475726560401b6044820152606401610794565b6002816004811115612bc057612bc061394d565b1415612c0e5760405162461bcd60e51b815260206004820152601f60248201527f45434453413a20696e76616c6964207369676e6174757265206c656e677468006044820152606401610794565b6003816004811115612c2257612c2261394d565b1415612c7b5760405162461bcd60e51b815260206004820152602260248201527f45434453413a20696e76616c6964207369676e6174757265202773272076616c604482015261756560f01b6064820152608401610794565b6004816004811115612c8f57612c8f61394d565b1415610c245760405162461bcd60e51b815260206004820152602260248201527f45434453413a20696e76616c6964207369676e6174757265202776272076616c604482015261756560f01b6064820152608401610794565b6001600160a01b038216612d3e5760405162461bcd60e51b815260206004820152601f60248201527f45524332303a206d696e7420746f20746865207a65726f2061646472657373006044820152606401610794565b612d4a600083836128f6565b8060676000828254612d5c9190613bad565b90915550506001600160a01b03821660009081526065602052604081208054839290612d89908490613bad565b90915550506040518181526001600160a01b03831690600090600080516020613ed88339815191529060200160405180910390a36111286000838361291a565b60006109aa8284613bad565b825460009081908015612e1f5785612dee600183613c17565b81548110612dfe57612dfe613db3565b600091825260209091200154600160201b90046001600160e01b0316612e22565b60005b6001600160e01b03169250612e3b83858763ffffffff16565b9150600081118015612e7957504386612e55600184613c17565b81548110612e6557612e65613db3565b60009182526020909120015463ffffffff16145b15612ed957612e8782613263565b86612e93600184613c17565b81548110612ea357612ea3613db3565b9060005260206000200160000160046101000a8154816001600160e01b0302191690836001600160e01b03160217905550612f43565b856040518060400160405280612eee4361268a565b63ffffffff168152602001612f0285613263565b6001600160e01b039081169091528254600181018455600093845260209384902083519490930151909116600160201b0263ffffffff909316929092179101555b50935093915050565b600054610100900460ff16612f735760405162461bcd60e51b815260040161079490613e35565b60018055565b600054610100900460ff16612fa05760405162461bcd60e51b815260040161079490613e35565b8151612fb3906068906020850190613571565b5080516124dd906069906020840190613571565b600054610100900460ff16612fee5760405162461bcd60e51b815260040161079490613e35565b815160209283012081519190920120609791909155609855565b600054610100900460ff1661302f5760405162461bcd60e51b815260040161079490613e35565b507f6e71edae12b1b97f4d1f60370fef10105fa2faae0126114a169c64845d6126c960cc55565b6124dd61306284610de5565b61306b84610de5565b836132cc565b600061307c83610de5565b9050600061308984610f98565b6001600160a01b03858116600081815260fe602052604080822080546001600160a01b031916898616908117909155905194955093928616927f3134e8a2e6d97e929a7e54011ea5485d7d196dd5f0ba4d4ef95803e8e3fc257f9190a46121498284836132cc565b6001600160a01b0382166131515760405162461bcd60e51b815260206004820152602160248201527f45524332303a206275726e2066726f6d20746865207a65726f206164647265736044820152607360f81b6064820152608401610794565b61315d826000836128f6565b6001600160a01b038216600090815260656020526040902054818110156131d15760405162461bcd60e51b815260206004820152602260248201527f45524332303a206275726e20616d6f756e7420657863656564732062616c616e604482015261636560f01b6064820152608401610794565b6001600160a01b0383166000908152606560205260408120838303905560678054849290613200908490613c17565b90915550506040518281526000906001600160a01b03851690600080516020613ed88339815191529060200160405180910390a36124dd8360008461291a565b60006109aa8284613c17565b606061325b8484600085613409565b949350505050565b60006001600160e01b038211156126ef5760405162461bcd60e51b815260206004820152602760248201527f53616665436173743a2076616c756520646f65736e27742066697420696e20326044820152663234206269747360c81b6064820152608401610794565b816001600160a01b0316836001600160a01b0316141580156132ee5750600081115b156124dd576001600160a01b0383161561337c576001600160a01b038316600090815260ff6020526040812081906133299061324085612dd5565b91509150846001600160a01b03167fdec2bacdd2f05b59de34da9b523dff8be42e5e38e818c82fdb0bae774387a7248383604051613371929190918252602082015260400190565b60405180910390a250505b6001600160a01b038216156124dd576001600160a01b038216600090815260ff6020526040812081906133b290612dc985612dd5565b91509150836001600160a01b03167fdec2bacdd2f05b59de34da9b523dff8be42e5e38e818c82fdb0bae774387a72483836040516133fa929190918252602082015260400190565b60405180910390a25050505050565b60608247101561346a5760405162461bcd60e51b815260206004820152602660248201527f416464726573733a20696e73756666696369656e742062616c616e636520666f6044820152651c8818d85b1b60d21b6064820152608401610794565b61347385611df2565b6134bf5760405162461bcd60e51b815260206004820152601d60248201527f416464726573733a2063616c6c20746f206e6f6e2d636f6e74726163740000006044820152606401610794565b600080866001600160a01b031685876040516134db9190613e9b565b60006040518083038185875af1925050503d8060008114613518576040519150601f19603f3d011682016040523d82523d6000602084013e61351d565b606091505b509150915061352d828286613538565b979650505050505050565b606083156135475750816109aa565b8251156135575782518084602001fd5b8160405162461bcd60e51b81526004016107949190613657565b82805461357d90613ae8565b90600052602060002090601f01602090048101928261359f57600085556135e5565b82601f106135b857805160ff19168380011785556135e5565b828001600101855582156135e5579182015b828111156135e55782518255916020019190600101906135ca565b506126ef9291505b808211156126ef57600081556001016135ed565b60006020828403121561361357600080fd5b81356001600160e01b0319811681146109aa57600080fd5b60005b8381101561364657818101518382015260200161362e565b838111156121495750506000910152565b602081526000825180602084015261367681604085016020870161362b565b601f01601f19169190910160400192915050565b6001600160a01b0381168114610c2457600080fd5b600080604083850312156136b257600080fd5b82356136bd8161368a565b946020939093013593505050565b6001600160a01b0391909116815260200190565b600080604083850312156136f257600080fd5b8235915060208301356137048161368a565b809150509250929050565b634e487b7160e01b600052604160045260246000fd5b600082601f83011261373657600080fd5b81356001600160401b03808211156137505761375061370f565b604051601f8301601f19908116603f011681019082821181831017156137785761377861370f565b8160405283815286602085880101111561379157600080fd5b836020870160208301376000602085830101528094505050505092915050565b80356001600160701b0381168114610a3157600080fd5b600080600080600080600060e0888a0312156137e357600080fd5b87356001600160401b03808211156137fa57600080fd5b6138068b838c01613725565b985060208a013591508082111561381c57600080fd5b506138298a828b01613725565b965050604088013561383a8161368a565b9450606088013561384a8161368a565b9350608088013561385a8161368a565b925060a088013561386a8161368a565b915061387860c089016137b1565b905092959891949750929550565b60008060006060848603121561389b57600080fd5b83356138a68161368a565b925060208401356138b68161368a565b929592945050506040919091013590565b6000602082840312156138d957600080fd5b6109aa826137b1565b600080604083850312156138f557600080fd5b82356139008161368a565b915061390e602084016137b1565b90509250929050565b60006020828403121561392957600080fd5b81356109aa8161368a565b60006020828403121561394657600080fd5b5035919050565b634e487b7160e01b600052602160045260246000fd5b6004811061398157634e487b7160e01b600052602160045260246000fd5b9052565b6020810161070b8284613963565b60ff81168114610c2457600080fd5b60008060008060008060c087890312156139bb57600080fd5b86356139c68161368a565b9550602087013594506040870135935060608701356139e481613993565b9598949750929560808101359460a0909101359350915050565b6001600160701b0391909116815260200190565b600080600080600080600060e0888a031215613a2d57600080fd5b8735613a388161368a565b96506020880135613a488161368a565b955060408801359450606088013593506080880135613a6681613993565b9699959850939692959460a0840135945060c09093013592915050565b60008060408385031215613a9657600080fd5b8235613aa18161368a565b915060208301356137048161368a565b60008060408385031215613ac457600080fd5b8235613acf8161368a565b9150602083013563ffffffff8116811461370457600080fd5b600181811c90821680613afc57607f821691505b6020821081141561278b57634e487b7160e01b600052602260045260246000fd5b69021b937bbb2333ab732160b51b815260008251613b4281600a85016020870161362b565b91909101600a0192915050565b6243462d60e81b815260008251613b6d81600385016020870161362b565b9190910160030192915050565b600060208284031215613b8c57600080fd5b81516109aa81613993565b634e487b7160e01b600052601160045260246000fd5b60008219821115613bc057613bc0613b97565b500190565b6020808252601f908201527f4552433230566f7465733a20626c6f636b206e6f7420796574206d696e656400604082015260600190565b60408101613c0a8285613963565b6109aa6020830184613963565b600082821015613c2957613c29613b97565b500390565b600060208284031215613c4057600080fd5b5051919050565b6001600160a01b0392831681529116602082015260400190565b600060ff821660ff841680821015613c7b57613c7b613b97565b90039392505050565b600181815b80851115613cbf578160001904821115613ca557613ca5613b97565b80851615613cb257918102915b93841c9390800290613c89565b509250929050565b600082613cd65750600161070b565b81613ce35750600061070b565b8160018114613cf95760028114613d0357613d1f565b600191505061070b565b60ff841115613d1457613d14613b97565b50506001821b61070b565b5060208310610133831016604e8410600b8410161715613d42575081810a61070b565b613d4c8383613c84565b8060001904821115613d6057613d60613b97565b029392505050565b60006109aa60ff841683613cc7565b6000816000190483118215151615613d9157613d91613b97565b500290565b600060208284031215613da857600080fd5b81516109aa8161368a565b634e487b7160e01b600052603260045260246000fd5b600082613de657634e487b7160e01b600052601260045260246000fd5b500490565b60006001600160701b0383811690831681811015613e0b57613e0b613b97565b039392505050565b600060208284031215613e2557600080fd5b815180151581146109aa57600080fd5b6020808252602b908201527f496e697469616c697a61626c653a20636f6e7472616374206973206e6f74206960408201526a6e697469616c697a696e6760a81b606082015260800190565b6000600019821415613e9457613e94613b97565b5060010190565b60008251613ead81846020870161362b565b919091019291505056fea4248ceb280c6f9303d3ba87af96d45c3b0c834338095ab6350dbe86d38c9fc5ddf252ad1be2c89b69c2b068fc378daa952ba7f163c4a11628f55a4df523b3efa2646970667358221220dc9c6f5da95ef4d3a4286ea1dcedb701a1a3a6747d956da37bbb9d72e68ad3b264736f6c63430008090033",
    "linkReferences": {},
    "deployedLinkReferences": {}
}