{
  "_format": "hh-sol-artifact-1",
  "contractName": "DEXRouter",
  "sourceName": "contracts/erc20/DEXRouter.sol",
  "abi": [
    {
      "inputs": [],
      "stateMutability": "nonpayable",
      "type": "constructor"
    },
    {
      "inputs": [
        {
          "internalType": "address",
          "name": "token",
          "type": "address"
        },
        {
          "internalType": "address",
          "name": "tradeToken",
          "type": "address"
        },
        {
          "internalType": "uint256",
          "name": "payment",
          "type": "uint256"
        },
        {
          "internalType": "uint256",
          "name": "price",
          "type": "uint256"
        },
        {
          "internalType": "uint256",
          "name": "minimumAmount",
          "type": "uint256"
        }
      ],
      "name": "buy",
      "outputs": [
        {
          "internalType": "uint256",
          "name": "",
          "type": "uint256"
        }
      ],
      "stateMutability": "nonpayable",
      "type": "function"
    },
    {
      "inputs": [],
      "name": "contractName",
      "outputs": [
        {
          "internalType": "bytes32",
          "name": "",
          "type": "bytes32"
        }
      ],
      "stateMutability": "view",
      "type": "function"
    },
    {
      "inputs": [
        {
          "internalType": "bytes4",
          "name": "",
          "type": "bytes4"
        }
      ],
      "name": "supportsInterface",
      "outputs": [
        {
          "internalType": "bool",
          "name": "",
          "type": "bool"
        }
      ],
      "stateMutability": "view",
      "type": "function"
    },
    {
      "inputs": [],
      "name": "version",
      "outputs": [
        {
          "internalType": "uint256",
          "name": "",
          "type": "uint256"
        }
      ],
      "stateMutability": "view",
      "type": "function"
    }
  ],
  "bytecode": "0x608060405234801561001057600080fd5b506040805180820190915260098152682222ac2937baba32b960b91b6020918201527fc068a82f8a9bfe1f80a72f5ea4a2e656b10f587508ffe4a62fce412bd5dc1118600190815560039091526000805160206105eb833981519152805460ff19908116831790915563084b636360e21b60009081527ff2ce595d3685ae93af455b2a85c171e0605a33d91f3700771e47939a462380458054909216909217905554610100900460ff166100ca5760005460ff16156100d2565b6100d26101db565b61013a5760405162461bcd60e51b815260206004820152602e60248201527f496e697469616c697a61626c653a20636f6e747261637420697320616c72656160448201526d191e481a5b9a5d1a585b1a5e995960921b60648201526084015b60405180910390fd5b600054610100900460ff1615801561015c576000805461ffff19166101011790555b6040805180820190915260098152682222ac2937baba32b960b91b60208201526101879060016101f6565b6376165adf60e01b60005260036020527faee5fed10635bb27f2d46c99f1d1a3b75c94d2ddebc6cb636de935f12115045e805460ff1916600117905580156101d5576000805461ff00191690555b506102ed565b60006101f0306102de60201b6101d51760201c565b15905090565b600054610100900460ff166102615760405162461bcd60e51b815260206004820152602b60248201527f496e697469616c697a61626c653a20636f6e7472616374206973206e6f74206960448201526a6e697469616c697a696e6760a81b6064820152608401610131565b815160208301206001558061027a576001600255610281565b6000196002555b505060036020526000805160206105eb8339815191528054600160ff19918216811790925563084b636360e21b6000527ff2ce595d3685ae93af455b2a85c171e0605a33d91f3700771e47939a4623804580549091169091179055565b6001600160a01b03163b151590565b6102ef806102fc6000396000f3fe608060405234801561001057600080fd5b506004361061004c5760003560e01c806301ffc9a71461005157806354fd4d501461008957806375d0c0dc146100a057806376165adf146100a9575b600080fd5b61007461005f3660046101e4565b60036020526000908152604090205460ff1681565b60405190151581526020015b60405180910390f35b61009260025481565b604051908152602001610080565b61009260015481565b6100926100b7366004610231565b6040516323b872dd60e01b81523360048201526001600160a01b03868116602483015260448201859052600091908616906323b872dd90606401602060405180830381600087803b15801561010b57600080fd5b505af115801561011f573d6000803e3d6000fd5b505050506040513d601f19601f82011682018060405250810190610143919061027e565b5060405163a59ac6dd60e01b815233600482015260248101849052604481018390526001600160a01b0387169063a59ac6dd90606401602060405180830381600087803b15801561019357600080fd5b505af11580156101a7573d6000803e3d6000fd5b505050506040513d601f19601f820116820180604052508101906101cb91906102a0565b9695505050505050565b6001600160a01b03163b151590565b6000602082840312156101f657600080fd5b81356001600160e01b03198116811461020e57600080fd5b9392505050565b80356001600160a01b038116811461022c57600080fd5b919050565b600080600080600060a0868803121561024957600080fd5b61025286610215565b945061026060208701610215565b94979496505050506040830135926060810135926080909101359150565b60006020828403121561029057600080fd5b8151801515811461020e57600080fd5b6000602082840312156102b257600080fd5b505191905056fea26469706673582212203c494740d2d7285ebb2a513ef0e989417ffe927eb5a5220b8433cc4a1966dc5e64736f6c6343000809003328b0ef64f7e82d3b26f3fd404bd0151552f792965f39c29ae82c0a78df67af9c",
  "linkReferences": {},
  "deployedLinkReferences": {}
}