{
    "_format": "hh-sol-artifact-1",
    "contractName": "Frabric",
    "sourceName": "contracts/frabric/Frabric.sol",
    "abi": [
        {
            "inputs": [],
            "stateMutability": "nonpayable",
            "type": "constructor"
        },
        {
            "inputs": [
                {
                    "internalType": "uint256",
                    "name": "id",
                    "type": "uint256"
                },
                {
                    "internalType": "uint256",
                    "name": "time",
                    "type": "uint256"
                },
                {
                    "internalType": "uint256",
                    "name": "endTime",
                    "type": "uint256"
                }
            ],
            "name": "ActiveProposal",
            "type": "error"
        },
        {
            "inputs": [
                {
                    "internalType": "bytes32",
                    "name": "oldName",
                    "type": "bytes32"
                },
                {
                    "internalType": "bytes32",
                    "name": "newName",
                    "type": "bytes32"
                }
            ],
            "name": "DifferentContract",
            "type": "error"
        },
        {
            "inputs": [
                {
                    "internalType": "uint256",
                    "name": "lengthA",
                    "type": "uint256"
                },
                {
                    "internalType": "uint256",
                    "name": "lengthB",
                    "type": "uint256"
                }
            ],
            "name": "DifferentLengths",
            "type": "error"
        },
        {
            "inputs": [
                {
                    "internalType": "address",
                    "name": "called",
                    "type": "address"
                },
                {
                    "internalType": "bytes4",
                    "name": "selector",
                    "type": "bytes4"
                },
                {
                    "internalType": "bytes",
                    "name": "error",
                    "type": "bytes"
                }
            ],
            "name": "ExternalCallFailed",
            "type": "error"
        },
        {
            "inputs": [
                {
                    "internalType": "uint256",
                    "name": "id",
                    "type": "uint256"
                }
            ],
            "name": "InactiveProposal",
            "type": "error"
        },
        {
            "inputs": [
                {
                    "internalType": "address",
                    "name": "signer",
                    "type": "address"
                },
                {
                    "internalType": "enum IFrabric.ParticipantType",
                    "name": "status",
                    "type": "uint8"
                }
            ],
            "name": "InvalidKYCSignature",
            "type": "error"
        },
        {
            "inputs": [
                {
                    "internalType": "string",
                    "name": "name",
                    "type": "string"
                },
                {
                    "internalType": "string",
                    "name": "symbol",
                    "type": "string"
                }
            ],
            "name": "InvalidName",
            "type": "error"
        },
        {
            "inputs": [
                {
                    "internalType": "enum IFrabric.ParticipantType",
                    "name": "pType",
                    "type": "uint8"
                }
            ],
            "name": "InvalidParticipantType",
            "type": "error"
        },
        {
            "inputs": [
                {
                    "internalType": "uint8",
                    "name": "fee",
                    "type": "uint8"
                },
                {
                    "internalType": "uint8",
                    "name": "max",
                    "type": "uint8"
                }
            ],
            "name": "InvalidRemovalFee",
            "type": "error"
        },
        {
            "inputs": [
                {
                    "internalType": "uint256",
                    "name": "version",
                    "type": "uint256"
                },
                {
                    "internalType": "uint256",
                    "name": "expectedVersion",
                    "type": "uint256"
                }
            ],
            "name": "InvalidVersion",
            "type": "error"
        },
        {
            "inputs": [
                {
                    "internalType": "address",
                    "name": "participant",
                    "type": "address"
                }
            ],
            "name": "Irremovable",
            "type": "error"
        },
        {
            "inputs": [
                {
                    "internalType": "address",
                    "name": "specified",
                    "type": "address"
                },
                {
                    "internalType": "address",
                    "name": "token",
                    "type": "address"
                }
            ],
            "name": "MintingDifferentToken",
            "type": "error"
        },
        {
            "inputs": [
                {
                    "internalType": "address",
                    "name": "governor",
                    "type": "address"
                },
                {
                    "internalType": "enum IFrabricCore.GovernorStatus",
                    "name": "status",
                    "type": "uint8"
                }
            ],
            "name": "NotActiveGovernor",
            "type": "error"
        },
        {
            "inputs": [
                {
                    "internalType": "address",
                    "name": "caller",
                    "type": "address"
                },
                {
                    "internalType": "address",
                    "name": "beacon",
                    "type": "address"
                }
            ],
            "name": "NotBeacon",
            "type": "error"
        },
        {
            "inputs": [
                {
                    "internalType": "uint256",
                    "name": "id",
                    "type": "uint256"
                },
                {
                    "internalType": "uint256",
                    "name": "totalVotes",
                    "type": "uint256"
                },
                {
                    "internalType": "uint256",
                    "name": "required",
                    "type": "uint256"
                }
            ],
            "name": "NotEnoughParticipation",
            "type": "error"
        },
        {
            "inputs": [
                {
                    "internalType": "address",
                    "name": "person",
                    "type": "address"
                }
            ],
            "name": "NotKYC",
            "type": "error"
        },
        {
            "inputs": [
                {
                    "internalType": "address",
                    "name": "caller",
                    "type": "address"
                },
                {
                    "internalType": "address",
                    "name": "trader",
                    "type": "address"
                }
            ],
            "name": "NotOrderTrader",
            "type": "error"
        },
        {
            "inputs": [
                {
                    "internalType": "uint256",
                    "name": "id",
                    "type": "uint256"
                },
                {
                    "internalType": "enum IDAOCore.ProposalState",
                    "name": "state",
                    "type": "uint8"
                }
            ],
            "name": "NotQueued",
            "type": "error"
        },
        {
            "inputs": [
                {
                    "internalType": "uint256",
                    "name": "amount",
                    "type": "uint256"
                }
            ],
            "name": "NotRoundAmount",
            "type": "error"
        },
        {
            "inputs": [
                {
                    "internalType": "uint256",
                    "name": "version",
                    "type": "uint256"
                },
                {
                    "internalType": "uint256",
                    "name": "versionRequired",
                    "type": "uint256"
                }
            ],
            "name": "NotUpgraded",
            "type": "error"
        },
        {
            "inputs": [
                {
                    "internalType": "address",
                    "name": "person",
                    "type": "address"
                }
            ],
            "name": "NotWhitelisted",
            "type": "error"
        },
        {
            "inputs": [
                {
                    "internalType": "uint256",
                    "name": "id",
                    "type": "uint256"
                },
                {
                    "internalType": "address",
                    "name": "voter",
                    "type": "address"
                }
            ],
            "name": "NotYesVote",
            "type": "error"
        },
        {
            "inputs": [
                {
                    "internalType": "address",
                    "name": "voucher",
                    "type": "address"
                }
            ],
            "name": "OutOfVouchers",
            "type": "error"
        },
        {
            "inputs": [
                {
                    "internalType": "address",
                    "name": "participant",
                    "type": "address"
                }
            ],
            "name": "ParticipantAlreadyApproved",
            "type": "error"
        },
        {
            "inputs": [
                {
                    "internalType": "uint256",
                    "name": "id",
                    "type": "uint256"
                },
                {
                    "internalType": "int256",
                    "name": "votes",
                    "type": "int256"
                }
            ],
            "name": "ProposalFailed",
            "type": "error"
        },
        {
            "inputs": [
                {
                    "internalType": "uint256",
                    "name": "id",
                    "type": "uint256"
                },
                {
                    "internalType": "int256",
                    "name": "votes",
                    "type": "int256"
                }
            ],
            "name": "ProposalPassed",
            "type": "error"
        },
        {
            "inputs": [
                {
                    "internalType": "uint256",
                    "name": "id",
                    "type": "uint256"
                },
                {
                    "internalType": "uint256",
                    "name": "time",
                    "type": "uint256"
                },
                {
                    "internalType": "uint256",
                    "name": "queuedUntil",
                    "type": "uint256"
                }
            ],
            "name": "StillQueued",
            "type": "error"
        },
        {
            "inputs": [
                {
                    "internalType": "address",
                    "name": "target",
                    "type": "address"
                },
                {
                    "internalType": "address",
                    "name": "expected",
                    "type": "address"
                }
            ],
            "name": "TargetMalleability",
            "type": "error"
        },
        {
            "inputs": [
                {
                    "internalType": "address",
                    "name": "caller",
                    "type": "address"
                },
                {
                    "internalType": "address",
                    "name": "user",
                    "type": "address"
                }
            ],
            "name": "Unauthorized",
            "type": "error"
        },
        {
            "inputs": [
                {
                    "internalType": "string",
                    "name": "label",
                    "type": "string"
                },
                {
                    "internalType": "uint256",
                    "name": "enumValue",
                    "type": "uint256"
                }
            ],
            "name": "UnhandledEnumCase",
            "type": "error"
        },
        {
            "inputs": [
                {
                    "internalType": "address",
                    "name": "voter",
                    "type": "address"
                }
            ],
            "name": "UnsortedVoter",
            "type": "error"
        },
        {
            "inputs": [
                {
                    "internalType": "address",
                    "name": "contractAddress",
                    "type": "address"
                },
                {
                    "internalType": "bytes4",
                    "name": "interfaceID",
                    "type": "bytes4"
                }
            ],
            "name": "UnsupportedInterface",
            "type": "error"
        },
        {
            "inputs": [],
            "name": "ZeroAmount",
            "type": "error"
        },
        {
            "anonymous": false,
            "inputs": [
                {
                    "indexed": true,
                    "internalType": "uint256",
                    "name": "id",
                    "type": "uint256"
                },
                {
                    "indexed": true,
                    "internalType": "address",
                    "name": "participant",
                    "type": "address"
                },
                {
                    "indexed": true,
                    "internalType": "bool",
                    "name": "slash",
                    "type": "bool"
                },
                {
                    "indexed": false,
                    "internalType": "uint256",
                    "name": "amount",
                    "type": "uint256"
                }
            ],
            "name": "BondRemovalProposal",
            "type": "event"
        },
        {
            "anonymous": false,
            "inputs": [
                {
                    "indexed": true,
                    "internalType": "enum IFrabric.ParticipantType",
                    "name": "participantType",
                    "type": "uint8"
                },
                {
                    "indexed": true,
                    "internalType": "address",
                    "name": "participant",
                    "type": "address"
                }
            ],
            "name": "ParticipantChange",
            "type": "event"
        },
        {
            "anonymous": false,
            "inputs": [
                {
                    "indexed": true,
                    "internalType": "uint256",
                    "name": "id",
                    "type": "uint256"
                },
                {
                    "indexed": true,
                    "internalType": "enum IFrabric.ParticipantType",
                    "name": "participantType",
                    "type": "uint8"
                },
                {
                    "indexed": true,
                    "internalType": "address",
                    "name": "proposer",
                    "type": "address"
                },
                {
                    "indexed": false,
                    "internalType": "address",
                    "name": "participant",
                    "type": "address"
                }
            ],
            "name": "ParticipantProposal",
            "type": "event"
        },
        {
            "anonymous": false,
            "inputs": [
                {
                    "indexed": true,
                    "internalType": "uint256",
                    "name": "id",
                    "type": "uint256"
                },
                {
                    "indexed": false,
                    "internalType": "address",
                    "name": "participant",
                    "type": "address"
                },
                {
                    "indexed": false,
                    "internalType": "uint8",
                    "name": "fee",
                    "type": "uint8"
                }
            ],
            "name": "ParticipantRemovalProposal",
            "type": "event"
        },
        {
            "anonymous": false,
            "inputs": [
                {
                    "indexed": true,
                    "internalType": "uint256",
                    "name": "id",
                    "type": "uint256"
                },
                {
                    "indexed": true,
                    "internalType": "uint256",
                    "name": "proposalType",
                    "type": "uint256"
                },
                {
                    "indexed": true,
                    "internalType": "address",
                    "name": "creator",
                    "type": "address"
                },
                {
                    "indexed": false,
                    "internalType": "bool",
                    "name": "supermajority",
                    "type": "bool"
                },
                {
                    "indexed": false,
                    "internalType": "bytes32",
                    "name": "info",
                    "type": "bytes32"
                }
            ],
            "name": "Proposal",
            "type": "event"
        },
        {
            "anonymous": false,
            "inputs": [
                {
                    "indexed": true,
                    "internalType": "uint256",
                    "name": "id",
                    "type": "uint256"
                },
                {
                    "indexed": true,
                    "internalType": "enum IDAOCore.ProposalState",
                    "name": "state",
                    "type": "uint8"
                }
            ],
            "name": "ProposalStateChange",
            "type": "event"
        },
        {
            "anonymous": false,
            "inputs": [
                {
                    "indexed": true,
                    "internalType": "uint256",
                    "name": "id",
                    "type": "uint256"
                },
                {
                    "indexed": true,
                    "internalType": "uint256",
                    "name": "variant",
                    "type": "uint256"
                },
                {
                    "indexed": true,
                    "internalType": "address",
                    "name": "governor",
                    "type": "address"
                },
                {
                    "indexed": false,
                    "internalType": "string",
                    "name": "name",
                    "type": "string"
                },
                {
                    "indexed": false,
                    "internalType": "string",
                    "name": "symbol",
                    "type": "string"
                },
                {
                    "indexed": false,
                    "internalType": "bytes32",
                    "name": "descriptor",
                    "type": "bytes32"
                },
                {
                    "indexed": false,
                    "internalType": "bytes",
                    "name": "data",
                    "type": "bytes"
                }
            ],
            "name": "ThreadProposal",
            "type": "event"
        },
        {
            "anonymous": false,
            "inputs": [
                {
                    "indexed": true,
                    "internalType": "uint256",
                    "name": "id",
                    "type": "uint256"
                },
                {
                    "indexed": true,
                    "internalType": "address",
                    "name": "thread",
                    "type": "address"
                },
                {
                    "indexed": true,
                    "internalType": "uint256",
                    "name": "proposalType",
                    "type": "uint256"
                },
                {
                    "indexed": false,
                    "internalType": "bytes",
                    "name": "data",
                    "type": "bytes"
                }
            ],
            "name": "ThreadProposalProposal",
            "type": "event"
        },
        {
            "anonymous": false,
            "inputs": [
                {
                    "indexed": true,
                    "internalType": "uint256",
                    "name": "id",
                    "type": "uint256"
                },
                {
                    "indexed": true,
                    "internalType": "address",
                    "name": "token",
                    "type": "address"
                },
                {
                    "indexed": true,
                    "internalType": "address",
                    "name": "target",
                    "type": "address"
                },
                {
                    "indexed": false,
                    "internalType": "bool",
                    "name": "mint",
                    "type": "bool"
                },
                {
                    "indexed": false,
                    "internalType": "uint256",
                    "name": "price",
                    "type": "uint256"
                },
                {
                    "indexed": false,
                    "internalType": "uint256",
                    "name": "amount",
                    "type": "uint256"
                }
            ],
            "name": "TokenActionProposal",
            "type": "event"
        },
        {
            "anonymous": false,
            "inputs": [
                {
                    "indexed": true,
                    "internalType": "uint256",
                    "name": "id",
                    "type": "uint256"
                },
                {
                    "indexed": true,
                    "internalType": "address",
                    "name": "beacon",
                    "type": "address"
                },
                {
                    "indexed": true,
                    "internalType": "address",
                    "name": "instance",
                    "type": "address"
                },
                {
                    "indexed": false,
                    "internalType": "uint256",
                    "name": "version",
                    "type": "uint256"
                },
                {
                    "indexed": false,
                    "internalType": "address",
                    "name": "code",
                    "type": "address"
                },
                {
                    "indexed": false,
                    "internalType": "bytes",
                    "name": "data",
                    "type": "bytes"
                }
            ],
            "name": "UpgradeProposal",
            "type": "event"
        },
        {
            "anonymous": false,
            "inputs": [
                {
                    "indexed": true,
                    "internalType": "uint256",
                    "name": "id",
                    "type": "uint256"
                },
                {
                    "indexed": true,
                    "internalType": "enum IDAO.VoteDirection",
                    "name": "direction",
                    "type": "uint8"
                },
                {
                    "indexed": true,
                    "internalType": "address",
                    "name": "voter",
                    "type": "address"
                },
                {
                    "indexed": false,
                    "internalType": "uint112",
                    "name": "votes",
                    "type": "uint112"
                }
            ],
            "name": "Vote",
            "type": "event"
        },
        {
            "anonymous": false,
            "inputs": [
                {
                    "indexed": true,
                    "internalType": "address",
                    "name": "voucher",
                    "type": "address"
                },
                {
                    "indexed": true,
                    "internalType": "address",
                    "name": "vouchee",
                    "type": "address"
                }
            ],
            "name": "Vouch",
            "type": "event"
        },
        {
            "inputs": [
                {
                    "internalType": "enum IFrabric.ParticipantType",
                    "name": "pType",
                    "type": "uint8"
                },
                {
                    "internalType": "address",
                    "name": "approving",
                    "type": "address"
                },
                {
                    "internalType": "bytes32",
                    "name": "kycHash",
                    "type": "bytes32"
                },
                {
                    "internalType": "bytes",
                    "name": "signature",
                    "type": "bytes"
                }
            ],
            "name": "approve",
            "outputs": [],
            "stateMutability": "nonpayable",
            "type": "function"
        },
        {
            "inputs": [],
            "name": "bond",
            "outputs": [
                {
                    "internalType": "address",
                    "name": "",
                    "type": "address"
                }
            ],
            "stateMutability": "view",
            "type": "function"
        },
        {
            "inputs": [
                {
                    "internalType": "address",
                    "name": "proposer",
                    "type": "address"
                }
            ],
            "name": "canPropose",
            "outputs": [
                {
                    "internalType": "bool",
                    "name": "",
                    "type": "bool"
                }
            ],
            "stateMutability": "view",
            "type": "function"
        },
        {
            "inputs": [
                {
                    "internalType": "uint256",
                    "name": "id",
                    "type": "uint256"
                },
                {
                    "internalType": "address[]",
                    "name": "voters",
                    "type": "address[]"
                }
            ],
            "name": "cancelProposal",
            "outputs": [],
            "stateMutability": "nonpayable",
            "type": "function"
        },
        {
            "inputs": [],
            "name": "commonProposalBit",
            "outputs": [
                {
                    "internalType": "uint16",
                    "name": "",
                    "type": "uint16"
                }
            ],
            "stateMutability": "view",
            "type": "function"
        },
        {
            "inputs": [
                {
                    "internalType": "uint256",
                    "name": "id",
                    "type": "uint256"
                },
                {
                    "internalType": "bytes",
                    "name": "data",
                    "type": "bytes"
                }
            ],
            "name": "completeProposal",
            "outputs": [],
            "stateMutability": "nonpayable",
            "type": "function"
        },
        {
            "inputs": [],
            "name": "contractName",
            "outputs": [
                {
                    "internalType": "bytes32",
                    "name": "",
                    "type": "bytes32"
                }
            ],
            "stateMutability": "view",
            "type": "function"
        },
        {
            "inputs": [],
            "name": "erc20",
            "outputs": [
                {
                    "internalType": "address",
                    "name": "",
                    "type": "address"
                }
            ],
            "stateMutability": "view",
            "type": "function"
        },
        {
            "inputs": [
                {
                    "internalType": "address",
                    "name": "",
                    "type": "address"
                }
            ],
            "name": "governor",
            "outputs": [
                {
                    "internalType": "enum IFrabricCore.GovernorStatus",
                    "name": "",
                    "type": "uint8"
                }
            ],
            "stateMutability": "view",
            "type": "function"
        },
        {
            "inputs": [],
            "name": "lapsePeriod",
            "outputs": [
                {
                    "internalType": "uint64",
                    "name": "",
                    "type": "uint64"
                }
            ],
            "stateMutability": "view",
            "type": "function"
        },
        {
            "inputs": [],
            "name": "maxRemovalFee",
            "outputs": [
                {
                    "internalType": "uint8",
                    "name": "",
                    "type": "uint8"
                }
            ],
            "stateMutability": "view",
            "type": "function"
        },
        {
            "inputs": [
                {
                    "internalType": "uint256",
                    "name": "id",
                    "type": "uint256"
                }
            ],
            "name": "netVotes",
            "outputs": [
                {
                    "internalType": "int112",
                    "name": "",
                    "type": "int112"
                }
            ],
            "stateMutability": "view",
            "type": "function"
        },
        {
            "inputs": [],
            "name": "nextProposalID",
            "outputs": [
                {
                    "internalType": "uint256",
                    "name": "",
                    "type": "uint256"
                }
            ],
            "stateMutability": "view",
            "type": "function"
        },
        {
            "inputs": [
                {
                    "internalType": "address",
                    "name": "",
                    "type": "address"
                }
            ],
            "name": "participant",
            "outputs": [
                {
                    "internalType": "enum IFrabric.ParticipantType",
                    "name": "",
                    "type": "uint8"
                }
            ],
            "stateMutability": "view",
            "type": "function"
        },
        {
            "inputs": [
                {
                    "internalType": "uint256",
                    "name": "",
                    "type": "uint256"
                }
            ],
            "name": "passed",
            "outputs": [
                {
                    "internalType": "bool",
                    "name": "",
                    "type": "bool"
                }
            ],
            "stateMutability": "view",
            "type": "function"
        },
        {
            "inputs": [
                {
                    "internalType": "uint256",
                    "name": "id",
                    "type": "uint256"
                }
            ],
            "name": "proposalActive",
            "outputs": [
                {
                    "internalType": "bool",
                    "name": "",
                    "type": "bool"
                }
            ],
            "stateMutability": "view",
            "type": "function"
        },
        {
            "inputs": [
                {
                    "internalType": "address",
                    "name": "_governor",
                    "type": "address"
                },
                {
                    "internalType": "bool",
                    "name": "slash",
                    "type": "bool"
                },
                {
                    "internalType": "uint256",
                    "name": "amount",
                    "type": "uint256"
                },
                {
                    "internalType": "bytes32",
                    "name": "info",
                    "type": "bytes32"
                }
            ],
            "name": "proposeBondRemoval",
            "outputs": [
                {
                    "internalType": "uint256",
                    "name": "id",
                    "type": "uint256"
                }
            ],
            "stateMutability": "nonpayable",
            "type": "function"
        },
        {
            "inputs": [
                {
                    "internalType": "bool",
                    "name": "supermajority",
                    "type": "bool"
                },
                {
                    "internalType": "bytes32",
                    "name": "info",
                    "type": "bytes32"
                }
            ],
            "name": "proposePaper",
            "outputs": [
                {
                    "internalType": "uint256",
                    "name": "",
                    "type": "uint256"
                }
            ],
            "stateMutability": "nonpayable",
            "type": "function"
        },
        {
            "inputs": [
                {
                    "internalType": "enum IFrabric.ParticipantType",
                    "name": "participantType",
                    "type": "uint8"
                },
                {
                    "internalType": "address",
                    "name": "_participant",
                    "type": "address"
                },
                {
                    "internalType": "bytes32",
                    "name": "info",
                    "type": "bytes32"
                }
            ],
            "name": "proposeParticipant",
            "outputs": [
                {
                    "internalType": "uint256",
                    "name": "id",
                    "type": "uint256"
                }
            ],
            "stateMutability": "nonpayable",
            "type": "function"
        },
        {
            "inputs": [
                {
                    "internalType": "address",
                    "name": "participant",
                    "type": "address"
                },
                {
                    "internalType": "uint8",
                    "name": "removalFee",
                    "type": "uint8"
                },
                {
                    "internalType": "bytes[]",
                    "name": "signatures",
                    "type": "bytes[]"
                },
                {
                    "internalType": "bytes32",
                    "name": "info",
                    "type": "bytes32"
                }
            ],
            "name": "proposeParticipantRemoval",
            "outputs": [
                {
                    "internalType": "uint256",
                    "name": "id",
                    "type": "uint256"
                }
            ],
            "stateMutability": "nonpayable",
            "type": "function"
        },
        {
            "inputs": [
                {
                    "internalType": "uint8",
                    "name": "variant",
                    "type": "uint8"
                },
                {
                    "internalType": "string",
                    "name": "name",
                    "type": "string"
                },
                {
                    "internalType": "string",
                    "name": "symbol",
                    "type": "string"
                },
                {
                    "internalType": "bytes32",
                    "name": "descriptor",
                    "type": "bytes32"
                },
                {
                    "internalType": "bytes",
                    "name": "data",
                    "type": "bytes"
                },
                {
                    "internalType": "bytes32",
                    "name": "info",
                    "type": "bytes32"
                }
            ],
            "name": "proposeThread",
            "outputs": [
                {
                    "internalType": "uint256",
                    "name": "id",
                    "type": "uint256"
                }
            ],
            "stateMutability": "nonpayable",
            "type": "function"
        },
        {
            "inputs": [
                {
                    "internalType": "address",
                    "name": "thread",
                    "type": "address"
                },
                {
                    "internalType": "uint16",
                    "name": "_proposalType",
                    "type": "uint16"
                },
                {
                    "internalType": "bytes",
                    "name": "data",
                    "type": "bytes"
                },
                {
                    "internalType": "bytes32",
                    "name": "info",
                    "type": "bytes32"
                }
            ],
            "name": "proposeThreadProposal",
            "outputs": [
                {
                    "internalType": "uint256",
                    "name": "id",
                    "type": "uint256"
                }
            ],
            "stateMutability": "nonpayable",
            "type": "function"
        },
        {
            "inputs": [
                {
                    "internalType": "address",
                    "name": "token",
                    "type": "address"
                },
                {
                    "internalType": "address",
                    "name": "target",
                    "type": "address"
                },
                {
                    "internalType": "bool",
                    "name": "mint",
                    "type": "bool"
                },
                {
                    "internalType": "uint256",
                    "name": "price",
                    "type": "uint256"
                },
                {
                    "internalType": "uint256",
                    "name": "amount",
                    "type": "uint256"
                },
                {
                    "internalType": "bytes32",
                    "name": "info",
                    "type": "bytes32"
                }
            ],
            "name": "proposeTokenAction",
            "outputs": [
                {
                    "internalType": "uint256",
                    "name": "id",
                    "type": "uint256"
                }
            ],
            "stateMutability": "nonpayable",
            "type": "function"
        },
        {
            "inputs": [
                {
                    "internalType": "address",
                    "name": "beacon",
                    "type": "address"
                },
                {
                    "internalType": "address",
                    "name": "instance",
                    "type": "address"
                },
                {
                    "internalType": "uint256",
                    "name": "version",
                    "type": "uint256"
                },
                {
                    "internalType": "address",
                    "name": "code",
                    "type": "address"
                },
                {
                    "internalType": "bytes",
                    "name": "data",
                    "type": "bytes"
                },
                {
                    "internalType": "bytes32",
                    "name": "info",
                    "type": "bytes32"
                }
            ],
            "name": "proposeUpgrade",
            "outputs": [
                {
                    "internalType": "uint256",
                    "name": "id",
                    "type": "uint256"
                }
            ],
            "stateMutability": "nonpayable",
            "type": "function"
        },
        {
            "inputs": [],
            "name": "queuePeriod",
            "outputs": [
                {
                    "internalType": "uint64",
                    "name": "",
                    "type": "uint64"
                }
            ],
            "stateMutability": "view",
            "type": "function"
        },
        {
            "inputs": [
                {
                    "internalType": "uint256",
                    "name": "id",
                    "type": "uint256"
                }
            ],
            "name": "queueProposal",
            "outputs": [],
            "stateMutability": "nonpayable",
            "type": "function"
        },
        {
            "inputs": [],
            "name": "requiredParticipation",
            "outputs": [
                {
                    "internalType": "uint112",
                    "name": "",
                    "type": "uint112"
                }
            ],
            "stateMutability": "view",
            "type": "function"
        },
        {
            "inputs": [
                {
                    "internalType": "uint256",
                    "name": "id",
                    "type": "uint256"
                }
            ],
            "name": "supermajorityRequired",
            "outputs": [
                {
                    "internalType": "bool",
                    "name": "",
                    "type": "bool"
                }
            ],
            "stateMutability": "view",
            "type": "function"
        },
        {
            "inputs": [
                {
                    "internalType": "bytes4",
                    "name": "",
                    "type": "bytes4"
                }
            ],
            "name": "supportsInterface",
            "outputs": [
                {
                    "internalType": "bool",
                    "name": "",
                    "type": "bool"
                }
            ],
            "stateMutability": "view",
            "type": "function"
        },
        {
            "inputs": [],
            "name": "threadDeployer",
            "outputs": [
                {
                    "internalType": "address",
                    "name": "",
                    "type": "address"
                }
            ],
            "stateMutability": "view",
            "type": "function"
        },
        {
            "inputs": [
                {
                    "internalType": "uint256",
                    "name": "id",
                    "type": "uint256"
                }
            ],
            "name": "totalVotes",
            "outputs": [
                {
                    "internalType": "uint112",
                    "name": "",
                    "type": "uint112"
                }
            ],
            "stateMutability": "view",
            "type": "function"
        },
        {
            "inputs": [
                {
                    "internalType": "uint256",
                    "name": "_version",
                    "type": "uint256"
                },
                {
                    "internalType": "bytes",
                    "name": "data",
                    "type": "bytes"
                }
            ],
            "name": "upgrade",
            "outputs": [],
            "stateMutability": "nonpayable",
            "type": "function"
        },
        {
            "inputs": [
                {
                    "internalType": "uint256",
                    "name": "_version",
                    "type": "uint256"
                },
                {
                    "internalType": "bytes",
                    "name": "data",
                    "type": "bytes"
                }
            ],
            "name": "validateUpgrade",
            "outputs": [],
            "stateMutability": "view",
            "type": "function"
        },
        {
            "inputs": [],
            "name": "version",
            "outputs": [
                {
                    "internalType": "uint256",
                    "name": "",
                    "type": "uint256"
                }
            ],
            "stateMutability": "view",
            "type": "function"
        },
        {
            "inputs": [
                {
                    "internalType": "uint256[]",
                    "name": "ids",
                    "type": "uint256[]"
                },
                {
                    "internalType": "int112[]",
                    "name": "votes",
                    "type": "int112[]"
                }
            ],
            "name": "vote",
            "outputs": [],
            "stateMutability": "nonpayable",
            "type": "function"
        },
        {
            "inputs": [
                {
                    "internalType": "uint256",
                    "name": "id",
                    "type": "uint256"
                }
            ],
            "name": "voteBlock",
            "outputs": [
                {
                    "internalType": "uint32",
                    "name": "",
                    "type": "uint32"
                }
            ],
            "stateMutability": "view",
            "type": "function"
        },
        {
            "inputs": [
                {
                    "internalType": "uint256",
                    "name": "id",
                    "type": "uint256"
                },
                {
                    "internalType": "address",
                    "name": "voter",
                    "type": "address"
                }
            ],
            "name": "voteRecord",
            "outputs": [
                {
                    "internalType": "int112",
                    "name": "",
                    "type": "int112"
                }
            ],
            "stateMutability": "view",
            "type": "function"
        },
        {
            "inputs": [],
            "name": "votingPeriod",
            "outputs": [
                {
                    "internalType": "uint64",
                    "name": "",
                    "type": "uint64"
                }
            ],
            "stateMutability": "view",
            "type": "function"
        },
        {
            "inputs": [
                {
                    "internalType": "address",
                    "name": "_participant",
                    "type": "address"
                },
                {
                    "internalType": "bytes",
                    "name": "signature",
                    "type": "bytes"
                }
            ],
            "name": "vouch",
            "outputs": [],
            "stateMutability": "nonpayable",
            "type": "function"
        },
        {
            "inputs": [
                {
                    "internalType": "address",
                    "name": "",
                    "type": "address"
                }
            ],
            "name": "vouchers",
            "outputs": [
                {
                    "internalType": "uint256",
                    "name": "",
                    "type": "uint256"
                }
            ],
            "stateMutability": "view",
            "type": "function"
        },
        {
            "inputs": [
                {
                    "internalType": "uint256",
                    "name": "id",
                    "type": "uint256"
                }
            ],
            "name": "withdrawProposal",
            "outputs": [],
            "stateMutability": "nonpayable",
            "type": "function"
        }
    ],
    "bytecode": "0x60806040523480156200001157600080fd5b506040518060400160405280600781526020017f46726162726963000000000000000000000000000000000000000000000000008152506200007c7f429f4fc6627f4b212e6bb302d6e1dfdd162e88e432e7d0f4352d899b10ed788160001b620004f460201b60201c565b620000b07f1b76531a35ada0f20d891fabdfdced7eced244fe2de48a17cfdbdd8a4652d76860001b620004f460201b60201c565b620000e47f98031960e71392f0b9a462a4dc1e58241454799a5b99525e6751719d3c3c20a160001b620004f460201b60201c565b8080519060200120603581905550620001267f0e13568eec8ba9e250949dd9a951306adffe21445b2c14bc3ca2d96c8fd9645560001b620004f460201b60201c565b6200015a7f5629300d7b585e593274be0350eb037dbd676c32174ffb7554215badd1972f2960001b620004f460201b60201c565b6001603760007f01ffc9a7000000000000000000000000000000000000000000000000000000007bffffffffffffffffffffffffffffffffffffffffffffffffffffffff19167bffffffffffffffffffffffffffffffffffffffffffffffffffffffff1916815260200190815260200160002060006101000a81548160ff021916908315150217905550620002187fcfdb7411116e30f6772b20a9641ae6d02eca938a5d719153a44d7f07bedd0b9460001b620004f460201b60201c565b6200024c7fcd6917de2286f1c04ce9e759d47b573f2b32167dc4e49f58cf99388379d91ffe60001b620004f460201b60201c565b6001603760007f212d8d8c000000000000000000000000000000000000000000000000000000007bffffffffffffffffffffffffffffffffffffffffffffffffffffffff19167bffffffffffffffffffffffffffffffffffffffffffffffffffffffff1916815260200190815260200160002060006101000a81548160ff02191690831515021790555050600060019054906101000a900460ff16620003015760008054906101000a900460ff161562000312565b62000311620004f760201b60201c565b5b62000354576040517f08c379a00000000000000000000000000000000000000000000000000000000081526004016200034b90620005c2565b60405180910390fd5b60008060019054906101000a900460ff161590508015620003a5576001600060016101000a81548160ff02191690831515021790555060016000806101000a81548160ff0219169083151502179055505b620003d97f9bd59174ac7c97f619acd707633bff7958cdf983ae492e2c2f1b4546feedd6cd60001b6200051560201b60201c565b6200040d7fa333a1a24447b80faee30ef80a176858fe896a8c99e9b6840782933ae501223a60001b6200051560201b60201c565b620004417fc7a7e6946ac9ee0720bbc14f00ad54010bb5281852ea2bbd132cda2dc15d7a5860001b6200051560201b60201c565b6001603760007f4c8e80f0000000000000000000000000000000000000000000000000000000007bffffffffffffffffffffffffffffffffffffffffffffffffffffffff19167bffffffffffffffffffffffffffffffffffffffffffffffffffffffff1916815260200190815260200160002060006101000a81548160ff0219169083151502179055508015620004ed5760008060016101000a81548160ff0219169083151502179055505b50620005e4565b50565b60006200050f306200051860201b6200b9121760201c565b15905090565b50565b6000808273ffffffffffffffffffffffffffffffffffffffff163b119050919050565b600082825260208201905092915050565b7f496e697469616c697a61626c653a20636f6e747261637420697320616c72656160008201527f647920696e697469616c697a6564000000000000000000000000000000000000602082015250565b6000620005aa602e836200053b565b9150620005b7826200054c565b604082019050919050565b60006020820190508181036000830152620005dd816200059b565b9050919050565b62014f0a80620005f56000396000f3fe60806040523480156200001157600080fd5b5060043610620002565760003560e01c80636b83cd681162000153578063a42e9fb011620000d5578063e9f4741a1162000093578063e9f4741a1462000847578063ed29ce98146200087d578063ef46d90b14620008b3578063f2d8323c14620008e9578063fee62bc31462000909578063ff383e1b146200092b5762000256565b8063a42e9fb0146200077b578063b4c863dd14620007b1578063bf84bf5b14620007d1578063d8965f551462000807578063e1f02ffa14620008275762000256565b80636b83cd6814620005ef57806370ec42e8146200061157806375d0c0dc146200064757806377173c1e1462000669578063785e9e8614620006895780638788cc5314620006ab5780638b5d4b2c14620006e15780638eb98e3714620007035780638fff0fed146200072557806394a14a34146200075b5762000256565b806342b4632e11620001dd57806342b4632e146200044d578063450b9743146200048357806354fd4d5014620004b957806357e0ac9014620004db5780635be59cc014620004fb5780635e51bd05146200053157806364691e5e146200055357806364c9ec6f1462000575578063662457c6146200059757806367b48e9814620005b95762000256565b80630117c909146200025b57806301ffc9a7146200029157806302a251a314620002c75780630a0155e514620002e957806319e6e158146200031f5780632605b3c714620003555780632e98bda5146200038b57806335743ac914620003c15780633771674514620003f75780633b99bcee146200042d575b600080fd5b62000279600480360381019062000273919062011cc2565b6200094b565b60405162000288919062011d27565b60405180910390f35b620002af6004803603810190620002a9919062011da1565b62000a40565b604051620002be919062011df0565b60405180910390f35b620002d162000a60565b604051620002e0919062011e32565b60405180910390f35b62000307600480360381019062000301919062011e4f565b62000a7a565b60405162000316919062011df0565b60405180910390f35b6200033d600480360381019062000337919062011e4f565b62000a9a565b6040516200034c919062011eac565b60405180910390f35b6200037360048036038101906200036d919062011ec9565b62000b5e565b60405162000382919062011f7b565b60405180910390f35b620003a96004803603810190620003a3919062012080565b62000b7f565b604051620003b8919062012127565b60405180910390f35b620003df6004803603810190620003d9919062011e4f565b62001746565b604051620003ee919062011df0565b60405180910390f35b6200041560048036038101906200040f919062011e4f565b620017f6565b60405162000424919062012165565b60405180910390f35b6200044b600480360381019062000445919062012182565b620018b0565b005b6200046b600480360381019062000465919062011ec9565b62002767565b6040516200047a919062011df0565b60405180910390f35b620004a160048036038101906200049b919062011ec9565b6200287c565b604051620004b0919062012127565b60405180910390f35b620004c362002895565b604051620004d2919062012127565b60405180910390f35b620004f96004803603810190620004f3919062012214565b6200289b565b005b620005196004803603810190620005139190620122db565b620035c7565b60405162000528919062012127565b60405180910390f35b6200053b62003682565b6040516200054a919062012340565b60405180910390f35b6200055d62003696565b6040516200056c91906201236e565b60405180910390f35b6200057f620036bd565b6040516200058e91906201236e565b60405180910390f35b620005a1620036e4565b604051620005b0919062012127565b60405180910390f35b620005d76004803603810190620005d191906201238b565b62003778565b604051620005e6919062012127565b60405180910390f35b620005f962003bee565b60405162000608919062011eac565b60405180910390f35b6200062f600480360381019062000629919062011ec9565b62003dee565b6040516200063e91906201244e565b60405180910390f35b6200065162003e0f565b6040516200066091906201247c565b60405180910390f35b62000687600480360381019062000681919062012182565b62003e15565b005b620006936200431e565b604051620006a291906201236e565b60405180910390f35b620006c96004803603810190620006c3919062011e4f565b62004344565b604051620006d8919062011d27565b60405180910390f35b620006eb620043fb565b604051620006fa919062011e32565b60405180910390f35b6200070d62004415565b6040516200071c9190620124aa565b60405180910390f35b6200074360048036038101906200073d9190620124c7565b6200441b565b60405162000752919062012127565b60405180910390f35b62000779600480360381019062000773919062011e4f565b62005135565b005b62000799600480360381019062000793919062012563565b62005b97565b604051620007a8919062012127565b60405180910390f35b620007cf6004803603810190620007c9919062012182565b6200622f565b005b620007ef6004803603810190620007e991906201264f565b62006c5c565b604051620007fe919062012127565b60405180910390f35b6200082560048036038101906200081f9190620127b5565b6200769f565b005b6200084560048036038101906200083f919062011e4f565b620087db565b005b6200086560048036038101906200085f91906201281f565b62008d92565b60405162000874919062012127565b60405180910390f35b6200089b60048036038101906200089591906201293f565b62009760565b604051620008aa919062012127565b60405180910390f35b620008d16004803603810190620008cb919062011e4f565b6200a4d5565b604051620008e0919062011df0565b60405180910390f35b620009076004803603810190620009019190620129d5565b6200a58c565b005b620009136200ada6565b60405162000922919062011e32565b60405180910390f35b62000949600480360381019062000943919062012cb1565b6200adc0565b005b60006200097b7fe631487d3bae1591fd30f3bd363abed4f97f21c446237f07f59cc54e4a6eec9360001b6200b935565b620009a97f9e6b7fcd6808770566635423770bd60ed0a1165a80bd2f0a8e762c2468b91e5360001b6200b935565b620009d77fe82b4ddfee82001b09ca6d98967bb1235a8e33df742a8f36a300b578950c062d60001b6200b935565b609f600084815260200190815260200160002060010160008373ffffffffffffffffffffffffffffffffffffffff1673ffffffffffffffffffffffffffffffffffffffff16815260200190815260200160002060009054906101000a9004600d0b905092915050565b60376020528060005260406000206000915054906101000a900460ff1681565b609c60149054906101000a900467ffffffffffffffff1681565b60a06020528060005260406000206000915054906101000a900460ff1681565b600062000aca7fb793603dd9f75032450cbf6d21def7067300391648f51ba527e0e3a2688ad7a660001b6200b935565b62000af87fc7107053c0c739dcf2c391137901ddd08723183e31ec5aaa92a4ff40b738efdc60001b6200b935565b62000b267f30103ed6b1596c2fc183a589b2673f532c1589f89aa21a88ce93ed1ac2056e9160001b6200b935565b609f6000838152602001908152602001600020600201600e9054906101000a90046dffffffffffffffffffffffffffff169050919050565b61016d6020528060005260406000206000915054906101000a900460ff1681565b600062000baf7fc4c403ee2f5f1d2b23ecfd1f678bf0a3ab04d72351914358c7e864502e0e0f9e60001b6200b938565b62000bdd7f06234d7acd560fffb28045a0aaa66be08be1a832533ef51593b74a44111cbb4d60001b6200b938565b62000c0b7fd98f2879205a106eff1f4b98c912346555ae0eaf33fdbd441ca16a91f7cb94c660001b6200b938565b7fca2c126ed1bacb99ed7c83650fd39b710ba646480c540ada7ff31b61f40befbe8673ffffffffffffffffffffffffffffffffffffffff166375d0c0dc6040518163ffffffff1660e01b8152600401602060405180830381600087803b15801562000c7557600080fd5b505af115801562000c8a573d6000803e3d6000fd5b505050506040513d601f19601f8201168201806040525081019062000cb0919062012d4d565b1462000df65762000ce47fa1eb29a394f28939f7e4e4ae6a9cca5c5c9634fbd0e554a1bffff2579633af2260001b6200b938565b62000d127fbc12bef507ae2920c47d74b2c6c3b0f196209bcb7b686984b85e5af2464091aa60001b6200b938565b8573ffffffffffffffffffffffffffffffffffffffff166375d0c0dc6040518163ffffffff1660e01b8152600401602060405180830381600087803b15801562000d5b57600080fd5b505af115801562000d70573d6000803e3d6000fd5b505050506040513d601f19601f8201168201806040525081019062000d96919062012d4d565b7fca2c126ed1bacb99ed7c83650fd39b710ba646480c540ada7ff31b61f40befbe6040517f4ed7288800000000000000000000000000000000000000000000000000000000815260040162000ded92919062012d7f565b60405180910390fd5b62000e247f316f5ca20b875972918f87c58e537fe495550baebe10aa12a9a4c556afcefdd460001b6200b938565b62000e527fdc8ef00178cec7fe4e437433ec8432177fda48eaf533a81381fd19fc2be8301560001b6200b938565b62000e807f1983477734ed2e56b0b8425bf334334924092417e189d6ad9621d83a33ac660660001b6200b938565b600062000eb07f4b8516a704e4b7af1726ee48e95216d74e973396301019e80ad2430149fd9d7d60001b6200b938565b62000ede7f9ceee9edab4a47775459d6d952dd21c883c94a6277584c12cc84cb0eb9d1be4860001b6200b938565b62000ee9866200b93b565b15620010b85762000f1d7f0478b2bd71ccfa30c555b954623480cb8273292730478fe1a182737d9c66ddc160001b6200b938565b62000f4b7fd95a193ff9b16b6611ba768fcbc819b8df1c627b338dac0d6431e6200be6638c60001b6200b938565b62000f797f9c45878099ad6e411b3b67ece01c503dc20e715057465b6293cd1ff5dfb6cd9860001b6200b938565b62000fc37e2f1a9d000000000000000000000000000000000000000000000000000000008873ffffffffffffffffffffffffffffffffffffffff166200b9de90919063ffffffff16565b620010845762000ff67f7284f41bed923a42e528b9bc9e51b39c88df29c7ed01d87791ba7f8130950f6960001b6200b938565b620010247f32f28cf1a4808f3ba9afd9fd2fa8e8803eecf135e1c1e5f8a367b9465e2e0f4660001b6200b938565b867e2f1a9d000000000000000000000000000000000000000000000000000000006040517f8a05a4c60000000000000000000000000000000000000000000000000000000081526004016200107b92919062012dbd565b60405180910390fd5b620010b27f5eb04c04658299f7e47feccfea29a9985e9a778c83073e03469b0ce6c1ac3b0960001b6200b938565b6200127e565b620010e67fc31fcd5716ca9b8399efe6535a118d24ae66b9016c2c56291de2a72e46ef800960001b6200b938565b620011147f9848f05f2a5ab61e8dd9d5c74795b8be2c7c8cf0d958982ade1186c61b020f6060001b6200b938565b620011427f6f7676415f819d2b92f588e7a587b3d53eb76acb46a5eef91dcffa8b0b76254260001b6200b938565b6200118d7f4b91b37c000000000000000000000000000000000000000000000000000000008873ffffffffffffffffffffffffffffffffffffffff166200b9de90919063ffffffff16565b6200124f57620011c07f2e32277e6ffc10b14b5e263348e8500c221cf1ef01ff475b198d540e72e0524260001b6200b938565b620011ee7ff6b2d57294d0eeb92e175a8600c1f362f4d86b36a926cf0f26fb4e0c950ebc8060001b6200b938565b867f4b91b37c000000000000000000000000000000000000000000000000000000006040517f8a05a4c60000000000000000000000000000000000000000000000000000000081526004016200124692919062012dbd565b60405180910390fd5b6200127d7f182a7dd6306f31578bc6d344fdddca4da0c57adc95a1ab145b666b9d7de2094860001b6200b938565b5b620012ac7fd01b1b91a7307f3949f9f1d442fd09c880d4eeb81bcd26ad200613de621bd0e660001b6200b938565b620012da7f8053f42a5817466539592e2ebabf2d74151ed4677129e8a64cecd24d0d50897160001b6200b938565b61017660008761ffff1661ffff16815260200190815260200160002060009054906101000a900460e01b9050620013347fa8bfbff9f5d7af44d42400348079d7de258d27f3c689eb164fa7fac610905f0760001b6200b938565b620013627f92a7b384a1787aba13e166f71b1f13353c2d144cce6ad5bb68d05b34de611eaf60001b6200b938565b600060e01b7bffffffffffffffffffffffffffffffffffffffffffffffffffffffff1916817bffffffffffffffffffffffffffffffffffffffffffffffffffffffff191614156200144857620013db7f2cbae8de3249a10cf24a565470a918bbb1273928948f2f0cd8a8df4e25fee39460001b6200b938565b620014097f07225a921bf0bf43aa82a0b12beacc54e894c88e07531b15d56af9a62359cf8560001b6200b938565b856040517f83fb3b930000000000000000000000000000000000000000000000000000000081526004016200143f919062012e8e565b60405180910390fd5b620014767f82db9649abbe180fe8602703801a276b515330bf8607c276645d743ffdf8c67760001b6200b938565b620014a47f1136eaf38090058e67ec9eb3f9bde73f303f0897578a9860477ac1d905f2288e60001b6200b938565b620014d27feb013ff0e74edaf6d4d75686a7029799063bdf8509f24b15133692dab16d7a6960001b6200b938565b620014f5600380811115620014ec57620014eb62011efb565b5b6000856200ba08565b9150620015257fb0d32cf2c0eb0052ec34371c2ce27daeae2bb16f8a1b871a51288830ea3b038d60001b6200b938565b620015537f634bcb4c4d60bf94537d061bb3676c43db13ba5126ee2786d126f671fac2334660001b6200b938565b60405180606001604052808873ffffffffffffffffffffffffffffffffffffffff168152602001827bffffffffffffffffffffffffffffffffffffffffffffffffffffffff1916815260200186868080601f016020809104026020016040519081016040528093929190818152602001838380828437600081840152601f19601f82011690508083019250505050505050815250610174600084815260200190815260200160002060008201518160000160006101000a81548173ffffffffffffffffffffffffffffffffffffffff021916908373ffffffffffffffffffffffffffffffffffffffff16021790555060208201518160000160146101000a81548163ffffffff021916908360e01c0217905550604082015181600101908051906020019062001684929190620119b0565b50905050620016b67f346befa9cb3733bb66d677cae7f834beca31029af6303fc43643b3def70c520a60001b6200b938565b620016e47f3cfaa03c782612afffac5fecb7cba31c1432fc4cec2a1bbbb2d82e1ee92a5c4c60001b6200b938565b8561ffff168773ffffffffffffffffffffffffffffffffffffffff16837f255a4efa8fa4508e2724984f49f6dac04764bec588a3069b4780b19e293801ec88886040516200173492919062012f13565b60405180910390a45095945050505050565b6000620017767f9021d319e8bc24751bd52a68f464fc6f9c234cb5da9e12fab909235cd1c4893660001b6200b935565b620017a47ff3d4ffb01f45e3e5953446f813935765f2d1209ddb1154357774fb79d135d79760001b6200b935565b620017d27fc0e32c9534f4983227efc5aaa6776984a61bd40aeeaa52ddc34fa06988c6b68c60001b6200b935565b620017ef609f60008481526020019081526020016000206200c20f565b9050919050565b6000620018267fce8f609bada5226d51204180c2f653c825484fdab46e0963af8de760091f5e3760001b6200b935565b620018547fed36db90712f7246366ed426273f1ec2a40c8b55361d054e5682caec522d2dbc60001b6200b935565b620018827fa4f079de31756593531dca071c16874b9efd300c5ee4627e1abf2e70814ad70b60001b6200b935565b609f6000838152602001908152602001600020600201601c9054906101000a900463ffffffff169050919050565b620018de7fd3cc8e8fcdd79a5d5d6c68bc7148a9e04b632ba5a3bbc378e36a9bd59b7198c760001b6200b938565b6200190c7f632dea78ed956f79599e10a4963fa17eb70012c06e53886cd3070b806c2b9d8b60001b6200b938565b6200193a7f9c1a822f69822578772deacc9f922e46665226b748b663a6f118d3306a06160f60001b6200b938565b60006200196a7fa3f0ad74e5423aebfd80d3ef4346578335a9a72aeaee59ff6cb3582b35133d5060001b6200c332565b60000160009054906101000a900473ffffffffffffffffffffffffffffffffffffffff169050620019be7f15eaae32f8f8a1030789920afc499960757889d3ebcab4f43b4897815426ca6460001b6200b938565b620019ec7f616a1d4870c6d66c03525a8c353a97be18f6f045a9c61eec53daffc1d678fc2960001b6200b938565b8073ffffffffffffffffffffffffffffffffffffffff163373ffffffffffffffffffffffffffffffffffffffff161462001abd5762001a4e7f9dc217a0956e1345bd0625eeb18c82add6aa6d0fbf1ad93d26cca455611b6e6160001b6200b938565b62001a7c7f51c40d7fc651141370d7d705d1e71c72cef149afcb9146fcbc1c99bb5ea7ce6660001b6200b938565b33816040517f51d6e6f700000000000000000000000000000000000000000000000000000000815260040162001ab492919062012f39565b60405180910390fd5b62001aeb7f7866edc109272dbd01c71493587df107eda028030b9ad42c0afaebcc30db23cc60001b6200b938565b62001b197ff1cfb4f07026c3a07d111ff594e2a443c769d3cd3f106f55e995f11279c4ad5e60001b6200b938565b62001b477f1882b7787d9e3b347b793a613cc4d83f28b4fd4b55294e46c702d25efd0274e360001b6200b938565b600160365462001b58919062012f95565b841462001c0c5762001b8d7f4ba8d5e4c4046e688166217c1f319637a6282d6972c343f73909928aa74e95dd60001b6200b938565b62001bbb7f9a4b630fb89c7ae979268aa79e2f35a98706787727d1274ecd54d804dc18f69e60001b6200b938565b83600160365462001bcd919062012f95565b6040517f75f4166700000000000000000000000000000000000000000000000000000000815260040162001c0392919062012ff2565b60405180910390fd5b62001c3a7ff696a22e5eb268568132c5d8437e82cfc8c2dbaa9a697d83e523da99d33a968a60001b6200b938565b62001c687f0fb795859d8263a3ed09061c8826f027adc375f49b8e0e7b50b80500b45c9ff260001b6200b938565b6036600081548092919062001c7d906201301f565b919050555062001cb07fc763dd7f89bd66658d1e8abc3a7820f7f4c3bf37eea3b421aec5869bef2994fc60001b6200b938565b62001cde7f43390b39edda1779d52616a0e54561fb41c05758b7b52a895cd30071eced797160001b6200b938565b6000603760007f2605b3c7000000000000000000000000000000000000000000000000000000007bffffffffffffffffffffffffffffffffffffffffffffffffffffffff19167bffffffffffffffffffffffffffffffffffffffffffffffffffffffff1916815260200190815260200160002060006101000a81548160ff02191690831515021790555062001d967f8dbc2820ab6e8b9436f3222da565c37709e983cc8c4c6e4fc98bb0e75d9fed4060001b6200b938565b62001dc47f4dcb8ee8a29d93d69364f46498134806e435226441212f9fd2eca3cdb71f647360001b6200b938565b6001603760007f70ec42e8000000000000000000000000000000000000000000000000000000007bffffffffffffffffffffffffffffffffffffffffffffffffffffffff19167bffffffffffffffffffffffffffffffffffffffffffffffffffffffff1916815260200190815260200160002060006101000a81548160ff02191690831515021790555062001e7c7f69744c157068a0073b638c52d3e4a037c92d0b7d7fd83008449cf0a5ed56643160001b6200b938565b62001eaa7fa5e779b63024400d88575fc5530771af364e9093e24873283a2da844ad221c5060001b6200b938565b6001603760007f94105bcf000000000000000000000000000000000000000000000000000000007bffffffffffffffffffffffffffffffffffffffffffffffffffffffff19167bffffffffffffffffffffffffffffffffffffffffffffffffffffffff1916815260200190815260200160002060006101000a81548160ff02191690831515021790555062001f627ffa7495067b3f3a3c49077c99cdb8ad7dc7ccd38d396890fad372a7c16f8bbc8b60001b6200b938565b62001f907fae3dd35fe22dc32c82b168cc978ebffa7a5a322857374f67ebc0d6236d93738a60001b6200b938565b600062001fc07fcfd8be0ef5266f18d5698d50b4347c954f885c7f8388ddf7b1465b413065289860001b6200b938565b62001fee7f91453b854ab69c4e9e39c3dac83e9a29593a81b0953950e7b9b70e7519395de560001b6200b938565b60006200201e7fdcacc8995fafa0789909c3194b250e2055374fdb996704da6668a5b576bad59060001b6200b938565b6200204c7f0993a1bad90151e86c2d7d72e2315963b76edbac844afd855fc3cdc4dfba6eb760001b6200b938565b84848101906200205d9190620130b2565b61016f600061017060008498508599508691906101000a81548173ffffffffffffffffffffffffffffffffffffffff021916908373ffffffffffffffffffffffffffffffffffffffff1602179055508591906101000a81548173ffffffffffffffffffffffffffffffffffffffff021916908373ffffffffffffffffffffffffffffffffffffffff160217905550505050506200211c7ec228dae7a3ad8a3bb6fd78560761f408549beced50d4f61560cb266fa8cc9460001b6200b938565b6200214a7f12ba80fb4f1a35f7489ff17f4bc9e38d667f2e007b88a5afc0ea2126092b46c160001b6200b938565b62002155826200c33c565b620021837f79dc749ff8854b3dc142de71ddb6fd1aa86691fe0c616b7e65aa0866becd375160001b6200b938565b620021b17f5a506880ad8ad0086850af6b1aa145b6d481ff4ef5a8fe03015e64a746a6c86360001b6200b938565b620021df8160047ffee0f3f6d95202b4d5ead81db126b56790020c84b536331f8f9e5155446b18956200c3ff565b6200220d7ff66a1433fa83e0ff1165ae0cf66bfb2e86d0025d6c71280b9526479b8cddeb9f60001b6200b938565b6200223b7f21081257ee39d8d30bc3dfbaced9050dc6580ffaf1cb4dae8841ed9455d9471b60001b6200b938565b600161016e60008373ffffffffffffffffffffffffffffffffffffffff1673ffffffffffffffffffffffffffffffffffffffff16815260200190815260200160002060006101000a81548160ff02191690836002811115620022a257620022a162011efb565b5b0217905550620022d57f202273711c092628df5e48f336cf8a7286d0576f8e73eb4fa50a1f8fed63935460001b6200b938565b620023037fed43d2ae9b4bd9256b0b19df4789390eaf53d41ac57cc9b788a056723fffc1cb60001b6200b938565b635be59cc060e01b6101766000610100600060038111156200232a576200232962011efb565b5b1861ffff1661ffff16815260200190815260200160002060006101000a81548163ffffffff021916908360e01c02179055506200238a7f6d8b85e20635017382a8340828fa8da0dcc53d99ea0b9b34eb93844c883d01f960001b6200b938565b620023b87f9882c1ac8830d730182f82cb5a5ae9f1222c015233a326a2184f45f19dc619ef60001b6200b938565b63e9f4741a60e01b610176600061010060016003811115620023df57620023de62011efb565b5b1861ffff1661ffff16815260200190815260200160002060006101000a81548163ffffffff021916908360e01c02179055506200243f7f33c4e043ccabc009e49d9d46af6ebcd295e9cad21fc3203fd71e3c1cda13cd0460001b6200b938565b6200246d7f29363814feef40d9bab0860b4f8b8e2da9d15f599aa824e059118b969dcec3a860001b6200b938565b638fff0fed60e01b61017660006101006002600381111562002494576200249362011efb565b5b1861ffff1661ffff16815260200190815260200160002060006101000a81548163ffffffff021916908360e01c0217905550620024f47f0ead6f31fc0512be4200c2378f4add636860f5419503af973610c323f3cdb48060001b6200b938565b620025227f6d82d59725b3171d97813eddd7e3315ae26bf1bb6422b170f2ee2394abdfa54a60001b6200b938565b639f30834b60e01b610176600080600481111562002545576200254462011efb565b5b61ffff1661ffff16815260200190815260200160002060006101000a81548163ffffffff021916908360e01c0217905550620025a47fad8b391aead77c7a9cf67879987b6a19b70ee63fa893c140b4d0e182ced8d04c60001b6200b938565b620025d27f849bd9ba2839f8c34467a1d88b0f77e165b8c218488f1f03ca42133f89dff02560001b6200b938565b63613b111560e01b610176600060026004811115620025f657620025f562011efb565b5b61ffff1661ffff16815260200190815260200160002060006101000a81548163ffffffff021916908360e01c0217905550620026557fcbaf80d43166c7dd6bad2ffeee0a110585e06edc750430ddccb90ef240983d6f60001b6200b938565b620026837f8b395cb7d3e0ac6e9ab8e980c0bd3d5c7da55d4132392c5cad2689130fb00f4860001b6200b938565b639738b5ee60e01b6101766000600480811115620026a657620026a562011efb565b5b61ffff1661ffff16815260200190815260200160002060006101000a81548163ffffffff021916908360e01c0217905550620027057f22886322ca32bafe260213b1bbbb4d0c9ee4501b16e92d5cb5842300e35a530260001b6200b938565b620027337f93a75d9c1fd8d9e4c8a61308145fff63b8331000fdd76b51ae9e6c7e28990a6560001b6200b938565b62127500609c60146101000a81548167ffffffffffffffff021916908367ffffffffffffffff160217905550505050505050565b6000620027977f63e87700fedad9884a452b23deb1f1b65bc40e76ec5411cc0ed85f833352542960001b6200b938565b620027c57f1c2ae2f33ab2d3ebfab5cf41480ab649073b348248c9a35cd3f36a5c6a23c2ed60001b6200b938565b620027f37f1368378f77eba92387e2024294f82e9c80265dd9a85d5e48ead0a0a7c6ce975560001b6200b938565b600260078111156200280a576200280962011efb565b5b60ff1661016d60008473ffffffffffffffffffffffffffffffffffffffff1673ffffffffffffffffffffffffffffffffffffffff16815260200190815260200160002060009054906101000a900460ff16600781111562002870576200286f62011efb565b5b60ff1610159050919050565b6101756020528060005260406000206000915090505481565b60365481565b620028c97fa18cedd219b5084aa91bcccdb6df447f1e4856f0dfa1932697396e0d579e645260001b6200b938565b620028f77fbb336e294f4549c49c6ad2a5680cdb7c9fead01b3af81f9c6a94879cf45f56c460001b6200b938565b620029257f965f1347b04e35c839e4ba6e055c451f2ee73570de7fc8c74a2711e01a1b523c60001b6200b938565b600060078111156200293c576200293b62011efb565b5b85600781111562002952576200295162011efb565b5b14801562002993575060a060008573ffffffffffffffffffffffffffffffffffffffff16815260200190815260200160002060009054906101000a900460ff165b1562002d6557620029c77f8f27b434dfbad5d3af1ed2bd2a01abaf5feaef64b42737223a9a49707dc8119760001b6200b938565b620029f57f82c2ede14908f91885903f8202febbe035d85938c0a1ca633f36bb6cfb3ea7f460001b6200b938565b62002a237f196433823de3776ba0ab09f6a7068e225ba158f504457918f0435c4c43c504a060001b6200b938565b600061017160008673ffffffffffffffffffffffffffffffffffffffff16815260200190815260200160002060000160019054906101000a900473ffffffffffffffffffffffffffffffffffffffff16905062002aa37f389284d6d139a621e77cba25fed39ca13bf4c995ca9a18f3137d2e5e917f67bc60001b6200b938565b62002ad17f686ac68d6f588d9acd86ca88b35002dab3cda88c2bbce9c09c99017bc61a301060001b6200b938565b600073ffffffffffffffffffffffffffffffffffffffff168173ffffffffffffffffffffffffffffffffffffffff16141562002ba25762002b357f6ade59dd376383e34a99f19e3000070d1017ed5a2392e98c4be35d104ecd87e960001b6200b938565b62002b637f5bc511db308f4edd2fdf670c3ceacd8ba67e8a6fc6eeb56f32c8c6de56e6ee1460001b6200b938565b846040517fa57e640e00000000000000000000000000000000000000000000000000000000815260040162002b9991906201236e565b60405180910390fd5b62002bd07ffb45bf0639b85cbfac3d7f2df70fb3c6181087d8c3182220be85571dbaf109b260001b6200b938565b62002bfe7f1b516bde4db6bb79ce36e5218e11b58727eabbea8b0bc7563ea2a5d99cbf39bd60001b6200b938565b62002c2c7faba1e0a8875c2495a2e529f27414b00b894dbf313b4e2dd2d2355747907aa69f60001b6200b938565b61017160008673ffffffffffffffffffffffffffffffffffffffff16815260200190815260200160002060000160009054906101000a900460ff16955062002c977fcfc3377cd53043ee49ee81930d370a8d0732ae22db76f4cd32978484f00ef98260001b6200b938565b61017160008673ffffffffffffffffffffffffffffffffffffffff168152602001908152602001600020600080820160006101000a81549060ff02191690556000820160016101000a81549073ffffffffffffffffffffffffffffffffffffffff0219169055505062002d2d7f5bed03977acf7041f8b0c76c8438c6b498f438cf2a84b9f4b33a8c069d11fa5260001b6200b938565b62002d5b7f64888d81ce5036314d339bdff37549c73bb5db07d1d9054052978791bf48251460001b6200b938565b8094505062002ef7565b62002d937f5e72e178f094d03302bbcf44c720647fe86dc7ea228a2daa2ef16fe43181e84360001b6200b938565b62002dc17fd929880fdda95ec97686429f479b738e46794b8b7900cfc2088b0bf54ba4de2760001b6200b938565b6006600781111562002dd85762002dd762011efb565b5b85600781111562002dee5762002ded62011efb565b5b1415801562002e27575060078081111562002e0e5762002e0d62011efb565b5b85600781111562002e245762002e2362011efb565b5b14155b1562002ec85762002e5b7f7a8081948215469095b85ecb7c01ffedacfb10657c79a405713baade179d6cd560001b6200b938565b62002e897f536d21b0912b94623789b63fc603f18bb557fda8e23602799be629f62883415860001b6200b938565b846040517fb22cdb5e00000000000000000000000000000000000000000000000000000000815260040162002ebf919062011f7b565b60405180910390fd5b62002ef67f908925fb2f40f2a45d7dc9540e5df1b0ed3eb6e73dac87903035ab1302eda37760001b6200b938565b5b62002f257f221f7d3136d9b391d7aa3439706c5833f08ebf99f7c10c98a4fd03ba16d913e660001b6200b938565b62002f537fc2130c487e5474fa8e601bee0d7ca1eb175c611268ac5dbdf9c3b81ae1f5649a60001b6200b938565b60006200300062002fb57f37b2baa58f577c76b3bbe989ba951144cf2e89eb6859ebc64e743b4cd3b4bf32888888600060405160200162002f9995949392919062013167565b604051602081830303815290604052805190602001206200c588565b84848080601f016020809104026020016040519081016040528093929190818152602001838380828437600081840152601f19601f820116905080830192505050505050506200c5a6565b9050620030307f7118d331dd0849edb7a51c7c808947a3ba80c37bb48d3f4a3ced03b30a67e6e560001b6200b938565b6200305e7ff067ecbdaef682a4a72ec8fa7aa8ecb19ae21f3656f31f8018d210baa50a319a60001b6200b938565b6003600781111562003075576200307462011efb565b5b61016d60008373ffffffffffffffffffffffffffffffffffffffff1673ffffffffffffffffffffffffffffffffffffffff16815260200190815260200160002060009054906101000a900460ff166007811115620030d857620030d762011efb565b5b14620031c8576200310c7ff8fc44784f6b2c4e9eb9622c6e77506fe83114d83d98ac7172e98776101034f560001b6200b938565b6200313a7f7b51dd4b39fb295e03994fb153326cbf48c54ef380395c5dacf9091583bb1b7960001b6200b938565b8061016d60008373ffffffffffffffffffffffffffffffffffffffff1673ffffffffffffffffffffffffffffffffffffffff16815260200190815260200160002060009054906101000a900460ff166040517f947ebca8000000000000000000000000000000000000000000000000000000008152600401620031bf929190620131c4565b60405180910390fd5b620031f67f3adfed18521548e5d6eb45e0999d976465d61596c49a74c885f96963f5c6a4e460001b6200b938565b620032247fbbf391aec2c8b12ad8fa549d546ab1c671aecab99fd188134639ba7f9490016260001b6200b938565b620032527f1c885a28f7103e9bf5fd0e626761e1c05da0339c3b504c1db09d39aa2909861f60001b6200b938565b6000600781111562003269576200326862011efb565b5b61016d60008773ffffffffffffffffffffffffffffffffffffffff1673ffffffffffffffffffffffffffffffffffffffff16815260200190815260200160002060009054906101000a900460ff166007811115620032cc57620032cb62011efb565b5b146200336d57620033007f6d23384ea0c385ff352702a8a1d84d9962933a0e637fa5df5a0380042fe001e960001b6200b938565b6200332e7f20e17f87013d41aa47591a58d1d3a4388a594a3b5bb150758cafb54430d84dcd60001b6200b938565b846040517fa57e640e0000000000000000000000000000000000000000000000000000000081526004016200336491906201236e565b60405180910390fd5b6200339b7fcf668fb34ad84ea7c5f0ef9d8e73688422529d58d689f909b023ffac748a664d60001b6200b938565b620033c97fd3ecefb73ce57cbd5580fe454729f1a160e06b9ab6fd3af90e7f19f111a9597b60001b6200b938565b620033f77fc09dca34969fc4044c82e0cec852930dda6e5aa8b6781ec13cb67cef2b40c5d860001b6200b938565b620034048587866200c5d1565b620034327f7afa1c54cd88e304946fa7fcd5e4648521c22f8a4818275fbe490030fc41010c60001b6200b938565b620034607ff620729632f23b9234f6765777420a8511aa43295f33fc56854ae626e54ee7f360001b6200b938565b6004600781111562003477576200347662011efb565b5b8660078111156200348d576200348c62011efb565b5b14156200359057620034c27f2d86471b089c33affcb7858c6f0ac4caf3c4c2b6da9a5055b5d2f82e3ea2fe9b60001b6200b938565b620034f07fc9800cfff56004c91c8f4b3a5e871d4ec9a0b8d590a9a1905072f602072a39ea60001b6200b938565b6200351e7fca86dd658875cee9d8039114ff651139a9c44b6692e6fc2cc1b7b94e6e08cdcb60001b6200b938565b600161016e60008773ffffffffffffffffffffffffffffffffffffffff1673ffffffffffffffffffffffffffffffffffffffff16815260200190815260200160002060006101000a81548160ff0219169083600281111562003585576200358462011efb565b5b0217905550620035bf565b620035be7fa421c1098768636b6cb18958ec938822b1797194d8efaf3acb2e21820a34378d60001b6200b938565b5b505050505050565b6000620035f77fb46520fa3b4d0b10bd3087e4451eb348f79117899e718958ea26b97322b17a0f60001b6200c75e565b620036257f19c35f0f014326a0ff9cfb8b9c029c6ef40c58895a62f3e56ef274c4fd59dadf60001b6200c75e565b620036537fffc4179c2ddd2a51ba67b03647a647540674d6fc3348a25a5e1ffe35f9d25a4f60001b6200c75e565b6200367a6101006000600381111562003671576200367062011efb565b5b1784846200ba08565b905092915050565b61010560009054906101000a900460ff1681565b61017060009054906101000a900473ffffffffffffffffffffffffffffffffffffffff1681565b61016f60009054906101000a900473ffffffffffffffffffffffffffffffffffffffff1681565b6000620037147f53eccef17e7e056717ec5a2c82884fb657ac6802ba21048d2dcb7fdd158d7df160001b6200b935565b620037427f8a1f9243cc4a55cfc899169d2ce2dc445e5ba7e20107a9f235b0d2afdd30698b60001b6200b935565b620037707f501de7a0a0c7114bd75ab7f9c601f0f07da14527c25cc9226719ab2ce665643360001b6200b935565b609e54905090565b6000620037a87fd383ca14fabbd0f7faa0897f7f30bebd138a4c32fd26e427c4389fa6468a5b2560001b6200b938565b620037d67f241d4c09d5308bdaa0fc76d7345ddc2c1c82d840ac6027d27a7e2d088227585260001b6200b938565b620038047fedd04757da355dc6d3039cd39424050df1ee6c28e137e4ec669c0691d860b9d560001b6200b938565b62003828600160038111156200381f576200381e62011efb565b5b6000846200ba08565b9050620038587f563b78a9bd21a8d37293db9381feb5a9cc4d45f6c9cd5715f653396b1e5de4d560001b6200b938565b620038867f7e2ab18ba7295a0e2a8b3282e1df57371765f47ac7bdabfaf0c29d881fcc4f3360001b6200b938565b60405180606001604052808673ffffffffffffffffffffffffffffffffffffffff168152602001851515815260200184815250610172600083815260200190815260200160002060008201518160000160006101000a81548173ffffffffffffffffffffffffffffffffffffffff021916908373ffffffffffffffffffffffffffffffffffffffff16021790555060208201518160000160146101000a81548160ff021916908315150217905550604082015181600101559050506200396f7fd1db756d65f8d8093f01df0d22f19c57359b66e2d51ea25e191e1c1dfbd161e160001b6200b938565b6200399d7fac5d38a3beba5f8ebaaf71f9ceba62f0320648971db03635ec8558076681f28f60001b6200b938565b60016002811115620039b457620039b362011efb565b5b61016e60008773ffffffffffffffffffffffffffffffffffffffff1673ffffffffffffffffffffffffffffffffffffffff16815260200190815260200160002060009054906101000a900460ff16600281111562003a175762003a1662011efb565b5b101562003b085762003a4c7f026f4236140767044c0e04b465e4fd419ecee2457b630c8b3f3285ef7a5a924660001b6200b938565b62003a7a7f01f067e3ef53c539bbd8b203c817c9035bbc0e29bc9337c6ac9b09e30e88c2f960001b6200b938565b8461016e60008773ffffffffffffffffffffffffffffffffffffffff1673ffffffffffffffffffffffffffffffffffffffff16815260200190815260200160002060009054906101000a900460ff166040517ffecb516e00000000000000000000000000000000000000000000000000000000815260040162003aff929190620131f1565b60405180910390fd5b62003b367fc6c93dbfc125550273f97166dc2fe6ebd8e4febab193c311fcbdb9e1a37ddf1860001b6200b938565b62003b647f202ab4060ace105977175f72b66692c898561dcaefe921a5cdfc76861c88168560001b6200b938565b62003b927fe0b6a8bdae350a92c3b2d682eb7480c2435f54a04ce1ed8c3a054916e7ac5e8460001b6200b938565b8315158573ffffffffffffffffffffffffffffffffffffffff16827f0c8addd39f41787290419571c452c76a0f9d6fb24e8b8a4b9e6cbbffbdac44ef8660405162003bde919062012127565b60405180910390a4949350505050565b600062003c1e7f11cb073996f6be0dd0ca2f764d7dd279cae192c1ddc25bf78b67257ce4286d6660001b6200b935565b62003c4c7f54c535c126e3d70f5105e0b45e8da082d1db38fdf98b7f0d8acd30412dfeb00860001b6200b935565b62003c7a7fc4abb4cf4e7d24ce03e16779535cb3b64ce8d656b3f03ec6f5ca9605abab628c60001b6200b935565b600a609c60009054906101000a900473ffffffffffffffffffffffffffffffffffffffff1673ffffffffffffffffffffffffffffffffffffffff166370a08231306040518263ffffffff1660e01b815260040162003cd991906201236e565b60206040518083038186803b15801562003cf257600080fd5b505afa15801562003d07573d6000803e3d6000fd5b505050506040513d601f19601f8201168201806040525081019062003d2d919062013235565b609c60009054906101000a900473ffffffffffffffffffffffffffffffffffffffff1673ffffffffffffffffffffffffffffffffffffffff166318160ddd6040518163ffffffff1660e01b815260040160206040518083038186803b15801562003d9657600080fd5b505afa15801562003dab573d6000803e3d6000fd5b505050506040513d601f19601f8201168201806040525081019062003dd1919062013235565b62003ddd919062013267565b62003de99190620132d1565b905090565b61016e6020528060005260406000206000915054906101000a900460ff1681565b60355481565b62003e437f26521ddca05ace2e5142fdff53799aa1ddc7c49f6222e44b290dee133b300af660001b6200b938565b62003e717fa96ea16c3499bb3eaa905e7e3abd87f8e34a0faef2857812b0d61a3fd114ed2d60001b6200b938565b62003e9f7fd3b7b36c5882948b998798b9ac667685ecb65366c461c1e1f37aafdb7bc6826b60001b6200b938565b6002831462003f465762003ed67fe8ff4fdb44ad1f3b01f14d2800ca7d8093f8c7bf1185ee3160d284a62e74792060001b6200b938565b62003f047fda0dd2b7129ea574bfcbdab50bcd94e79538d3a55aecd4def04e9d7ba88d57c260001b6200b938565b8260026040517f75f4166700000000000000000000000000000000000000000000000000000000815260040162003f3d9291906201334c565b60405180910390fd5b62003f747f6c14c1084c7605b72ce22f17733b7b07e368c1956b1f721a0e19e9741913341d60001b6200b938565b62003fa27f874cb1c1f236b770be095c5b9c42c312080fdc1e166abd64b7bf6f644d84641a60001b6200b938565b62003fd07fc42713372bbfb01f75bc7c53c2876cf49063d46a2d6e480b8c2e39b6392b9d1660001b6200b938565b600080838381019062003fe4919062013379565b5091509150620040177f20019c2409063142da9ca754f4c79bb1d93060c195b498373d42e66d6cde5bfd60001b6200b938565b620040457fcb7f5b59c44584481c25b1ecdeb6f0e425806567267ac533e478268160eb775c60001b6200b938565b620040907fa72b144f000000000000000000000000000000000000000000000000000000008373ffffffffffffffffffffffffffffffffffffffff166200b9de90919063ffffffff16565b6200415257620040c37f77d72e478b10cdabc612b79f29ffdd8f073a379f436d1bfe42c4af37291f387a60001b6200b938565b620040f17f437ce48897b7491ff8d6a282fbf840ae69cb579027bd691b32464c430f870da860001b6200b938565b817fa72b144f000000000000000000000000000000000000000000000000000000006040517f8a05a4c60000000000000000000000000000000000000000000000000000000081526004016200414992919062012dbd565b60405180910390fd5b620041807f64a9e4b640a91d75eca42d73d1cd56e1bbace5b127c4f688cded8d1a1c9af99460001b6200b938565b620041ae7fd52fd6301293f250e8c74aba0df24c61fd823d3a0910e2b0fe7f24bbe1398f9060001b6200b938565b620041dc7f1fa29555cf2db2cd4a61d69665c49e1312849024691ea556821baae0951c908b60001b6200b938565b620042277f2f79614b000000000000000000000000000000000000000000000000000000008273ffffffffffffffffffffffffffffffffffffffff166200b9de90919063ffffffff16565b620042e9576200425a7f3e4a37e4e44085518629975f21a2f023edb2987bc2431bb37c2a71bc09330b9660001b6200b938565b620042887f0b1192ae4faedaf0e3dca398a7094bb25714e7aacdac5d728b37c323520c880760001b6200b938565b807f2f79614b000000000000000000000000000000000000000000000000000000006040517f8a05a4c6000000000000000000000000000000000000000000000000000000008152600401620042e092919062012dbd565b60405180910390fd5b620043177f9ad6d9933ab9cd20e60da40d7a7069f3278133ff251edec3930ceb2b747ff3a260001b6200b938565b5050505050565b609c60009054906101000a900473ffffffffffffffffffffffffffffffffffffffff1681565b6000620043747ff40e211e4b3920a3827c12c319347179f19cf913b2cb8627bc90b4452102ade360001b6200b935565b620043a27f8ed1d66d3a0640e7b2336baf31eff466c1f0dfcd02a557df513c52f386ccb0c660001b6200b935565b620043d07f433dc082f404ff5be5ec7393dd6ff7950a67347f55ba51d9f6801dea54b8a8f160001b6200b935565b609f600083815260200190815260200160002060020160009054906101000a9004600d0b9050919050565b609d60009054906101000a900467ffffffffffffffff1681565b61010081565b60006200444b7f6714622f5fcd3e291bc65597c9d1bb66e63203a44556c15efc00def84e42400560001b6200c75e565b620044797f222022b080b7b6cfd3907a76386667359333eb867b7aff69ffed17a7058597d160001b6200c75e565b620044a77fec1bbf2f28f455f4dc553066de82f788d5441d97dd8e612edcddc15a420baaa160001b6200c75e565b6000620044d77fa63aa0e599e92d056d4ab5c3a664745d0d89cd8accfe2a047302efa7f0564dc260001b6200c75e565b620045057f9692a0fa432a02ff611847f95e8228111e110bfc476eb40342b1de34c4f3bc1360001b6200c75e565b85156200473f576200453a7fd19b5e635d38832aadf587a226671152852e7c81b66676242cbb947d527c30d860001b6200c75e565b620045687f034a899632520a1b8d9c2609b8965eb9df584dd4b8913341d9fe83ab8d1827c760001b6200c75e565b620045967fe11657afed7597512dc5d184d2789b96d8e8e3eae868569b8d46922bddc8916b60001b6200c75e565b60019050620045c87f89ac51ff28ae48f95c0d60da986d2f0641ae011cf1578d8d88e6c24589c59e6860001b6200c75e565b620045f67fb928b89433f9b613952e43843c7a03f00f45f6f35a79bd77a0e4546ccb4d2d2560001b6200c75e565b609c60009054906101000a900473ffffffffffffffffffffffffffffffffffffffff1673ffffffffffffffffffffffffffffffffffffffff168873ffffffffffffffffffffffffffffffffffffffff16146200470b576200467a7f62533210a3884951483428159ae518abb5f0bc63d48b42c7f899070403d3f03f60001b6200c75e565b620046a87fb943d70a2088f5165dd8b9d1e7adb65b5dde699937a4fa9fbdca8fb21888932f60001b6200c75e565b87609c60009054906101000a900473ffffffffffffffffffffffffffffffffffffffff166040517fa04b19770000000000000000000000000000000000000000000000000000000081526004016200470292919062012f39565b60405180910390fd5b620047397f78dee1d72466c0dfa83263d36c338b25780d9575dd5603f28e66c9ee49adf13a60001b6200c75e565b6200476e565b6200476d7f09054e05fad80268e4c7dc291d6fe2934f47317dde7c0f58cdaa714f8a2f47b660001b6200c75e565b5b6200479c7f258949839b296ae4241b3116eecf1e9a34086d93d337234192facfd23c82065d60001b6200c75e565b620047ca7fd658cb8e3ffd5f89ad4b2c0a282e005ecc5b55ef39ce0417f29b299b21132b0260001b6200c75e565b6000851462004d3157620048017ffa21f0a76c408e3bdf3a4080b57cfa7a5abf411e75bc791c25725a93df8622b860001b6200c75e565b6200482f7f7dbf761983ba9e888bbc8c27a713292fa63081e2cab0944e4df406d8a90dd8f860001b6200c75e565b6200485d7fc753414c9e5658268ce186b890ea6837871f8c06f25158ffe629f638ab90883560001b6200c75e565b3073ffffffffffffffffffffffffffffffffffffffff168773ffffffffffffffffffffffffffffffffffffffff16146200492e57620048bf7fcb24e6f21dc53f19ef66aec49668b1e57eec38ba5222e91d706f00c461dd521160001b6200c75e565b620048ed7fb4c2fcab83cc2969920c1958ab0086c1f8a9f5c2d177aff097904ee896d630b260001b6200c75e565b86306040517f06818e620000000000000000000000000000000000000000000000000000000081526004016200492592919062012f39565b60405180910390fd5b6200495c7ffe41f02cab289494b6161aeb66f6d351411d202316a31d52a5df3fc574db927060001b6200c75e565b6200498a7f04a6c47725af4630b684423f93a3144a4fa1242d817944332c1aa0a2df2c383260001b6200c75e565b620049b87f7bd7540d11da2fcb014639b805c5340180949b438e9c077c82dd60a0d6fc32d860001b6200c75e565b62004a037fe3b2ad63000000000000000000000000000000000000000000000000000000008973ffffffffffffffffffffffffffffffffffffffff166200b9de90919063ffffffff16565b62004ac55762004a367f162b4250df02f92b1bb86e3ce93b3f3862eb6a292ddfd5672ac5bf3e3cb0c12860001b6200c75e565b62004a647fda5cddfddcf30151ef3d25ebf480a2ac07b2c685e7ea6f72f02cc0066d9a2d6360001b6200c75e565b877fe3b2ad63000000000000000000000000000000000000000000000000000000006040517f8a05a4c600000000000000000000000000000000000000000000000000000000815260040162004abc92919062012dbd565b60405180910390fd5b62004af37f2eb296ea553e4510135b6ec2c51a76118662af826d917b22c1d8d10ef35a831060001b6200c75e565b62004b217f15159df320b2640a6b5225c0938abee7247ba8c69ae70c886dbd37801b3610a760001b6200c75e565b62004b4f7fc2b1c2d9a2808923ad5beadf0c18d9fe06f0e926fe103e98ec6b08703819996b60001b6200c75e565b60008873ffffffffffffffffffffffffffffffffffffffff1663313ce5676040518163ffffffff1660e01b815260040160206040518083038186803b15801562004b9857600080fd5b505afa15801562004bad573d6000803e3d6000fd5b505050506040513d601f19601f8201168201806040525081019062004bd39190620133ec565b600a62004be1919062013572565b905062004c117fa897c47591f6a45b0966e5fce85382f80ec2ac7d7751116d151b459fe077ab2360001b6200c75e565b62004c3f7f6bb2a20ce1b2c7c243cb8695a606a9d39688e3c808cbafcd270c4b4590fc2a3660001b6200c75e565b8481828762004c4f9190620135c3565b62004c5b9190620135fb565b1462004cfc5762004c8f7f8d5caa3bef461ab9967fc7f81bf93d6d3f0e156408dc57984d60f9d03733d68160001b6200c75e565b62004cbd7f184a90c9a6af8165a7aa3a7a2c918de3c91439900dae3d4733714b85c2a96a8360001b6200c75e565b846040517ff658bf1200000000000000000000000000000000000000000000000000000000815260040162004cf3919062012127565b60405180910390fd5b62004d2a7fbd82594aa94bf115cda2ee0c2212a228346aad70ac40aae17b679ef340da8b3d60001b6200c75e565b5062004e54565b62004d5f7fdf31cf8e8fd2ac59ba3e1c22d6160b6650a465f81d6dffd3178ba3003f02ec8660001b6200c75e565b62004d8d7f7c5407b03a18e77ed2cf8668f22c141fc2cdb2266bef2e847342de4574de01e860001b6200c75e565b600084141562004e255762004dc57f3ec782f6afd31c202e5592076aa282c008cc55cf2b33e68455ca00fe0d1b808860001b6200c75e565b62004df37f6ee25f0a56d80c3641a02b09382881902c08b60f60567e083e3ffb7ea8908bcd60001b6200c75e565b6040517f1f2a200500000000000000000000000000000000000000000000000000000000815260040160405180910390fd5b62004e537f7aac0e17ae4e5735e32680b14660a0217828ff87219ac0a5b6ee28c82f65f65860001b6200c75e565b5b62004e817ea02308b072049ff96b29cc3ed30af28c388be3b09959e804354db629099b4660001b6200c75e565b62004eaf7f854401db80167c2b9368391c096b8bf092ae77d285c368ff22ea890408b27f0760001b6200c75e565b62004ed66101006002600381111562004ecd5762004ecc62011efb565b5b1782856200ba08565b915062004f067fddfdf0e8bb89c7a875b0ed8d099c7f820d9c7b4c3a7826c15d0bc9064542294560001b6200c75e565b62004f347fc67028955f1627163f7c155e540fb3304ec42df9d0feb1a3147e5654106eee4a60001b6200c75e565b6040518060a001604052808973ffffffffffffffffffffffffffffffffffffffff1681526020018873ffffffffffffffffffffffffffffffffffffffff168152602001871515815260200186815260200185815250610107600084815260200190815260200160002060008201518160000160006101000a81548173ffffffffffffffffffffffffffffffffffffffff021916908373ffffffffffffffffffffffffffffffffffffffff16021790555060208201518160010160006101000a81548173ffffffffffffffffffffffffffffffffffffffff021916908373ffffffffffffffffffffffffffffffffffffffff16021790555060408201518160010160146101000a81548160ff0219169083151502179055506060820151816002015560808201518160030155905050620050907f78350c20441182e6d26befb661315904d05151773a73d4887f0c46e3e304559b60001b6200c75e565b620050be7fc4de9b9cf550231a6c8773b96e4f6ff2bfc8072259440fa583919ed041c49c4660001b6200c75e565b8673ffffffffffffffffffffffffffffffffffffffff168873ffffffffffffffffffffffffffffffffffffffff16837fd05e10a799df65bb4c7a900fb77dcb7be2871d4f3dc3454c3525f098ad281adc89898960405162005122939291906201365c565b60405180910390a4509695505050505050565b620051637f420892faaeb7818b77bd425ba463f710153c03f12822d78f6362f71402b9cc4a60001b6200b935565b620051917fc4757cf22e3de190ef24080dc8b8bf0f0bc3dc1ee75cc176eb5d2afd63d5387260001b6200b935565b620051bf7f2237d4ea6c7b5a58aab3f06262513651b0411f158188d72f4db6d69ea85a8ad560001b6200b935565b6000609f60008381526020019081526020016000209050620052047f75adf9e5ae5e1590fa71485d64aa8295f27b31040e7940c21c24333e29e0cb2f60001b6200b935565b620052327f91632c9a845a04efb46585e8cee99d1ef8e6057faa565ca968dcfd204ef5f92160001b6200b935565b6001600481111562005249576200524862011efb565b5b8160000160149054906101000a900460ff16600481111562005270576200526f62011efb565b5b146200531157620052a47fadc2ed97b144217cd73832dc1d8f2edd3a3b1aaf67e6ab4f577581c9c2aec6a560001b6200b935565b620052d27f9212afb1ca03dc26b382098a98224171e706f691a58c30afb42c5354a67eb7de60001b6200b935565b816040517f8166c02700000000000000000000000000000000000000000000000000000000815260040162005308919062012127565b60405180910390fd5b6200533f7f9a970a4df07251d7a560ab957599a8a11a48350ef3b72991c565ee882e7532a260001b6200b935565b6200536d7fe9eb33a8856fe2cf433b0f12f823125d8a1abb92586e20fdd1090920967e025660001b6200b935565b6200539b7fdf55459f9fbc746d03b1d9acea03f983d614637ee615ccf571ced89af4f89e9160001b6200b935565b6000609c60149054906101000a900467ffffffffffffffff168260000160159054906101000a900467ffffffffffffffff16620053d9919062013699565b67ffffffffffffffff169050620054137fc1e1741603ff9e813248a94e8288ea32fab5e136651a4f8e058a67090801f9a060001b6200b935565b620054417fcdd509c7f330c74d7e764e51d82631e472c040f6c38e073321fa170542ab679e60001b6200b935565b80421015620054e957620054787f656c9b5cc7c309c9e75b11d1171e1476aefe3e8ce5f9368299b7c2b5a6cf506f60001b6200b935565b620054a67f8d080a858d461d483f80071fdeaffe60147e4e82099cb21817fa1cb31355e55560001b6200b935565b8242826040517f0104766b000000000000000000000000000000000000000000000000000000008152600401620054e093929190620136de565b60405180910390fd5b620055177f6ea2c8674f1ff11b3a39944f791a071fc0ea7f7666ed6ed802a8e4aa80e1f4e160001b6200b935565b620055457f35daadc3047fa63573037e786c27ac5de69699b6601c3d0940271e2b6a934ad760001b6200b935565b620055737ff157c8aacd2d55f7a35a909f549c9effa213caeaee03d676fd5710d32850911760001b6200b935565b6000620055a37f0c65d39217def1ffba89abb31f00b57bf582c641e9a4a6e848c3710706bce20c60001b6200b935565b620055d17f5ae06790877a79ed906cc5928362c4c8a861aae4b5e44f3d4b746fb308f0414a60001b6200b935565b82600001601f9054906101000a900460ff1615620056a857620056177fbf4ce7d25f78321d9b1efe8e0f63ae5831b3227a0bd9061e339f70afcbef537d60001b6200b935565b620056457f5ccfe356cdd8d77f33be05f28a21b7a10853fb9b1c184916a5fe78f46c1c79e560001b6200b935565b620056737fd946ebbae24aca6b19a6ec573d97f7cb69991be769ecc8773029a0cd09d9ac7260001b6200b935565b600383600201600e9054906101000a90046dffffffffffffffffffffffffffff16620056a09190620132d1565b9050620056d7565b620056d67fa40a9c683e3d57882bd59200ba961d3c628ad28f9889b81838c28f8770e3509160001b6200b935565b5b620057057f0aa1cf99291f52822412341977238e80c1e0bc90b64062f9c96fa6f12863cb4160001b6200b935565b620057337f6a9f8c841bf5bbe845ee83344a40b81236566394af34ae437d4b29251f957b7260001b6200b935565b80600d0b8360020160009054906101000a9004600d0b600d0b136200580057620057807f180ee8320ad8cf4cc041d47bdc6301d8eff643544a98d4b04cb1b7fa04cbb04360001b6200b935565b620057ae7f08d2bcbd76fd02fbeca3ee346d1a212e5cce3e4d2f2b36665ac2ae35f702e5d160001b6200b935565b838360020160009054906101000a9004600d0b6040517f32f8d2cf000000000000000000000000000000000000000000000000000000008152600401620057f79291906201375e565b60405180910390fd5b6200582e7fc12a9e01204355be5c3c3e9e66a66b940141e43cdeee83ca2a0550fea2752cc860001b6200b935565b6200585c7f7427d2ab3d7c593129aa8e3122617b6dfa06b2681c20c0f8edcd9234b2a8b0be60001b6200b935565b6200588a7f3e228d2e8b408d17516568d5a0b25d13704a8e7ed392cdbd7f358c8fb2d60e0760001b6200b935565b6200589462003bee565b6dffffffffffffffffffffffffffff1683600201600e9054906101000a90046dffffffffffffffffffffffffffff166dffffffffffffffffffffffffffff161015620059a057620059087f4c82ea67dad3dd04cd7a78ffd046398bf9a0ff757d9462c24338f9baf8bcba1360001b6200b935565b620059367fd13972f718fa2c0450df733cc4b3574c9d33e555764b826f836721bd3b67612960001b6200b935565b8383600201600e9054906101000a90046dffffffffffffffffffffffffffff166200596062003bee565b6040517f21c1f97d0000000000000000000000000000000000000000000000000000000081526004016200599793929190620137c4565b60405180910390fd5b620059ce7f3438a99e153267a384437138b771ca7b260641dabfa033ced69858252120e11960001b6200b935565b620059fc7fabef84683cd28a75542fb61d420b930933bea0a1a0e5e7daf877492e3f9180ef60001b6200b935565b62005a2a7fd734a948f7f79bc125ad348ee4e1dd28cfbd0e5f760d8556000f60e4a1e1036360001b6200b935565b60028360000160146101000a81548160ff0219169083600481111562005a555762005a5462011efb565b5b021790555062005a887f3ee03018350460aaaec8245fb99810d64876a159c68c3256b141344db341778a60001b6200b935565b62005ab67fd166f412391793e90cd2a2f78d4b8b7ccc7af57f42377a1e8a8688c8cc38245760001b6200b935565b428360000160156101000a81548167ffffffffffffffff021916908367ffffffffffffffff16021790555062005b0f7f660fbf6c34d335973177937f1fe0a7760ecc03a03f568cd59e8e98fe0bdcec1d60001b6200b935565b62005b3d7fb27b7c688aba0cd463ad91c70f35e424f7b5cf7c1b61ba2b5eb840a0a84d861260001b6200b935565b8260000160149054906101000a900460ff16600481111562005b645762005b6362011efb565b5b847fae774ee17b72f8c8f4c7144d988d61a4da4df057d2b0f9eb733e5a4e3912a8fb60405160405180910390a350505050565b600062005bc77f1bf95190c481eadf221b23e41bc7aa89d09a05443ab5e397a62b86dcd94689e760001b6200b938565b62005bf57fcd3dfbb9ca9bb6cec04bd81fbbf76a6d584277a2d553d186d9f0e534e605e98560001b6200b938565b62005c237fbb76fb869ac433e34bd367d7b632e459af8e745f1abcd9ce0674f7eb9489c70760001b6200b938565b6003600781111562005c3a5762005c3962011efb565b5b84600781111562005c505762005c4f62011efb565b5b108062005c87575083600781111562005c6e5762005c6d62011efb565b5b6005600781111562005c855762005c8462011efb565b5b105b1562005d285762005cbb7ff677d8c473ce3be257c0c41d4203b58dfd1ee4ede69406d15b57c42344c26e9160001b6200b938565b62005ce97fbf553f2fe65cb154c70562dd0d4d34f6e5b40ca7ec5fd04a7eea2567ecf44cde60001b6200b938565b836040517fb22cdb5e00000000000000000000000000000000000000000000000000000000815260040162005d1f919062011f7b565b60405180910390fd5b62005d567fe7b9ffbe708755dd36d490887fa37435a4f7c93c18a0594fa5b230e7c4f0210e60001b6200b938565b62005d847f0c86ae5c5d45d24caf1b7dbb3577de0d6ea2dc14087477b53fdbf2a0aacbe4e060001b6200b938565b62005db27f08fb3abca8ce626f8fc211b2fc80c1e5f90b9531c482dcc90591081670a2c70060001b6200b938565b6000600781111562005dc95762005dc862011efb565b5b61016d60008573ffffffffffffffffffffffffffffffffffffffff1673ffffffffffffffffffffffffffffffffffffffff16815260200190815260200160002060009054906101000a900460ff16600781111562005e2c5762005e2b62011efb565b5b14158062005ee75750609c60009054906101000a900473ffffffffffffffffffffffffffffffffffffffff1673ffffffffffffffffffffffffffffffffffffffff1663d936547e846040518263ffffffff1660e01b815260040162005e9291906201236e565b60206040518083038186803b15801562005eab57600080fd5b505afa15801562005ec0573d6000803e3d6000fd5b505050506040513d601f19601f8201168201806040525081019062005ee6919062013818565b5b1562005f885762005f1b7f23ee5ebde9f90c397ae30a40b8848d873a34871e46dd2261e358c41b2f51d4e560001b6200b938565b62005f497fce7eff145632ca1ca157fff282e99c7abe3d940a68d83749e8e586b196ae698660001b6200b938565b826040517fa57e640e00000000000000000000000000000000000000000000000000000000815260040162005f7f91906201236e565b60405180910390fd5b62005fb67f03fc425e5805b01bc4300311887f89c194618111e6d8623012a72eb3b0b89f6d60001b6200b938565b62005fe47f78423c343a3c4fd8b430367fe3e94d1bc4d44d3730f5ad7197a0963b51e78d1660001b6200b938565b620060127f1056be1ef8f3a41384e1edbd601e315e700f8814b9c5bdb3fb6a243ecea93e0960001b6200b938565b62006036600060038111156200602d576200602c62011efb565b5b6000846200ba08565b9050620060667f77f7d0a3bcd1108e37f4e79e552e6a8d2f410981fb7e627a872912a4db2d6afb60001b6200b938565b620060947ff8c59ec45704ab99197b3ce04d0b032abc826d48d56ec3663a26d7f88495524560001b6200b938565b6040518060400160405280856007811115620060b557620060b462011efb565b5b81526020018473ffffffffffffffffffffffffffffffffffffffff16815250610171600083815260200190815260200160002060008201518160000160006101000a81548160ff0219169083600781111562006116576200611562011efb565b5b021790555060208201518160000160016101000a81548173ffffffffffffffffffffffffffffffffffffffff021916908373ffffffffffffffffffffffffffffffffffffffff160217905550905050620061937fc26f6ab33a9fc79647b97c093a5937fb97ef121d195e45b8bddb08227eb9c1d760001b6200b938565b620061c17f3e85c35edfde53b9b8377b8ee66dcc10cae68ad9cc85fe26c5e6c672e58cace760001b6200b938565b3373ffffffffffffffffffffffffffffffffffffffff16846007811115620061ee57620061ed62011efb565b5b827f95e1e48371eceb3a97c3e46ec861cb17983ac8b2f0a792043c110aadc54fec6b866040516200622091906201236e565b60405180910390a49392505050565b6200625d7fc301730b03fb219a647e35e19ef94733ec6eb8323ca80bd93429bf7c31f243f260001b6200b935565b6200628b7fb6a2f866516e3c7ad334d7b332716839488a354060c9884d0cb86129633993fc60001b6200b935565b620062b97f6af9b5a2bac38795142f904c65536a0d45c89de35020b122b61173a6f65d6de260001b6200b935565b6000609f60008581526020019081526020016000209050620062fe7f22366f591f788a6e06b2506bece1d714ef0dd97935e8ee20898f3697b6b00b8a60001b6200b935565b6200632c7f440a4d728c1a2d540cc23dfcec0283d2657a319fc9d7dbc5ea04b93f2255915c60001b6200b935565b600081600001601d9054906101000a900461ffff169050620063717f9da1ac65cf86c3a35b6f4da982a49ddb141d6b325e40eeee8fc1cf3663a8413860001b6200b935565b6200639f7fb0377a109d86e044f1185a0f7e0a2b1c8898dc689a220c39cd9e2442d58a659360001b6200b935565b60026004811115620063b657620063b562011efb565b5b8260000160149054906101000a900460ff166004811115620063dd57620063dc62011efb565b5b146200649157620064117ffb883dae2febe8733b83fa848846e8bafbf4f58130905f78201f34bc3b79b29060001b6200b935565b6200643f7f6cfc29e720e1bf09c4735a91cc92c57ee98423ffbdc15a1c7aa46724d1d7b3e160001b6200b935565b848260000160149054906101000a900460ff166040517f59ccb928000000000000000000000000000000000000000000000000000000008152600401620064889291906201389b565b60405180910390fd5b620064bf7fd74eb726b678220cb1eae910e0aef62c06b5b609cfb82ac8ebfdbc50268c1f2c60001b6200b935565b620064ed7f735a116c441dc77cfe63e5b59549c2e7bde7ee4a5c6e03cd65946796d70a0f6e60001b6200b935565b6200651b7ff30dced74f7b965110cc6df94f105f261ee7358dd251ed5a1612d25516b7cded60001b6200b935565b6000609d60009054906101000a900467ffffffffffffffff168360000160159054906101000a900467ffffffffffffffff1662006559919062013699565b67ffffffffffffffff169050620065937fcdaf6d3c03e3e498c32114a1305314cdf53efad11c6919cae153a37151deb0c160001b6200b935565b620065c17f8a616ca3c5b73671b4e1bcac015ff7245adfb670e86aba9472b3976f7fb417c260001b6200b935565b804210156200666957620065f87fe9ddab188963b0b43902dd8a8a06b1425ce4d66715001c0454722531b015c3b960001b6200b935565b620066267fa2873eee1434abff246b72da8a73bb9a3f02b692cd9a8edb975158d40e4a080660001b6200b935565b8542826040517f40f93bc60000000000000000000000000000000000000000000000000000000081526004016200666093929190620136de565b60405180910390fd5b620066977fdf2b96979abed83a83e85d784389a223039f5146b79beb472c3f83eedd5b305660001b6200b935565b620066c57f8068c8a0876074658748fef27285cc6c370b67fdd5ee658c452a79ffc39f63a660001b6200b935565b620066f37fc16255683540cb73aec52b7c4d15c0895084cdfdc44e979f028de37ca2842e2960001b6200b935565b609d60089054906101000a900467ffffffffffffffff1667ffffffffffffffff168162006721919062012f95565b4211156200697757620067577fef34235a5e5834c68fc0fb60e7cb40e530beb99ba9f6c7c368195b099aca2f9c60001b6200b935565b620067857f3f16e0010d0a28f2274b0d91f9496fbeb471b5c7dd5ec84c4f0a3e024787c3dc60001b6200b935565b609f6000878152602001908152602001600020600080820160006101000a81549073ffffffffffffffffffffffffffffffffffffffff02191690556000820160146101000a81549060ff02191690556000820160156101000a81549067ffffffffffffffff021916905560008201601d6101000a81549061ffff021916905560008201601f6101000a81549060ff02191690556002820160006101000a8154906dffffffffffffffffffffffffffff021916905560028201600e6101000a8154906dffffffffffffffffffffffffffff021916905560028201601c6101000a81549063ffffffff02191690555050620068a17f79657d7865402793d4dcca7f06f11ff46130a7011f96b6656df845770afd5fda60001b6200b935565b620068cf7fcf8217f7be67619412ad39591e2fc130204fc11c4e45da3b2b3e920ebe03eaef60001b6200b935565b600480811115620068e557620068e462011efb565b5b867fae774ee17b72f8c8f4c7144d988d61a4da4df057d2b0f9eb733e5a4e3912a8fb60405160405180910390a3620069407feddf31bb42001a046a85f36378966342a33db68b319ebd3d3c8cbfa5ef99960b60001b6200b935565b6200696e7f1f87267f77a5775038e00cc6eee4ec5116447deaaa4efdc79891cec0d617237260001b6200b935565b50505062006c57565b620069a57f8e4328744bdb3d7032eb95f01e9af95c19bff169dc7a31ee2ece07152d1b06e660001b6200b935565b620069d37f5e3efd5b77e6973f1c0131b5ff1838a30b82fe44ba0b1d1b4e32763dcbba69e060001b6200b935565b609f6000878152602001908152602001600020600080820160006101000a81549073ffffffffffffffffffffffffffffffffffffffff02191690556000820160146101000a81549060ff02191690556000820160156101000a81549067ffffffffffffffff021916905560008201601d6101000a81549061ffff021916905560008201601f6101000a81549060ff02191690556002820160006101000a8154906dffffffffffffffffffffffffffff021916905560028201600e6101000a8154906dffffffffffffffffffffffffffff021916905560028201601c6101000a81549063ffffffff0219169055505062006aef7f824ad5c88b91f1831d401239a9fe85442a20d430fe0b8e535706f2ba06780bae60001b6200b935565b62006b1d7fe98796f534b262b30dcf19bd1a176c129a3341f291ce3d2a792ab9293b35978360001b6200b935565b600160a0600088815260200190815260200160002060006101000a81548160ff02191690831515021790555062006b777f6893104ac4fe76312d05c7b835adcf6b112072123bd23cf43e6aba8476ce06f160001b6200b935565b62006ba57f6e4c0bc5eef14a1bd5f594871eaccc9218e864ec24836e34d1e77851feaafac260001b6200b935565b6003600481111562006bbc5762006bbb62011efb565b5b867fae774ee17b72f8c8f4c7144d988d61a4da4df057d2b0f9eb733e5a4e3912a8fb60405160405180910390a362006c177f9817f10da418d5a975cbc0d98ab16d13fee06c6a79c253abf6180d69ab7e11df60001b6200b935565b62006c457f55e2f6019168f749ae494b0d4ee049064910846d1b3170d556a0526680d567fc60001b6200b935565b62006c53868387876200c761565b5050505b505050565b600062006c8c7f5a516ae8327d3a513459e0e80c3e7eea0ba991975b1ee7d7565ab18fdf6e311f60001b6200b938565b62006cba7f841a9740c8984aedf6a1c5c86feccfc4c327f59ffc3c954a07a70d4e077efb4060001b6200b938565b62006ce87fc0b042b9fa3dc55c441d0ecc9339247dc0fd2476ca7824dfa180ea50103cab6f60001b6200b938565b6002603654101562006d945762006d227fe76a7115eda418390ba37946b3b9d27bec94ced2e51f066a6df571579994973660001b6200b938565b62006d507f5327cad35e79f742b8f23faf1bec73824fa97c35597ab49752e86be2427ebde560001b6200b938565b60365460026040517f19cfb74d00000000000000000000000000000000000000000000000000000000815260040162006d8b9291906201334c565b60405180910390fd5b62006dc27fb7bc21c7deef6cf3fb9688d58a4c8d8701ce315d59898a22ac800bd9be93269560001b6200b938565b62006df07fe1b89ac1437dfef66d58b9cacec487164cdea7fc47520c98ef6f063c9fcb279560001b6200b938565b62006e1e7f10dc2e3bb96ec1bf2d93baa51688197f6b88e1286c27bd25d117326facf895dc60001b6200b938565b6001600281111562006e355762006e3462011efb565b5b61016e60003373ffffffffffffffffffffffffffffffffffffffff1673ffffffffffffffffffffffffffffffffffffffff16815260200190815260200160002060009054906101000a900460ff16600281111562006e985762006e9762011efb565b5b1462006f885762006ecc7fee93c52ea6261f46f430f3cd2665490bbc01767716f22cb5ad6d21746058a45560001b6200b938565b62006efa7f638e6a9bf690ef0a960f1db71e2cbc37fbe2c5900e9c8d6d4dba17b41841425b60001b6200b938565b3361016e60003373ffffffffffffffffffffffffffffffffffffffff1673ffffffffffffffffffffffffffffffffffffffff16815260200190815260200160002060009054906101000a900460ff166040517ffecb516e00000000000000000000000000000000000000000000000000000000815260040162006f7f929190620131f1565b60405180910390fd5b62006fb67f2384f4017bba35e209481b7865527b5b2716421fd5f80a0e62ae8d1b46d52ebb60001b6200b938565b62006fe47fb5ff142df624d918d16e3d0c032eaa8e818e40a52d8222dec790af688dfae35960001b6200b938565b620070127fe6e6bac8d926098c60df7bed31382036e8b4201dfd5e2ec8ac0fa1f093da426460001b6200b938565b6006898990501080620070285750604089899050115b80620070375750600287879050105b80620070465750600587879050115b15620070ed576200707a7fc134c13d63c260a88946be5d3ffd3b51c83cfb0b72862807b7c5e839eb0686c760001b6200b938565b620070a87f0c1a7cf1ec40f87416052b8df4f8977ae468f796a3507ec44e21bfa047c2e0f460001b6200b938565b888888886040517ff04731cc000000000000000000000000000000000000000000000000000000008152600401620070e49493929190620138fb565b60405180910390fd5b6200711b7f6756155416a14d1ca812fc710937e2cd5e31628082aa4538d2e455d45b222c7260001b6200b938565b620071497f8342949fa0e0dc3e40d84f6f1ed832c1cbf6a1ff0339141b0d25184756388bad60001b6200b938565b620071777f8e3e5a84a1fd0f1ae45a87757150d1ed219fa4801f353d902f82d49027f4ea7c60001b6200b938565b61017060009054906101000a900473ffffffffffffffffffffffffffffffffffffffff1673ffffffffffffffffffffffffffffffffffffffff1663d32a3d308b86866040518463ffffffff1660e01b8152600401620071d9939291906201393a565b60006040518083038186803b158015620071f257600080fd5b505afa15801562007207573d6000803e3d6000fd5b50505050620072397f9e2af9570950b057e754d987c2ec99011904047e84ab90a4a04b4c6551d9278560001b6200b938565b620072677fb522aaa5f4d76e5c8ca610e8817c89e2cfcceb89a5e87dbdc12e7e6172c1564660001b6200b938565b6200728b6002600381111562007282576200728162011efb565b5b6000846200ba08565b9050620072bb7f431d3deb258cec1f6ae77caa569302842e1d3179a65dcfc62264ceecf44adef160001b6200b938565b620072e97fbb15be0b93e3a7cbebe39735f08004fa3eb5e6e6d96c5def571930fbaf83abe360001b6200b938565b6000610173600083815260200190815260200160002090506200732f7f4fc79ee76a3d52c7b4848bd8427e8927b455d617399d20755034c085bbb41c0360001b6200b938565b6200735d7f88c936e0058750eb15723bc58f9e91ec94b0abbc85f7eae88b93fd1187bcd9ae60001b6200b938565b8a8160000160006101000a81548160ff021916908360ff160217905550620073a87fd82d082918af03375b64bbfae5cc7807708c015499134c62fb5f20023c27700360001b6200b938565b620073d67f61e719fe3818236ecc8e8d9db80337ec4aa3430bd4e0a701e4e704c9d5b84b0f60001b6200b938565b8989826003019190620073eb92919062011a41565b506200741a7f51efccbfc64c049aa8d1f7ebbfcf1a2a84a257092908e2a9770df00d2f561a6e60001b6200b938565b620074487f09e44bd5f6bdf0e9392841452c9ae1073e498d502d1863a01e7d83940e21f51260001b6200b938565b87878260010191906200745d92919062011a41565b506200748c7f8a4f74f3c296c12a4415a603a469617b5690508270814552b1cd7797eedfd0cb60001b6200b938565b620074ba7f4aaeecd5be0b1e28539c7978495f876cd0c3109c0e83c59d65bde02ed86f62ec60001b6200b938565b858160020181905550620074f17ffc5067ec31631f32fb6de5ce15a83954bb17ca61509073b115d3d824630e4d9a60001b6200b938565b6200751f7fac97b70155e7f612e87fd821f242c3ed41cc3d001b44a5a7513512fc371fe35b60001b6200b938565b338160000160016101000a81548173ffffffffffffffffffffffffffffffffffffffff021916908373ffffffffffffffffffffffffffffffffffffffff160217905550620075907f113c0fef4210b24941e5b33620f5d0f09809f283179cc00aee27dadb5d3f865d60001b6200b938565b620075be7f8dd5e96fc74c4701b56616e96acb13e71d9ddec0da04dbf58dc0f86047d254b460001b6200b938565b8484826004019190620075d392919062011ad2565b50620076027f6872aa7974263e4016369c35984e314e6dd99c02171905bffb94a9eaed2a005e60001b6200b938565b620076307f981f8765d293fe1c2873c7368aea30d63beacaa2e2f29550fb219394f4cf803860001b6200b938565b3373ffffffffffffffffffffffffffffffffffffffff168b60ff16837fc5c9cca3aeda2e50159dabee640badf492a6600bac4e663f5cc268db5362059e8d8d8d8d8d8d8d60405162007689979695949392919062013970565b60405180910390a4509998505050505050505050565b620076cd7f2d1ad19664f8d240af3eeaa17bd9d405a541e6337a4fe22e67b5b8b07b8f1cc060001b6200b935565b620076fb7f339cca7326f7e51390a5853762373985d812a966128d07bc869264de4fd6724360001b6200b935565b620077297f8b0a20dcc7d2a9c94d52854d589df3245d8d7f203e318bd5095abfecd7d2341360001b6200b935565b6000609f600085815260200190815260200160002090506200776e7f6c7cdb929bd65f201f08261dabbc8db4bd7440a46953bfb6abec5a5e1df901d560001b6200b935565b6200779c7f2afb49dd5112631154418372bd3180c426c0173741670500532ed03fd8e4a7ed60001b6200b935565b60026004811115620077b357620077b262011efb565b5b8160000160149054906101000a900460ff166004811115620077da57620077d962011efb565b5b146200788e576200780e7f792786cd60569669d10d0b0d399c57e0dc1e7a59a6248ce62fd3b902df1a460260001b6200b935565b6200783c7fb32c119e073b8630a058164dc1a45c9eec10be263923c92fdbf0bcacb6848a6c60001b6200b935565b838160000160149054906101000a900460ff166040517f59ccb928000000000000000000000000000000000000000000000000000000008152600401620078859291906201389b565b60405180910390fd5b620078bc7f4fe2134f04bddb569ff869b173f5785ee16dcfc12e79336cd1b1d29382e2f7c060001b6200b935565b620078ea7f4d236df4483428d8dae41aec5530808267fb14a8d5358f67a953db3ada9b7eee60001b6200b935565b620079187fef2835311bfd51e7258e1d0582093d485e24eb3505e67d51bf359683ef2d150260001b6200b935565b6000600a609c60009054906101000a900473ffffffffffffffffffffffffffffffffffffffff1673ffffffffffffffffffffffffffffffffffffffff16638e539e8c84600201601c9054906101000a900463ffffffff166040518263ffffffff1660e01b81526004016200798d919062013a11565b60206040518083038186803b158015620079a657600080fd5b505afa158015620079bb573d6000803e3d6000fd5b505050506040513d601f19601f82011682018060405250810190620079e1919062013235565b620079ed9190620135c3565b905062007a1d7f015bc3cb2975cf9efa1b44f97fff4efe6f4f8f6c64109f0178d6769a04ed57c060001b6200b935565b62007a4b7f97d23df8029c1e6a3cda8c6a6261924e98557ab4b7817085432029ff87d9a13e60001b6200b935565b60008260020160009054906101000a9004600d0b905062007a8f7fd7af295b07685373c5a627715b46455693a1dcbd7b504fea1bc8669431c4d2c260001b6200b935565b62007abd7fe0b561724c0abac4ae7f177817407bf43c48e27626999cf0d359e0c098dca0ef60001b6200b935565b600062007aed7fd55d54f6837079dd1ddf0a3335d12869de2c4753fae54c641dbe1b7ef5c913eb60001b6200b935565b62007b1b7f83964a696d386d9314726480cf52c7c451631968bea8292f926803d53c2c5bca60001b6200b935565b60005b868690508110156200831f5762007b587f30cb96bf2e817013377195d78c83189366bc053f4847161a1af9d3a74354bdd760001b6200b935565b62007b867ffc9daf77a60c9e6fdb94da5ccea2c19fa9df07c7d56b6d3608870772937d533f60001b6200b935565b600087878381811062007b9e5762007b9d62013a2e565b5b905060200201602081019062007bb5919062011ec9565b905062007be57fad6c9365a77a53817274504817c9b6135ba1aa2ac55b928747d4aba033f19fca60001b6200b935565b62007c137f0bdd8ca799cd8ce838ebd8bc85b07c7ce2adff599b1e3700909ab118240905d860001b6200b935565b8273ffffffffffffffffffffffffffffffffffffffff168173ffffffffffffffffffffffffffffffffffffffff161162007ce25762007c757fb13b8b1a660178ece70cccc8c085303b2fabca7f244f2b4fd04791977213be7560001b6200b935565b62007ca37fa8f754fa0314414cd0c45a35e4cf7d77ae1a701b147df1fab39bf7f335d8f50f60001b6200b935565b806040517fdc2ba98e00000000000000000000000000000000000000000000000000000000815260040162007cd991906201236e565b60405180910390fd5b62007d107ff6e680acf92d7f6bef66960b4d9406f872ed5bb4485703006cca5c7ef7fec31860001b6200b935565b62007d3e7f0eb1db1a20ae93d17cf6ca201b3b4b702a467c0d7e08420f689bfc3c2a36055060001b6200b935565b62007d6c7f391dffae2a8491e902b2cfc0d990ada568a4830ba1261c137745a8f2dbc999fa60001b6200b935565b80925062007d9d7f1577b90e559aa4a179474770a91fe5cefa8c7ffb1e69e09553650deee7c340e560001b6200b935565b62007dcb7f0722ca6f2538e436ce963d12006b019afa38b3629bea963c19b93d45ebbd414a60001b6200b935565b60008660010160008373ffffffffffffffffffffffffffffffffffffffff1673ffffffffffffffffffffffffffffffffffffffff16815260200190815260200160002060009054906101000a9004600d0b905062007e4c7fc98a6ab28eed4b7c8beb1f1c3ca60e06166318912bd6d7c4d440f3be8347925060001b6200b935565b62007e7a7f29cd0222794aac7e030f62557f1d1d775d41355fd0140795e46007fc5bfe23b560001b6200b935565b600081600d0b1362007f235762007eb47f992860dcd027bdf7f425857aee5631edf07f1e014e29c6a491af3c995d82fd1460001b6200b935565b62007ee27f7dff916b3165e075984e617f92fd58c815c298b0efb9a559a938311c63690af860001b6200b935565b89826040517f890c638200000000000000000000000000000000000000000000000000000000815260040162007f1a92919062013a5d565b60405180910390fd5b62007f517f2a56ee1945329474990552f994a862a05a5072c2046969fd40d37d5ac75f7a5260001b6200b935565b62007f7f7ffc6b3131fac3003b7f3a1a09d0e0f5ed2a05dce55879d0d8c8577a2199f0418d60001b6200b935565b62007fad7fc7ea7f1e1a2fc1e6e8cd40cf6ec66d24e27cd86d13701a06e58e5dd6cc38d2dd60001b6200b935565b6000609c60009054906101000a900473ffffffffffffffffffffffffffffffffffffffff1673ffffffffffffffffffffffffffffffffffffffff166370a08231846040518263ffffffff1660e01b81526004016200800c91906201236e565b60206040518083038186803b1580156200802557600080fd5b505afa1580156200803a573d6000803e3d6000fd5b505050506040513d601f19601f8201168201806040525081019062008060919062013235565b9050620080907fa47959130d8bfdceb7b66ef08386436ec2fa3a82412582e5ffa90c1d610c585660001b6200b935565b620080be7fb95f6510e8f1ca81f6636004673a663f05b48ff5bdcfae0356ac454732ca466360001b6200b935565b86600d0b81600d0b13156200816057620080fb7f3f111781132bc51e4b999757788023b1edbc28b02d9a1e0146a2591d347f06f860001b6200b935565b620081297f5d672e933ed876e35b93b6f554604a76df04c88b4ade28c243af52b3177370d460001b6200b935565b620081577f2a3efcc012e3e8dba7ef853920cefb44131f939091761b7cb62fa29de19dab3560001b6200b935565b8690506200818f565b6200818e7f1c4a9b6b8b6f8a625d3035d145fec66c218d17c62647460635c565d3fb1f14f460001b6200b935565b5b620081bd7ffdf71b73ce195f89b374d88f143df5d5c0fdeec77b1f8e9a30202bf410a51b6960001b6200b935565b620081eb7fcfb794c7bae9e8527cefa4fc2a66d4ddd5583754679d168d01869aa8f37be37a60001b6200b935565b81600d0b81600d0b126200825e57620082277f2f9d43b5dfb100848f1b186e1c8442602312f7cfd8fe32f4f1472bb8597c396460001b6200b935565b620082557f313ea89c3819378373a1f32da346eb9ea0320ce13959fb92cadd0947f41b957760001b6200b935565b50505062008309565b6200828c7f95793c6dca07378cb48963f942f10d7f86f8272370a67995d0edacabd21bdd8760001b6200b935565b620082ba7f7b2b873d7475d0b72a3d3374b7b9ecb740c6c8c7395b0c1d27994ff9a831bf9860001b6200b935565b620082e87f240dad64cf36fce2065a9e54109249e5c986b3fcfdf91798c87d0f288a066dfc60001b6200b935565b8082620082f6919062013a8a565b8662008303919062013a8a565b95505050505b808062008316906201301f565b91505062007b1e565b506200834e7fda97fffe138d778735d72610b1d7af955388deca977eda81310a86ede36ae1e060001b6200b935565b6200837c7f6ec1dfb8109f71fa612f7cd309b8355c723c3f6f02155f7f8125e7cb4a137d3960001b6200b935565b6000620083ac7fb66f518375d3b1d9d34e987fd1eef29ec6296244c738dd90f5dc31d7fa28eef860001b6200b935565b620083da7faecd6dce80ff3968a8d83b2a5459c04b8e3c4e96095b3f9b7b5719ce2748862c60001b6200b935565b84600001601f9054906101000a900460ff1615620084b157620084207f53572ec5107515817e2aa7b2cc229f08abcbb393a91217cf395d9c18170a339e60001b6200b935565b6200844e7f0ae7c4912bb51ee7734debd23db3fe479fd2e95feded0121aa246cd45216384c60001b6200b935565b6200847c7fd923ab3287c95cb1479f8938ca372c1cbe6c5da945a1d833974a6981e3b4898d60001b6200b935565b600385600201600e9054906101000a90046dffffffffffffffffffffffffffff16620084a99190620132d1565b9050620084e0565b620084df7f4b6a9c72ea1cdc8a0eac372e548386361e24d65a82e7affbd7ba843e4c868a8060001b6200b935565b5b6200850e7f72ee38cc6f51874e007cf1958171786547d70ae9a57247b136b70beaaf28df4760001b6200b935565b6200853c7f35f008287c1f1aa4b8c9a7a33154b49893dffb94ab0d9308400a98d40662187860001b6200b935565b80600d0b83600d0b1315620085e857620085797fd9bacc578b1a5820e01f179ceccc123684af430dc3a4e6b3417724644314d9d760001b6200b935565b620085a77f2d602fd9646e3797bdec0cad9781acd99557c5a72ee406259cd65c62bb2a0d2e60001b6200b935565b87836040517f30279636000000000000000000000000000000000000000000000000000000008152600401620085df9291906201375e565b60405180910390fd5b620086167f92012ed7c9c76712d8ce58e8718ca35ab86c9f23d411281c22c6513e9a03666c60001b6200b935565b620086447fffb397d4f21d9cbe355d732bf1a6e451f2b268caa70009241b6e8f3e85248ded60001b6200b935565b609f6000898152602001908152602001600020600080820160006101000a81549073ffffffffffffffffffffffffffffffffffffffff02191690556000820160146101000a81549060ff02191690556000820160156101000a81549067ffffffffffffffff021916905560008201601d6101000a81549061ffff021916905560008201601f6101000a81549060ff02191690556002820160006101000a8154906dffffffffffffffffffffffffffff021916905560028201600e6101000a8154906dffffffffffffffffffffffffffff021916905560028201601c6101000a81549063ffffffff02191690555050620087607fceee572cf20eec2e093d93020fe0a2a76009b136e8a4c838fbbc15b0fc01b4ec60001b6200b935565b6200878e7fc09646f9939b84f31f43cf498346b09ce405e6182e28238b02ff4fa124a2e77760001b6200b935565b600480811115620087a457620087a362011efb565b5b887fae774ee17b72f8c8f4c7144d988d61a4da4df057d2b0f9eb733e5a4e3912a8fb60405160405180910390a35050505050505050565b620088097f855011581130e9204c7461106e14223531e8c9403c960bf8c1f5949a16a5d7af60001b6200b935565b620088377f39bd3b262cd1eb2f237b287b8876a13be873dff75f85bf4c7eb693770525505060001b6200b935565b620088657f75531efbc3f4f9a878e2d2493d3f4d4efffc3c8faaaea187f0c9ba25175d885360001b6200b935565b6000609f60008381526020019081526020016000209050620088aa7ff21b97c286f7270659ba51d77c54736a67ac96ea6582fc498969c480b9de596960001b6200b935565b620088d87fcd273b83087106a7c60456bfaddeacb7a2d34602dd00a00f167db6bb5e04181c60001b6200b935565b60016004811115620088ef57620088ee62011efb565b5b8160000160149054906101000a900460ff16600481111562008916576200891562011efb565b5b141580156200896157506002600481111562008937576200893662011efb565b5b8160000160149054906101000a900460ff1660048111156200895e576200895d62011efb565b5b14155b1562008a0257620089957fe5340852e113fc7b7afac70901354e0cb5a1eeed0cdd233fab97fc08f319176960001b6200b935565b620089c37f8b69120b2f06a9cc1035299e1bb2439a29bc0ce8e83e3e8e3d68e59f60aca02560001b6200b935565b816040517f8166c027000000000000000000000000000000000000000000000000000000008152600401620089f9919062012127565b60405180910390fd5b62008a307fdfc5f72d00e0142baddc36e94189f8ea5503ec67fdb175068685118bde46010860001b6200b935565b62008a5e7fe8d13d2565ace3831e64df03c65974c574afda84a52140c19ed00498ffa67f5360001b6200b935565b62008a8c7f442600453012d64f41bf3ea51c25a36b9411e1c9d51c7d46b1b16fc926a8ce0460001b6200b935565b3373ffffffffffffffffffffffffffffffffffffffff168160000160009054906101000a900473ffffffffffffffffffffffffffffffffffffffff1673ffffffffffffffffffffffffffffffffffffffff161462008ba55762008b127f2337fb2e5cec6de88b035580bdab2350a0126663a10b60963dd2cd8540c5edf860001b6200b935565b62008b407f023a2df81df1fa77ca78d375b78c0fc57b2becf40a718da6da98a18fe7e19fe960001b6200b935565b338160000160009054906101000a900473ffffffffffffffffffffffffffffffffffffffff166040517f295a81c100000000000000000000000000000000000000000000000000000000815260040162008b9c92919062012f39565b60405180910390fd5b62008bd37f2dd07f247dd6693ae7bde7fe854b15cf66feb3f6bd64e7316484187aeb8b7a4660001b6200b935565b62008c017ffb925d6a9a1869beb52f093aa2fc0e38b9331b7c034e2180be65ed8450da9ed660001b6200b935565b609f6000838152602001908152602001600020600080820160006101000a81549073ffffffffffffffffffffffffffffffffffffffff02191690556000820160146101000a81549060ff02191690556000820160156101000a81549067ffffffffffffffff021916905560008201601d6101000a81549061ffff021916905560008201601f6101000a81549060ff02191690556002820160006101000a8154906dffffffffffffffffffffffffffff021916905560028201600e6101000a8154906dffffffffffffffffffffffffffff021916905560028201601c6101000a81549063ffffffff0219169055505062008d1d7f27c8bb593768be122b12f2fc184bde3467a1f72417cf0df10ca62a399f6171fc60001b6200b935565b62008d4b7f7eac864ee467b4515ce39e3c179dd348c545f251353b0d23463c41a4e4e1f80760001b6200b935565b60048081111562008d615762008d6062011efb565b5b827fae774ee17b72f8c8f4c7144d988d61a4da4df057d2b0f9eb733e5a4e3912a8fb60405160405180910390a35050565b600062008dc27f1a017b2264f50bbc6f8a4c1581ad595f703a7a26133b4d74c66b83dbf8413cc860001b6200c75e565b62008df07f7df969475fa36decd3bf79c9da58e08f383f888ddb16b14097dfc9daf36290e160001b6200c75e565b62008e1e7f8fa670fdc4b02f568ad055741ab5d416493a8155b81b8b2fb8f2b1a93ed772ff60001b6200c75e565b62008e697f65482de5000000000000000000000000000000000000000000000000000000008973ffffffffffffffffffffffffffffffffffffffff166200b9de90919063ffffffff16565b62008f2b5762008e9c7f1810fc1cd858c5e2f79e04457f92bcbcdf306078cb476f758cf50e83194d527660001b6200c75e565b62008eca7f6f6fe14797e8dcc756dedce07c5c0262a39f81188ad35089b1118ff88f9786dd60001b6200c75e565b877f65482de5000000000000000000000000000000000000000000000000000000006040517f8a05a4c600000000000000000000000000000000000000000000000000000000815260040162008f2292919062012dbd565b60405180910390fd5b62008f597fefd40c09ee759d694e9135d9110384c6590d5abeae22d9c730d4bcd501e0eb1d60001b6200c75e565b62008f877fddbd531a3a5921478b7539b060a9b3de344bb1e400d935e4ce824eb6f861a1ce60001b6200c75e565b62008fb57f391017c30fdf61a2312a79f13b03ed2befccef853d284f5b1e0337d42777fce560001b6200c75e565b60008873ffffffffffffffffffffffffffffffffffffffff166352f377896040518163ffffffff1660e01b815260040160206040518083038186803b15801562008ffe57600080fd5b505afa15801562009013573d6000803e3d6000fd5b505050506040513d601f19601f8201168201806040525081019062009039919062012d4d565b9050620090697fd5b9db9863a3481a2cfee25a985573567fa83af5d8abcd3c2ad869f50a2d49ce60001b6200c75e565b620090977f3902b394e7e1e21f6b79477aa8573d98e243e6d1c4e45ee18a6d5e6df52a1f1660001b6200c75e565b620090e27f212d8d8c000000000000000000000000000000000000000000000000000000008773ffffffffffffffffffffffffffffffffffffffff166200b9de90919063ffffffff16565b620091a457620091157f14b9ccf64c82bfd42a2e22da82539bceb42765b0195cf2d6f9b3b3c38881793960001b6200c75e565b620091437febadd5dcdf34162c1b3d895b35279f0791946d847515666d59fb90d3a1dc5a0460001b6200c75e565b857f212d8d8c000000000000000000000000000000000000000000000000000000006040517f8a05a4c60000000000000000000000000000000000000000000000000000000081526004016200919b92919062012dbd565b60405180910390fd5b620091d27f085bf8a08383ccc64b613330f9304d4e14538de23eafa7ff037c715bb10ec70d60001b6200c75e565b620092007fcac98fa1fd164e721705189d998183f4f325a87dbdd7568d83a4b9aba655f0b360001b6200c75e565b6200922e7fc8e95c09094f4350dcb07ebf1571ca8e1c27cb0913e007e4225d96ab45f2ca3160001b6200c75e565b60008673ffffffffffffffffffffffffffffffffffffffff166375d0c0dc6040518163ffffffff1660e01b8152600401602060405180830381600087803b1580156200927957600080fd5b505af11580156200928e573d6000803e3d6000fd5b505050506040513d601f19601f82011682018060405250810190620092b4919062012d4d565b9050620092e47fb7ce7d600591650249e283f0aa61bb6fb7e5794b9622e7681b08b5528dfc795860001b6200c75e565b620093127f50be180c7c50890a083e2502733eb8bf9bfc6118abbf0180d21831df7aa6fcf760001b6200c75e565b808214620093b757620093487ff0726d6ffc9387db3664e655886e0b7baa550a477c9e7d3010709babd9d8176360001b6200c75e565b620093767fcd4f94ee85f6b378c482f00b5b55621169ae0141a60247788188f023f22bed6660001b6200c75e565b81816040517f4ed72888000000000000000000000000000000000000000000000000000000008152600401620093ae92919062012d7f565b60405180910390fd5b620093e57f0b2ff625cbaf2e962dd83a8982b706b58e0553d17d78d24c6cbcec1d38a46c8060001b6200c75e565b620094137fa8e63edeb098bfded9c4f6a23f3b6c301848f5968f200f58892c37d78019c2b460001b6200c75e565b620094417ff1fa44841e0aac11432696ed76c1c2c4cbbe5476947e045e1d31a9a90636107660001b6200c75e565b62009469610100600160038111156200945f576200945e62011efb565b5b176001866200ba08565b9250620094997f2c130e3bd98a3568485cb324b07727740550a95be98167b644cfb15d31ff8d7160001b6200c75e565b620094c77f8575b9a54ea4e528d5a32f3bb2caf21c35ada5d5754daabf4319f10cd1a3137e60001b6200c75e565b6040518060a001604052808b73ffffffffffffffffffffffffffffffffffffffff1681526020018a73ffffffffffffffffffffffffffffffffffffffff1681526020018873ffffffffffffffffffffffffffffffffffffffff16815260200189815260200187878080601f016020809104026020016040519081016040528093929190818152602001838380828437600081840152601f19601f82011690508083019250505050505050815250610106600085815260200190815260200160002060008201518160000160006101000a81548173ffffffffffffffffffffffffffffffffffffffff021916908373ffffffffffffffffffffffffffffffffffffffff16021790555060208201518160010160006101000a81548173ffffffffffffffffffffffffffffffffffffffff021916908373ffffffffffffffffffffffffffffffffffffffff16021790555060408201518160020160006101000a81548173ffffffffffffffffffffffffffffffffffffffff021916908373ffffffffffffffffffffffffffffffffffffffff16021790555060608201518160030155608082015181600401908051906020019062009685929190620119b0565b50905050620096b77f3bfd9f22154e6f57c3f12f95d40fcb6777fa165950d55dcd404b881957ad968b60001b6200c75e565b620096e57f0c0cddfbba97b89772b54a1a3d30b6b746520e9e5ab569f88af08d1df3964de760001b6200c75e565b8873ffffffffffffffffffffffffffffffffffffffff168a73ffffffffffffffffffffffffffffffffffffffff16847f7c6c720473e9e2352bc174a5845e65dd9294ec0bef4c342cc790679603fe47ac8b8b8b8b6040516200974b949392919062013b16565b60405180910390a45050979650505050505050565b6000620097907f11885a1ac6d8490991ba513ba36ae4c0de61183f7c5c0713d23f81d4d917447660001b6200c75e565b620097be7ff5d069405c355e417a2b12db73d0bca8e44a2a308010343a5894c2236b7b670060001b6200c75e565b620097ec7f26995ae61386ef9a4fe81f77f815325265a70b0e6e1dd2f28e5ff04faaeec99960001b6200c75e565b3073ffffffffffffffffffffffffffffffffffffffff168673ffffffffffffffffffffffffffffffffffffffff161415620098bc576200984f7f07a961493ad9f16a0ecde6e65f8179a6ff36df3c7fbd4c874012ab986d0a834760001b6200c75e565b6200987d7fb4b16916605b3a0ccb47873f1f4f4920fb2fd56ce507ce4292f0528e55c224ef60001b6200c75e565b856040517fd373dd42000000000000000000000000000000000000000000000000000000008152600401620098b391906201236e565b60405180910390fd5b620098ea7f93b2af4e3bc94c77cfe29f5f70e5d24488cac5edd87adad8b9038095afb07fc760001b6200c75e565b620099187f609a196e3bd3c823271de78b6311edff79db7fc3ed31db66936a01842141d9c460001b6200c75e565b620099467f17326e4e87e5ef169f8d5a5dd34135805c46f3e65a726456b455813d1e67bb6860001b6200c75e565b61010560009054906101000a900460ff1660ff168560ff16111562009a1257620099937f77d59577c3fd979a746451165a52277c74a2b27d32bf40affbd0fe400174dac160001b6200c75e565b620099c17f715a544af1beeae360255461c68ba3767effe9649533ecabb16b4a984c23d14e60001b6200c75e565b8461010560009054906101000a900460ff166040517ff59dbed700000000000000000000000000000000000000000000000000000000815260040162009a0992919062013b5c565b60405180910390fd5b62009a407f949d5420fb1587d080f2216ed2ff79cc78eaa8ce169102d78affa4db09fd88c660001b6200c75e565b62009a6e7f4bfb194816b6f99fb8a94f0d7ae3e327255819e14001e5d6d824665aabfae7f860001b6200c75e565b62009a9c7f916b8a242cc70cfde17d58610ea9b0b3586ae604c4d73bc63da0fd8226fcdcca60001b6200c75e565b62009ac361010060038081111562009ab95762009ab862011efb565b5b176000846200ba08565b905062009af37fcd7f5b0928b944f7a50ecfc6b184e1ae31f74093a092b8e388fc925aa1e4437c60001b6200c75e565b62009b217fb521a554105c5a3515a915c87b350884112593aaa4768f89f49645252b5c823860001b6200c75e565b60405180604001604052808773ffffffffffffffffffffffffffffffffffffffff1681526020018660ff16815250610108600083815260200190815260200160002060008201518160000160006101000a81548173ffffffffffffffffffffffffffffffffffffffff021916908373ffffffffffffffffffffffffffffffffffffffff16021790555060208201518160000160146101000a81548160ff021916908360ff16021790555090505062009bfc7f254e4eac554c76f78bca383d53542f57d794d4feb831abf94dfaa9b55bb887c460001b6200c75e565b62009c2a7f5e92568160c5ff501686dc93d9a14e47cdd1e20bd91373c440904fe8d49fd2ac60001b6200c75e565b807f3d396c764d54fb51df30fe13c8e351f9e3f6945949b662978f8440d5c9aa272b878760405162009c5e92919062013b89565b60405180910390a262009c947f7eec91f2a5df6e9c6769f0a88a76aa312fe6076439d9363efeb7960f7a37daf860001b6200c75e565b62009cc27f2ff4484b7bcb71105b9be30216da82c3157f48fd28155a69dc7c10e3d3b8679a60001b6200c75e565b600084849050146200a49d5762009cfc7fc75a1042d14fa45022f4d746c2052ec11e5d1b2d8b84b20da91eecb3edde349360001b6200c75e565b62009d2a7fe345a6b5e8ba66d4bc7f372da527880701b9ad482cee4b20dc4a6c101b680c3360001b6200c75e565b62009d587f86ec3216bcef7cac22bf7ece411172b967be7e8a9546ffb51bdca0df5227becc60001b6200c75e565b62009dc57f79efbdbc00000000000000000000000000000000000000000000000000000000609c60009054906101000a900473ffffffffffffffffffffffffffffffffffffffff1673ffffffffffffffffffffffffffffffffffffffff166200b9de90919063ffffffff16565b62009ea95762009df87f3592cccc28efd32b3836f15ce3256800f96aec491f1e3a34bc23e5955f5101b360001b6200c75e565b62009e267fa136590622876265e9748ad8b9c837e5a0cf136661a415870dfd33c389ca3a7e60001b6200c75e565b609c60009054906101000a900473ffffffffffffffffffffffffffffffffffffffff167f79efbdbc000000000000000000000000000000000000000000000000000000006040517f8a05a4c600000000000000000000000000000000000000000000000000000000815260040162009ea092919062012dbd565b60405180910390fd5b62009ed77f571c1cb1996a0281c09349ad23465b79f0731384c3139e8285278553c292384760001b6200c75e565b62009f057f1fc069c2efce549766d9a10b9113a2262d27b41dec8a4b0be0e935fe86ea5e2460001b6200c75e565b62009f337fe1a48b5cc23a06ed21d87c9f93113724b3d1b7c9a3cd8ef45214abea5cd3848160001b6200c75e565b60006001609c60009054906101000a900473ffffffffffffffffffffffffffffffffffffffff1673ffffffffffffffffffffffffffffffffffffffff1663c215290a896040518263ffffffff1660e01b815260040162009f9491906201236e565b60206040518083038186803b15801562009fad57600080fd5b505afa15801562009fc2573d6000803e3d6000fd5b505050506040513d601f19601f8201168201806040525081019062009fe8919062013be7565b62009ff4919062013699565b67ffffffffffffffff1690506200a02e7fab6706d2fe8938ec6b1af26588f2b9a519e540d51fc29095daf507571c3b6d8b60001b6200c75e565b6200a05c7f9005df4c41a7e54720dfeecaf8b1e93bc983d14fc3a2158e5142703ce86606c160001b6200c75e565b60005b858590508110156200a1b8576200a0997f4ee8e8e5a9931a1ba667ae86ed7fee2275174297604a8042b01a2b6d0e72550d60001b6200c75e565b6200a0c77f8519087b6bf385f7a9c3e26bb1a22915786115efd254f5c739deeeedcf4eca1360001b6200c75e565b6200a1a2836200a19c6200a1297fb4c3927df079ec170b21fc4852236d72322269647bbb93a3ccf5f47d7f87fd658c8c886040516020016200a10d949392919062013c19565b604051602081830303815290604052805190602001206200c588565b8989868181106200a13f576200a13e62013a2e565b5b90506020028101906200a153919062013c75565b8080601f016020809104026020016040519081016040528093929190818152602001838380828437600081840152601f19601f820116905080830192505050505050506200c5a6565b6200e39d565b80806200a1af906201301f565b9150506200a05f565b506200a1e77faee44afef6422dce2fbbace380b9245e56f3ebfe757c2736b4ec76aadffe8e9060001b6200c75e565b6200a2157f602e19d2f080c204e83578e2e1476813b67b6abc213f547036b403f12a4a31d360001b6200c75e565b6200a21f62003bee565b6dffffffffffffffffffffffffffff166200a23a8362004344565b6dffffffffffffffffffffffffffff1610156200a323576200a27f7f044f395c7465e3b7ed7570d8323bd324f6c25931392300543303b0b81cd1075c60001b6200c75e565b6200a2ad7f77dad05f37be2dc61b2503acf04541c2d5ca58e7c8b0620e61a494e82356518c60001b6200c75e565b7fffffffffffffffffffffffffffffffffffffffffffffffffffffffffffffffff6200a2d98362004344565b6200a2e362003bee565b6040517f21c1f97d0000000000000000000000000000000000000000000000000000000081526004016200a31a93929190620137c4565b60405180910390fd5b6200a3517f5517f74d09d38f8b6c9fd0cbf203260213d119e1ec45b66ac4c78e033cdedc0a60001b6200c75e565b6200a37f7fb2cfc5cd389c842514b4147931c754bc620a98fcf33680fd837ed316615962d560001b6200c75e565b6200a3ad7f616cddc32ea99c25f00203f6b1ea205741162db55a2d530cc8b7783ec1e883e560001b6200c75e565b609c60009054906101000a900473ffffffffffffffffffffffffffffffffffffffff1673ffffffffffffffffffffffffffffffffffffffff1663acb889868862015180609d60009054906101000a900467ffffffffffffffff16609c60149054906101000a900467ffffffffffffffff16426200a42b919062013699565b6200a437919062013699565b6200a443919062013699565b6040518363ffffffff1660e01b81526004016200a46292919062013ce1565b600060405180830381600087803b1580156200a47d57600080fd5b505af11580156200a492573d6000803e3d6000fd5b50505050506200a4cc565b6200a4cb7fdde0b8bfbbb4c4d89c0554a47c7e21bd0aa4f7dcd81fbe8e7fe29cc8111fa84b60001b6200c75e565b5b95945050505050565b60006200a5057ff9f68314fb371ae577de4b266085f09c9fd6d2953f059d00ab0ea3b3e1cb181c60001b6200b935565b6200a5337f49bed865b719956844d6bf194a11d6ca70bb71ac5f578b80b3cbff5dc7d856d060001b6200b935565b6200a5617f69d42554393c281325fede5b52f742a7830c45e416ab2214626716334c410a4e60001b6200b935565b609f6000838152602001908152602001600020600001601f9054906101000a900460ff169050919050565b6200a5ba7f64ff74f6a8bf61433958b566b498b69525d658c0162528e78cfe7d259ab3b87e60001b6200b938565b6200a5e87f03187373bd940e82b72707a1769405b54f4788fa10f82a629d2344f6bb9725a960001b6200b938565b6200a6167f8ef0e250b1b7a27665b5c69a62a3fa35aac81d00f7a7b28d4c157362df759f4460001b6200b938565b60006200a6bc6200a6717f7810dd197ac7d3d75533be9075215c92adaf5980ba9875b2d92f9d3c2c1c98c9866040516020016200a65592919062013d0e565b604051602081830303815290604052805190602001206200c588565b84848080601f016020809104026020016040519081016040528093929190818152602001838380828437600081840152601f19601f820116905080830192505050505050506200c5a6565b90506200a6ec7f4cd9b50f8ad789bbdc0020d3c1932906f09f4ffafdb234ebacdf2edf723a8c8860001b6200b938565b6200a71a7fb484115bec43a4fa016d5ff2429db1da01d72d9ee2fed4a4c8c6efc2ba85cf2960001b6200b938565b609c60009054906101000a900473ffffffffffffffffffffffffffffffffffffffff1673ffffffffffffffffffffffffffffffffffffffff16635249e862826040518263ffffffff1660e01b81526004016200a77791906201236e565b60206040518083038186803b1580156200a79057600080fd5b505afa1580156200a7a5573d6000803e3d6000fd5b505050506040513d601f19601f820116820180604052508101906200a7cb919062013818565b6200a86b576200a7fe7fb03f47cb9b4d75af42983b851e24fbf3154c0d7708372e19dc265043ee75c2d060001b6200b938565b6200a82c7f20456ecba98bb2c31160cff304829b74ffc1bbdcde7306fe65a5bfa27006c86960001b6200b938565b806040517f9941450d0000000000000000000000000000000000000000000000000000000081526004016200a86291906201236e565b60405180910390fd5b6200a8997f347002f8c490bce4835a50ccb7a42f4103649348b7e83257142dac9a7d3ba84560001b6200b938565b6200a8c77fd5ef400e4051f7457f6639f93017b7eb7fe5ed01e3db644cd40a34073d432f8060001b6200b938565b6200a8f57fa6871142c9743d9a833483bebb09a53cbb372ed6955299d98a9a1cfd7074d89d60001b6200b938565b600560078111156200a90c576200a90b62011efb565b5b61016d60008373ffffffffffffffffffffffffffffffffffffffff1673ffffffffffffffffffffffffffffffffffffffff16815260200190815260200160002060009054906101000a900460ff1660078111156200a96f576200a96e62011efb565b5b146200abce576200a9a37fb8836c66d112d8ebea58e4f0e1416c783669f469f163c0dc95d47fa7f927bdc060001b6200b938565b6200a9d17f8d802f2227688610eee7e70e3ccd104c84980e9da62b71ea421da07b289d0fb760001b6200b938565b6200a9ff7f75f2638337cc8370980e0554e4f1acf8abb35738ffa24ac451192abcd5f1cf5360001b6200b938565b600661017560008373ffffffffffffffffffffffffffffffffffffffff1673ffffffffffffffffffffffffffffffffffffffff1681526020019081526020016000205414156200aae4576200aa777fb1214122d401313f4ed0a004b9e64cfcddc6226abb5882ff2e2c8cec2cc4c7cc60001b6200b938565b6200aaa57f382a18f03bbeaadc837aa4fe5a252e7b73c94a4ed80c925b48357b48dd2531b960001b6200b938565b806040517f2d4cc3330000000000000000000000000000000000000000000000000000000081526004016200aadb91906201236e565b60405180910390fd5b6200ab127fb55615f6aeb28d441c1d5317fe9a03bfaecf14edfb006e769fa2cb5ebc485ff760001b6200b938565b6200ab407f1ebaa2681062a089d71e2bc232bbfbe6bf62e8e9fba36115b95b4ccd7a095dc760001b6200b938565b6200ab6e7fe55d47561507b42a8268927534af59244c18d696b4c17c6571bf17b02e7543f260001b6200b938565b600161017560008373ffffffffffffffffffffffffffffffffffffffff1673ffffffffffffffffffffffffffffffffffffffff16815260200190815260200160002060008282546200abc1919062012f95565b925050819055506200abfd565b6200abfc7fa5be3d3966334fc685608c3eee1bdd07c1a2b14b9ce1182f0a263823b92b192760001b6200b938565b5b6200ac2b7f607a5fbb3fc427b7e7f65f994c0c12a15502b7546996b9325eb06e35a2b09d0a60001b6200b938565b6200ac597f51618d0f3248025668208193568421d09cd26a38e695a54883ff1d1d2db727ef60001b6200b938565b609c60009054906101000a900473ffffffffffffffffffffffffffffffffffffffff1673ffffffffffffffffffffffffffffffffffffffff16639b19251a856040518263ffffffff1660e01b81526004016200acb691906201236e565b600060405180830381600087803b1580156200acd157600080fd5b505af11580156200ace6573d6000803e3d6000fd5b505050506200ad187f6c340b8a1aaae67a329ce4c8a4e82f9a78b05849f762caa570f1d14fca919e4a60001b6200b938565b6200ad467fdfc49f38b4da977bc6d7fee65432a12ae76e8ee73ec99df6f2a723ef270f88f960001b6200b938565b8373ffffffffffffffffffffffffffffffffffffffff168173ffffffffffffffffffffffffffffffffffffffff167f0f349b542b30498ee9489ce96497606e076fe44b27a40c5cf9d3e7e6dfdb9afc60405160405180910390a350505050565b609d60089054906101000a900467ffffffffffffffff1681565b6200adee7f46166e8725bda5291acdd472e9494dbbf5c9eaedb3ca9cf3a564ab7baf36159d60001b6200b935565b6200ae1c7fd180a77f3d5d707a8885556270837296c9b4c393563e132eacaf828dbe1ad6cb60001b6200b935565b6200ae4a7f0997c6b59889f7b646c142cb6cf056d035a6d64744f20f162ab77c7975735c6760001b6200b935565b80518251146200aef3576200ae827fe29ff7ea9343985787455d0e991bde63ec870c110d8c536ff7a2858eae986aa960001b6200b935565b6200aeb07f613b9395fc8e448419089379aadc100c2132eb1efada08567096bc11d1e9354960001b6200b935565b815181516040517f577883930000000000000000000000000000000000000000000000000000000081526004016200aeea92919062012ff2565b60405180910390fd5b6200af217f1373de5f4e4d71de99f116de767dd57a293737c41fd9705f25b2222d14fe8a1a60001b6200b935565b6200af4f7fea0b9e269b554e6f3b48331624321d07b19c18a026974776922934d81f91d12660001b6200b935565b6200af7d7fc7b8e881189bc1f0dd13d191b2a0a928a5de264ed7c1979ad01b7b93f65b02d060001b6200b935565b609c60009054906101000a900473ffffffffffffffffffffffffffffffffffffffff1673ffffffffffffffffffffffffffffffffffffffff16635249e862336040518263ffffffff1660e01b81526004016200afda91906201236e565b60206040518083038186803b1580156200aff357600080fd5b505afa1580156200b008573d6000803e3d6000fd5b505050506040513d601f19601f820116820180604052508101906200b02e919062013818565b6200b0ce576200b0617fda0dd48eff21c0373452b26b99eba8802c48f553c4f10e2c31425d545fe2df3160001b6200b935565b6200b08f7fae4db9e6c916ef34a41e6d2fff425a3178942406a848df9153141742901ba25a60001b6200b935565b336040517f9941450d0000000000000000000000000000000000000000000000000000000081526004016200b0c591906201236e565b60405180910390fd5b6200b0fc7f947d886bf30893bb87625733a040793261bb852a1fdbe418c2192a9541060f1260001b6200b935565b6200b12a7fe030c0384ca44dd22079105e9f963a6922baa230875b44a4b88ae76e87ff144960001b6200b935565b6200b1587f9ae54c4a6464b7359ee62653d855c9cd577b5007ecbea7dfcef96fe05360314360001b6200b935565b60005b82518110156200b90c576200b1937f7a875da3cd8b094e32d69169edf48c27cef7fb5e6f00156c4c821ab5f3f3454a60001b6200b935565b6200b1c17f4ff2aae35c64384243bb80f4876ab7f72827e61512936cd19b2c90bf67189aab60001b6200b935565b60006200b1eb8483815181106200b1dd576200b1dc62013a2e565b5b60200260200101516200e75d565b90506200b21b7fe45f50a8176768cd0d43d990e2bb766f085fd04e6817b34c63a2ceacb6f530e860001b6200b935565b6200b2497f153bc0134a51adadeed812adefc62d730bd9fa58fef0874acd66d32d14386d5660001b6200b935565b6000609c60009054906101000a900473ffffffffffffffffffffffffffffffffffffffff1673ffffffffffffffffffffffffffffffffffffffff16633a46b1a83384600201601c9054906101000a900463ffffffff166040518363ffffffff1660e01b81526004016200b2be92919062013d3b565b60206040518083038186803b1580156200b2d757600080fd5b505afa1580156200b2ec573d6000803e3d6000fd5b505050506040513d601f19601f820116820180604052508101906200b312919062013235565b90506200b3427f1d2e17330325e5ca6c0c1a882e323ada5b8b9e71030a999b7c67914eae4c4ce660001b6200b935565b6200b3707f6efd955b95d6d95605a1251a67207a1d8a437e1918532e7f444c906fe28310c060001b6200b935565b600081600d0b14156200b410576200b3ab7fc62d0a38cf1a3b35ebfbb1fd1e69a7426aa14813b2e4947c37a87a3f9fe1f14060001b6200b935565b6200b3d97f65edf1d87725a6bca196afb00322f8205d9afe28f2ead210a5506b2c805e87e960001b6200b935565b6200b4077fd84680fa25e2d3d79034efafadd8f749b1409897c5bc1eae1d7acd47d9597d8260001b6200b935565b5050506200b90e565b6200b43e7fe30f93c597d80330f28beecce3ecfb4245663106bb26344fbaa896993201928e60001b6200b935565b6200b46c7f547ed0f7acd035c7e820da1aef33fdd75dd43e881e7455ca3dd9768eb9f5cde160001b6200b935565b6200b49a7f8e1c25d8d21db7003b7e7ee878cd0fc29a5aca26fd5ef572501b8b8e308956d360001b6200b935565b60008484815181106200b4b2576200b4b162013a2e565b5b602002602001015190506200b4ea7f7c4fdd5226ddc0a0dda9c8c41160be6a0c70e6ccccde77b51b60d57644336cd160001b6200b935565b6200b5187f2ecc4eed7c95572bf5e0fe44052cf9eb876f098d237718deb680d4a28455ab5360001b6200b935565b60006200b5487ff82119eb64f821b7f836bf06526cf586d67761ffc517a3aa3216e86ede30235760001b6200b935565b6200b5767fb7b07a25bb8167c8749f79aa1fe49a157c0f95ccb343b0f2fbefea4817096e1160001b6200b935565b600082600d0b14156200b617576200b5b17f6ccf37fd8e4be2285737ae054c029bea48fcd7e65fa8ecfc90bacd25c541761660001b6200b935565b6200b5df7f9b5064de9760b642394812afcab4eb55d59c98984f4ef9b4691dfc5a2487d98560001b6200b935565b6200b60d7fd275f154a5a5f63440af86746283fe398290b5f9191238970e7c14918b4f3ba560001b6200b935565b600090506200b86a565b6200b6457ffa9e3c8dfc2a320658c044122b8a289dd5c4062760a45a3bad891c9c59dadf6560001b6200b935565b6200b6737f9c7732b6fae350e599746d871cc1ce5fb8f932c148ca2e9c62253b91e62577ab60001b6200b935565b6200b6a17f740c44f532053a14d9aa59af280545cd1baca225f77d196de45799c8586f232260001b6200b935565b600082600d0b136200b6bf57816200b6b99062013d68565b6200b6c1565b815b90506200b6f17f9e77b12667b540583574c48d0e8745d3b3eae9488e687e9c6a726060121b02e260001b6200b935565b6200b71f7fc23e07dfed13600bd37f1bd57d7d6d924dc55cd9f5c36a0ae5ffd73c6b15de2e60001b6200b935565b82600d0b81600d0b13156200b83a576200b75c7f70efd843e2377450a33426a35c2afad91549c6d9cde816aaa2d59c8776ec2f0d60001b6200b935565b6200b78a7f5530f0a733aa52e72932dddba1b9ac1746e46874ac5381fcfee0725c055504da60001b6200b935565b6200b7b87fb733c6ba24678ebb9b3c8f56d2aaca343add87df9432d89606911a365bdfed7e60001b6200b935565b80826200b7c6919062013db6565b836200b7d3919062013e2a565b91506200b8037f839d877fb0d486ce52aa76699e35fda2b16bf5803006aecdc6c5c4d1f6eaf77460001b6200b935565b6200b8317f6e8a2d5b2728959177acd2ac998595d5c614ef1ecc8cd473c45cd94741e1f74f60001b6200b935565b8290506200b869565b6200b8687fc8859a7496cc16a6e6fbe457c63f9ebdd446a20dd65c41702ec60590b815900c60001b6200b935565b5b5b6200b8987f8e4db682e3dccca57eb4babdc8de179a76447ba7b185b9377d17f3ad272874fd60001b6200b935565b6200b8c67fa7f564c6bf4ecb4341bb0eda35318ba11e188bc8f8a6584054135f0352315b1f60001b6200b935565b6200b8f2338887815181106200b8e1576200b8e062013a2e565b5b60200260200101518685856200e938565b5050505080806200b903906201301f565b9150506200b15b565b505b5050565b6000808273ffffffffffffffffffffffffffffffffffffffff163b119050919050565b50565b50565b60006200b96b7fe2725e0f601950e8b05b28bc2798e1ab535bf1b540e4c293f20f2212638fa7aa60001b6200c75e565b6200b9997fb96af91896ed38b4238d54444870d452eda2f24e0cc4b71b00fea421c9c8a34a60001b6200c75e565b6200b9c77ffb3b006da809990f10bfbccd6a5c1a42a9d84f0e8f79cec95923ffad50c45b3960001b6200c75e565b600160088361ffff16901c61ffff16149050919050565b60006200b9eb836200f56d565b80156200ba0057506200b9ff83836200f5bf565b5b905092915050565b60006200ba387fa4bd239e891fae6b7f9ff48a35e6fb40995c37ab3c66685322b03bcae915ebb260001b6200b935565b6200ba667f5b2c9fbce2fbf7bf0756991bdd6b76cd931060b3069c98a28a227d4c341ddca160001b6200b935565b6200ba947fd04bf960f0584ec1f4a9dbdb16ca7e46ab2e86cc66b5aa2f8c75b2a87f8a781360001b6200b935565b6200ba9f3362002767565b6200bb3f576200bad27f91cc06bba7b1764569383eadff0f36a848aba683b06123b1f3bdfb299d913e9560001b6200b935565b6200bb007f9313b9a6f7a90bcaa03457497f95cd9a3b1e88b4615ae41a15632cbceb3cb3c960001b6200b935565b336040517fdf17e3160000000000000000000000000000000000000000000000000000000081526004016200bb3691906201236e565b60405180910390fd5b6200bb6d7f1e39613815435c729b9e3c41cd2d7bb7f9ed09d09e83933d0c0b68e74fda435d60001b6200b935565b6200bb9b7f1109e630cb891cd75386dd5d814a431c343a58a690ae44e6a17df540516df87160001b6200b935565b6200bbc97fe14d96aca44bd0a756e0df72831c59180fac1ad3481c67acecdbaf7ebc6fd39460001b6200b935565b6200bbf77f8788dc6a1cf1c621ac4db0f05721ea37c3de8ac626da800a25e051565821c7cb60001b6200b935565b6200bc257fba38c7420a7b907b8a31ceb644914800212525db451236c8d989cbcb51434d6d60001b6200b935565b609e5490506200bc587f56d472cdc778583d6808daad3dadfef5ad98acd164cfd45fbaf903308859d20a60001b6200b935565b609e60008154809291906200bc6d906201301f565b91905055506200bca07fdc4436ca6cc8c6ff7913ed53861f49ac1c4536dcc7d66478817085289457fb2c60001b6200b935565b6200bcce7fb94c0b448b8071b432a852c718f018577516e357e798b6fc8e6dae4c4052f46a60001b6200b935565b6000609f600083815260200190815260200160002090506200bd137f059b0e2ae0fcee9d8c201560708fe2a6ab48e920933bd80b3bd51b2dd9d182d660001b6200b935565b6200bd417f1e5ebff40c86411b60de936f69ee553fd8551088f589fc24374a0ea6efe9318160001b6200b935565b338160000160006101000a81548173ffffffffffffffffffffffffffffffffffffffff021916908373ffffffffffffffffffffffffffffffffffffffff1602179055506200bdb27f6802d03530fd3922faa93178c5d4a7e28e85f52e4dc515b37679fba26f21407760001b6200b935565b6200bde07f6e15532e2d2f57dedc3c532f5623843e5db51a447327134e6483813626c3e72660001b6200b935565b60018160000160146101000a81548160ff021916908360048111156200be0b576200be0a62011efb565b5b02179055506200be3e7f1be494cb912c9103989728a83ad57e5810d8bca77d1a60bc51fad3912dc2f9e360001b6200b935565b6200be6c7f9870264955c122ed00c7858dbc1b81ba2b3c1ebddaa2b26ed75f29bbe906bbf260001b6200b935565b428160000160156101000a81548167ffffffffffffffff021916908367ffffffffffffffff1602179055506200bec57fb68f33b20180eaf434c8881ad6f2f190bae4b12b16413a76db0ba14e31773abd60001b6200b935565b6200bef37f2d9bd3cd8cd9e95dce97fe14dd3fdc1aec9b2e257738a36dfa3957506fdac49060001b6200b935565b6001436200bf02919062013f2d565b81600201601c6101000a81548163ffffffff021916908363ffffffff1602179055506200bf527fd30067b751fe18ad852df5c8586f0392f56265642c542b64ccc2e4b6da610ee060001b6200b935565b6200bf807f51b2e6d57c5fb3b164d61ccfe97d1cd145c7bdefcb14d446271974da416b112660001b6200b935565b8481600001601d6101000a81548161ffff021916908361ffff1602179055506200bfcd7fda372305f7fd91530f4cbe7adb5b9b4f68e9634f981f3f65692c40ff895a306c60001b6200b935565b6200bffb7f7cbe063343534042d179b57108105171dd79122070268099348879100497c54560001b6200b935565b8381600001601f6101000a81548160ff0219169083151502179055506200c0457f4f0590e06c694332bf31baa98acbe0ba749bcb0b7690eec8222d1772eafdd78860001b6200b935565b6200c0737fd88aa753fbecb037837925a5061b182943d1a68bd6b22c11cef1ccbe331c546060001b6200b935565b8060000160009054906101000a900473ffffffffffffffffffffffffffffffffffffffff1673ffffffffffffffffffffffffffffffffffffffff168561ffff16837fa66d3d6a278ed13a784f39214d0c40cba80e5fdc1fc26663f35330e33214f91387876040516200c0e792919062013f68565b60405180910390a46200c11d7f49ae138d785f9df0210bfebaefbdf772e030cddc570509a76f34cef5032e7b7060001b6200b935565b6200c14b7f9f26a95c1c11f332a0959ce53f3cbec6bb4ab0ff1a6e6ecc7bcea177583c22f860001b6200b935565b8060000160149054906101000a900460ff1660048111156200c172576200c17162011efb565b5b827fae774ee17b72f8c8f4c7144d988d61a4da4df057d2b0f9eb733e5a4e3912a8fb60405160405180910390a36200c1cd7f9e1d6d0f93c652ae40cc7fd0d622ab03155234173c7e5457e20d038d290107e060001b6200b935565b6200c1fb7f230c7ea0e8aefcb6dda42ca6cd01be90063ceff8696c23fc29d203415817c84960001b6200b935565b6200c20782336200e39d565b509392505050565b60006200c23f7fd0b06e13d01a83b8f74294f93b1ad68b167c9cb2739892f34291729f2e05119b60001b6200b935565b6200c26d7fb283338a18783e2de3f819f068980a39dd2737f76d54cd9e45b7afcff57bbb2360001b6200b935565b6200c29b7fa90441b20d401134257ce655ee4c5b734b0dcaa67f1811617c6efe56b3d7bff060001b6200b935565b600160048111156200c2b2576200c2b162011efb565b5b8260000160149054906101000a900460ff1660048111156200c2d9576200c2d862011efb565b5b1480156200c32b5750609c60149054906101000a900467ffffffffffffffff168260000160159054906101000a900467ffffffffffffffff166200c31e919062013699565b67ffffffffffffffff1642105b9050919050565b6000819050919050565b6200c36a7f0e6821cea41decf349169efa6dfa0a9cd48f7b61ae18b0c8cc1b877986b8e57460001b6200b938565b6200c3987ffbeb8604895f2b2509f353b0fbf9c80347eff80676a7170ec9542fd72e246cc460001b6200b938565b6200c3c67fc537cf485b78dc9a0b0d6519cd74986272ccd858d1120b7d6c325da1c526cdcb60001b6200b938565b6200c3fc816003836040516020016200c3e0919062014040565b604051602081830303815290604052805190602001206200c3ff565b50565b6200c42d7ff9c05d43ba29af0132bfbc743d0ea1acac95ae4bdb12e17a78720bf9399edb7860001b6200b938565b6200c45b7fff7dd80c930bc7c96ea16c2a1bb46c023ffa32b72ddc965a3017fa94a94f5f6760001b6200b938565b6200c4897fc933a1ccdc6d10ddc8bfa08e70d55cbc61087d3784e182b352b398201f55dd8460001b6200b938565b609c60009054906101000a900473ffffffffffffffffffffffffffffffffffffffff1673ffffffffffffffffffffffffffffffffffffffff16639b19251a846040518263ffffffff1660e01b81526004016200c4e691906201236e565b600060405180830381600087803b1580156200c50157600080fd5b505af11580156200c516573d6000803e3d6000fd5b505050506200c5487f9b2bb2313bf5b565fca32c93e4a43af7cdc545fcf1bbc5034b9f9f1dbf74d81d60001b6200b938565b6200c5767fc4a6bc2926dee607c3d986b47f10f7427ab5f958e1a731bcbdce3312b4ba3ebc60001b6200b938565b6200c5838383836200c5d1565b505050565b60006200c59f6200c5986200f6f5565b836200f73b565b9050919050565b60008060006200c5b785856200f770565b915091506200c5c6816200f7fb565b819250505092915050565b6200c5ff7fce0d22cc8c9753d8b0acca22995378542b600217d6dffa1ac8585b356ef51fc260001b6200b938565b6200c62d7ff5005dfeb1d91ec0c19dabc4bd5683611f93f43c67b747890b5f960b9ba6af5a60001b6200b938565b6200c65b7f9e188e30a2dd2f85f987f0bef8903c568ef3c051545ba6ba299cc807b86af71260001b6200b938565b6200c66783836200f9fc565b6200c6957f0d7246c15ccb5813d43b16cc9cc2be990e41a812151e9ec29105cc1ff9d32a7160001b6200b938565b6200c6c37f55bd0247188b6b3f7e3a0df092667998a84f968c8fab6498acb617e3217ddb8160001b6200b938565b609c60009054906101000a900473ffffffffffffffffffffffffffffffffffffffff1673ffffffffffffffffffffffffffffffffffffffff16634514cdda848360006040518463ffffffff1660e01b81526004016200c72593929190620140a3565b600060405180830381600087803b1580156200c74057600080fd5b505af11580156200c755573d6000803e3d6000fd5b50505050505050565b50565b6200c78f7fee6e115d5f0b41d488dc93cd07afc9772cd9daee9bb19718a497271012e2777460001b6200c75e565b6200c7bd7fb19a963fba1d99bfa716a5de0e0d2b10b14fff5343d2b34ddf5ac238e8a9a9fe60001b6200c75e565b6200c7eb7fd6d5e2de3958d4eb8fda8817aa3533efb326a1f46f0252c8a3f5023ded926d3260001b6200c75e565b6200c7f6836200b93b565b156200e2fc576200c82a7f60798d400c8e214f0c141b5e04243c23be4b45df398617ae75cfb824573b659b60001b6200c75e565b6200c8587f80b61927494c2ae81deaba45500b3ac822c9409cf1d4dd70e2b241b682b019c060001b6200c75e565b6200c8867fb8b830e68243b3b289739482b2737e09c71effdc4ab7123998b7d0e2d577668360001b6200c75e565b6000610100841861ffff1660038111156200c8a6576200c8a562011efb565b5b90506200c8d67f724d2d882af7681a02bf683bfb6d1aedb0d70a9290116a0f5dc5569cbb469a2160001b6200c75e565b6200c9047f39807cabf0aa83b3f504b71ed0a35a1af0f8b179f40007c40defa15f143a51cd60001b6200c75e565b600060038111156200c91b576200c91a62011efb565b5b8160038111156200c931576200c93062011efb565b5b14156200c96c576200c9667faff2cab902621dbaf091c78452dd08c1d475e1aeba88e724ead14ea70f1ce02e60001b6200c75e565b6200e2f5565b6200c99a7f086b942f92eb5dcf33c6c756539acb74df564347f4b9f37fbab08c9605e6e58f60001b6200c75e565b6200c9c87f8e70f562008536a9f6c5dba672e05a2524f49f830748f09a7e356a7eeeb5397360001b6200c75e565b600160038111156200c9df576200c9de62011efb565b5b8160038111156200c9f5576200c9f462011efb565b5b14156200ccbd576200ca2a7fd9297b8910261fedde95dd5ab0f5de5dceeea2e76ffc512fb2b4fb7c6f9dfbf760001b6200c75e565b6200ca587f459453494a8c28f417b7ab82f6e605ae7818bfe05c75e63cd53933d46d35edea60001b6200c75e565b6200ca867f38611da85c581d8d3f71296523d5fdd9d9d5cb8dae381d408685a4a241deecca60001b6200c75e565b6000610106600087815260200190815260200160002090506200cacc7f36a7fa7ee68c6179a2f9537ff7487566bef09e2b462fd6e29c8a94d0f9a65eea60001b6200c75e565b6200cafa7f6ba861e8ba0b6a204a591cdfc29bd8082bc67178597e1250fdfa1a3e7b00a64760001b6200c75e565b8060000160009054906101000a900473ffffffffffffffffffffffffffffffffffffffff1673ffffffffffffffffffffffffffffffffffffffff16636d8c7ce58260010160009054906101000a900473ffffffffffffffffffffffffffffffffffffffff1683600301548460020160009054906101000a900473ffffffffffffffffffffffffffffffffffffffff16856004016040518563ffffffff1660e01b81526004016200cbae9493929190620141e6565b600060405180830381600087803b1580156200cbc957600080fd5b505af11580156200cbde573d6000803e3d6000fd5b505050506200cc107fb869aec7b323bfaf551bcf3d528f137a3c277f22507ae80795fd8aaf93c5691260001b6200c75e565b6101066000878152602001908152602001600020600080820160006101000a81549073ffffffffffffffffffffffffffffffffffffffff02191690556001820160006101000a81549073ffffffffffffffffffffffffffffffffffffffff02191690556002820160006101000a81549073ffffffffffffffffffffffffffffffffffffffff021916905560038201600090556004820160006200ccb4919062011b63565b5050506200e2f4565b6200cceb7fd942a27ecc3b5d4fedc6b2ded124a81975e075f30a13d5c2cdab9f9afc9a68cf60001b6200c75e565b6200cd197ff26a8c8f320982df0e82b94bfd6f26351dec4a7ba55cb8a5df96f6063f51db2460001b6200c75e565b600260038111156200cd30576200cd2f62011efb565b5b8160038111156200cd46576200cd4562011efb565b5b14156200def0576200cd7b7ff6b8b336ac430c2fbeb20a5458c9cde09ba5bf63b7179ad2aa0d7dcbfbe6e0c260001b6200c75e565b6200cda97f8d58340f23809b17482a19b7bdd934638a36689b8f2fbc961ca4a1891f8be71860001b6200c75e565b6200cdd77f41900c3d2676fada91f0f37f02ef28e6730099003ee807f8b190cf518f8e28a060001b6200c75e565b6000610107600087815260200190815260200160002090506200ce1d7f2bc9d59eb9e8da808d626b66db23d41256a3f1e7abfbedff918e41cba5a74bb260001b6200c75e565b6200ce4b7fab1ef13b4d0481521330f788bf2a7de2fa9bd4aae495003e831c586b7d18ee4060001b6200c75e565b6000816003015414156200d0e7576200ce877f65eaf722903d649263d6462ae4b61e040018ac518b2a493815b12a64e1beed5760001b6200c75e565b6200ceb57ff74be4ba3926a71f70ba6ce548a7c30db70e9a1eb80236ee868fdd63b28825cf60001b6200c75e565b6200cee37f9580e9acd93de9081bd7e96326755eba90c7bdd3bd8c3b2a8a30a3ce565c2d8560001b6200c75e565b600084848101906200cef6919062011e4f565b90506200cf267f203c5f747a0389d6c031999ca7824278cfebddcf77f9ed947e7d6b16d77eadaf60001b6200c75e565b6200cf547fb5b62053b9f20d9e7326f3cd0ed31b2f72a2c851cd4f542f13ae1f4485b6f73260001b6200c75e565b8160000160009054906101000a900473ffffffffffffffffffffffffffffffffffffffff1673ffffffffffffffffffffffffffffffffffffffff1663b6ed06328360020154836040518363ffffffff1660e01b81526004016200cfb992919062012ff2565b602060405180830381600087803b1580156200cfd457600080fd5b505af11580156200cfe9573d6000803e3d6000fd5b505050506040513d601f19601f820116820180604052508101906200d00f919062013818565b6200d0b2576200d0427ffb10b5eab3255854768cb0c90ff505adc4a0470faad764a7cbbdcbd15172e36e60001b6200c75e565b6200d0707f79a1bf1b8aa6b8cdcb439dde14c57f40de2bbab005166a9084eb99b19d3a5c2560001b6200c75e565b3060006040517f596488410000000000000000000000000000000000000000000000000000000081526004016200d0a992919062012f39565b60405180910390fd5b6200d0e07fcef6457a5ad9701d47d3459f6f4d585571fa83081e97cf8e850ee8cd57510e5760001b6200c75e565b506200de32565b6200d1157fa209bf8bd8a6d545fddc22603a5b62fe4f284d3553cdf481a4f3ee77216e214660001b6200c75e565b6200d1437f3d3bb2437b4037fa9f88e4ae89839834fb2ac02b355e8de8a83186ef6644074a60001b6200c75e565b6200d1717f24cf9c3b30daf01defc5284e655637814fd59c2c0a2272fdd639533de0e20d6760001b6200c75e565b6000609c60009054906101000a900473ffffffffffffffffffffffffffffffffffffffff1673ffffffffffffffffffffffffffffffffffffffff16637d9f6db56040518163ffffffff1660e01b815260040160206040518083038186803b1580156200d1dc57600080fd5b505afa1580156200d1f1573d6000803e3d6000fd5b505050506040513d601f19601f820116820180604052508101906200d217919062014251565b73ffffffffffffffffffffffffffffffffffffffff168260010160009054906101000a900473ffffffffffffffffffffffffffffffffffffffff1673ffffffffffffffffffffffffffffffffffffffff161490506200d2997f5cec6a9c78133f2fe52c0d4acdcb1bf2829e55ccadc2f266eb3d7adbcd41e66160001b6200c75e565b6200d2c77fccf58c22794161542443cefe17ba588b5c0783dc37c1d5458a3527fb7bb6b49960001b6200c75e565b806200d663576200d2fb7fd67d0e54e71c0c62ef45007a8b51f589b4d052d23879193dbe8372f672b82dad60001b6200c75e565b6200d3297fd10778cd3331b5bc85a03850e13020272008d545f0907378adf1f953f1ee61ae60001b6200c75e565b6200d3577f5347c1b3dfe1573fc697b0529c2ff1e0dd82d91a5f9cf1df03c3697b4246b00860001b6200c75e565b8160010160149054906101000a900460ff16156200d4ba576200d39d7f1d8c06750649140deb3bab4715cd21b709487f02c65115a9a023c94c83f6928860001b6200c75e565b6200d3cb7f16d96d7489c959f0315c0e6ba282a1e46e20c98f5bedae7e8f5837fb039cb5cb60001b6200c75e565b6200d3f97f6de0f82a72223f39dcdd5b23e451476db9cd961a5d64575b6c5228fe46bdbca860001b6200c75e565b609c60009054906101000a900473ffffffffffffffffffffffffffffffffffffffff1673ffffffffffffffffffffffffffffffffffffffff166340c10f198360010160009054906101000a900473ffffffffffffffffffffffffffffffffffffffff1684600301546040518363ffffffff1660e01b81526004016200d48092919062014283565b600060405180830381600087803b1580156200d49b57600080fd5b505af11580156200d4b0573d6000803e3d6000fd5b505050506200d65d565b6200d4e87f04548249fdcd3962e673d19c2b45a791cc83f6eac6786b76297b6e2dd77dd6c360001b6200c75e565b6200d5167f7df9f3349c087581d0d2105a4ed7b0c6cbe0cc4a39b9f99721860bdf3e148a4e60001b6200c75e565b6000826002015414156200d62d576200d5527f76b7952d8b32264a692137fea726f4ba12db785d03b6ece9b608c9d6daf2eacc60001b6200c75e565b6200d5807f0b603196bee231492022b31bb4a6987085f3d5622eb2d3c8bc8ebb30f663c0d760001b6200c75e565b6200d5ae7f6a4392f60f143a3c82b6df3d64da5a5ecb0e490cf1e44992be1b54ca0161e5b160001b6200c75e565b6200d6278260010160009054906101000a900473ffffffffffffffffffffffffffffffffffffffff1683600301548460000160009054906101000a900473ffffffffffffffffffffffffffffffffffffffff1673ffffffffffffffffffffffffffffffffffffffff166200fbaa9092919063ffffffff16565b6200d65c565b6200d65b7f7907b59f49ba77e46d7d44dc2761fb8846da6ea6a7c5c5d155c8e36d0cce676360001b6200c75e565b5b5b6200d82e565b6200d6917fd7a8213748a085db874c8d45adffa2f39eedfdf32c7fa5815420f5e3016dfe2b60001b6200c75e565b6200d6bf7ffe18bfef903255f29364357ab2988c4c08cb70a44986bb3402cd809b4850b78760001b6200c75e565b8160010160149054906101000a900460ff16156200d7fe576200d7057f0e34bb0efb9e85d936f4f5f7dd893ee4780355f4087874a4ab799f4ec005aa7c60001b6200c75e565b6200d7337f459578d0ecce6fe908240c6afb3cc90eb6b639b3e3e59d5ccda89aac6665727160001b6200c75e565b6200d7617f1af6f55ccb1711efde1c420795e0ab83684050d1b225a03d843ae6cf9ca5d71d60001b6200c75e565b609c60009054906101000a900473ffffffffffffffffffffffffffffffffffffffff1673ffffffffffffffffffffffffffffffffffffffff166340c10f193084600301546040518363ffffffff1660e01b81526004016200d7c492919062014283565b600060405180830381600087803b1580156200d7df57600080fd5b505af11580156200d7f4573d6000803e3d6000fd5b505050506200d82d565b6200d82c7ff4b85f46730d471e3757197a6080c9dc14afa2a38bdf1c296e929cfdc82e0fd760001b6200c75e565b5b5b6200d85c7fcbd0a99aa8134a802d4d5312a54770faf54c994245d3d4580ad0ded9aaca34f160001b6200c75e565b6200d88a7f3bed6deb7df6b02d702ed781f429b0e4456dfc8e254dcfba9350c3db0d06fd3260001b6200c75e565b60008260020154146200daa7576200d8c57fee93a0d8e313d08ad61506e59b30c08c4b24be84667c59369b239a6ce02027f460001b6200c75e565b6200d8f37f1db49412e50bbaf0d76f518976e273e6527bed855ba0ce3b76d8e6d3c4c53acb60001b6200c75e565b6200d9217f7f6b1fea5dbfe21c46c3aae47320d94303b9908dcc2adce18855111df7721dcd60001b6200c75e565b8160000160009054906101000a900473ffffffffffffffffffffffffffffffffffffffff1673ffffffffffffffffffffffffffffffffffffffff1663d79875eb83600201548460000160009054906101000a900473ffffffffffffffffffffffffffffffffffffffff1673ffffffffffffffffffffffffffffffffffffffff1663313ce5676040518163ffffffff1660e01b815260040160206040518083038186803b1580156200d9d157600080fd5b505afa1580156200d9e6573d6000803e3d6000fd5b505050506040513d601f19601f820116820180604052508101906200da0c9190620133ec565b600a6200da1a919062013572565b85600301546200da2b9190620135c3565b6040518363ffffffff1660e01b81526004016200da4a92919062012ff2565b602060405180830381600087803b1580156200da6557600080fd5b505af11580156200da7a573d6000803e3d6000fd5b505050506040513d601f19601f820116820180604052508101906200daa0919062013235565b506200de30565b6200dad57f8ff8dc0baaef73f64b131bfa8eac066b9272d92eda0305e5270ae95bb6697a6560001b6200c75e565b6200db037f3da8645c9675787ae7668b52b85b09006103445811948be0b52573e270efabbd60001b6200c75e565b80156200de00576200db387f0117c1607c2a3e534c9ebb05c6217006061b6f467575da17ba8a43829cd846d960001b6200c75e565b6200db667fb8cc2025c1802bde2f63c570f7d911f08fa68306c4c379c07c1f422801d8e80a60001b6200c75e565b6200db947f71e2843abaade680d82af10fdcb3a7096a6af438a332b9b25be11df81dec1d2660001b6200c75e565b6200dc0d8260010160009054906101000a900473ffffffffffffffffffffffffffffffffffffffff1683600301548460000160009054906101000a900473ffffffffffffffffffffffffffffffffffffffff1673ffffffffffffffffffffffffffffffffffffffff166200fc349092919063ffffffff16565b6200dc3b7f7941a578d5c6fdb13326bddd54b4e0a79475949802a3dbe3b8ca697d2bd9451760001b6200c75e565b6200dc697fd2040ffeff06a04fad949fd8c90a27180a2234167bf11239308bbbd666bc7acf60001b6200c75e565b8160010160009054906101000a900473ffffffffffffffffffffffffffffffffffffffff1673ffffffffffffffffffffffffffffffffffffffff1663bdd98dd1308460000160009054906101000a900473ffffffffffffffffffffffffffffffffffffffff16609c60009054906101000a900473ffffffffffffffffffffffffffffffffffffffff1673ffffffffffffffffffffffffffffffffffffffff1663d83678ac6040518163ffffffff1660e01b815260040160206040518083038186803b1580156200dd3857600080fd5b505afa1580156200dd4d573d6000803e3d6000fd5b505050506040513d601f19601f820116820180604052508101906200dd73919062014251565b866003015460014262093a806040518863ffffffff1660e01b81526004016200dda3979695949392919062014336565b602060405180830381600087803b1580156200ddbe57600080fd5b505af11580156200ddd3573d6000803e3d6000fd5b505050506040513d601f19601f820116820180604052508101906200ddf9919062013235565b506200de2f565b6200de2e7fa40eeefa792c11ee27b8d86a076e08f646618186734294f7e7b3a38810af070f60001b6200c75e565b5b5b505b6200de607f1fd838fe54bffcf6eafae1738008d974f754b2af7be60b22239854e236c89ced60001b6200c75e565b6101076000878152602001908152602001600020600080820160006101000a81549073ffffffffffffffffffffffffffffffffffffffff02191690556001820160006101000a81549073ffffffffffffffffffffffffffffffffffffffff02191690556001820160146101000a81549060ff0219169055600282016000905560038201600090555050506200e2f3565b6200df1e7fc66375e126f4c383ef6038328bbff9ce16b263e58c795ecf6948c7aa53c0b06860001b6200c75e565b6200df4c7fcdb9f276256eea3190f38930e127821b8d967d5bab3c19c07283f6a84a980cb260001b6200c75e565b6003808111156200df62576200df6162011efb565b5b8160038111156200df78576200df7762011efb565b5b14156200e257576200dfad7fcc7978b4d7d65a41d046ffe7202b287dee7d502a9c39a22a77b1c834a013dacc60001b6200c75e565b6200dfdb7fafdfcb0b78af8d93b04fd7960e04128be2164571dcf71fdcbc3b6c411fd6169660001b6200c75e565b6200e0097fe078d2643a6fcb5064e4fa49644bc1c56b80c7eea4274bcce8c0c6ecd10010ef60001b6200c75e565b6000610108600087815260200190815260200160002090506200e04f7f62e4589b79acad6d03b3f5120c39eb93c072cec374629f45a8b239212736552060001b6200c75e565b6200e07d7fa248eea04154b28da274c2b6b0e211c82a2c9decd2da6ea3ec58f28553999ac060001b6200c75e565b609c60009054906101000a900473ffffffffffffffffffffffffffffffffffffffff1673ffffffffffffffffffffffffffffffffffffffff1663cbc7d0b88260000160009054906101000a900473ffffffffffffffffffffffffffffffffffffffff168360000160149054906101000a900460ff166040518363ffffffff1660e01b81526004016200e11192919062013b89565b600060405180830381600087803b1580156200e12c57600080fd5b505af11580156200e141573d6000803e3d6000fd5b505050506200e1737f979b2b79257af6442a5ffe036f1494771157287b5a10aa7010cdef55c679da5460001b6200c75e565b6200e1a17f22477d15e021d2754f1a43d629b56337962bbbedf4a94fcd156774a6cef176ec60001b6200c75e565b6200e1d08160000160009054906101000a900473ffffffffffffffffffffffffffffffffffffffff166200fd61565b6200e1fe7fdfff9196cb8683afcc55ecc3b3afbec973b9d7ad240accce1001c79b79fb620360001b6200c75e565b6101086000878152602001908152602001600020600080820160006101000a81549073ffffffffffffffffffffffffffffffffffffffff02191690556000820160146101000a81549060ff02191690555050506200e2f2565b6200e2857fef32b8adda989afe12e294d48c44223ee4aedeb33d72c33da2c3ac52a81504d560001b6200c75e565b6200e2b37f5509b62d5581a4e67edaf0d0ea7ab96d4f7c6db263c4efb2d05e04975bc9491f60001b6200c75e565b836040517f83fb3b930000000000000000000000000000000000000000000000000000000081526004016200e2e9919062014429565b60405180910390fd5b5b5b5b506200e397565b6200e32a7fbbfb46000950c1b4bf563a5c71727a8419a04424fa9b89c4c64d249b851cd4f260001b6200c75e565b6200e3587fd9bfb48f1fb6f94962e136eb9a39762bd414f30e71034a15517631053b7db69f60001b6200c75e565b6200e3867fbb69ad8ad3691fb18c0c3ca4d5c3cd6281375f93091227ab4617a69248f3229260001b6200c75e565b6200e396848461ffff1662010002565b5b50505050565b6200e3cb7f276e6a377ce2c8b8de7934b85fd083bc64f93be1bd899e75a0bf4b5f0ad138f860001b6200b935565b6200e3f97fd0ee48d1e35c84615a4fa43eb484c46f1b6e71e3c9e241a9377f84c8db241ba260001b6200b935565b6200e4277f7299bae1397f2c78b4376a7088599077473d4ffa3666088a57b07ae12e65453460001b6200b935565b6000609f600084815260200190815260200160002090506200e46c7f1c4f31196f50879da4db5bf6721d8ea7f1bbf14821716a87b3564062e1dfc06f60001b6200b935565b6200e49a7f015b8b759d0d7345b2bb840566c5b05c0017b5afb70ecb855192391d08e219b760001b6200b935565b6000609c60009054906101000a900473ffffffffffffffffffffffffffffffffffffffff1673ffffffffffffffffffffffffffffffffffffffff16633a46b1a88484600201601c9054906101000a900463ffffffff166040518363ffffffff1660e01b81526004016200e50f92919062013d3b565b60206040518083038186803b1580156200e52857600080fd5b505afa1580156200e53d573d6000803e3d6000fd5b505050506040513d601f19601f820116820180604052508101906200e563919062013235565b90506200e5937f5477bbd0891c7cc06bfc3ecc1781c37b1a801299c32d62bc122562415fb9aaa260001b6200b935565b6200e5c17fb69de13ee5dc2541ae3bddd19a868bcae67a0daa39a7b48db8bfd5f778e3959160001b6200b935565b600081600d0b141580156200e6835750609c60009054906101000a900473ffffffffffffffffffffffffffffffffffffffff1673ffffffffffffffffffffffffffffffffffffffff16635249e862846040518263ffffffff1660e01b81526004016200e62e91906201236e565b60206040518083038186803b1580156200e64757600080fd5b505afa1580156200e65c573d6000803e3d6000fd5b505050506040513d601f19601f820116820180604052508101906200e682919062013818565b5b156200e728576200e6b77fda0b27f79a9de6686ec9681efc80ec20ff4532285b7e7044348fdbc71fc05af360001b6200b935565b6200e6e57fa084292b98ed2cf3450c016be720147d0ec54294a07a29e459dbfa707f636c1460001b6200b935565b6200e7137f59e987c4a8a838bb0e90dd56601266fb7879152a40ba775687d9aa7952bee22260001b6200b935565b6200e72283858484856200e938565b6200e757565b6200e7567f037b1a692a7ba04d1fc93440d40d1fe547c7d006f54839cbedb59ceb0d59579860001b6200b935565b5b50505050565b60006200e78d7ffa840557001a93542af9bdf0bc3424a608263a0ded8c901d0921c9af027055ca60001b6200b935565b6200e7bb7f75c909e7bd4a4587ba1d509eb2645e64bcb871095bd4c6f2a1e995254a663c9760001b6200b935565b6200e7e97fbd330954b07c3540aed049cd41dc140dc6d55b18cfe4045f9d16b75983c1e2f460001b6200b935565b609f600083815260200190815260200160002090506200e82c7f71f1a3b442ae74e788e95b2f66ba37af992cae10b7621b5dbd5ef656869c24b960001b6200b935565b6200e85a7fcf2b5a8be24281281f00414a0c69773d3c049a19cb1d436597258efe4fb6a6b560001b6200b935565b6200e865816200c20f565b6200e905576200e8987fc6113c7af703f5bfd9655b1a060314a90ffa27d5216024bea9e62ae842f543b460001b6200b935565b6200e8c67fe2b43c721a5850d00014891e065a1b356c25e3cecbf74510c79eefe6da9a72a560001b6200b935565b816040517f8166c0270000000000000000000000000000000000000000000000000000000081526004016200e8fc919062012127565b60405180910390fd5b6200e9337fb5988a2c928b1571f033cb5742cdef9db461569f02eaa0bc7d291f51a5ca6c2860001b6200b935565b919050565b6200e9667fcfa581ef5ae730662320fe1c424f2cc55386eb5f51278bdaf4a25da02becf93c60001b6200b935565b6200e9947fab297e6ecebdc59f53a20382b021a7db8cb9ebaabbc6411ad72289481e8bc61060001b6200b935565b6200e9c27f14a59239ec0b74dda7f2963228ab075b47102a428ee0448684caa477edabc71f60001b6200b935565b6000600a609c60009054906101000a900473ffffffffffffffffffffffffffffffffffffffff1673ffffffffffffffffffffffffffffffffffffffff16638e539e8c86600201601c9054906101000a900463ffffffff166040518263ffffffff1660e01b81526004016200ea37919062013a11565b60206040518083038186803b1580156200ea5057600080fd5b505afa1580156200ea65573d6000803e3d6000fd5b505050506040513d601f19601f820116820180604052508101906200ea8b919062013235565b6200ea979190620135c3565b90506200eac77f24e526b5dd724299256503d0a691d1e962962e608fa7983bd2f7a45cab4ca68160001b6200b935565b6200eaf57f4101192b60a2970871e6787572669d3f80ec8677cd592d1ca1aed358d6735e3a60001b6200b935565b80600d0b82600d0b13156200ec10576200eb327fb108f7928cad996bc17203ba9006bd127a972a182b7daef98566e31a8ad34c9c60001b6200b935565b6200eb607f55077d8a1b640cbace9582fe6420ce2c387b55c15a4799f2f4d82aa7f73e5dac60001b6200b935565b6200eb8e7ff355dfb6f50293e394cf0fc873a70328c0a57f0077a92adcc16f581379945d5560001b6200b935565b81836200eb9c919062013db6565b816200eba9919062013e2a565b92506200ebd97fafcb7e0508388ee3b349b9daeb797e99c2cab6e10b68bcd613b454a0f0480c1d60001b6200b935565b6200ec077f123fa9a54c1feca843e1f9c966de941c6c1fbf77e5eebd271c6a5399d249ec5260001b6200b935565b8091506200ec3f565b6200ec3e7f177ddaa1a6a8c0997ffd83d7088c9131a489d7c56d0f0ebf6494386c62bb396560001b6200b935565b5b6200ec6d7f0e948f7810dee1d75c69ce5b46b219b064cbb6d6c8c28099c3cea13b24f780af60001b6200b935565b6200ec9b7f4380c4f70c6250d41c63f9aa1ccabaf181de2d50cba79195ecfe97624a85258260001b6200b935565b60008460010160008873ffffffffffffffffffffffffffffffffffffffff1673ffffffffffffffffffffffffffffffffffffffff16815260200190815260200160002060009054906101000a9004600d0b90506200ed1c7ffcc3c0fc48f3005128f276a140ed2f5fd0dda93dd06d49175e9fa5baa3d5857c60001b6200b935565b6200ed4a7f046afe72cc43a900cf4f77091041f3716a2835584144dc67e40c9348d7ee91e060001b6200b935565b600081600d0b146200f030576200ed847f2d8cb25879d3a3e7735be8848916f3e482755cdaf82457eac9444275197bcbdf60001b6200b935565b6200edb27f03d8f464f360fa5bb37c881d91c1d24cd2a5b7b3ff54b164f793e76e5b67c7b060001b6200b935565b6200ede07fd18d0d4105207b2088ccf6f01d890ae846d4722db521826918df4152dbda0f7c60001b6200b935565b808560020160008282829054906101000a9004600d0b6200ee02919062013a8a565b92506101000a8154816dffffffffffffffffffffffffffff0219169083600d0b6dffffffffffffffffffffffffffff1602179055506200ee657fc717f1a61942c23572a144680f3f73f2b933919c79093ede556d03542cf618f560001b6200b935565b6200ee937fbf857c77a6ee626b406ccf7cb73cf515673c2e164c8efb9c2ea0882afafa2ec960001b6200b935565b600081600d0b12156200ef3e576200eece7fb50188ac613511f2c46024b0423abdc90ceea166e43e2bc2910c0638045eb2c460001b6200b935565b6200eefc7f3e391902e96704b260e846465182098cbb6d35e76aa74f6d8da0f184828a45a860001b6200b935565b6200ef2a7f3405cb0a8ec2515724cf9fd9bb4c7ca68974eaba979f161d2545cd47819a70ba60001b6200b935565b806200ef369062013d68565b90506200ef6d565b6200ef6c7fd747d92c287ec8ba5893bd33a70009e1108d88f5e7784184a417512a121da2a460001b6200b935565b5b6200ef9b7ff0b0ad2fe3b527d9c626e15b71ac82b5a055299bbae49a0e7e76beac866a275960001b6200b935565b6200efc97fe4c34b6373d3f46c3d78b95aff23c7dd1899c11d7b5dc7a3ee2380cd89b1e52d60001b6200b935565b8085600201600e8282829054906101000a90046dffffffffffffffffffffffffffff166200eff891906201445b565b92506101000a8154816dffffffffffffffffffffffffffff02191690836dffffffffffffffffffffffffffff1602179055506200f05f565b6200f05e7feed1d6cfb0495c7d8bf928f750bda74632a30393743b9ecedb4c4bfad29940d860001b6200b935565b5b6200f08d7f3c02eef81afcb6cf8f61312f6d76d78e0f92555fb49ecdc876af3f72a55906cc60001b6200b935565b6200f0bb7ff40af49b02da84ed5f2cd3e2c198a12806d50bb4b262de9396c676bb0f6b803f60001b6200b935565b8285600201600e8282829054906101000a90046dffffffffffffffffffffffffffff166200f0ea919062014496565b92506101000a8154816dffffffffffffffffffffffffffff02191690836dffffffffffffffffffffffffffff1602179055506200f14a7fe743e459bd08d1bd36596db6c0ca63213101e461a802f6deea04cdef6bc7205d60001b6200b935565b6200f1787f8665145df1f65c931ee2a168d91a7816a136e889b403157bd0bc8607f4d32cdc60001b6200b935565b838560010160008973ffffffffffffffffffffffffffffffffffffffff1673ffffffffffffffffffffffffffffffffffffffff16815260200190815260200160002060006101000a8154816dffffffffffffffffffffffffffff0219169083600d0b6dffffffffffffffffffffffffffff1602179055506200f21d7f22c93cdfa405e11d79732580d1d46b59f023f22981fad5c274d52e2c35068aca60001b6200b935565b6200f24b7f085efd6f5a843798be20bb3af7eeb24a4bb0153365a968c8f16fd28306e61b5c60001b6200b935565b60006200f27b7f93d46f2a070f031172ff8edc8fdc977794960283902b467fcf17173f2bcb160560001b6200b935565b6200f2a97f925066b1b164bd7afbc6895fa485afdbde4581bdbee57f5e936e209b8a187b1060001b6200b935565b600085600d0b146200f411576200f2e37fd59927890f67f7ad025fb01bb965dd254e1f58314008944b6308c69d1fff19af60001b6200b935565b6200f3117fd6a0d28b7fb40b4eca183a44abe6614f75a6e1fd74bb390c2a752bbb3fd5dec560001b6200b935565b6200f33f7f540741c99129cd9984a84721fd25aa6624ad12aaa021b230c2cb95ebe88e795b60001b6200b935565b848660020160008282829054906101000a9004600d0b6200f3619190620144e1565b92506101000a8154816dffffffffffffffffffffffffffff0219169083600d0b6dffffffffffffffffffffffffffff1602179055506200f3c47f688936166bd6822cfd046be81cec636108d6385855bfbbbd980fdc4174e77c7c60001b6200b935565b6200f3f27f299467a706557dc708a5e23affe04f5dd2da4d595b098276f8be787431f5e9c760001b6200b935565b600085600d0b136200f4065760026200f409565b60015b90506200f4a0565b6200f43f7fc5c7a65923faab343f0427ccbc7a1435c57e4d0142a733866c0b83c0f32ec53f60001b6200b935565b6200f46d7f9b093822a8d4584761948c7466c4c8b9d4a297404cde95ebddb31744ce57f7c260001b6200b935565b6200f49b7f21bb17081187ee65c1ef778358259dec96db038ac323a08085d4bea0f6c9009260001b6200b935565b600090505b6200f4ce7f8826a3fc05aaeb431d0de8f5fe3a0b996e8a114180108ec2091ec3d49b5cceb160001b6200b935565b6200f4fc7f94e28c66f6be1e8a9d1aba644aaf09b076ee9e6ed9a410fa58e5c298515530de60001b6200b935565b8773ffffffffffffffffffffffffffffffffffffffff168160028111156200f529576200f52862011efb565b5b887fa6bae9b19900c330e860468fa0efa50bf517f267cf2451aa7f743bb317a50ceb876040516200f55b919062011eac565b60405180910390a45050505050505050565b60006200f59b827f01ffc9a7000000000000000000000000000000000000000000000000000000006200f5bf565b80156200f5b857506200f5b68263ffffffff60e01b6200f5bf565b155b9050919050565b6000806301ffc9a760e01b836040516024016200f5dd91906201456d565b604051602081830303815290604052907bffffffffffffffffffffffffffffffffffffffffffffffffffffffff19166020820180517bffffffffffffffffffffffffffffffffffffffffffffffffffffffff838183161783525050505090506000808573ffffffffffffffffffffffffffffffffffffffff16617530846040516200f66991906201460d565b6000604051808303818686fa925050503d80600081146200f6a7576040519150601f19603f3d011682016040523d82523d6000602084013e6200f6ac565b606091505b50915091506020815110156200f6c957600093505050506200f6ef565b8180156200f6e95750808060200190518101906200f6e8919062013818565b5b93505050505b92915050565b60006200f7367f8b73c3c69bb8fe3d512ecc4cf759cc79239f7b179b0ffacaa9a75d522b39400f6200f7266201156f565b6200f73062011579565b62011583565b905090565b600082826040516020016200f7529291906201469b565b60405160208183030381529060405280519060200120905092915050565b6000806041835114156200f7b65760008060006020860151925060408601519150606086015160001a90506200f7a987828585620115bf565b945094505050506200f7f4565b6040835114156200f7eb5760008060208501519150604085015190506200f7df868383620116d6565b9350935050506200f7f4565b60006002915091505b9250929050565b600060048111156200f812576200f81162011efb565b5b8160048111156200f828576200f82762011efb565b5b14156200f835576200f9f9565b600160048111156200f84c576200f84b62011efb565b5b8160048111156200f862576200f86162011efb565b5b14156200f8a6576040517f08c379a00000000000000000000000000000000000000000000000000000000081526004016200f89d9062014728565b60405180910390fd5b600260048111156200f8bd576200f8bc62011efb565b5b8160048111156200f8d3576200f8d262011efb565b5b14156200f917576040517f08c379a00000000000000000000000000000000000000000000000000000000081526004016200f90e906201479a565b60405180910390fd5b600360048111156200f92e576200f92d62011efb565b5b8160048111156200f944576200f94362011efb565b5b14156200f988576040517f08c379a00000000000000000000000000000000000000000000000000000000081526004016200f97f9062014832565b60405180910390fd5b6004808111156200f99e576200f99d62011efb565b5b8160048111156200f9b4576200f9b362011efb565b5b14156200f9f8576040517f08c379a00000000000000000000000000000000000000000000000000000000081526004016200f9ef90620148ca565b60405180910390fd5b5b50565b6200fa2a7fe479d51c103291527e17e31854324ab1804586ab5b6eb578e679e46a82a258e460001b6200b938565b6200fa587f8254d7329600d08f5dc0933cddbfe19ce6bf196a66f8d0d520e3b8383aa1b63260001b6200b938565b6200fa867ffe3c57463b03943718f84a23869f16d5457c1987c1841cb7ce817f37ca45cbe360001b6200b938565b8061016d60008473ffffffffffffffffffffffffffffffffffffffff1673ffffffffffffffffffffffffffffffffffffffff16815260200190815260200160002060006101000a81548160ff021916908360078111156200faec576200faeb62011efb565b5b02179055506200fb1f7f90d63f1d9a29c035d10ae3d7ea1a14ea5c9e1c2d4ffa34aad58de759d5bb457b60001b6200b938565b6200fb4d7f4752d3f67f150c1e20af09af12c600868dcae7e074563c65ef43791bb802cec560001b6200b938565b8173ffffffffffffffffffffffffffffffffffffffff168160078111156200fb7a576200fb7962011efb565b5b7fb427957068710160dca4325b010be41a84621daac3c801ef5523759ce4f4336060405160405180910390a35050565b6200fc2f8363a9059cbb60e01b84846040516024016200fbcc92919062014283565b604051602081830303815290604052907bffffffffffffffffffffffffffffffffffffffffffffffffffffffff19166020820180517bffffffffffffffffffffffffffffffffffffffffffffffffffffffff838183161783525050505062011739565b505050565b6000818473ffffffffffffffffffffffffffffffffffffffff1663dd62ed3e30866040518363ffffffff1660e01b81526004016200fc7492919062012f39565b60206040518083038186803b1580156200fc8d57600080fd5b505afa1580156200fca2573d6000803e3d6000fd5b505050506040513d601f19601f820116820180604052508101906200fcc8919062013235565b6200fcd4919062012f95565b90506200fd5b8463095ea7b360e01b85846040516024016200fcf892919062014283565b604051602081830303815290604052907bffffffffffffffffffffffffffffffffffffffffffffffffffffffff19166020820180517bffffffffffffffffffffffffffffffffffffffffffffffffffffffff838183161783525050505062011739565b50505050565b6200fd8f7ff6d258ae5934a7d0927dc63d7723ffb2f01a53d58bf84f3a81d54ae684f6e91060001b6200b938565b6200fdbd7fffd41b52f638b6dca1f359705f8e067855cc4941bf87d2bebb197e9d05cfceb360001b6200b938565b6200fdeb7fc048528c8aa24e6c8c2168d01614f9867bc2e9b781da61d0d1796252ba147e6060001b6200b938565b600060028111156200fe02576200fe0162011efb565b5b61016e60008373ffffffffffffffffffffffffffffffffffffffff1673ffffffffffffffffffffffffffffffffffffffff16815260200190815260200160002060009054906101000a900460ff1660028111156200fe65576200fe6462011efb565b5b146200ff67576200fe997f5ef69d6e155346df2a3a77e7d3156dffb4d3442fba593dc4f20ce1cbf95ac23760001b6200b938565b6200fec77f7175a9cd901f07c9579a3444ace8b11cf200c56ba93b1bb24c02794973c6589560001b6200b938565b6200fef57ffd1a776a2d1f53cf52aa82846389f390f02d8c586ef453404ece700149d163a060001b6200b938565b600261016e60008373ffffffffffffffffffffffffffffffffffffffff1673ffffffffffffffffffffffffffffffffffffffff16815260200190815260200160002060006101000a81548160ff021916908360028111156200ff5c576200ff5b62011efb565b5b02179055506200ff96565b6200ff957fa567e4243277f4ea96f42addad838887b4bcaa6279020d540352879bf05c29e160001b6200b938565b5b6200ffc47fc751fde437c1162f1abde86df918c9998e8c5a4ae1367ce8a0ff0a48ce91766360001b6200b938565b6200fff27f776f274438024c5af8dc65f313f3c0322a9d468a7849cb17e7a4da47e44b049160001b6200b938565b6200ffff8160016200f9fc565b50565b620100307f3c42c7b703dee2461ab3cb6da7429f792f1a88d217ec9a713ac0eb113fdebe4360001b6200b938565b6201005e7f52cca13c26812c6bd819a7c2dd345949ac083d602bb2c2f3abf50a7730af7af760001b6200b938565b6201008c7f836691697cb4d1165f47a1e2e07ff7568bec5a736fd8f902e5f946a8fe97380960001b6200b938565b6000816003811115620100a457620100a362011efb565b5b9050620100d47f1da251b868a4b22c0c8957893db8b089bb0039a0462aa5da807c132cf6d8d9a360001b6200b938565b620101027f020ce16763a0d6d2cf81130a36f920f1a804c1bec30cb9909f83eded0e8471b260001b6200b938565b6000600381111562010119576201011862011efb565b5b8160038111156201012f576201012e62011efb565b5b14156201073f57620101647f35bdf1b0c09e28ca97876004e5a1347056b28a2077008887e53022e4d98f6cca60001b6200b938565b620101927fa23f6472a33b51ab5d0a0dc9f732c167e2ace3c806024f538775f0e0a8077c6b60001b6200b938565b620101c07fa17c84ea004df52eb28c5cfa1b8f55e82078730d3b5bb57379203059e78b631c60001b6200b938565b600061017160008581526020019081526020016000209050620102067f5b0a3bc7a30b90a9bb0a823b10b6297fd1e6260162de71823846558592d062a260001b6200b938565b620102347f80bff9266203c3844e8cec5bbfef6a109183b001688aa2cd8649285e46d1b31060001b6200b938565b600060078111156201024b576201024a62011efb565b5b61016d60008360000160019054906101000a900473ffffffffffffffffffffffffffffffffffffffff1673ffffffffffffffffffffffffffffffffffffffff1673ffffffffffffffffffffffffffffffffffffffff16815260200190815260200160002060009054906101000a900460ff166007811115620102d257620102d162011efb565b5b14620103ea57620103067fe659ff182d40b7271a2a929aca69423a5bb02df9b6bb3d125fe9868302410f3460001b6200b938565b620103347f8dff2578d5dc18549ed0b047cad53f9427420125143faa7f645efb203864f8d860001b6200b938565b6101716000858152602001908152602001600020600080820160006101000a81549060ff02191690556000820160016101000a81549073ffffffffffffffffffffffffffffffffffffffff02191690555050620103b47f07d88ac18232e3f5c2d02935476323410907919de3ceb9d7ef54c955c9d6ce1d60001b6200b938565b620103e27f7ce2e84dbd5b2e7304961de0f7cfa632b63405d685ad30f3fcd1094f8b5329d860001b6200b938565b50506201156b565b620104187fca92baaf40ea335bc94cc9cab081f2901803ac95872ee5661cb7752046a2625560001b6200b938565b620104467f2f5e2feb6fff3d27b9b1ab48c12948095cc279821c3fda8567b50af002ab72ec60001b6200b938565b620104747f62769e7c34dee3463f68e5b4c15a76f66858d5e88c0fe3e0139b72e233813aa060001b6200b938565b600360078111156201048b576201048a62011efb565b5b8160000160009054906101000a900460ff166007811115620104b257620104b162011efb565b5b1415620105f857620104e77f78d5f39012ad13ef0e1a16587b8659b2c450d4c28db6f4bd2d2feae2fe9a377660001b6200b938565b620105157f482735868fb06991489286b15bfcaf4da4ba69a61cba83cd896c883075311bfe60001b6200b938565b620105437fd9058657397b177950cf1bb7a53294700b35cb422e1e5c79235144aa15e6bb1d60001b6200b938565b620105728160000160019054906101000a900473ffffffffffffffffffffffffffffffffffffffff166200c33c565b620105a07facaa380825bb7f8154f5ae248082d93a3b02110994640d72129f4ffe4dfabf9260001b6200b938565b6101716000858152602001908152602001600020600080820160006101000a81549060ff02191690556000820160016101000a81549073ffffffffffffffffffffffffffffffffffffffff0219169055505062010738565b620106267f451baed6a88aa71e1e8a628bcab4bca7a3fce73d18fbde3c0708bad36075dfb860001b6200b938565b620106547f9992250dd4bf0856d924993269ecee818d958c9e47d285cb903199f9375f457860001b6200b938565b620106827f2629b44b4d5ba704ff19becb6d259843dd61fafb2625bcc9041a482a7beb0ec460001b6200b938565b609c60009054906101000a900473ffffffffffffffffffffffffffffffffffffffff1673ffffffffffffffffffffffffffffffffffffffff16639b19251a8260000160019054906101000a900473ffffffffffffffffffffffffffffffffffffffff166040518263ffffffff1660e01b81526004016201070391906201236e565b600060405180830381600087803b1580156201071e57600080fd5b505af115801562010733573d6000803e3d6000fd5b505050505b5062011569565b6201076d7fb0409e821081322fa4e5cac4f1733a4bd8cadd9ba1cfff41fd811d9dc1cd181360001b6200b938565b6201079b7fcbd67101753f84e36ef72947371410d9c1173c7fe32cbc8eac71deb9762ba14760001b6200b938565b60016003811115620107b257620107b162011efb565b5b816003811115620107c857620107c762011efb565b5b141562010d3d57620107fd7f54e0578f25a9033289a47a9d75b5d301999c89b6b0b54bbcd954150a6e17b67460001b6200b938565b6201082b7f94a189c95b7254849fb4b62b1bb718e0ca6957423c09ecd8575875ea6b22538460001b6200b938565b620108597f446709e0c5dbd1deee9595b7bafcdfe47d04ea5cf3926912b59bb9318cb388b560001b6200b938565b600260365410156201090557620108937feb65306e546986b949f84969b787524bc664c6844f144c3bdc759d52ad88e1e460001b6200b938565b620108c17f519613e1b3e3074f222b6bc7dad9c853f5ada5e46e00db7a2436f81ecbbec4b660001b6200b938565b60365460026040517f19cfb74d000000000000000000000000000000000000000000000000000000008152600401620108fc9291906201334c565b60405180910390fd5b620109337fdc964de7d22885fb80238f74a689dae9fe460ea324c91bf2cce276a947b65dd560001b6200b938565b620109617f04d850cb7e377a098fef0cfdff537838cc27cb6d29803d57d52aa296e923257c60001b6200b938565b6201098f7fb36438cddc5ac93b96a02c8edf1f96cfc036dc2e6e7cd9878b6378f3670c866760001b6200b938565b600061017260008581526020019081526020016000209050620109d57fa9fd8730cbcada9d914d5bb5a11d9e4046c8014bb4dc5194863fe82e2c7c45a460001b6200b938565b62010a037fec52f417661b0b0645ab08d1c94148536681746433b27548e2f793edae57282760001b6200b938565b8060000160149054906101000a900460ff161562010b675762010a497fe8dfa8b8b93d058fff6857bdb8a0235e2cfb45822ec6658611eb283b843ba70660001b6200b938565b62010a777f58a9e089c977ea542099455b5bfddca8cdf28f5bebd34e79290f4a64a3ae32c660001b6200b938565b62010aa57f4d665a32520d7179f6b31c7c87491cb18d2919956f1641221a1df2336959ac6260001b6200b938565b61016f60009054906101000a900473ffffffffffffffffffffffffffffffffffffffff1673ffffffffffffffffffffffffffffffffffffffff166302fb4d858260000160009054906101000a900473ffffffffffffffffffffffffffffffffffffffff1683600101546040518363ffffffff1660e01b815260040162010b2d92919062014283565b600060405180830381600087803b15801562010b4857600080fd5b505af115801562010b5d573d6000803e3d6000fd5b5050505062010cae565b62010b957f8def8462666cf49ceb23def373e3b8e59e2a10492cf1f31f0a734442293b4f9560001b6200b938565b62010bc37fe91d502337f00e04d0434b52eb695ba053d80574707a1f3cfad6fde059aeca1160001b6200b938565b62010bf17fb91c458aaaac7f25a7ea39e2133775dc4f5fb2d0652130a7ab451240dbc0103760001b6200b938565b61016f60009054906101000a900473ffffffffffffffffffffffffffffffffffffffff1673ffffffffffffffffffffffffffffffffffffffff1663a5d059ca8260000160009054906101000a900473ffffffffffffffffffffffffffffffffffffffff1683600101546040518363ffffffff1660e01b815260040162010c7992919062014283565b600060405180830381600087803b15801562010c9457600080fd5b505af115801562010ca9573d6000803e3d6000fd5b505050505b62010cdc7f404e9bcd632105d9fdf1bf450da9b7dcb4df73a2efb6222ce7147bd45920d52b60001b6200b938565b6101726000858152602001908152602001600020600080820160006101000a81549073ffffffffffffffffffffffffffffffffffffffff02191690556000820160146101000a81549060ff0219169055600182016000905550505062011568565b62010d6b7ff2a60ca394cb3662964bbc866918b80692c8891e2ba709e6ed0f9a988667a38860001b6200b938565b62010d997fa2a6ed082ce5ac512372b7ed9f8ad10576ec24bb9a2ad0073e4a6ff5ada93c1860001b6200b938565b6002600381111562010db05762010daf62011efb565b5b81600381111562010dc65762010dc562011efb565b5b14156201106e5762010dfb7f782d26ea916ad827600d71686af335b78905d92aafcc0ec963a93771f4c99ee660001b6200b938565b62010e297fbb7f675d486247464c10ba4738fc6b003c4d24af2c0c14cdba6e71114673db6f60001b6200b938565b62010e577f1e2f31c4f16e994916152699d35f77c5a4a4ca4e8a8656c5e5d0e9fbdd77f0b460001b6200b938565b60006101736000858152602001908152602001600020905062010e9d7f8c2ca04b52f4c0450efe5cd19ad650e0c4ce6ac9ea5fcdd9f54ccc80919e310460001b6200b938565b62010ecb7f9597240c4de41c1d69f3504e1eb616a96acf540c01fe748b8cb21773f701cf1360001b6200b938565b61017060009054906101000a900473ffffffffffffffffffffffffffffffffffffffff1673ffffffffffffffffffffffffffffffffffffffff166376b81ee98260000160009054906101000a900460ff16836003018460010185600201548660000160019054906101000a900473ffffffffffffffffffffffffffffffffffffffff16876004016040518763ffffffff1660e01b815260040162010f75969594939291906201498d565b600060405180830381600087803b15801562010f9057600080fd5b505af115801562010fa5573d6000803e3d6000fd5b5050505062010fd77f7c8d3fb2dc6a6c1e5942245f618b6fefb89254eb5f404a6d0c8801a846a300f160001b6200b938565b6101736000858152602001908152602001600020600080820160006101000a81549060ff02191690556000820160016101000a81549073ffffffffffffffffffffffffffffffffffffffff021916905560018201600062011039919062011ba9565b600282016000905560038201600062011053919062011ba9565b60048201600062011065919062011b63565b50505062011567565b6201109c7f1f394e8f7c449c91217e6cf07fc71797cfa36b69bfff63374255f36a92d31a0760001b6200b938565b620110ca7fbee256e36b1876df489780395921c2768ef182ed293daa54d8229c22378f0e0460001b6200b938565b600380811115620110e057620110df62011efb565b5b816003811115620110f657620110f562011efb565b5b1415620114cb576201112b7f1620d6bb8b362cfe8ce72d46443bf98a030b367aa50803f0a8a98946e3c8c98d60001b6200b938565b620111597f178582d22a499f5067ba9e59c8d842e483fb71bd2da59d04efcffa89b83e2b7660001b6200b938565b620111877f465c27eabcd0fa550669e53bcace778a420129793e739429ce61589ff00b356460001b6200b938565b600061017460008581526020019081526020016000209050620111cd7f0d6036532d1d4dcb791787ef94aefd3f86ae65bf044b856f6d3aa7228997c49560001b6200b938565b620111fb7f5a7b9a2baca39076393cb7aecaff553e73e82f43667de076d20bf8cca9db86e360001b6200b938565b6000808260000160009054906101000a900473ffffffffffffffffffffffffffffffffffffffff1673ffffffffffffffffffffffffffffffffffffffff168360000160149054906101000a900460e01b846001016040516020016201126292919062014abf565b6040516020818303038152906040526040516201128091906201460d565b6000604051808303816000865af19150503d8060008114620112bf576040519150601f19603f3d011682016040523d82523d6000602084013e620112c4565b606091505b5091509150620112f77ff6fdbbbaf3af980be3c70b2b38e0d7e39adfe4d415c5d121d1b7728fabe74e9760001b6200b938565b620113257fe0930956a0f40bc58796e486ee636ec73a3c80add650b3d9e5702ed97834d57260001b6200b938565b81620113ff57620113597fa0db02d8a7dcacf82af8aac4d80f5ee4e2d747a0b221cc609b483f6b0e4a5b3d60001b6200b938565b620113877f8936fbe3a8984701d4e4998e28ed03993e329695cad69f6b231b0707c52ce1ab60001b6200b938565b8260000160009054906101000a900473ffffffffffffffffffffffffffffffffffffffff168360000160149054906101000a900460e01b826040517feaa424cc000000000000000000000000000000000000000000000000000000008152600401620113f69392919062014b2c565b60405180910390fd5b6201142d7f573a8e7e5e68e25fef16ea65d76aa9baf8c2edcea2b4cae23e1bce95462dd71560001b6200b938565b6201145b7f20cbabe802c822aa836672c7a6f9ed64955bdbc755c4eb3ab21cb7f9c374e66d60001b6200b938565b6101746000878152602001908152602001600020600080820160006101000a81549073ffffffffffffffffffffffffffffffffffffffff02191690556000820160146101000a81549063ffffffff0219169055600182016000620114c0919062011b63565b505050505062011566565b620114f97f9ae7950d482f09cedbe5424db795fb1c29d0223b5812820fda9b6027a2bdfc2360001b6200b938565b620115277fed36e3bac2b5050ad3c0a45810b6e48d408835c8eeadeda6c5a17b618315c1e360001b6200b938565b816040517f83fb3b930000000000000000000000000000000000000000000000000000000081526004016201155d919062014be6565b60405180910390fd5b5b5b5b505b5050565b6000600154905090565b6000600254905090565b60008383834630604051602001620115a095949392919062014c18565b6040516020818303038152906040528051906020012090509392505050565b6000807f7fffffffffffffffffffffffffffffff5d576e7357a4501ddfe92f46681b20a08360001c1115620115fc576000600391509150620116cd565b601b8560ff1614158015620116155750601c8560ff1614155b1562011629576000600491509150620116cd565b60006001878787876040516000815260200160405260405162011650949392919062014c75565b6020604051602081039080840390855afa15801562011673573d6000803e3d6000fd5b505050602060405103519050600073ffffffffffffffffffffffffffffffffffffffff168173ffffffffffffffffffffffffffffffffffffffff161415620116c457600060019250925050620116cd565b80600092509250505b94509492505050565b60008060007f7fffffffffffffffffffffffffffffffffffffffffffffffffffffffffffffff60001b841690506000601b60ff8660001c901c6201171b919062012f95565b90506201172b87828885620115bf565b935093505050935093915050565b60006201179d826040518060400160405280602081526020017f5361666545524332303a206c6f772d6c6576656c2063616c6c206661696c65648152508573ffffffffffffffffffffffffffffffffffffffff16620118089092919063ffffffff16565b9050600081511115620118035780806020019051810190620117c0919062013818565b62011802576040517f08c379a0000000000000000000000000000000000000000000000000000000008152600401620117f99062014d38565b60405180910390fd5b5b505050565b606062011819848460008562011822565b90509392505050565b6060824710156201186a576040517f08c379a0000000000000000000000000000000000000000000000000000000008152600401620118619062014dd0565b60405180910390fd5b62011875856200b912565b620118b7576040517f08c379a0000000000000000000000000000000000000000000000000000000008152600401620118ae9062014e42565b60405180910390fd5b6000808673ffffffffffffffffffffffffffffffffffffffff168587604051620118e291906201460d565b60006040518083038185875af1925050503d806000811462011921576040519150601f19603f3d011682016040523d82523d6000602084013e62011926565b606091505b50915091506201193882828662011944565b92505050949350505050565b606083156201195657829050620119a9565b6000835111156201196a5782518084602001fd5b816040517f08c379a0000000000000000000000000000000000000000000000000000000008152600401620119a0919062014eb0565b60405180910390fd5b9392505050565b828054620119be906201410f565b90600052602060002090601f016020900481019282620119e2576000855562011a2e565b82601f10620119fd57805160ff191683800117855562011a2e565b8280016001018555821562011a2e579182015b8281111562011a2d57825182559160200191906001019062011a10565b5b50905062011a3d919062011bef565b5090565b82805462011a4f906201410f565b90600052602060002090601f01602090048101928262011a73576000855562011abf565b82601f1062011a8e57803560ff191683800117855562011abf565b8280016001018555821562011abf579182015b8281111562011abe57823582559160200191906001019062011aa1565b5b50905062011ace919062011bef565b5090565b82805462011ae0906201410f565b90600052602060002090601f01602090048101928262011b04576000855562011b50565b82601f1062011b1f57803560ff191683800117855562011b50565b8280016001018555821562011b50579182015b8281111562011b4f57823582559160200191906001019062011b32565b5b50905062011b5f919062011bef565b5090565b50805462011b71906201410f565b6000825580601f1062011b85575062011ba6565b601f01602090049060005260206000209081019062011ba5919062011bef565b5b50565b50805462011bb7906201410f565b6000825580601f1062011bcb575062011bec565b601f01602090049060005260206000209081019062011beb919062011bef565b5b50565b5b8082111562011c0a57600081600090555060010162011bf0565b5090565b6000604051905090565b600080fd5b600080fd5b6000819050919050565b62011c378162011c22565b811462011c4357600080fd5b50565b60008135905062011c578162011c2c565b92915050565b600073ffffffffffffffffffffffffffffffffffffffff82169050919050565b600062011c8a8262011c5d565b9050919050565b62011c9c8162011c7d565b811462011ca857600080fd5b50565b60008135905062011cbc8162011c91565b92915050565b6000806040838503121562011cdc5762011cdb62011c18565b5b600062011cec8582860162011c46565b925050602062011cff8582860162011cab565b9150509250929050565b600081600d0b9050919050565b62011d218162011d09565b82525050565b600060208201905062011d3e600083018462011d16565b92915050565b60007fffffffff0000000000000000000000000000000000000000000000000000000082169050919050565b62011d7b8162011d44565b811462011d8757600080fd5b50565b60008135905062011d9b8162011d70565b92915050565b60006020828403121562011dba5762011db962011c18565b5b600062011dca8482850162011d8a565b91505092915050565b60008115159050919050565b62011dea8162011dd3565b82525050565b600060208201905062011e07600083018462011ddf565b92915050565b600067ffffffffffffffff82169050919050565b62011e2c8162011e0d565b82525050565b600060208201905062011e49600083018462011e21565b92915050565b60006020828403121562011e685762011e6762011c18565b5b600062011e788482850162011c46565b91505092915050565b60006dffffffffffffffffffffffffffff82169050919050565b62011ea68162011e81565b82525050565b600060208201905062011ec3600083018462011e9b565b92915050565b60006020828403121562011ee25762011ee162011c18565b5b600062011ef28482850162011cab565b91505092915050565b7f4e487b7100000000000000000000000000000000000000000000000000000000600052602160045260246000fd5b6008811062011f3e5762011f3d62011efb565b5b50565b600081905062011f518262011f2a565b919050565b600062011f638262011f41565b9050919050565b62011f758162011f56565b82525050565b600060208201905062011f92600083018462011f6a565b92915050565b600061ffff82169050919050565b62011fb18162011f98565b811462011fbd57600080fd5b50565b60008135905062011fd18162011fa6565b92915050565b600080fd5b600080fd5b600080fd5b60008083601f84011262011fff5762011ffe62011fd7565b5b8235905067ffffffffffffffff8111156201201f576201201e62011fdc565b5b6020830191508360018202830111156201203e576201203d62011fe1565b5b9250929050565b6000819050919050565b6201205a8162012045565b81146201206657600080fd5b50565b6000813590506201207a816201204f565b92915050565b6000806000806000608086880312156201209f576201209e62011c18565b5b6000620120af8882890162011cab565b9550506020620120c28882890162011fc0565b945050604086013567ffffffffffffffff811115620120e657620120e562011c1d565b5b620120f48882890162011fe6565b93509350506060620121098882890162012069565b9150509295509295909350565b620121218162011c22565b82525050565b60006020820190506201213e600083018462012116565b92915050565b600063ffffffff82169050919050565b6201215f8162012144565b82525050565b60006020820190506201217c600083018462012154565b92915050565b6000806000604084860312156201219e576201219d62011c18565b5b6000620121ae8682870162011c46565b935050602084013567ffffffffffffffff811115620121d257620121d162011c1d565b5b620121e08682870162011fe6565b92509250509250925092565b60088110620121fa57600080fd5b50565b6000813590506201220e81620121ec565b92915050565b60008060008060006080868803121562012233576201223262011c18565b5b60006201224388828901620121fd565b9550506020620122568882890162011cab565b9450506040620122698882890162012069565b935050606086013567ffffffffffffffff8111156201228d576201228c62011c1d565b5b6201229b8882890162011fe6565b92509250509295509295909350565b620122b58162011dd3565b8114620122c157600080fd5b50565b600081359050620122d581620122aa565b92915050565b60008060408385031215620122f557620122f462011c18565b5b60006201230585828601620122c4565b9250506020620123188582860162012069565b9150509250929050565b600060ff82169050919050565b6201233a8162012322565b82525050565b60006020820190506201235760008301846201232f565b92915050565b620123688162011c7d565b82525050565b60006020820190506201238560008301846201235d565b92915050565b60008060008060808587031215620123a857620123a762011c18565b5b6000620123b88782880162011cab565b9450506020620123cb87828801620122c4565b9350506040620123de8782880162011c46565b9250506060620123f18782880162012069565b91505092959194509250565b6003811062012411576201241062011efb565b5b50565b60008190506201242482620123fd565b919050565b6000620124368262012414565b9050919050565b620124488162012429565b82525050565b60006020820190506201246560008301846201243d565b92915050565b620124768162012045565b82525050565b60006020820190506201249360008301846201246b565b92915050565b620124a48162011f98565b82525050565b6000602082019050620124c1600083018462012499565b92915050565b60008060008060008060c08789031215620124e757620124e662011c18565b5b6000620124f789828a0162011cab565b96505060206201250a89828a0162011cab565b95505060406201251d89828a01620122c4565b94505060606201253089828a0162011c46565b93505060806201254389828a0162011c46565b92505060a06201255689828a0162012069565b9150509295509295509295565b6000806000606084860312156201257f576201257e62011c18565b5b60006201258f86828701620121fd565b9350506020620125a28682870162011cab565b9250506040620125b58682870162012069565b9150509250925092565b620125ca8162012322565b8114620125d657600080fd5b50565b600081359050620125ea81620125bf565b92915050565b60008083601f84011262012609576201260862011fd7565b5b8235905067ffffffffffffffff81111562012629576201262862011fdc565b5b60208301915083600182028301111562012648576201264762011fe1565b5b9250929050565b600080600080600080600080600060c08a8c03121562012674576201267362011c18565b5b6000620126848c828d01620125d9565b99505060208a013567ffffffffffffffff811115620126a857620126a762011c1d565b5b620126b68c828d01620125f0565b985098505060408a013567ffffffffffffffff811115620126dc57620126db62011c1d565b5b620126ea8c828d01620125f0565b96509650506060620126ff8c828d0162012069565b94505060808a013567ffffffffffffffff81111562012723576201272262011c1d565b5b620127318c828d0162011fe6565b935093505060a0620127468c828d0162012069565b9150509295985092959850929598565b60008083601f8401126201276f576201276e62011fd7565b5b8235905067ffffffffffffffff8111156201278f576201278e62011fdc565b5b602083019150836020820283011115620127ae57620127ad62011fe1565b5b9250929050565b600080600060408486031215620127d157620127d062011c18565b5b6000620127e18682870162011c46565b935050602084013567ffffffffffffffff81111562012805576201280462011c1d565b5b620128138682870162012756565b92509250509250925092565b600080600080600080600060c0888a03121562012841576201284062011c18565b5b6000620128518a828b0162011cab565b9750506020620128648a828b0162011cab565b9650506040620128778a828b0162011c46565b95505060606201288a8a828b0162011cab565b945050608088013567ffffffffffffffff811115620128ae57620128ad62011c1d565b5b620128bc8a828b0162011fe6565b935093505060a0620128d18a828b0162012069565b91505092959891949750929550565b60008083601f840112620128f957620128f862011fd7565b5b8235905067ffffffffffffffff81111562012919576201291862011fdc565b5b60208301915083602082028301111562012938576201293762011fe1565b5b9250929050565b6000806000806000608086880312156201295e576201295d62011c18565b5b60006201296e8882890162011cab565b95505060206201298188828901620125d9565b945050604086013567ffffffffffffffff811115620129a557620129a462011c1d565b5b620129b388828901620128e0565b93509350506060620129c88882890162012069565b9150509295509295909350565b600080600060408486031215620129f157620129f062011c18565b5b600062012a018682870162011cab565b935050602084013567ffffffffffffffff81111562012a255762012a2462011c1d565b5b62012a338682870162011fe6565b92509250509250925092565b6000601f19601f8301169050919050565b7f4e487b7100000000000000000000000000000000000000000000000000000000600052604160045260246000fd5b62012a8a8262012a3f565b810181811067ffffffffffffffff8211171562012aac5762012aab62012a50565b5b80604052505050565b600062012ac162011c0e565b905062012acf828262012a7f565b919050565b600067ffffffffffffffff82111562012af25762012af162012a50565b5b602082029050602081019050919050565b600062012b1a62012b148462012ad4565b62012ab5565b9050808382526020820190506020840283018581111562012b405762012b3f62011fe1565b5b835b8181101562012b6d578062012b58888262011c46565b84526020840193505060208101905062012b42565b5050509392505050565b600082601f83011262012b8f5762012b8e62011fd7565b5b813562012ba184826020860162012b03565b91505092915050565b600067ffffffffffffffff82111562012bc85762012bc762012a50565b5b602082029050602081019050919050565b62012be48162011d09565b811462012bf057600080fd5b50565b60008135905062012c048162012bd9565b92915050565b600062012c2162012c1b8462012baa565b62012ab5565b9050808382526020820190506020840283018581111562012c475762012c4662011fe1565b5b835b8181101562012c74578062012c5f888262012bf3565b84526020840193505060208101905062012c49565b5050509392505050565b600082601f83011262012c965762012c9562011fd7565b5b813562012ca884826020860162012c0a565b91505092915050565b6000806040838503121562012ccb5762012cca62011c18565b5b600083013567ffffffffffffffff81111562012cec5762012ceb62011c1d565b5b62012cfa8582860162012b77565b925050602083013567ffffffffffffffff81111562012d1e5762012d1d62011c1d565b5b62012d2c8582860162012c7e565b9150509250929050565b60008151905062012d47816201204f565b92915050565b60006020828403121562012d665762012d6562011c18565b5b600062012d768482850162012d36565b91505092915050565b600060408201905062012d9660008301856201246b565b62012da560208301846201246b565b9392505050565b62012db78162011d44565b82525050565b600060408201905062012dd460008301856201235d565b62012de3602083018462012dac565b9392505050565b600082825260208201905092915050565b7f467261627269632070726f706f736554687265616450726f706f73616c000000600082015250565b600062012e33601d8362012dea565b915062012e408262012dfb565b602082019050919050565b6000819050919050565b600062012e7662012e7062012e6a8462011f98565b62012e4b565b62011c22565b9050919050565b62012e888162012e55565b82525050565b6000604082019050818103600083015262012ea98162012e24565b905062012eba602083018462012e7d565b92915050565b600082825260208201905092915050565b82818337600083830152505050565b600062012eee838562012ec0565b935062012efd83858462012ed1565b62012f088362012a3f565b840190509392505050565b6000602082019050818103600083015262012f3081848662012ee0565b90509392505050565b600060408201905062012f5060008301856201235d565b62012f5f60208301846201235d565b9392505050565b7f4e487b7100000000000000000000000000000000000000000000000000000000600052601160045260246000fd5b600062012fa28262011c22565b915062012faf8362011c22565b9250827fffffffffffffffffffffffffffffffffffffffffffffffffffffffffffffffff0382111562012fe75762012fe662012f66565b5b828201905092915050565b600060408201905062013009600083018562012116565b62013018602083018462012116565b9392505050565b60006201302c8262011c22565b91507fffffffffffffffffffffffffffffffffffffffffffffffffffffffffffffffff82141562013062576201306162012f66565b5b600182019050919050565b60006201307a8262011c5d565b9050919050565b6201308c816201306d565b81146201309857600080fd5b50565b600081359050620130ac8162013081565b92915050565b60008060008060808587031215620130cf57620130ce62011c18565b5b6000620130df878288016201309b565b9450506020620130f2878288016201309b565b935050604062013105878288016201309b565b925050606062013118878288016201309b565b91505092959194509250565b6000819050919050565b60006201314f62013149620131438462013124565b62012e4b565b62012322565b9050919050565b62013161816201312e565b82525050565b600060a0820190506201317e60008301886201246b565b6201318d602083018762011f6a565b6201319c60408301866201235d565b620131ab60608301856201246b565b620131ba608083018462013156565b9695505050505050565b6000604082019050620131db60008301856201235d565b620131ea602083018462011f6a565b9392505050565b60006040820190506201320860008301856201235d565b6201321760208301846201243d565b9392505050565b6000815190506201322f8162011c2c565b92915050565b6000602082840312156201324e576201324d62011c18565b5b60006201325e848285016201321e565b91505092915050565b6000620132748262011c22565b9150620132818362011c22565b92508282101562013297576201329662012f66565b5b828203905092915050565b7f4e487b7100000000000000000000000000000000000000000000000000000000600052601260045260246000fd5b6000620132de8262011e81565b9150620132eb8362011e81565b925082620132fe57620132fd620132a2565b5b828204905092915050565b6000819050919050565b6000620133346201332e620133288462013309565b62012e4b565b62011c22565b9050919050565b620133468162013313565b82525050565b600060408201905062013363600083018562012116565b6201337260208301846201333b565b9392505050565b60008060006060848603121562013395576201339462011c18565b5b6000620133a5868287016201309b565b9350506020620133b8868287016201309b565b9250506040620133cb868287016201309b565b9150509250925092565b600081519050620133e681620125bf565b92915050565b60006020828403121562013405576201340462011c18565b5b60006201341584828501620133d5565b91505092915050565b60008160011c9050919050565b6000808291508390505b60018511156201347d5780860481111562013455576201345462012f66565b5b6001851615620134655780820291505b808102905062013475856201341e565b945062013435565b94509492505050565b6000826201349857600190506201356b565b81620134a857600090506201356b565b8160018114620134c15760028114620134cc5762013502565b60019150506201356b565b60ff841115620134e157620134e062012f66565b5b8360020a915084821115620134fb57620134fa62012f66565b5b506201356b565b5060208310610133831016604e8410600b84101617156201353c5782820a90508381111562013536576201353562012f66565b5b6201356b565b6201354b84848460016201342b565b9250905081840481111562013565576201356462012f66565b5b81810290505b9392505050565b60006201357f8262011c22565b91506201358c8362012322565b9250620135bb7fffffffffffffffffffffffffffffffffffffffffffffffffffffffffffffffff848462013486565b905092915050565b6000620135d08262011c22565b9150620135dd8362011c22565b925082620135f057620135ef620132a2565b5b828204905092915050565b6000620136088262011c22565b9150620136158362011c22565b9250817fffffffffffffffffffffffffffffffffffffffffffffffffffffffffffffffff048311821515161562013651576201365062012f66565b5b828202905092915050565b600060608201905062013673600083018662011ddf565b62013682602083018562012116565b62013691604083018462012116565b949350505050565b6000620136a68262011e0d565b9150620136b38362011e0d565b92508267ffffffffffffffff03821115620136d357620136d262012f66565b5b828201905092915050565b6000606082019050620136f5600083018662012116565b62013704602083018562012116565b62013713604083018462012116565b949350505050565b6000819050919050565b600062013746620137406201373a8462011d09565b62012e4b565b6201371b565b9050919050565b620137588162013725565b82525050565b600060408201905062013775600083018562012116565b6201378460208301846201374d565b9392505050565b6000620137ac620137a6620137a08462011e81565b62012e4b565b62011c22565b9050919050565b620137be816201378b565b82525050565b6000606082019050620137db600083018662012116565b620137ea6020830185620137b3565b620137f96040830184620137b3565b949350505050565b6000815190506201381281620122aa565b92915050565b60006020828403121562013831576201383062011c18565b5b6000620138418482850162013801565b91505092915050565b600581106201385e576201385d62011efb565b5b50565b600081905062013871826201384a565b919050565b6000620138838262013861565b9050919050565b620138958162013876565b82525050565b6000604082019050620138b2600083018562012116565b620138c160208301846201388a565b9392505050565b6000620138d6838562012dea565b9350620138e583858462012ed1565b620138f08362012a3f565b840190509392505050565b6000604082019050818103600083015262013918818688620138c8565b905081810360208301526201392f818486620138c8565b905095945050505050565b60006040820190506201395160008301866201232f565b81810360208301526201396681848662012ee0565b9050949350505050565b600060808201905081810360008301526201398d81898b620138c8565b90508181036020830152620139a4818789620138c8565b9050620139b560408301866201246b565b8181036060830152620139ca81848662012ee0565b905098975050505050505050565b6000620139f9620139f3620139ed8462012144565b62012e4b565b62011c22565b9050919050565b62013a0b81620139d8565b82525050565b600060208201905062013a28600083018462013a00565b92915050565b7f4e487b7100000000000000000000000000000000000000000000000000000000600052603260045260246000fd5b600060408201905062013a74600083018562012116565b62013a8360208301846201235d565b9392505050565b600062013a978262011d09565b915062013aa48362011d09565b9250827fffffffffffffffffffffffffffffffffffff80000000000000000000000000000182126000841215161562013ae25762013ae162012f66565b5b826d7fffffffffffffffffffffffffff01821360008412161562013b0b5762013b0a62012f66565b5b828203905092915050565b600060608201905062013b2d600083018762012116565b62013b3c60208301866201235d565b818103604083015262013b5181848662012ee0565b905095945050505050565b600060408201905062013b7360008301856201232f565b62013b8260208301846201232f565b9392505050565b600060408201905062013ba060008301856201235d565b62013baf60208301846201232f565b9392505050565b62013bc18162011e0d565b811462013bcd57600080fd5b50565b60008151905062013be18162013bb6565b92915050565b60006020828403121562013c005762013bff62011c18565b5b600062013c108482850162013bd0565b91505092915050565b600060808201905062013c3060008301876201246b565b62013c3f60208301866201235d565b62013c4e60408301856201232f565b62013c5d606083018462012116565b95945050505050565b600080fd5b600080fd5b600080fd5b6000808335600160200384360303811262013c955762013c9462013c66565b5b80840192508235915067ffffffffffffffff82111562013cba5762013cb962013c6b565b5b60208301925060018202360383131562013cd95762013cd862013c70565b5b509250929050565b600060408201905062013cf860008301856201235d565b62013d07602083018462011e21565b9392505050565b600060408201905062013d2560008301856201246b565b62013d3460208301846201235d565b9392505050565b600060408201905062013d5260008301856201235d565b62013d61602083018462013a00565b9392505050565b600062013d758262011d09565b91507fffffffffffffffffffffffffffffffffffff800000000000000000000000000082141562013dab5762013daa62012f66565b5b816000039050919050565b600062013dc38262011d09565b915062013dd08362011d09565b92508262013de35762013de2620132a2565b5b600160000383147fffffffffffffffffffffffffffffffffffff80000000000000000000000000008314161562013e1f5762013e1e62012f66565b5b828205905092915050565b600062013e378262011d09565b915062013e448362011d09565b9250826d7fffffffffffffffffffffffffff048211600084136000841316161562013e745762013e7362012f66565b5b817fffffffffffffffffffffffffffffffffffff8000000000000000000000000000058312600084126000841316161562013eb45762013eb362012f66565b5b827fffffffffffffffffffffffffffffffffffff8000000000000000000000000000058212600084136000841216161562013ef45762013ef362012f66565b5b826d7fffffffffffffffffffffffffff058212600084126000841216161562013f225762013f2162012f66565b5b828202905092915050565b600062013f3a8262012144565b915062013f478362012144565b92508282101562013f5d5762013f5c62012f66565b5b828203905092915050565b600060408201905062013f7f600083018562011ddf565b62013f8e60208301846201246b565b9392505050565b600081905092915050565b7f4b59432000000000000000000000000000000000000000000000000000000000600082015250565b600062013fd860048362013f95565b915062013fe58262013fa0565b600482019050919050565b60008160601b9050919050565b60006201400a8262013ff0565b9050919050565b60006201401e8262013ffd565b9050919050565b6201403a620140348262011c7d565b62014011565b82525050565b60006201404d8262013fc9565b91506201405b828462014025565b60148201915081905092915050565b60006201408b620140856201407f8462013124565b62012e4b565b62011c22565b9050919050565b6201409d816201406a565b82525050565b6000606082019050620140ba60008301866201235d565b620140c960208301856201246b565b620140d8604083018462014092565b949350505050565b7f4e487b7100000000000000000000000000000000000000000000000000000000600052602260045260246000fd5b600060028204905060018216806201412857607f821691505b602082108114156201413f576201413e620140e0565b5b50919050565b60008190508160005260206000209050919050565b6000815462014169816201410f565b62014175818662012ec0565b94506001821660008114620141935760018114620141a657620141dd565b60ff1983168652602086019350620141dd565b620141b18562014145565b60005b83811015620141d557815481890152600182019150602081019050620141b4565b808801955050505b50505092915050565b6000608082019050620141fd60008301876201235d565b6201420c602083018662012116565b6201421b60408301856201235d565b81810360608301526201422f81846201415a565b905095945050505050565b6000815190506201424b8162011c91565b92915050565b6000602082840312156201426a576201426962011c18565b5b60006201427a848285016201423a565b91505092915050565b60006040820190506201429a60008301856201235d565b620142a9602083018462012116565b9392505050565b6000819050919050565b6000620142db620142d5620142cf84620142b0565b62012e4b565b62012322565b9050919050565b620142ed81620142ba565b82525050565b6000819050919050565b60006201431e620143186201431284620142f3565b62012e4b565b62012144565b9050919050565b6201433081620142fd565b82525050565b600060e0820190506201434d600083018a6201235d565b6201435c60208301896201235d565b6201436b60408301886201235d565b6201437a606083018762012116565b620143896080830186620142e2565b6201439860a083018562011e21565b620143a760c083018462014325565b98975050505050505050565b7f4672616272696344414f205f636f6d706c65746550726f706f73616c20436f6d60008201527f6d6f6e50726f706f73616c000000000000000000000000000000000000000000602082015250565b600062014411602b8362012dea565b91506201441e82620143b3565b604082019050919050565b60006040820190508181036000830152620144448162014402565b905062014455602083018462012e7d565b92915050565b6000620144688262011e81565b9150620144758362011e81565b9250828210156201448b576201448a62012f66565b5b828203905092915050565b6000620144a38262011e81565b9150620144b08362011e81565b9250826dffffffffffffffffffffffffffff03821115620144d657620144d562012f66565b5b828201905092915050565b6000620144ee8262011d09565b9150620144fb8362011d09565b9250816d7fffffffffffffffffffffffffff0383136000831215161562014527576201452662012f66565b5b817fffffffffffffffffffffffffffffffffffff800000000000000000000000000003831260008312161562014562576201456162012f66565b5b828201905092915050565b600060208201905062014584600083018462012dac565b92915050565b600081519050919050565b600081905092915050565b60005b83811015620145c0578082015181840152602081019050620145a3565b83811115620145d0576000848401525b50505050565b6000620145e3826201458a565b620145ef818562014595565b935062014601818560208601620145a0565b80840191505092915050565b60006201461b8284620145d6565b915081905092915050565b7f1901000000000000000000000000000000000000000000000000000000000000600082015250565b60006201465e60028362013f95565b91506201466b8262014626565b600282019050919050565b6000819050919050565b620146956201468f8262012045565b62014676565b82525050565b6000620146a8826201464f565b9150620146b6828562014680565b602082019150620146c8828462014680565b6020820191508190509392505050565b7f45434453413a20696e76616c6964207369676e61747572650000000000000000600082015250565b60006201471060188362012dea565b91506201471d82620146d8565b602082019050919050565b60006020820190508181036000830152620147438162014701565b9050919050565b7f45434453413a20696e76616c6964207369676e6174757265206c656e67746800600082015250565b600062014782601f8362012dea565b91506201478f826201474a565b602082019050919050565b60006020820190508181036000830152620147b58162014773565b9050919050565b7f45434453413a20696e76616c6964207369676e6174757265202773272076616c60008201527f7565000000000000000000000000000000000000000000000000000000000000602082015250565b60006201481a60228362012dea565b91506201482782620147bc565b604082019050919050565b600060208201905081810360008301526201484d816201480b565b9050919050565b7f45434453413a20696e76616c6964207369676e6174757265202776272076616c60008201527f7565000000000000000000000000000000000000000000000000000000000000602082015250565b6000620148b260228362012dea565b9150620148bf8262014854565b604082019050919050565b60006020820190508181036000830152620148e581620148a3565b9050919050565b60008190508160005260206000209050919050565b6000815462014910816201410f565b6201491c818662012dea565b945060018216600081146201493a57600181146201494d5762014984565b60ff198316865260208601935062014984565b6201495885620148ec565b60005b838110156201497c578154818901526001820191506020810190506201495b565b808801955050505b50505092915050565b600060c082019050620149a460008301896201232f565b8181036020830152620149b8818862014901565b90508181036040830152620149ce818762014901565b9050620149df60608301866201246b565b620149ee60808301856201235d565b81810360a083015262014a0281846201415a565b9050979650505050505050565b6000819050919050565b62014a2e62014a288262011d44565b62014a0f565b82525050565b6000815462014a43816201410f565b62014a4f818662014595565b9450600182166000811462014a6d576001811462014a7f5762014ab6565b60ff1983168652818601935062014ab6565b62014a8a8562014145565b60005b8381101562014aae5781548189015260018201915060208101905062014a8d565b838801955050505b50505092915050565b600062014acd828562014a19565b60048201915062014adf828462014a34565b91508190509392505050565b600062014af8826201458a565b62014b04818562012ec0565b935062014b16818560208601620145a0565b62014b218162012a3f565b840191505092915050565b600060608201905062014b4360008301866201235d565b62014b52602083018562012dac565b818103604083015262014b66818462014aeb565b9050949350505050565b7f46726162726963205f636f6d706c657465537065636966696350726f706f736160008201527f6c00000000000000000000000000000000000000000000000000000000000000602082015250565b600062014bce60218362012dea565b915062014bdb8262014b70565b604082019050919050565b6000604082019050818103600083015262014c018162014bbf565b905062014c12602083018462012116565b92915050565b600060a08201905062014c2f60008301886201246b565b62014c3e60208301876201246b565b62014c4d60408301866201246b565b62014c5c606083018562012116565b62014c6b60808301846201235d565b9695505050505050565b600060808201905062014c8c60008301876201246b565b62014c9b60208301866201232f565b62014caa60408301856201246b565b62014cb960608301846201246b565b95945050505050565b7f5361666545524332303a204552433230206f7065726174696f6e20646964206e60008201527f6f74207375636365656400000000000000000000000000000000000000000000602082015250565b600062014d20602a8362012dea565b915062014d2d8262014cc2565b604082019050919050565b6000602082019050818103600083015262014d538162014d11565b9050919050565b7f416464726573733a20696e73756666696369656e742062616c616e636520666f60008201527f722063616c6c0000000000000000000000000000000000000000000000000000602082015250565b600062014db860268362012dea565b915062014dc58262014d5a565b604082019050919050565b6000602082019050818103600083015262014deb8162014da9565b9050919050565b7f416464726573733a2063616c6c20746f206e6f6e2d636f6e7472616374000000600082015250565b600062014e2a601d8362012dea565b915062014e378262014df2565b602082019050919050565b6000602082019050818103600083015262014e5d8162014e1b565b9050919050565b600081519050919050565b600062014e7c8262014e64565b62014e88818562012dea565b935062014e9a818560208601620145a0565b62014ea58162012a3f565b840191505092915050565b6000602082019050818103600083015262014ecc818462014e6f565b90509291505056fea2646970667358221220c161836ef8168c1df013187416178ac771b8900df02c6267e8ad90cafe1677b064736f6c63430008090033",
    "linkReferences": {},
    "deployedLinkReferences": {}
}