{
    "_format": "hh-sol-artifact-1",
    "contractName": "ThreadDeployer",
    "sourceName": "contracts/thread/ThreadDeployer.sol",
    "abi": [
        {
            "inputs": [],
            "stateMutability": "nonpayable",
            "type": "constructor"
        },
        {
            "inputs": [
                {
                    "internalType": "uint256",
                    "name": "lengthA",
                    "type": "uint256"
                },
                {
                    "internalType": "uint256",
                    "name": "lengthB",
                    "type": "uint256"
                }
            ],
            "name": "DifferentLengths",
            "type": "error"
        },
        {
            "inputs": [
                {
                    "internalType": "uint8",
                    "name": "beforeDecimals",
                    "type": "uint8"
                },
                {
                    "internalType": "uint8",
                    "name": "afterDecimals",
                    "type": "uint8"
                }
            ],
            "name": "NonStaticDecimals",
            "type": "error"
        },
        {
            "inputs": [
                {
                    "internalType": "uint8",
                    "name": "id",
                    "type": "uint8"
                }
            ],
            "name": "UnknownVariant",
            "type": "error"
        },
        {
            "inputs": [
                {
                    "internalType": "address",
                    "name": "contractAddress",
                    "type": "address"
                },
                {
                    "internalType": "bytes4",
                    "name": "interfaceID",
                    "type": "bytes4"
                }
            ],
            "name": "UnsupportedInterface",
            "type": "error"
        },
        {
            "anonymous": false,
            "inputs": [
                {
                    "indexed": true,
                    "internalType": "address",
                    "name": "thread",
                    "type": "address"
                },
                {
                    "indexed": true,
                    "internalType": "address",
                    "name": "token",
                    "type": "address"
                },
                {
                    "indexed": true,
                    "internalType": "address",
                    "name": "crowdfund",
                    "type": "address"
                },
                {
                    "indexed": false,
                    "internalType": "uint112",
                    "name": "target",
                    "type": "uint112"
                }
            ],
            "name": "CrowdfundedThread",
            "type": "event"
        },
        {
            "anonymous": false,
            "inputs": [
                {
                    "indexed": true,
                    "internalType": "address",
                    "name": "previousOwner",
                    "type": "address"
                },
                {
                    "indexed": true,
                    "internalType": "address",
                    "name": "newOwner",
                    "type": "address"
                }
            ],
            "name": "OwnershipTransferred",
            "type": "event"
        },
        {
            "anonymous": false,
            "inputs": [
                {
                    "indexed": true,
                    "internalType": "address",
                    "name": "thread",
                    "type": "address"
                },
                {
                    "indexed": true,
                    "internalType": "uint8",
                    "name": "variant",
                    "type": "uint8"
                },
                {
                    "indexed": true,
                    "internalType": "address",
                    "name": "governor",
                    "type": "address"
                },
                {
                    "indexed": false,
                    "internalType": "address",
                    "name": "erc20",
                    "type": "address"
                },
                {
                    "indexed": false,
                    "internalType": "bytes32",
                    "name": "descriptor",
                    "type": "bytes32"
                }
            ],
            "name": "Thread",
            "type": "event"
        },
        {
            "inputs": [],
            "name": "auction",
            "outputs": [
                {
                    "internalType": "address",
                    "name": "",
                    "type": "address"
                }
            ],
            "stateMutability": "view",
            "type": "function"
        },
        {
            "inputs": [
                {
                    "internalType": "address",
                    "name": "erc20",
                    "type": "address"
                }
            ],
            "name": "claimTimelock",
            "outputs": [],
            "stateMutability": "nonpayable",
            "type": "function"
        },
        {
            "inputs": [],
            "name": "contractName",
            "outputs": [
                {
                    "internalType": "bytes32",
                    "name": "",
                    "type": "bytes32"
                }
            ],
            "stateMutability": "view",
            "type": "function"
        },
        {
            "inputs": [],
            "name": "crowdfundProxy",
            "outputs": [
                {
                    "internalType": "address",
                    "name": "",
                    "type": "address"
                }
            ],
            "stateMutability": "view",
            "type": "function"
        },
        {
            "inputs": [
                {
                    "internalType": "uint8",
                    "name": "_variant",
                    "type": "uint8"
                },
                {
                    "internalType": "string",
                    "name": "_name",
                    "type": "string"
                },
                {
                    "internalType": "string",
                    "name": "_symbol",
                    "type": "string"
                },
                {
                    "internalType": "bytes32",
                    "name": "_descriptor",
                    "type": "bytes32"
                },
                {
                    "internalType": "address",
                    "name": "_governor",
                    "type": "address"
                },
                {
                    "internalType": "bytes",
                    "name": "data",
                    "type": "bytes"
                }
            ],
            "name": "deploy",
            "outputs": [],
            "stateMutability": "nonpayable",
            "type": "function"
        },
        {
            "inputs": [],
            "name": "erc20Beacon",
            "outputs": [
                {
                    "internalType": "address",
                    "name": "",
                    "type": "address"
                }
            ],
            "stateMutability": "view",
            "type": "function"
        },
        {
            "inputs": [
                {
                    "internalType": "address",
                    "name": "_crowdfundProxy",
                    "type": "address"
                },
                {
                    "internalType": "address",
                    "name": "_erc20Beacon",
                    "type": "address"
                },
                {
                    "internalType": "address",
                    "name": "_threadBeacon",
                    "type": "address"
                },
                {
                    "internalType": "address",
                    "name": "_auction",
                    "type": "address"
                },
                {
                    "internalType": "address",
                    "name": "_timelock",
                    "type": "address"
                }
            ],
            "name": "initialize",
            "outputs": [],
            "stateMutability": "nonpayable",
            "type": "function"
        },
        {
            "inputs": [],
            "name": "owner",
            "outputs": [
                {
                    "internalType": "address",
                    "name": "",
                    "type": "address"
                }
            ],
            "stateMutability": "view",
            "type": "function"
        },
        {
            "inputs": [],
            "name": "percentage",
            "outputs": [
                {
                    "internalType": "uint8",
                    "name": "",
                    "type": "uint8"
                }
            ],
            "stateMutability": "view",
            "type": "function"
        },
        {
            "inputs": [
                {
                    "internalType": "address",
                    "name": "erc20",
                    "type": "address"
                }
            ],
            "name": "recover",
            "outputs": [],
            "stateMutability": "nonpayable",
            "type": "function"
        },
        {
            "inputs": [],
            "name": "renounceOwnership",
            "outputs": [],
            "stateMutability": "nonpayable",
            "type": "function"
        },
        {
            "inputs": [
                {
                    "internalType": "bytes4",
                    "name": "",
                    "type": "bytes4"
                }
            ],
            "name": "supportsInterface",
            "outputs": [
                {
                    "internalType": "bool",
                    "name": "",
                    "type": "bool"
                }
            ],
            "stateMutability": "view",
            "type": "function"
        },
        {
            "inputs": [],
            "name": "threadBeacon",
            "outputs": [
                {
                    "internalType": "address",
                    "name": "",
                    "type": "address"
                }
            ],
            "stateMutability": "view",
            "type": "function"
        },
        {
            "inputs": [],
            "name": "timelock",
            "outputs": [
                {
                    "internalType": "address",
                    "name": "",
                    "type": "address"
                }
            ],
            "stateMutability": "view",
            "type": "function"
        },
        {
            "inputs": [
                {
                    "internalType": "address",
                    "name": "newOwner",
                    "type": "address"
                }
            ],
            "name": "transferOwnership",
            "outputs": [],
            "stateMutability": "nonpayable",
            "type": "function"
        },
        {
            "inputs": [
                {
                    "internalType": "uint8",
                    "name": "variant",
                    "type": "uint8"
                },
                {
                    "internalType": "bytes",
                    "name": "data",
                    "type": "bytes"
                }
            ],
            "name": "validate",
            "outputs": [],
            "stateMutability": "view",
            "type": "function"
        },
        {
            "inputs": [],
            "name": "version",
            "outputs": [
                {
                    "internalType": "uint256",
                    "name": "",
                    "type": "uint256"
                }
            ],
            "stateMutability": "view",
            "type": "function"
        }
    ],
    "bytecode": "0x60806040523480156200001157600080fd5b5060408051808201909152600e81526d2a343932b0b22232b83637bcb2b960911b6020918201527fa8dce39a5d1593473019651f7bdf887a8feede225a8f1e41cd674e8214e29797606555606790527f8b4f8c6895117275d329e8ed30ba92c6c3c53384664dcc82cd4f835c59578ec4805460ff19908116600190811790925563084b636360e21b60009081527fcadda5072810222dc76cd2e4f0838314c605b8593c2d60c423861e65bb408b528054909216909217905554610100900460ff16620000e45760005460ff1615620000ee565b620000ee62000193565b620001565760405162461bcd60e51b815260206004820152602e60248201527f496e697469616c697a61626c653a20636f6e747261637420697320616c72656160448201526d191e481a5b9a5d1a585b1a5e995960921b606482015260840160405180910390fd5b600054610100900460ff1615801562000179576000805461ffff19166101011790555b80156200018c576000805461ff00191690555b50620001c0565b6000620001ab30620001b160201b620010311760201c565b15905090565b6001600160a01b03163b151590565b612ac080620001d06000396000f3fe60806040523480156200001157600080fd5b5060043610620000ff5760003560e01c80637d9f6db5116200009e5780637d9f6db514620001d65780638da5cb5b14620001ea578063c672614d14620001f4578063c78ad77f1462000208578063d32a3d301462000224578063d33219b4146200023b578063efca42bb146200024f578063f0b44c931462000263578063f2fde38b146200027a57600080fd5b806301ffc9a714620001045780630cd865ec146200013f5780631459457a14620001585780633618eb65146200016f57806354fd4d501462000192578063715018a614620001ab57806375d0c0dc14620001b557806376b81ee914620001bf575b600080fd5b6200012a620001153660046200199b565b60676020526000908152604090205460ff1681565b60405190151581526020015b60405180910390f35b6200015662000150366004620019dd565b62000291565b005b6200015662000169366004620019fd565b62000336565b60cd5462000183906001600160a01b031681565b60405162000136919062001a79565b6200019c60665481565b60405190815260200162000136565b6200015662000859565b6200019c60655481565b62000156620001d036600462001b94565b6200089b565b60cf5462000183906001600160a01b031681565b6200018362000df2565b60ce5462000183906001600160a01b031681565b62000211600681565b60405160ff909116815260200162000136565b620001566200023536600462001c62565b62000e01565b60d05462000183906001600160a01b031681565b60cc5462000183906001600160a01b031681565b6200015662000274366004620019dd565b62000f1a565b620001566200028b366004620019dd565b62000f8b565b620003336200029f62000df2565b6040516370a0823160e01b81526001600160a01b038416906370a0823190620002cd90309060040162001a79565b60206040518083038186803b158015620002e657600080fd5b505afa158015620002fb573d6000803e3d6000fd5b505050506040513d601f19601f8201168201806040525081019062000321919062001cbd565b6001600160a01b038416919062001040565b50565b600054610100900460ff16620003535760005460ff16156200035d565b6200035d62001094565b620003c65760405162461bcd60e51b815260206004820152602e60248201527f496e697469616c697a61626c653a20636f6e747261637420697320616c72656160448201526d191e481a5b9a5d1a585b1a5e995960921b60648201526084015b60405180910390fd5b600054610100900460ff16158015620003e9576000805461ffff19166101011790555b620003f3620010a7565b620004266040518060400160405280600e81526020016d2a343932b0b22232b83637bcb2b960911b8152506000620010db565b60676020527f2ff18a737d756161c98c95c0afcfc1cce78ce5473cfc717d1530c9096f9f448a8054600160ff199182168117909255632f79614b60e01b6000527f6edc0760f244934ed9c8f15223be6f34b27dbe17f982a28ed369ec628ba1b2da80549091169091179055620004ad6001600160a01b0387166365482de560e01b62001196565b15806200054e57507f81c1f89d4fe48b489c21defbc40d04d7e367f5ffcf3a269d63bc316a872bf720866001600160a01b03166352f377896040518163ffffffff1660e01b815260040160206040518083038186803b1580156200051057600080fd5b505afa15801562000525573d6000803e3d6000fd5b505050506040513d601f19601f820116820180604052508101906200054b919062001cbd565b14155b156200057a57856365482de560e01b604051634502d26360e11b8152600401620003bd92919062001cd7565b620005966001600160a01b0386166365482de560e01b62001196565b15806200063757507fc12df178cac83b4125537d8f6ad8b6dc60dff39527bdc8aca0ec2a507968fee2856001600160a01b03166352f377896040518163ffffffff1660e01b815260040160206040518083038186803b158015620005f957600080fd5b505afa1580156200060e573d6000803e3d6000fd5b505050506040513d601f19601f8201168201806040525081019062000634919062001cbd565b14155b156200066357846365482de560e01b604051634502d26360e11b8152600401620003bd92919062001cd7565b6200067f6001600160a01b0385166365482de560e01b62001196565b15806200072057507fca2c126ed1bacb99ed7c83650fd39b710ba646480c540ada7ff31b61f40befbe846001600160a01b03166352f377896040518163ffffffff1660e01b815260040160206040518083038186803b158015620006e257600080fd5b505afa158015620006f7573d6000803e3d6000fd5b505050506040513d601f19601f820116820180604052508101906200071d919062001cbd565b14155b156200074c57836365482de560e01b604051634502d26360e11b8152600401620003bd92919062001cd7565b60cc80546001600160a01b038089166001600160a01b03199283161790925560cd805488841690831617905560ce805487841692169190911790556200079c90841663bdd98dd160e01b62001196565b620007c7578263bdd98dd160e01b604051634502d26360e11b8152600401620003bd92919062001cd7565b620007e36001600160a01b03831663668bf97560e11b62001196565b6200080e578163668bf97560e11b604051634502d26360e11b8152600401620003bd92919062001cd7565b60cf80546001600160a01b038086166001600160a01b03199283161790925560d0805492851692909116919091179055801562000851576000805461ff00191690555b505050505050565b336200086462000df2565b6001600160a01b0316146200088d5760405162461bcd60e51b8152600401620003bd9062001cfa565b620008996000620011c0565b565b33620008a662000df2565b6001600160a01b031614620008cf5760405162461bcd60e51b8152600401620003bd9062001cfa565b868686868660ff851615620008fd5760405163107b84ad60e11b815260ff86166004820152602401620003bd565b6000806200090e888a018a62001d2f565b60cd546040805160208101825260008082529151949650929450926001600160a01b03909116919062000941906200198d565b6200094e92919062001dd5565b604051809103906000f0801580156200096b573d6000803e3d6000fd5b5060cc54604080516020810182526000808252915193945090926001600160a01b03909216916200099c906200198d565b620009a992919062001dd5565b604051809103906000f080158015620009c6573d6000803e3d6000fd5b5090506000620009da898489898662001212565b90506000336001600160a01b031663785e9e866040518163ffffffff1660e01b815260040160206040518083038186803b15801562000a1857600080fd5b505afa15801562000a2d573d6000803e3d6000fd5b505050506040513d601f19601f8201168201806040525081019062000a53919062001dfb565b90506000836001600160a01b031663196e8c6f8c8c858c888d8d6040518863ffffffff1660e01b815260040162000a91979695949392919062001e1b565b602060405180830381600087803b15801562000aac57600080fd5b505af115801562000ac1573d6000803e3d6000fd5b505050506040513d601f19601f8201168201806040525081019062000ae7919062001cbd565b9050600062000afb868d8d85878d62001371565b604051634d8c928d60e11b81529091506001600160a01b03871690639b19251a9062000b2c90889060040162001a79565b600060405180830381600087803b15801562000b4757600080fd5b505af115801562000b5c573d6000803e3d6000fd5b5062000b77925050506001600160a01b038716868462001040565b60d054604051634d8c928d60e11b81526001600160a01b0388811692639b19251a9262000bab929091169060040162001a79565b600060405180830381600087803b15801562000bc657600080fd5b505af115801562000bdb573d6000803e3d6000fd5b505060d054604051635239e02560e11b81526001600160a01b038a8116600483015260066024830152909116925063a473c04a9150604401600060405180830381600087803b15801562000c2e57600080fd5b505af115801562000c43573d6000803e3d6000fd5b505060d05462000c6392506001600160a01b038981169250168362001040565b604051631978fa1760e31b8152306004820152600060248201526001600160a01b0387169063cbc7d0b890604401600060405180830381600087803b15801562000cac57600080fd5b505af115801562000cc1573d6000803e3d6000fd5b505060405163f2fde38b60e01b81526001600160a01b038916925063f2fde38b915062000cf390879060040162001a79565b600060405180830381600087803b15801562000d0e57600080fd5b505af115801562000d23573d6000803e3d6000fd5b50505050886001600160a01b03168d60ff16856001600160a01b03167f9675a3f3f4a19cea4dd05c0c1eaae5c24a0cc903c2401c630b7d2d6e8b878292898e60405162000d859291906001600160a01b03929092168252602082015260400190565b60405180910390a46040516001600160701b03881681526001600160a01b03808716918a8216918716907fcb115a564e7c841d7b1cdeba1c5fd062371834faa28f9e0d901ab027e74a8abc9060200160405180910390a45050505050505050505050505050505050505050565b6033546001600160a01b031690565b60ff831662000ef6576040811462000e395760408051635778839360e01b8152620003bd918391600401918252602082015260400190565b600062000e498284018462001d2f565b5090506002816001600160a01b03166318160ddd6040518163ffffffff1660e01b815260040160206040518083038186803b15801562000e8857600080fd5b505afa15801562000e9d573d6000803e3d6000fd5b505050506040513d601f19601f8201168201806040525081019062000ec3919062001cbd565b101562000ef057806336372b0760e01b604051634502d26360e11b8152600401620003bd92919062001cd7565b50505050565b60405163107b84ad60e11b815260ff84166004820152602401620003bd565b505050565b60d054604051630f41a04d60e11b81526001600160a01b0390911690631e83409a9062000f4c90849060040162001a79565b600060405180830381600087803b15801562000f6757600080fd5b505af115801562000f7c573d6000803e3d6000fd5b50505050620003338162000291565b3362000f9662000df2565b6001600160a01b03161462000fbf5760405162461bcd60e51b8152600401620003bd9062001cfa565b6001600160a01b038116620010265760405162461bcd60e51b815260206004820152602660248201527f4f776e61626c653a206e6577206f776e657220697320746865207a65726f206160448201526564647265737360d01b6064820152608401620003bd565b6200033381620011c0565b6001600160a01b03163b151590565b604080516001600160a01b038416602482015260448082018490528251808303909101815260649091019091526020810180516001600160e01b031663a9059cbb60e01b17905262000f15908490620015c1565b6000620010a13062001031565b15905090565b600054610100900460ff16620010d15760405162461bcd60e51b8152600401620003bd9062001e87565b620008996200169a565b600054610100900460ff16620011055760405162461bcd60e51b8152600401620003bd9062001e87565b81516020830120606555806200112057600160665562001127565b6000196066555b505060676020527f8b4f8c6895117275d329e8ed30ba92c6c3c53384664dcc82cd4f835c59578ec48054600160ff19918216811790925563084b636360e21b6000527fcadda5072810222dc76cd2e4f0838314c605b8593c2d60c423861e65bb408b5280549091169091179055565b6000620011a383620016cf565b8015620011b75750620011b7838362001707565b90505b92915050565b603380546001600160a01b038381166001600160a01b0319831681179093556040519116919082907f8be0079c531659141344cd1fd0a4f28419497f9722a3daafe3b4186f6b6457e090600090a35050565b604080516003808252608082019092526000918291906020820160608036833701905050905033816000815181106200124f576200124f62001ed2565b6001600160a01b03928316602091820292909201015260d05482519116908290600190811062001283576200128362001ed2565b60200260200101906001600160a01b031690816001600160a01b0316815250508281600281518110620012ba57620012ba62001ed2565b6001600160a01b03928316602091820292909201015260ce54604051911690631a82bcdb60e21b90620012fc908a908a908a9033908b90899060240162001ee8565b60408051601f198184030181529181526020820180516001600160e01b03166001600160e01b03199094169390931790925290516200133b906200198d565b6200134892919062001dd5565b604051809103906000f08015801562001365573d6000803e3d6000fd5b50979650505050505050565b600080876001600160a01b031663313ce5676040518163ffffffff1660e01b815260040160206040518083038186803b158015620013ae57600080fd5b505afa158015620013c3573d6000803e3d6000fd5b505050506040513d601f19601f82011682018060405250810190620013e9919062001f74565b905060006064620013fc60068262001faa565b62001408908862001fc5565b62001414919062001fe7565b60cf54604051631bbdd89b60e21b81529192506001600160a01b03808c1692636ef7626c9262001455928d928d9288928d928d92909116906004016200200a565b600060405180830381600087803b1580156200147057600080fd5b505af115801562001485573d6000803e3d6000fd5b50505050886001600160a01b031663313ce5676040518163ffffffff1660e01b815260040160206040518083038186803b158015620014c357600080fd5b505afa158015620014d8573d6000803e3d6000fd5b505050506040513d601f19601f82011682018060405250810190620014fe919062001f74565b60ff168260ff1614620015a85781896001600160a01b031663313ce5676040518163ffffffff1660e01b815260040160206040518083038186803b1580156200154657600080fd5b505afa1580156200155b573d6000803e3d6000fd5b505050506040513d601f19601f8201168201806040525081019062001581919062001f74565b604051633345c87360e21b815260ff928316600482015291166024820152604401620003bd565b620015b4868262002064565b9998505050505050505050565b600062001618826040518060400160405280602081526020017f5361666545524332303a206c6f772d6c6576656c2063616c6c206661696c6564815250856001600160a01b0316620017f99092919063ffffffff16565b80519091501562000f1557808060200190518101906200163991906200207e565b62000f155760405162461bcd60e51b815260206004820152602a60248201527f5361666545524332303a204552433230206f7065726174696f6e20646964206e6044820152691bdd081cdd58d8d9595960b21b6064820152608401620003bd565b600054610100900460ff16620016c45760405162461bcd60e51b8152600401620003bd9062001e87565b6200089933620011c0565b6000620016e4826301ffc9a760e01b62001707565b8015620011ba575062001700826001600160e01b031962001707565b1592915050565b604080516001600160e01b0319831660248083019190915282518083039091018152604490910182526020810180516001600160e01b03166301ffc9a760e01b179052905160009190829081906001600160a01b038716906175309062001770908690620020a2565b6000604051808303818686fa925050503d8060008114620017ae576040519150601f19603f3d011682016040523d82523d6000602084013e620017b3565b606091505b5091509150602081511015620017d05760009350505050620011ba565b818015620017ef575080806020019051810190620017ef91906200207e565b9695505050505050565b60606200180a848460008562001814565b90505b9392505050565b606082471015620018775760405162461bcd60e51b815260206004820152602660248201527f416464726573733a20696e73756666696369656e742062616c616e636520666f6044820152651c8818d85b1b60d21b6064820152608401620003bd565b620018828562001031565b620018d05760405162461bcd60e51b815260206004820152601d60248201527f416464726573733a2063616c6c20746f206e6f6e2d636f6e74726163740000006044820152606401620003bd565b600080866001600160a01b03168587604051620018ee9190620020a2565b60006040518083038185875af1925050503d80600081146200192d576040519150601f19603f3d011682016040523d82523d6000602084013e62001932565b606091505b5091509150620019448282866200194f565b979650505050505050565b60608315620019605750816200180d565b825115620019715782518084602001fd5b8160405162461bcd60e51b8152600401620003bd9190620020c0565b6109b580620020d683390190565b600060208284031215620019ae57600080fd5b81356001600160e01b0319811681146200180d57600080fd5b6001600160a01b03811681146200033357600080fd5b600060208284031215620019f057600080fd5b81356200180d81620019c7565b600080600080600060a0868803121562001a1657600080fd5b853562001a2381620019c7565b9450602086013562001a3581620019c7565b9350604086013562001a4781620019c7565b9250606086013562001a5981620019c7565b9150608086013562001a6b81620019c7565b809150509295509295909350565b6001600160a01b0391909116815260200190565b60ff811681146200033357600080fd5b634e487b7160e01b600052604160045260246000fd5b600082601f83011262001ac557600080fd5b813567ffffffffffffffff8082111562001ae35762001ae362001a9d565b604051601f8301601f19908116603f0116810190828211818310171562001b0e5762001b0e62001a9d565b8160405283815286602085880101111562001b2857600080fd5b836020870160208301376000602085830101528094505050505092915050565b60008083601f84011262001b5b57600080fd5b50813567ffffffffffffffff81111562001b7457600080fd5b60208301915083602082850101111562001b8d57600080fd5b9250929050565b600080600080600080600060c0888a03121562001bb057600080fd5b873562001bbd8162001a8d565b9650602088013567ffffffffffffffff8082111562001bdb57600080fd5b62001be98b838c0162001ab3565b975060408a013591508082111562001c0057600080fd5b62001c0e8b838c0162001ab3565b965060608a0135955060808a0135915062001c2982620019c7565b90935060a0890135908082111562001c4057600080fd5b5062001c4f8a828b0162001b48565b989b979a50959850939692959293505050565b60008060006040848603121562001c7857600080fd5b833562001c858162001a8d565b9250602084013567ffffffffffffffff81111562001ca257600080fd5b62001cb08682870162001b48565b9497909650939450505050565b60006020828403121562001cd057600080fd5b5051919050565b6001600160a01b039290921682526001600160e01b031916602082015260400190565b6020808252818101527f4f776e61626c653a2063616c6c6572206973206e6f7420746865206f776e6572604082015260600190565b6000806040838503121562001d4357600080fd5b823562001d5081620019c7565b915060208301356001600160701b038116811462001d6d57600080fd5b809150509250929050565b60005b8381101562001d9557818101518382015260200162001d7b565b8381111562000ef05750506000910152565b6000815180845262001dc181602086016020860162001d78565b601f01601f19169290920160200192915050565b6001600160a01b03831681526040602082018190526000906200180a9083018462001da7565b60006020828403121562001e0e57600080fd5b81516200180d81620019c7565b60e08152600062001e3060e083018a62001da7565b828103602084015262001e44818a62001da7565b6001600160a01b039889166040850152968816606084015250509285166080840152931660a08201526001600160701b0390921660c09092019190915292915050565b6020808252602b908201527f496e697469616c697a61626c653a20636f6e7472616374206973206e6f74206960408201526a6e697469616c697a696e6760a81b606082015260800190565b634e487b7160e01b600052603260045260246000fd5b60c08152600062001efd60c083018962001da7565b6001600160a01b03888116602085810191909152604085018990528782166060860152868216608086015284830360a086015285518084528682019391929183019060005b8181101562001f6257855184168352948401949184019160010162001f42565b50909c9b505050505050505050505050565b60006020828403121562001f8757600080fd5b81516200180d8162001a8d565b634e487b7160e01b600052601160045260246000fd5b6000821982111562001fc05762001fc062001f94565b500190565b600081600019048311821515161562001fe25762001fe262001f94565b500290565b6000826200200557634e487b7160e01b600052601260045260246000fd5b500490565b60c0815260006200201f60c083018962001da7565b828103602084015262002033818962001da7565b604084019790975250506001600160a01b039384166060820152918316608083015290911660a09091015292915050565b60008282101562002079576200207962001f94565b500390565b6000602082840312156200209157600080fd5b815180151581146200180d57600080fd5b60008251620020b681846020870162001d78565b9190910192915050565b602081526000620011b7602083018462001da756fe60806040526040516109b53803806109b5833981016040819052610022916104a9565b61004d60017fa3f0ad74e5423aebfd80d3ef4346578335a9a72aeaee59ff6cb3582b35133d51610569565b60008051602061096e833981519152146100695761006961058e565b6100758282600061007c565b505061060e565b61008583610156565b6040516001600160a01b038416907f1cf3b03a6cf19fa2baba4df148e9dcabedea7f8a5c07840e207e5c089be95d3e90600090a26000825111806100c65750805b156101515761014f836001600160a01b0316635c60da1b6040518163ffffffff1660e01b815260040160206040518083038186803b15801561010757600080fd5b505afa15801561011b573d6000803e3d6000fd5b505050506040513d601f19601f8201168201806040525081019061013f91906105a4565b836102f660201b6100291760201c565b505b505050565b6101698161032260201b6100551760201c565b6101c85760405162461bcd60e51b815260206004820152602560248201527f455243313936373a206e657720626561636f6e206973206e6f74206120636f6e6044820152641d1c9858dd60da1b60648201526084015b60405180910390fd5b61024b816001600160a01b0316635c60da1b6040518163ffffffff1660e01b815260040160206040518083038186803b15801561020457600080fd5b505afa158015610218573d6000803e3d6000fd5b505050506040513d601f19601f8201168201806040525081019061023c91906105a4565b61032260201b6100551760201c565b6102b05760405162461bcd60e51b815260206004820152603060248201527f455243313936373a20626561636f6e20696d706c656d656e746174696f6e206960448201526f1cc81b9bdd08184818dbdb9d1c9858dd60821b60648201526084016101bf565b806102d560008051602061096e83398151915260001b61033160201b6100641760201c565b80546001600160a01b0319166001600160a01b039290921691909117905550565b606061031b838360405180606001604052806027815260200161098e60279139610334565b9392505050565b6001600160a01b03163b151590565b90565b60606001600160a01b0384163b61039c5760405162461bcd60e51b815260206004820152602660248201527f416464726573733a2064656c65676174652063616c6c20746f206e6f6e2d636f6044820152651b9d1c9858dd60d21b60648201526084016101bf565b600080856001600160a01b0316856040516103b791906105bf565b600060405180830381855af49150503d80600081146103f2576040519150601f19603f3d011682016040523d82523d6000602084013e6103f7565b606091505b509092509050610408828286610412565b9695505050505050565b6060831561042157508161031b565b8251156104315782518084602001fd5b8160405162461bcd60e51b81526004016101bf91906105db565b80516001600160a01b038116811461046257600080fd5b919050565b634e487b7160e01b600052604160045260246000fd5b60005b83811015610498578181015183820152602001610480565b8381111561014f5750506000910152565b600080604083850312156104bc57600080fd5b6104c58361044b565b60208401519092506001600160401b03808211156104e257600080fd5b818501915085601f8301126104f657600080fd5b81518181111561050857610508610467565b604051601f8201601f19908116603f0116810190838211818310171561053057610530610467565b8160405282815288602084870101111561054957600080fd5b61055a83602083016020880161047d565b80955050505050509250929050565b60008282101561058957634e487b7160e01b600052601160045260246000fd5b500390565b634e487b7160e01b600052600160045260246000fd5b6000602082840312156105b657600080fd5b61031b8261044b565b600082516105d181846020870161047d565b9190910192915050565b60208152600082518060208401526105fa81604085016020870161047d565b601f01601f19169190910160400192915050565b6103518061061d6000396000f3fe60806040523661001357610011610017565b005b6100115b610027610022610067565b61010f565b565b606061004e83836040518060600160405280602781526020016102f560279139610133565b9392505050565b6001600160a01b03163b151590565b90565b600061009a7fa3f0ad74e5423aebfd80d3ef4346578335a9a72aeaee59ff6cb3582b35133d50546001600160a01b031690565b6001600160a01b0316635c60da1b6040518163ffffffff1660e01b815260040160206040518083038186803b1580156100d257600080fd5b505afa1580156100e6573d6000803e3d6000fd5b505050506040513d601f19601f8201168201806040525081019061010a919061024c565b905090565b3660008037600080366000845af43d6000803e80801561012e573d6000f35b3d6000fd5b606061013e84610055565b61019e5760405162461bcd60e51b815260206004820152602660248201527f416464726573733a2064656c65676174652063616c6c20746f206e6f6e2d636f6044820152651b9d1c9858dd60d21b60648201526084015b60405180910390fd5b600080856001600160a01b0316856040516101b991906102a5565b600060405180830381855af49150503d80600081146101f4576040519150601f19603f3d011682016040523d82523d6000602084013e6101f9565b606091505b5091509150610209828286610213565b9695505050505050565b6060831561022257508161004e565b8251156102325782518084602001fd5b8160405162461bcd60e51b815260040161019591906102c1565b60006020828403121561025e57600080fd5b81516001600160a01b038116811461004e57600080fd5b60005b83811015610290578181015183820152602001610278565b8381111561029f576000848401525b50505050565b600082516102b7818460208701610275565b9190910192915050565b60208152600082518060208401526102e0816040850160208701610275565b601f01601f1916919091016040019291505056fe416464726573733a206c6f772d6c6576656c2064656c65676174652063616c6c206661696c6564a264697066735822122071f0c3eea341bd6c0a74d3465a46c3cc4e7bb34053a5407c680edafe6c672f2f64736f6c63430008090033a3f0ad74e5423aebfd80d3ef4346578335a9a72aeaee59ff6cb3582b35133d50416464726573733a206c6f772d6c6576656c2064656c65676174652063616c6c206661696c6564a264697066735822122010598255782cccc41e559ea84a6e36303f73e55b3bc6efcaf95158becb453c9e64736f6c63430008090033",
    "linkReferences": {},
    "deployedLinkReferences": {}
}