{
  "data": {
    "bytecode": {
      "linkReferences": {},
      "object": "60806040523480156200001157600080fd5b506040518060400160405280600781526020017f467261627269630000000000000000000000000000000000000000000000000081525080805190602001206035819055506001603760007f01ffc9a7000000000000000000000000000000000000000000000000000000007bffffffffffffffffffffffffffffffffffffffffffffffffffffffff19167bffffffffffffffffffffffffffffffffffffffffffffffffffffffff1916815260200190815260200160002060006101000a81548160ff0219169083151502179055506001603760007f212d8d8c000000000000000000000000000000000000000000000000000000007bffffffffffffffffffffffffffffffffffffffffffffffffffffffff19167bffffffffffffffffffffffffffffffffffffffffffffffffffffffff1916815260200190815260200160002060006101000a81548160ff0219169083151502179055505060008060019054906101000a900460ff161590508080156200019d5750600160008054906101000a900460ff1660ff16105b80620001d95750620001ba306200034660201b6200504a1760201c565b158015620001d85750600160008054906101000a900460ff1660ff16145b5b6200021b576040517f08c379a00000000000000000000000000000000000000000000000000000000081526004016200021290620003f0565b60405180910390fd5b60016000806101000a81548160ff021916908360ff160217905550801562000259576001600060016101000a81548160ff0219169083151502179055505b6001603760007f4c8e80f0000000000000000000000000000000000000000000000000000000007bffffffffffffffffffffffffffffffffffffffffffffffffffffffff19167bffffffffffffffffffffffffffffffffffffffffffffffffffffffff1916815260200190815260200160002060006101000a81548160ff02191690831515021790555080156200033f5760008060016101000a81548160ff0219169083151502179055507f7f26b83ff96e1f2b6a682f133852f6798a09c465da95921460cefb384740249860016040516200033691906200046c565b60405180910390a15b5062000489565b6000808273ffffffffffffffffffffffffffffffffffffffff163b119050919050565b600082825260208201905092915050565b7f496e697469616c697a61626c653a20636f6e747261637420697320616c72656160008201527f647920696e697469616c697a6564000000000000000000000000000000000000602082015250565b6000620003d8602e8362000369565b9150620003e5826200037a565b604082019050919050565b600060208201905081810360008301526200040b81620003c9565b9050919050565b6000819050919050565b600060ff82169050919050565b6000819050919050565b6000620004546200044e620004488462000412565b62000429565b6200041c565b9050919050565b620004668162000433565b82525050565b60006020820190506200048360008301846200045b565b92915050565b61abc580620004996000396000f3fe608060405234801561001057600080fd5b50600436106102535760003560e01c80636b83cd6811610146578063a42e9fb0116100c3578063e9f4741a11610087578063e9f4741a14610796578063ed29ce98146107c6578063ef46d90b146107f6578063f2d8323c14610826578063fee62bc314610842578063ff383e1b1461086057610253565b8063a42e9fb0146106e2578063b4c863dd14610712578063bf84bf5b1461072e578063d8965f551461075e578063e1f02ffa1461077a57610253565b80638788cc531161010a5780638788cc531461062a5780638b5d4b2c1461065a5780638eb98e37146106785780638fff0fed1461069657806394a14a34146106c657610253565b80636b83cd681461058457806370ec42e8146105a257806375d0c0dc146105d257806377173c1e146105f0578063785e9e861461060c57610253565b806342b4632e116101d45780635e51bd05116101985780635e51bd05146104dc57806364691e5e146104fa57806364c9ec6f14610518578063662457c61461053657806367b48e981461055457610253565b806342b4632e14610412578063450b97431461044257806354fd4d501461047257806357e0ac90146104905780635be59cc0146104ac57610253565b80632605b3c71161021b5780632605b3c7146103365780632e98bda51461036657806335743ac91461039657806337716745146103c65780633b99bcee146103f657610253565b80630117c9091461025857806301ffc9a71461028857806302a251a3146102b85780630a0155e5146102d657806319e6e15814610306575b600080fd5b610272600480360381019061026d9190617e3f565b61087c565b60405161027f9190617e9b565b60405180910390f35b6102a2600480360381019061029d9190617f0e565b6108e7565b6040516102af9190617f56565b60405180910390f35b6102c0610907565b6040516102cd9190617f94565b60405180910390f35b6102f060048036038101906102eb9190617faf565b610921565b6040516102fd9190617f56565b60405180910390f35b610320600480360381019061031b9190617faf565b610941565b60405161032d9190618005565b60405180910390f35b610350600480360381019061034b9190618020565b61097b565b60405161035d91906180c4565b60405180910390f35b610380600480360381019061037b91906181b4565b61099c565b60405161038d919061824b565b60405180910390f35b6103b060048036038101906103ab9190617faf565b610ef4565b6040516103bd9190617f56565b60405180910390f35b6103e060048036038101906103db9190617faf565b610f18565b6040516103ed9190618285565b60405180910390f35b610410600480360381019061040b91906182a0565b610f48565b005b61042c60048036038101906104279190618020565b611592565b6040516104399190617f56565b60405180910390f35b61045c60048036038101906104579190618020565b611617565b604051610469919061824b565b60405180910390f35b61047a611630565b604051610487919061824b565b60405180910390f35b6104aa60048036038101906104a59190618325565b611636565b005b6104c660048036038101906104c191906183d9565b611bbe565b6040516104d3919061824b565b60405180910390f35b6104e4611bea565b6040516104f19190618435565b60405180910390f35b610502611bfe565b60405161050f919061845f565b60405180910390f35b610520611c25565b60405161052d919061845f565b60405180910390f35b61053e611c4c565b60405161054b919061824b565b60405180910390f35b61056e6004803603810190610569919061847a565b611c56565b60405161057b919061824b565b60405180910390f35b61058c611e94565b6040516105999190618005565b60405180910390f35b6105bc60048036038101906105b79190618020565b611ffc565b6040516105c99190618529565b60405180910390f35b6105da61201d565b6040516105e79190618553565b60405180910390f35b61060a600480360381019061060591906182a0565b612023565b005b6106146121e1565b604051610621919061845f565b60405180910390f35b610644600480360381019061063f9190617faf565b612207565b6040516106519190617e9b565b60405180910390f35b610662612234565b60405161066f9190617f94565b60405180910390f35b61068061224e565b60405161068d919061857d565b60405180910390f35b6106b060048036038101906106ab9190618598565b612254565b6040516106bd919061824b565b60405180910390f35b6106e060048036038101906106db9190617faf565b612733565b005b6106fc60048036038101906106f79190618625565b612a6c565b604051610709919061824b565b60405180910390f35b61072c600480360381019061072791906182a0565b612dc6565b005b610748600480360381019061074391906186fa565b6131eb565b604051610755919061824b565b60405180910390f35b6107786004803603810190610773919061883f565b613593565b005b610794600480360381019061078f9190617faf565b613b3a565b005b6107b060048036038101906107ab919061889f565b613dfb565b6040516107bd919061824b565b60405180910390f35b6107e060048036038101906107db91906189a4565b6142ff565b6040516107ed919061824b565b60405180910390f35b610810600480360381019061080b9190617faf565b61492b565b60405161081d9190617f56565b60405180910390f35b610840600480360381019061083b9190618a2c565b614958565b005b61084a614d2b565b6040516108579190617f94565b60405180910390f35b61087a60048036038101906108759190618cca565b614d45565b005b6000609f600084815260200190815260200160002060010160008373ffffffffffffffffffffffffffffffffffffffff1673ffffffffffffffffffffffffffffffffffffffff16815260200190815260200160002060009054906101000a9004600d0b905092915050565b60376020528060005260406000206000915054906101000a900460ff1681565b609c60149054906101000a900467ffffffffffffffff1681565b60a06020528060005260406000206000915054906101000a900460ff1681565b6000609f6000838152602001908152602001600020600201600e9054906101000a90046dffffffffffffffffffffffffffff169050919050565b61016d6020528060005260406000206000915054906101000a900460ff1681565b60007fca2c126ed1bacb99ed7c83650fd39b710ba646480c540ada7ff31b61f40befbe8673ffffffffffffffffffffffffffffffffffffffff166375d0c0dc6040518163ffffffff1660e01b8152600401602060405180830381600087803b158015610a0757600080fd5b505af1158015610a1b573d6000803e3d6000fd5b505050506040513d601f19601f82011682018060405250810190610a3f9190618d57565b14610b22578573ffffffffffffffffffffffffffffffffffffffff166375d0c0dc6040518163ffffffff1660e01b8152600401602060405180830381600087803b158015610a8c57600080fd5b505af1158015610aa0573d6000803e3d6000fd5b505050506040513d601f19601f82011682018060405250810190610ac49190618d57565b7fca2c126ed1bacb99ed7c83650fd39b710ba646480c540ada7ff31b61f40befbe6040517f4ed72888000000000000000000000000000000000000000000000000000000008152600401610b19929190618d84565b60405180910390fd5b6000610b2d8661506d565b15610be157610b7a7e2f1a9d000000000000000000000000000000000000000000000000000000008873ffffffffffffffffffffffffffffffffffffffff1661508690919063ffffffff16565b610bdc57867e2f1a9d000000000000000000000000000000000000000000000000000000006040517f8a05a4c6000000000000000000000000000000000000000000000000000000008152600401610bd3929190618dbc565b60405180910390fd5b610c8e565b610c2a7f4b91b37c000000000000000000000000000000000000000000000000000000008873ffffffffffffffffffffffffffffffffffffffff1661508690919063ffffffff16565b610c8d57867f4b91b37c000000000000000000000000000000000000000000000000000000006040517f8a05a4c6000000000000000000000000000000000000000000000000000000008152600401610c84929190618dbc565b60405180910390fd5b5b61017660008761ffff1661ffff16815260200190815260200160002060009054906101000a900460e01b9050600060e01b7bffffffffffffffffffffffffffffffffffffffffffffffffffffffff1916817bffffffffffffffffffffffffffffffffffffffffffffffffffffffff19161415610d4157856040517f83fb3b93000000000000000000000000000000000000000000000000000000008152600401610d389190618e7d565b60405180910390fd5b610d5f600380811115610d5757610d5661804d565b5b6000856150ab565b915060405180606001604052808873ffffffffffffffffffffffffffffffffffffffff168152602001827bffffffffffffffffffffffffffffffffffffffffffffffffffffffff1916815260200186868080601f016020809104026020016040519081016040528093929190818152602001838380828437600081840152601f19601f82011690508083019250505050505050815250610174600084815260200190815260200160002060008201518160000160006101000a81548173ffffffffffffffffffffffffffffffffffffffff021916908373ffffffffffffffffffffffffffffffffffffffff16021790555060208201518160000160146101000a81548163ffffffff021916908360e01c02179055506040820151816001019080519060200190610e90929190617b68565b509050508561ffff168773ffffffffffffffffffffffffffffffffffffffff16837f255a4efa8fa4508e2724984f49f6dac04764bec588a3069b4780b19e293801ec8888604051610ee2929190618ef8565b60405180910390a45095945050505050565b6000610f11609f600084815260200190815260200160002061530d565b9050919050565b6000609f6000838152602001908152602001600020600201601c9054906101000a900463ffffffff169050919050565b6000610f767fa3f0ad74e5423aebfd80d3ef4346578335a9a72aeaee59ff6cb3582b35133d5060001b61539d565b60000160009054906101000a900473ffffffffffffffffffffffffffffffffffffffff1690508073ffffffffffffffffffffffffffffffffffffffff163373ffffffffffffffffffffffffffffffffffffffff161461100e5733816040517f51d6e6f7000000000000000000000000000000000000000000000000000000008152600401611005929190618f1c565b60405180910390fd5b600160365461101d9190618f74565b8414611070578360016036546110339190618f74565b6040517f75f41667000000000000000000000000000000000000000000000000000000008152600401611067929190618fca565b60405180910390fd5b6036600081548092919061108390618ff3565b91905055506000603760007f2605b3c7000000000000000000000000000000000000000000000000000000007bffffffffffffffffffffffffffffffffffffffffffffffffffffffff19167bffffffffffffffffffffffffffffffffffffffffffffffffffffffff1916815260200190815260200160002060006101000a81548160ff0219169083151502179055506001603760007f70ec42e8000000000000000000000000000000000000000000000000000000007bffffffffffffffffffffffffffffffffffffffffffffffffffffffff19167bffffffffffffffffffffffffffffffffffffffffffffffffffffffff1916815260200190815260200160002060006101000a81548160ff0219169083151502179055506001603760007f94105bcf000000000000000000000000000000000000000000000000000000007bffffffffffffffffffffffffffffffffffffffffffffffffffffffff19167bffffffffffffffffffffffffffffffffffffffffffffffffffffffff1916815260200190815260200160002060006101000a81548160ff0219169083151502179055506000808484810190611238919061907a565b61016f600061017060008498508599508691906101000a81548173ffffffffffffffffffffffffffffffffffffffff021916908373ffffffffffffffffffffffffffffffffffffffff1602179055508591906101000a81548173ffffffffffffffffffffffffffffffffffffffff021916908373ffffffffffffffffffffffffffffffffffffffff160217905550505050506112d3826153a7565b6112ff8160047ffee0f3f6d95202b4d5ead81db126b56790020c84b536331f8f9e5155446b18956153dc565b600161016e60008373ffffffffffffffffffffffffffffffffffffffff1673ffffffffffffffffffffffffffffffffffffffff16815260200190815260200160002060006101000a81548160ff021916908360028111156113635761136261804d565b5b0217905550635be59cc060e01b61017660006101006000600381111561138c5761138b61804d565b5b1861ffff1661ffff16815260200190815260200160002060006101000a81548163ffffffff021916908360e01c021790555063e9f4741a60e01b6101766000610100600160038111156113e2576113e161804d565b5b1861ffff1661ffff16815260200190815260200160002060006101000a81548163ffffffff021916908360e01c0217905550638fff0fed60e01b6101766000610100600260038111156114385761143761804d565b5b1861ffff1661ffff16815260200190815260200160002060006101000a81548163ffffffff021916908360e01c0217905550639f30834b60e01b610176600080600481111561148a5761148961804d565b5b61ffff1661ffff16815260200190815260200160002060006101000a81548163ffffffff021916908360e01c021790555063613b111560e01b6101766000600260048111156114dc576114db61804d565b5b61ffff1661ffff16815260200190815260200160002060006101000a81548163ffffffff021916908360e01c0217905550639738b5ee60e01b610176600060048081111561152d5761152c61804d565b5b61ffff1661ffff16815260200190815260200160002060006101000a81548163ffffffff021916908360e01c021790555062093a80609c60146101000a81548167ffffffffffffffff021916908367ffffffffffffffff160217905550505050505050565b6000600260078111156115a8576115a761804d565b5b60ff1661016d60008473ffffffffffffffffffffffffffffffffffffffff1673ffffffffffffffffffffffffffffffffffffffff16815260200190815260200160002060009054906101000a900460ff16600781111561160b5761160a61804d565b5b60ff1610159050919050565b6101756020528060005260406000206000915090505481565b60365481565b6000600781111561164a5761164961804d565b5b85600781111561165d5761165c61804d565b5b14801561169d575060a060008573ffffffffffffffffffffffffffffffffffffffff16815260200190815260200160002060009054906101000a900460ff165b1561181457600061017160008673ffffffffffffffffffffffffffffffffffffffff16815260200190815260200160002060000160019054906101000a900473ffffffffffffffffffffffffffffffffffffffff169050600073ffffffffffffffffffffffffffffffffffffffff168173ffffffffffffffffffffffffffffffffffffffff16141561176657846040517fa57e640e00000000000000000000000000000000000000000000000000000000815260040161175d919061845f565b60405180910390fd5b61017160008673ffffffffffffffffffffffffffffffffffffffff16815260200190815260200160002060000160009054906101000a900460ff16955061017160008673ffffffffffffffffffffffffffffffffffffffff168152602001908152602001600020600080820160006101000a81549060ff02191690556000820160016101000a81549073ffffffffffffffffffffffffffffffffffffffff02191690555050809450506118b0565b600660078111156118285761182761804d565b5b85600781111561183b5761183a61804d565b5b1415801561186d57506007808111156118575761185661804d565b5b85600781111561186a5761186961804d565b5b14155b156118af57846040517fb22cdb5e0000000000000000000000000000000000000000000000000000000081526004016118a691906180c4565b60405180910390fd5b5b600061195761190d7f37b2baa58f577c76b3bbe989ba951144cf2e89eb6859ebc64e743b4cd3b4bf3288888860006040516020016118f295949392919061911c565b60405160208183030381529060405280519060200120615479565b84848080601f016020809104026020016040519081016040528093929190818152602001838380828437600081840152601f19601f82011690508083019250505050505050615493565b90506003600781111561196d5761196c61804d565b5b61016d60008373ffffffffffffffffffffffffffffffffffffffff1673ffffffffffffffffffffffffffffffffffffffff16815260200190815260200160002060009054906101000a900460ff1660078111156119cd576119cc61804d565b5b14611a5e578061016d60008373ffffffffffffffffffffffffffffffffffffffff1673ffffffffffffffffffffffffffffffffffffffff16815260200190815260200160002060009054906101000a900460ff166040517f947ebca8000000000000000000000000000000000000000000000000000000008152600401611a5592919061916f565b60405180910390fd5b60006007811115611a7257611a7161804d565b5b61016d60008773ffffffffffffffffffffffffffffffffffffffff1673ffffffffffffffffffffffffffffffffffffffff16815260200190815260200160002060009054906101000a900460ff166007811115611ad257611ad161804d565b5b14611b1457846040517fa57e640e000000000000000000000000000000000000000000000000000000008152600401611b0b919061845f565b60405180910390fd5b611b1f8587866154ba565b60046007811115611b3357611b3261804d565b5b866007811115611b4657611b4561804d565b5b1415611bb657600161016e60008773ffffffffffffffffffffffffffffffffffffffff1673ffffffffffffffffffffffffffffffffffffffff16815260200190815260200160002060006101000a81548160ff02191690836002811115611bb057611baf61804d565b5b02179055505b505050505050565b6000611be261010060006003811115611bda57611bd961804d565b5b1784846150ab565b905092915050565b61010560009054906101000a900460ff1681565b61017060009054906101000a900473ffffffffffffffffffffffffffffffffffffffff1681565b61016f60009054906101000a900473ffffffffffffffffffffffffffffffffffffffff1681565b6000609e54905090565b6000611c7760016003811115611c6f57611c6e61804d565b5b6000846150ab565b905060405180606001604052808673ffffffffffffffffffffffffffffffffffffffff168152602001851515815260200184815250610172600083815260200190815260200160002060008201518160000160006101000a81548173ffffffffffffffffffffffffffffffffffffffff021916908373ffffffffffffffffffffffffffffffffffffffff16021790555060208201518160000160146101000a81548160ff0219169083151502179055506040820151816001015590505060016002811115611d4857611d4761804d565b5b61016e60008773ffffffffffffffffffffffffffffffffffffffff1673ffffffffffffffffffffffffffffffffffffffff16815260200190815260200160002060009054906101000a900460ff166002811115611da857611da761804d565b5b1015611e3a578461016e60008773ffffffffffffffffffffffffffffffffffffffff1673ffffffffffffffffffffffffffffffffffffffff16815260200190815260200160002060009054906101000a900460ff166040517ffecb516e000000000000000000000000000000000000000000000000000000008152600401611e31929190619198565b60405180910390fd5b8315158573ffffffffffffffffffffffffffffffffffffffff16827f0c8addd39f41787290419571c452c76a0f9d6fb24e8b8a4b9e6cbbffbdac44ef86604051611e84919061824b565b60405180910390a4949350505050565b6000600a609c60009054906101000a900473ffffffffffffffffffffffffffffffffffffffff1673ffffffffffffffffffffffffffffffffffffffff166370a08231306040518263ffffffff1660e01b8152600401611ef3919061845f565b60206040518083038186803b158015611f0b57600080fd5b505afa158015611f1f573d6000803e3d6000fd5b505050506040513d601f19601f82011682018060405250810190611f4391906191d6565b609c60009054906101000a900473ffffffffffffffffffffffffffffffffffffffff1673ffffffffffffffffffffffffffffffffffffffff166318160ddd6040518163ffffffff1660e01b815260040160206040518083038186803b158015611fab57600080fd5b505afa158015611fbf573d6000803e3d6000fd5b505050506040513d601f19601f82011682018060405250810190611fe391906191d6565b611fed9190619203565b611ff79190619266565b905090565b61016e6020528060005260406000206000915054906101000a900460ff1681565b60355481565b6002831461206b578260026040517f75f416670000000000000000000000000000000000000000000000000000000081526004016120629291906192d2565b60405180910390fd5b600080838381019061207d91906192fb565b50915091506120cb7fa72b144f000000000000000000000000000000000000000000000000000000008373ffffffffffffffffffffffffffffffffffffffff1661508690919063ffffffff16565b61212e57817fa72b144f000000000000000000000000000000000000000000000000000000006040517f8a05a4c6000000000000000000000000000000000000000000000000000000008152600401612125929190618dbc565b60405180910390fd5b6121777f2f79614b000000000000000000000000000000000000000000000000000000008273ffffffffffffffffffffffffffffffffffffffff1661508690919063ffffffff16565b6121da57807f2f79614b000000000000000000000000000000000000000000000000000000006040517f8a05a4c60000000000000000000000000000000000000000000000000000000081526004016121d1929190618dbc565b60405180910390fd5b5050505050565b609c60009054906101000a900473ffffffffffffffffffffffffffffffffffffffff1681565b6000609f600083815260200190815260200160002060020160009054906101000a9004600d0b9050919050565b609d60009054906101000a900467ffffffffffffffff1681565b61010081565b60008060009050851561231c5760019050609c60009054906101000a900473ffffffffffffffffffffffffffffffffffffffff1673ffffffffffffffffffffffffffffffffffffffff168873ffffffffffffffffffffffffffffffffffffffff161461231b5787609c60009054906101000a900473ffffffffffffffffffffffffffffffffffffffff166040517fa04b1977000000000000000000000000000000000000000000000000000000008152600401612312929190618f1c565b60405180910390fd5b5b60008514612530573073ffffffffffffffffffffffffffffffffffffffff168773ffffffffffffffffffffffffffffffffffffffff16146123965786306040517f06818e6200000000000000000000000000000000000000000000000000000000815260040161238d929190618f1c565b60405180910390fd5b6123df7fe3b2ad63000000000000000000000000000000000000000000000000000000008973ffffffffffffffffffffffffffffffffffffffff1661508690919063ffffffff16565b61244257877fe3b2ad63000000000000000000000000000000000000000000000000000000006040517f8a05a4c6000000000000000000000000000000000000000000000000000000008152600401612439929190618dbc565b60405180910390fd5b60008873ffffffffffffffffffffffffffffffffffffffff1663313ce5676040518163ffffffff1660e01b815260040160206040518083038186803b15801561248a57600080fd5b505afa15801561249e573d6000803e3d6000fd5b505050506040513d601f19601f820116820180604052508101906124c29190619363565b600a6124ce91906194c3565b9050848182876124de919061950e565b6124e8919061953f565b1461252a57846040517ff658bf12000000000000000000000000000000000000000000000000000000008152600401612521919061824b565b60405180910390fd5b5061256c565b600084141561256b576040517f1f2a200500000000000000000000000000000000000000000000000000000000815260040160405180910390fd5b5b61258e610100600260038111156125865761258561804d565b5b1782856150ab565b91506040518060a001604052808973ffffffffffffffffffffffffffffffffffffffff1681526020018873ffffffffffffffffffffffffffffffffffffffff168152602001871515815260200186815260200185815250610107600084815260200190815260200160002060008201518160000160006101000a81548173ffffffffffffffffffffffffffffffffffffffff021916908373ffffffffffffffffffffffffffffffffffffffff16021790555060208201518160010160006101000a81548173ffffffffffffffffffffffffffffffffffffffff021916908373ffffffffffffffffffffffffffffffffffffffff16021790555060408201518160010160146101000a81548160ff02191690831515021790555060608201518160020155608082015181600301559050508673ffffffffffffffffffffffffffffffffffffffff168873ffffffffffffffffffffffffffffffffffffffff16837fd05e10a799df65bb4c7a900fb77dcb7be2871d4f3dc3454c3525f098ad281adc89898960405161272093929190619599565b60405180910390a4509695505050505050565b6000609f600083815260200190815260200160002090506001600481111561275e5761275d61804d565b5b8160000160149054906101000a900460ff1660048111156127825761278161804d565b5b146127c457816040517f8166c0270000000000000000000000000000000000000000000000000000000081526004016127bb919061824b565b60405180910390fd5b6000609c60149054906101000a900467ffffffffffffffff168260000160159054906101000a900467ffffffffffffffff1661280091906195d0565b67ffffffffffffffff16905080421015612855578242826040517f0104766b00000000000000000000000000000000000000000000000000000000815260040161284c9392919061960e565b60405180910390fd5b600082600001601f9054906101000a900460ff161561289c57600383600201600e9054906101000a90046dffffffffffffffffffffffffffff166128999190619266565b90505b80600d0b8360020160009054906101000a9004600d0b600d0b1361290a57838360020160009054906101000a9004600d0b6040517f32f8d2cf000000000000000000000000000000000000000000000000000000008152600401612901929190619680565b60405180910390fd5b612912611e94565b6dffffffffffffffffffffffffffff1683600201600e9054906101000a90046dffffffffffffffffffffffffffff166dffffffffffffffffffffffffffff1610156129bd578383600201600e9054906101000a90046dffffffffffffffffffffffffffff1661297f611e94565b6040517f21c1f97d0000000000000000000000000000000000000000000000000000000081526004016129b4939291906196da565b60405180910390fd5b60028360000160146101000a81548160ff021916908360048111156129e5576129e461804d565b5b0217905550428360000160156101000a81548167ffffffffffffffff021916908367ffffffffffffffff1602179055508260000160149054906101000a900460ff166004811115612a3957612a3861804d565b5b847fae774ee17b72f8c8f4c7144d988d61a4da4df057d2b0f9eb733e5a4e3912a8fb60405160405180910390a350505050565b600060036007811115612a8257612a8161804d565b5b846007811115612a9557612a9461804d565b5b1080612ac55750836007811115612aaf57612aae61804d565b5b60056007811115612ac357612ac261804d565b5b105b15612b0757836040517fb22cdb5e000000000000000000000000000000000000000000000000000000008152600401612afe91906180c4565b60405180910390fd5b60006007811115612b1b57612b1a61804d565b5b61016d60008573ffffffffffffffffffffffffffffffffffffffff1673ffffffffffffffffffffffffffffffffffffffff16815260200190815260200160002060009054906101000a900460ff166007811115612b7b57612b7a61804d565b5b141580612c2f5750609c60009054906101000a900473ffffffffffffffffffffffffffffffffffffffff1673ffffffffffffffffffffffffffffffffffffffff1663d936547e846040518263ffffffff1660e01b8152600401612bde919061845f565b60206040518083038186803b158015612bf657600080fd5b505afa158015612c0a573d6000803e3d6000fd5b505050506040513d601f19601f82011682018060405250810190612c2e9190619726565b5b15612c7157826040517fa57e640e000000000000000000000000000000000000000000000000000000008152600401612c68919061845f565b60405180910390fd5b612c9060006003811115612c8857612c8761804d565b5b6000846150ab565b90506040518060400160405280856007811115612cb057612caf61804d565b5b81526020018473ffffffffffffffffffffffffffffffffffffffff16815250610171600083815260200190815260200160002060008201518160000160006101000a81548160ff02191690836007811115612d0e57612d0d61804d565b5b021790555060208201518160000160016101000a81548173ffffffffffffffffffffffffffffffffffffffff021916908373ffffffffffffffffffffffffffffffffffffffff1602179055509050503373ffffffffffffffffffffffffffffffffffffffff16846007811115612d8757612d8661804d565b5b827f95e1e48371eceb3a97c3e46ec861cb17983ac8b2f0a792043c110aadc54fec6b86604051612db7919061845f565b60405180910390a49392505050565b6000609f60008581526020019081526020016000209050600081600001601d9054906101000a900461ffff16905060026004811115612e0857612e0761804d565b5b8260000160149054906101000a900460ff166004811115612e2c57612e2b61804d565b5b14612e8157848260000160149054906101000a900460ff166040517f59ccb928000000000000000000000000000000000000000000000000000000008152600401612e7892919061979b565b60405180910390fd5b6000609d60009054906101000a900467ffffffffffffffff168360000160159054906101000a900467ffffffffffffffff16612ebd91906195d0565b67ffffffffffffffff16905080421015612f12578542826040517f40f93bc6000000000000000000000000000000000000000000000000000000008152600401612f099392919061960e565b60405180910390fd5b609d60089054906101000a900467ffffffffffffffff1667ffffffffffffffff1681612f3e9190618f74565b42111561307b57609f6000878152602001908152602001600020600080820160006101000a81549073ffffffffffffffffffffffffffffffffffffffff02191690556000820160146101000a81549060ff02191690556000820160156101000a81549067ffffffffffffffff021916905560008201601d6101000a81549061ffff021916905560008201601f6101000a81549060ff02191690556002820160006101000a8154906dffffffffffffffffffffffffffff021916905560028201600e6101000a8154906dffffffffffffffffffffffffffff021916905560028201601c6101000a81549063ffffffff021916905550506004808111156130465761304561804d565b5b867fae774ee17b72f8c8f4c7144d988d61a4da4df057d2b0f9eb733e5a4e3912a8fb60405160405180910390a35050506131e6565b609f6000878152602001908152602001600020600080820160006101000a81549073ffffffffffffffffffffffffffffffffffffffff02191690556000820160146101000a81549060ff02191690556000820160156101000a81549067ffffffffffffffff021916905560008201601d6101000a81549061ffff021916905560008201601f6101000a81549060ff02191690556002820160006101000a8154906dffffffffffffffffffffffffffff021916905560028201600e6101000a8154906dffffffffffffffffffffffffffff021916905560028201601c6101000a81549063ffffffff02191690555050600160a0600088815260200190815260200160002060006101000a81548160ff021916908315150217905550600360048111156131a9576131a861804d565b5b867fae774ee17b72f8c8f4c7144d988d61a4da4df057d2b0f9eb733e5a4e3912a8fb60405160405180910390a36131e28683878761555b565b5050505b505050565b60006002603654101561323a5760365460026040517f19cfb74d0000000000000000000000000000000000000000000000000000000081526004016132319291906192d2565b60405180910390fd5b6001600281111561324e5761324d61804d565b5b61016e60003373ffffffffffffffffffffffffffffffffffffffff1673ffffffffffffffffffffffffffffffffffffffff16815260200190815260200160002060009054906101000a900460ff1660028111156132ae576132ad61804d565b5b1461333f573361016e60003373ffffffffffffffffffffffffffffffffffffffff1673ffffffffffffffffffffffffffffffffffffffff16815260200190815260200160002060009054906101000a900460ff166040517ffecb516e000000000000000000000000000000000000000000000000000000008152600401613336929190619198565b60405180910390fd5b60068989905010806133545750604089899050115b806133625750600287879050105b806133705750600587879050115b156133b857888888886040517ff04731cc0000000000000000000000000000000000000000000000000000000081526004016133af94939291906197f1565b60405180910390fd5b61017060009054906101000a900473ffffffffffffffffffffffffffffffffffffffff1673ffffffffffffffffffffffffffffffffffffffff1663d32a3d308b86866040518463ffffffff1660e01b81526004016134189392919061982c565b60006040518083038186803b15801561343057600080fd5b505afa158015613444573d6000803e3d6000fd5b505050506134676002600381111561345f5761345e61804d565b5b6000846150ab565b90506000610173600083815260200190815260200160002090508a8160000160006101000a81548160ff021916908360ff16021790555089898260030191906134b1929190617bee565b5087878260010191906134c5929190617bee565b50858160020181905550338160000160016101000a81548173ffffffffffffffffffffffffffffffffffffffff021916908373ffffffffffffffffffffffffffffffffffffffff1602179055508484826004019190613525929190617c74565b503373ffffffffffffffffffffffffffffffffffffffff168b60ff16837fc5c9cca3aeda2e50159dabee640badf492a6600bac4e663f5cc268db5362059e8d8d8d8d8d8d8d60405161357d979695949392919061985e565b60405180910390a4509998505050505050505050565b6000609f60008581526020019081526020016000209050600260048111156135be576135bd61804d565b5b8160000160149054906101000a900460ff1660048111156135e2576135e161804d565b5b1461363757838160000160149054906101000a900460ff166040517f59ccb92800000000000000000000000000000000000000000000000000000000815260040161362e92919061979b565b60405180910390fd5b6000600a609c60009054906101000a900473ffffffffffffffffffffffffffffffffffffffff1673ffffffffffffffffffffffffffffffffffffffff16638e539e8c84600201601c9054906101000a900463ffffffff166040518263ffffffff1660e01b81526004016136aa91906198ef565b60206040518083038186803b1580156136c257600080fd5b505afa1580156136d6573d6000803e3d6000fd5b505050506040513d601f19601f820116820180604052508101906136fa91906191d6565b613704919061950e565b905060008260020160009054906101000a9004600d0b90506000805b8686905081101561396d5760008787838181106137405761373f61990a565b5b90506020020160208101906137559190618020565b90508273ffffffffffffffffffffffffffffffffffffffff168173ffffffffffffffffffffffffffffffffffffffff16116137c757806040517fdc2ba98e0000000000000000000000000000000000000000000000000000000081526004016137be919061845f565b60405180910390fd5b80925060008660010160008373ffffffffffffffffffffffffffffffffffffffff1673ffffffffffffffffffffffffffffffffffffffff16815260200190815260200160002060009054906101000a9004600d0b9050600081600d0b136138675789826040517f890c638200000000000000000000000000000000000000000000000000000000815260040161385e929190619939565b60405180910390fd5b6000609c60009054906101000a900473ffffffffffffffffffffffffffffffffffffffff1673ffffffffffffffffffffffffffffffffffffffff166370a08231846040518263ffffffff1660e01b81526004016138c4919061845f565b60206040518083038186803b1580156138dc57600080fd5b505afa1580156138f0573d6000803e3d6000fd5b505050506040513d601f19601f8201168201806040525081019061391491906191d6565b905086600d0b81600d0b1315613928578690505b81600d0b81600d0b1261393d5750505061395a565b80826139499190619962565b866139549190619962565b95505050505b808061396590618ff3565b915050613720565b50600084600001601f9054906101000a900460ff16156139b557600385600201600e9054906101000a90046dffffffffffffffffffffffffffff166139b29190619266565b90505b80600d0b83600d0b1315613a025787836040517f302796360000000000000000000000000000000000000000000000000000000081526004016139f9929190619680565b60405180910390fd5b609f6000898152602001908152602001600020600080820160006101000a81549073ffffffffffffffffffffffffffffffffffffffff02191690556000820160146101000a81549060ff02191690556000820160156101000a81549067ffffffffffffffff021916905560008201601d6101000a81549061ffff021916905560008201601f6101000a81549060ff02191690556002820160006101000a8154906dffffffffffffffffffffffffffff021916905560028201600e6101000a8154906dffffffffffffffffffffffffffff021916905560028201601c6101000a81549063ffffffff02191690555050600480811115613b0357613b0261804d565b5b887fae774ee17b72f8c8f4c7144d988d61a4da4df057d2b0f9eb733e5a4e3912a8fb60405160405180910390a35050505050505050565b6000609f6000838152602001908152602001600020905060016004811115613b6557613b6461804d565b5b8160000160149054906101000a900460ff166004811115613b8957613b8861804d565b5b14158015613bcd575060026004811115613ba657613ba561804d565b5b8160000160149054906101000a900460ff166004811115613bca57613bc961804d565b5b14155b15613c0f57816040517f8166c027000000000000000000000000000000000000000000000000000000008152600401613c06919061824b565b60405180910390fd5b3373ffffffffffffffffffffffffffffffffffffffff168160000160009054906101000a900473ffffffffffffffffffffffffffffffffffffffff1673ffffffffffffffffffffffffffffffffffffffff1614613cc957338160000160009054906101000a900473ffffffffffffffffffffffffffffffffffffffff166040517f295a81c1000000000000000000000000000000000000000000000000000000008152600401613cc0929190618f1c565b60405180910390fd5b609f6000838152602001908152602001600020600080820160006101000a81549073ffffffffffffffffffffffffffffffffffffffff02191690556000820160146101000a81549060ff02191690556000820160156101000a81549067ffffffffffffffff021916905560008201601d6101000a81549061ffff021916905560008201601f6101000a81549060ff02191690556002820160006101000a8154906dffffffffffffffffffffffffffff021916905560028201600e6101000a8154906dffffffffffffffffffffffffffff021916905560028201601c6101000a81549063ffffffff02191690555050600480811115613dca57613dc961804d565b5b827fae774ee17b72f8c8f4c7144d988d61a4da4df057d2b0f9eb733e5a4e3912a8fb60405160405180910390a35050565b6000613e467f65482de5000000000000000000000000000000000000000000000000000000008973ffffffffffffffffffffffffffffffffffffffff1661508690919063ffffffff16565b613ea957877f65482de5000000000000000000000000000000000000000000000000000000006040517f8a05a4c6000000000000000000000000000000000000000000000000000000008152600401613ea0929190618dbc565b60405180910390fd5b60008873ffffffffffffffffffffffffffffffffffffffff166352f377896040518163ffffffff1660e01b815260040160206040518083038186803b158015613ef157600080fd5b505afa158015613f05573d6000803e3d6000fd5b505050506040513d601f19601f82011682018060405250810190613f299190618d57565b9050613f747f212d8d8c000000000000000000000000000000000000000000000000000000008773ffffffffffffffffffffffffffffffffffffffff1661508690919063ffffffff16565b613fd757857f212d8d8c000000000000000000000000000000000000000000000000000000006040517f8a05a4c6000000000000000000000000000000000000000000000000000000008152600401613fce929190618dbc565b60405180910390fd5b60008673ffffffffffffffffffffffffffffffffffffffff166375d0c0dc6040518163ffffffff1660e01b8152600401602060405180830381600087803b15801561402157600080fd5b505af1158015614035573d6000803e3d6000fd5b505050506040513d601f19601f820116820180604052508101906140599190618d57565b90508082146140a15781816040517f4ed72888000000000000000000000000000000000000000000000000000000008152600401614098929190618d84565b60405180910390fd5b6140c4610100600160038111156140bb576140ba61804d565b5b176001866150ab565b92506040518060a001604052808b73ffffffffffffffffffffffffffffffffffffffff1681526020018a73ffffffffffffffffffffffffffffffffffffffff1681526020018873ffffffffffffffffffffffffffffffffffffffff16815260200189815260200187878080601f016020809104026020016040519081016040528093929190818152602001838380828437600081840152601f19601f82011690508083019250505050505050815250610106600085815260200190815260200160002060008201518160000160006101000a81548173ffffffffffffffffffffffffffffffffffffffff021916908373ffffffffffffffffffffffffffffffffffffffff16021790555060208201518160010160006101000a81548173ffffffffffffffffffffffffffffffffffffffff021916908373ffffffffffffffffffffffffffffffffffffffff16021790555060408201518160020160006101000a81548173ffffffffffffffffffffffffffffffffffffffff021916908373ffffffffffffffffffffffffffffffffffffffff160217905550606082015181600301556080820151816004019080519060200190614282929190617b68565b509050508873ffffffffffffffffffffffffffffffffffffffff168a73ffffffffffffffffffffffffffffffffffffffff16847f7c6c720473e9e2352bc174a5845e65dd9294ec0bef4c342cc790679603fe47ac8b8b8b8b6040516142ea94939291906199e4565b60405180910390a45050979650505050505050565b60003073ffffffffffffffffffffffffffffffffffffffff168673ffffffffffffffffffffffffffffffffffffffff16141561437257856040517fd373dd42000000000000000000000000000000000000000000000000000000008152600401614369919061845f565b60405180910390fd5b61010560009054906101000a900460ff1660ff168560ff1611156143df578461010560009054906101000a900460ff166040517ff59dbed70000000000000000000000000000000000000000000000000000000081526004016143d6929190619a24565b60405180910390fd5b6144016101006003808111156143f8576143f761804d565b5b176000846150ab565b905060405180604001604052808773ffffffffffffffffffffffffffffffffffffffff1681526020018660ff16815250610108600083815260200190815260200160002060008201518160000160006101000a81548173ffffffffffffffffffffffffffffffffffffffff021916908373ffffffffffffffffffffffffffffffffffffffff16021790555060208201518160000160146101000a81548160ff021916908360ff160217905550905050807f3d396c764d54fb51df30fe13c8e351f9e3f6945949b662978f8440d5c9aa272b87876040516144e2929190619a4d565b60405180910390a260008484905014614922576145607f79efbdbc00000000000000000000000000000000000000000000000000000000609c60009054906101000a900473ffffffffffffffffffffffffffffffffffffffff1673ffffffffffffffffffffffffffffffffffffffff1661508690919063ffffffff16565b6145e557609c60009054906101000a900473ffffffffffffffffffffffffffffffffffffffff167f79efbdbc000000000000000000000000000000000000000000000000000000006040517f8a05a4c60000000000000000000000000000000000000000000000000000000081526004016145dc929190618dbc565b60405180910390fd5b60006001609c60009054906101000a900473ffffffffffffffffffffffffffffffffffffffff1673ffffffffffffffffffffffffffffffffffffffff1663c215290a896040518263ffffffff1660e01b8152600401614644919061845f565b60206040518083038186803b15801561465c57600080fd5b505afa158015614670573d6000803e3d6000fd5b505050506040513d601f19601f820116820180604052508101906146949190619aa2565b61469e91906195d0565b67ffffffffffffffff16905060005b8585905081101561479957614786836147816147147fb4c3927df079ec170b21fc4852236d72322269647bbb93a3ccf5f47d7f87fd658c8c886040516020016146f99493929190619acf565b60405160208183030381529060405280519060200120615479565b8989868181106147275761472661990a565b5b90506020028101906147399190619b23565b8080601f016020809104026020016040519081016040528093929190818152602001838380828437600081840152601f19601f82011690508083019250505050505050615493565b6161f8565b808061479190618ff3565b9150506146ad565b506147a2611e94565b6dffffffffffffffffffffffffffff166147bb83612207565b6dffffffffffffffffffffffffffff161015614841577fffffffffffffffffffffffffffffffffffffffffffffffffffffffffffffffff6147fb83612207565b614803611e94565b6040517f21c1f97d000000000000000000000000000000000000000000000000000000008152600401614838939291906196da565b60405180910390fd5b609c60009054906101000a900473ffffffffffffffffffffffffffffffffffffffff1673ffffffffffffffffffffffffffffffffffffffff1663acb889868862015180609d60009054906101000a900467ffffffffffffffff16609c60149054906101000a900467ffffffffffffffff16426148bd91906195d0565b6148c791906195d0565b6148d191906195d0565b6040518363ffffffff1660e01b81526004016148ee929190619b86565b600060405180830381600087803b15801561490857600080fd5b505af115801561491c573d6000803e3d6000fd5b50505050505b95945050505050565b6000609f6000838152602001908152602001600020600001601f9054906101000a900460ff169050919050565b60006149f86149ae7f7810dd197ac7d3d75533be9075215c92adaf5980ba9875b2d92f9d3c2c1c98c986604051602001614993929190619baf565b60405160208183030381529060405280519060200120615479565b84848080601f016020809104026020016040519081016040528093929190818152602001838380828437600081840152601f19601f82011690508083019250505050505050615493565b9050609c60009054906101000a900473ffffffffffffffffffffffffffffffffffffffff1673ffffffffffffffffffffffffffffffffffffffff16635249e862826040518263ffffffff1660e01b8152600401614a55919061845f565b60206040518083038186803b158015614a6d57600080fd5b505afa158015614a81573d6000803e3d6000fd5b505050506040513d601f19601f82011682018060405250810190614aa59190619726565b614ae657806040517f9941450d000000000000000000000000000000000000000000000000000000008152600401614add919061845f565b60405180910390fd5b60056007811115614afa57614af961804d565b5b61016d60008373ffffffffffffffffffffffffffffffffffffffff1673ffffffffffffffffffffffffffffffffffffffff16815260200190815260200160002060009054906101000a900460ff166007811115614b5a57614b5961804d565b5b14614c3e57600661017560008373ffffffffffffffffffffffffffffffffffffffff1673ffffffffffffffffffffffffffffffffffffffff168152602001908152602001600020541415614be557806040517f2d4cc333000000000000000000000000000000000000000000000000000000008152600401614bdc919061845f565b60405180910390fd5b600161017560008373ffffffffffffffffffffffffffffffffffffffff1673ffffffffffffffffffffffffffffffffffffffff1681526020019081526020016000206000828254614c369190618f74565b925050819055505b609c60009054906101000a900473ffffffffffffffffffffffffffffffffffffffff1673ffffffffffffffffffffffffffffffffffffffff16639b19251a856040518263ffffffff1660e01b8152600401614c99919061845f565b600060405180830381600087803b158015614cb357600080fd5b505af1158015614cc7573d6000803e3d6000fd5b505050508373ffffffffffffffffffffffffffffffffffffffff168173ffffffffffffffffffffffffffffffffffffffff167f0f349b542b30498ee9489ce96497606e076fe44b27a40c5cf9d3e7e6dfdb9afc60405160405180910390a350505050565b609d60089054906101000a900467ffffffffffffffff1681565b8051825114614d8f57815181516040517f57788393000000000000000000000000000000000000000000000000000000008152600401614d86929190618fca565b60405180910390fd5b609c60009054906101000a900473ffffffffffffffffffffffffffffffffffffffff1673ffffffffffffffffffffffffffffffffffffffff16635249e862336040518263ffffffff1660e01b8152600401614dea919061845f565b60206040518083038186803b158015614e0257600080fd5b505afa158015614e16573d6000803e3d6000fd5b505050506040513d601f19601f82011682018060405250810190614e3a9190619726565b614e7b57336040517f9941450d000000000000000000000000000000000000000000000000000000008152600401614e72919061845f565b60405180910390fd5b60005b8251811015615044576000614eac848381518110614e9f57614e9e61990a565b5b60200260200101516163a8565b90506000609c60009054906101000a900473ffffffffffffffffffffffffffffffffffffffff1673ffffffffffffffffffffffffffffffffffffffff16633a46b1a83384600201601c9054906101000a900463ffffffff166040518363ffffffff1660e01b8152600401614f21929190619bd8565b60206040518083038186803b158015614f3957600080fd5b505afa158015614f4d573d6000803e3d6000fd5b505050506040513d601f19601f82011682018060405250810190614f7191906191d6565b9050600081600d0b1415614f8757505050615046565b6000848481518110614f9c57614f9b61990a565b5b6020026020010151905060008082600d0b1415614fbc5760009050615006565b600082600d0b13614fd65781614fd190619c01565b614fd8565b815b905082600d0b81600d0b1315615005578082614ff49190619c4a565b83614fff9190619cb4565b91508290505b5b61502d3388878151811061501d5761501c61990a565b5b602002602001015186858561640e565b50505050808061503c90618ff3565b915050614e7e565b505b5050565b6000808273ffffffffffffffffffffffffffffffffffffffff163b119050919050565b6000600160088361ffff16901c61ffff16149050919050565b6000615091836167f8565b80156150a357506150a28383616845565b5b905092915050565b60006150b633611592565b6150f757336040517fdf17e3160000000000000000000000000000000000000000000000000000000081526004016150ee919061845f565b60405180910390fd5b609e549050609e600081548092919061510f90618ff3565b91905055506000609f60008381526020019081526020016000209050338160000160006101000a81548173ffffffffffffffffffffffffffffffffffffffff021916908373ffffffffffffffffffffffffffffffffffffffff16021790555060018160000160146101000a81548160ff021916908360048111156151965761519561804d565b5b0217905550428160000160156101000a81548167ffffffffffffffff021916908367ffffffffffffffff1602179055506001436151d39190619da7565b81600201601c6101000a81548163ffffffff021916908363ffffffff1602179055508481600001601d6101000a81548161ffff021916908361ffff1602179055508381600001601f6101000a81548160ff0219169083151502179055508060000160009054906101000a900473ffffffffffffffffffffffffffffffffffffffff1673ffffffffffffffffffffffffffffffffffffffff168561ffff16837fa66d3d6a278ed13a784f39214d0c40cba80e5fdc1fc26663f35330e33214f91387876040516152a2929190619ddb565b60405180910390a48060000160149054906101000a900460ff1660048111156152ce576152cd61804d565b5b827fae774ee17b72f8c8f4c7144d988d61a4da4df057d2b0f9eb733e5a4e3912a8fb60405160405180910390a361530582336161f8565b509392505050565b6000600160048111156153235761532261804d565b5b8260000160149054906101000a900460ff1660048111156153475761534661804d565b5b1480156153965750609c60149054906101000a900467ffffffffffffffff168260000160159054906101000a900467ffffffffffffffff1661538991906195d0565b67ffffffffffffffff1642105b9050919050565b6000819050919050565b6153d9816003836040516020016153be9190619ea3565b604051602081830303815290604052805190602001206153dc565b50565b609c60009054906101000a900473ffffffffffffffffffffffffffffffffffffffff1673ffffffffffffffffffffffffffffffffffffffff16639b19251a846040518263ffffffff1660e01b8152600401615437919061845f565b600060405180830381600087803b15801561545157600080fd5b505af1158015615465573d6000803e3d6000fd5b505050506154748383836154ba565b505050565b600061548c615486616904565b83616944565b9050919050565b60008060006154a28585616977565b915091506154af816169c9565b819250505092915050565b6154c48383616b37565b609c60009054906101000a900473ffffffffffffffffffffffffffffffffffffffff1673ffffffffffffffffffffffffffffffffffffffff16634514cdda848360006040518463ffffffff1660e01b815260040161552493929190619efa565b600060405180830381600087803b15801561553e57600080fd5b505af1158015615552573d6000803e3d6000fd5b50505050505050565b6155648361506d565b156161e3576000610100841861ffff1660038111156155865761558561804d565b5b90506000600381111561559c5761559b61804d565b5b8160038111156155af576155ae61804d565b5b14156155ba576161dd565b600160038111156155ce576155cd61804d565b5b8160038111156155e1576155e061804d565b5b141561578d576000610106600087815260200190815260200160002090508060000160009054906101000a900473ffffffffffffffffffffffffffffffffffffffff1673ffffffffffffffffffffffffffffffffffffffff16636d8c7ce58260010160009054906101000a900473ffffffffffffffffffffffffffffffffffffffff1683600301548460020160009054906101000a900473ffffffffffffffffffffffffffffffffffffffff16856004016040518563ffffffff1660e01b81526004016156b1949392919061a027565b600060405180830381600087803b1580156156cb57600080fd5b505af11580156156df573d6000803e3d6000fd5b505050506101066000878152602001908152602001600020600080820160006101000a81549073ffffffffffffffffffffffffffffffffffffffff02191690556001820160006101000a81549073ffffffffffffffffffffffffffffffffffffffff02191690556002820160006101000a81549073ffffffffffffffffffffffffffffffffffffffff021916905560038201600090556004820160006157859190617cfa565b5050506161dc565b600260038111156157a1576157a061804d565b5b8160038111156157b4576157b361804d565b5b1415616010576000610107600087815260200190815260200160002090506000816003015414156158f157600084848101906157f09190617faf565b90508160000160009054906101000a900473ffffffffffffffffffffffffffffffffffffffff1673ffffffffffffffffffffffffffffffffffffffff1663b6ed06328360020154836040518363ffffffff1660e01b8152600401615855929190618fca565b602060405180830381600087803b15801561586f57600080fd5b505af1158015615883573d6000803e3d6000fd5b505050506040513d601f19601f820116820180604052508101906158a79190619726565b6158eb573060006040517f596488410000000000000000000000000000000000000000000000000000000081526004016158e2929190618f1c565b60405180910390fd5b50615f81565b6000609c60009054906101000a900473ffffffffffffffffffffffffffffffffffffffff1673ffffffffffffffffffffffffffffffffffffffff16637d9f6db56040518163ffffffff1660e01b815260040160206040518083038186803b15801561595b57600080fd5b505afa15801561596f573d6000803e3d6000fd5b505050506040513d601f19601f82011682018060405250810190615993919061a088565b73ffffffffffffffffffffffffffffffffffffffff168260010160009054906101000a900473ffffffffffffffffffffffffffffffffffffffff1673ffffffffffffffffffffffffffffffffffffffff1614905080615b4a578160010160149054906101000a900460ff1615615abf57609c60009054906101000a900473ffffffffffffffffffffffffffffffffffffffff1673ffffffffffffffffffffffffffffffffffffffff166340c10f198360010160009054906101000a900473ffffffffffffffffffffffffffffffffffffffff1684600301546040518363ffffffff1660e01b8152600401615a8892919061a0b5565b600060405180830381600087803b158015615aa257600080fd5b505af1158015615ab6573d6000803e3d6000fd5b50505050615b45565b600082600201541415615b4457615b438260010160009054906101000a900473ffffffffffffffffffffffffffffffffffffffff1683600301548460000160009054906101000a900473ffffffffffffffffffffffffffffffffffffffff1673ffffffffffffffffffffffffffffffffffffffff16616bf99092919063ffffffff16565b5b5b615bf6565b8160010160149054906101000a900460ff1615615bf557609c60009054906101000a900473ffffffffffffffffffffffffffffffffffffffff1673ffffffffffffffffffffffffffffffffffffffff166340c10f193084600301546040518363ffffffff1660e01b8152600401615bc292919061a0b5565b600060405180830381600087803b158015615bdc57600080fd5b505af1158015615bf0573d6000803e3d6000fd5b505050505b5b6000826002015414615d79578160000160009054906101000a900473ffffffffffffffffffffffffffffffffffffffff1673ffffffffffffffffffffffffffffffffffffffff1663d79875eb83600201548460000160009054906101000a900473ffffffffffffffffffffffffffffffffffffffff1673ffffffffffffffffffffffffffffffffffffffff1663313ce5676040518163ffffffff1660e01b815260040160206040518083038186803b158015615cb157600080fd5b505afa158015615cc5573d6000803e3d6000fd5b505050506040513d601f19601f82011682018060405250810190615ce99190619363565b600a615cf591906194c3565b8560030154615d04919061950e565b6040518363ffffffff1660e01b8152600401615d21929190618fca565b602060405180830381600087803b158015615d3b57600080fd5b505af1158015615d4f573d6000803e3d6000fd5b505050506040513d601f19601f82011682018060405250810190615d7391906191d6565b50615f7f565b8015615f7e57615df68260010160009054906101000a900473ffffffffffffffffffffffffffffffffffffffff1683600301548460000160009054906101000a900473ffffffffffffffffffffffffffffffffffffffff1673ffffffffffffffffffffffffffffffffffffffff16616c7f9092919063ffffffff16565b8160010160009054906101000a900473ffffffffffffffffffffffffffffffffffffffff1673ffffffffffffffffffffffffffffffffffffffff1663bdd98dd1308460000160009054906101000a900473ffffffffffffffffffffffffffffffffffffffff16609c60009054906101000a900473ffffffffffffffffffffffffffffffffffffffff1673ffffffffffffffffffffffffffffffffffffffff1663d83678ac6040518163ffffffff1660e01b815260040160206040518083038186803b158015615ec457600080fd5b505afa158015615ed8573d6000803e3d6000fd5b505050506040513d601f19601f82011682018060405250810190615efc919061a088565b866003015460014262093a806040518863ffffffff1660e01b8152600401615f2a979695949392919061a154565b602060405180830381600087803b158015615f4457600080fd5b505af1158015615f58573d6000803e3d6000fd5b505050506040513d601f19601f82011682018060405250810190615f7c91906191d6565b505b5b505b6101076000878152602001908152602001600020600080820160006101000a81549073ffffffffffffffffffffffffffffffffffffffff02191690556001820160006101000a81549073ffffffffffffffffffffffffffffffffffffffff02191690556001820160146101000a81549060ff0219169055600282016000905560038201600090555050506161db565b6003808111156160235761602261804d565b5b8160038111156160365761603561804d565b5b141561619d57600061010860008781526020019081526020016000209050609c60009054906101000a900473ffffffffffffffffffffffffffffffffffffffff1673ffffffffffffffffffffffffffffffffffffffff1663cbc7d0b88260000160009054906101000a900473ffffffffffffffffffffffffffffffffffffffff168360000160149054906101000a900460ff166040518363ffffffff1660e01b81526004016160e6929190619a4d565b600060405180830381600087803b15801561610057600080fd5b505af1158015616114573d6000803e3d6000fd5b505050506161458160000160009054906101000a900473ffffffffffffffffffffffffffffffffffffffff16616da0565b6101086000878152602001908152602001600020600080820160006101000a81549073ffffffffffffffffffffffffffffffffffffffff02191690556000820160146101000a81549060ff02191690555050506161da565b836040517f83fb3b930000000000000000000000000000000000000000000000000000000081526004016161d1919061a235565b60405180910390fd5b5b5b5b506161f2565b6161f1848461ffff16616e91565b5b50505050565b6000609f600084815260200190815260200160002090506000609c60009054906101000a900473ffffffffffffffffffffffffffffffffffffffff1673ffffffffffffffffffffffffffffffffffffffff16633a46b1a88484600201601c9054906101000a900463ffffffff166040518363ffffffff1660e01b8152600401616282929190619bd8565b60206040518083038186803b15801561629a57600080fd5b505afa1580156162ae573d6000803e3d6000fd5b505050506040513d601f19601f820116820180604052508101906162d291906191d6565b9050600081600d0b1415801561638f5750609c60009054906101000a900473ffffffffffffffffffffffffffffffffffffffff1673ffffffffffffffffffffffffffffffffffffffff16635249e862846040518263ffffffff1660e01b815260040161633e919061845f565b60206040518083038186803b15801561635657600080fd5b505afa15801561636a573d6000803e3d6000fd5b505050506040513d601f19601f8201168201806040525081019061638e9190619726565b5b156163a2576163a1838584848561640e565b5b50505050565b6000609f600083815260200190815260200160002090506163c88161530d565b61640957816040517f8166c027000000000000000000000000000000000000000000000000000000008152600401616400919061824b565b60405180910390fd5b919050565b6000600a609c60009054906101000a900473ffffffffffffffffffffffffffffffffffffffff1673ffffffffffffffffffffffffffffffffffffffff16638e539e8c86600201601c9054906101000a900463ffffffff166040518263ffffffff1660e01b815260040161648191906198ef565b60206040518083038186803b15801561649957600080fd5b505afa1580156164ad573d6000803e3d6000fd5b505050506040513d601f19601f820116820180604052508101906164d191906191d6565b6164db919061950e565b905080600d0b82600d0b13156165085781836164f79190619c4a565b816165029190619cb4565b92508091505b60008460010160008873ffffffffffffffffffffffffffffffffffffffff1673ffffffffffffffffffffffffffffffffffffffff16815260200190815260200160002060009054906101000a9004600d0b9050600081600d0b1461663457808560020160008282829054906101000a9004600d0b6165869190619962565b92506101000a8154816dffffffffffffffffffffffffffff0219169083600d0b6dffffffffffffffffffffffffffff160217905550600081600d0b12156165d457806165d190619c01565b90505b8085600201600e8282829054906101000a90046dffffffffffffffffffffffffffff16616601919061a263565b92506101000a8154816dffffffffffffffffffffffffffff02191690836dffffffffffffffffffffffffffff1602179055505b8285600201600e8282829054906101000a90046dffffffffffffffffffffffffffff16616661919061a297565b92506101000a8154816dffffffffffffffffffffffffffff02191690836dffffffffffffffffffffffffffff160217905550838560010160008973ffffffffffffffffffffffffffffffffffffffff1673ffffffffffffffffffffffffffffffffffffffff16815260200190815260200160002060006101000a8154816dffffffffffffffffffffffffffff0219169083600d0b6dffffffffffffffffffffffffffff16021790555060008085600d0b1461678757848660020160008282829054906101000a9004600d0b616736919061a2db565b92506101000a8154816dffffffffffffffffffffffffffff0219169083600d0b6dffffffffffffffffffffffffffff160217905550600085600d0b1361677d576002616780565b60015b905061678c565b600090505b8773ffffffffffffffffffffffffffffffffffffffff168160028111156167b6576167b561804d565b5b887fa6bae9b19900c330e860468fa0efa50bf517f267cf2451aa7f743bb317a50ceb876040516167e69190618005565b60405180910390a45050505050505050565b6000616824827f01ffc9a700000000000000000000000000000000000000000000000000000000616845565b801561683e575061683c8263ffffffff60e01b616845565b155b9050919050565b6000806301ffc9a760e01b83604051602401616861919061a35d565b604051602081830303815290604052907bffffffffffffffffffffffffffffffffffffffffffffffffffffffff19166020820180517bffffffffffffffffffffffffffffffffffffffffffffffffffffffff838183161783525050505090506000806000602060008551602087018a617530fa92503d915060005190508280156168ec575060208210155b80156168f85750600081115b94505050505092915050565b600061693f7f8b73c3c69bb8fe3d512ecc4cf759cc79239f7b179b0ffacaa9a75d522b39400f6169326177c5565b61693a6177cf565b6177d9565b905090565b6000828260405160200161695992919061a3e5565b60405160208183030381529060405280519060200120905092915050565b6000806041835114156169b95760008060006020860151925060408601519150606086015160001a90506169ad87828585617813565b945094505050506169c2565b60006002915091505b9250929050565b600060048111156169dd576169dc61804d565b5b8160048111156169f0576169ef61804d565b5b14156169fb57616b34565b60016004811115616a0f57616a0e61804d565b5b816004811115616a2257616a2161804d565b5b1415616a63576040517f08c379a0000000000000000000000000000000000000000000000000000000008152600401616a5a9061a468565b60405180910390fd5b60026004811115616a7757616a7661804d565b5b816004811115616a8a57616a8961804d565b5b1415616acb576040517f08c379a0000000000000000000000000000000000000000000000000000000008152600401616ac29061a4d4565b60405180910390fd5b60036004811115616adf57616ade61804d565b5b816004811115616af257616af161804d565b5b1415616b33576040517f08c379a0000000000000000000000000000000000000000000000000000000008152600401616b2a9061a566565b60405180910390fd5b5b50565b8061016d60008473ffffffffffffffffffffffffffffffffffffffff1673ffffffffffffffffffffffffffffffffffffffff16815260200190815260200160002060006101000a81548160ff02191690836007811115616b9a57616b9961804d565b5b02179055508173ffffffffffffffffffffffffffffffffffffffff16816007811115616bc957616bc861804d565b5b7fb427957068710160dca4325b010be41a84621daac3c801ef5523759ce4f4336060405160405180910390a35050565b616c7a8363a9059cbb60e01b8484604051602401616c1892919061a0b5565b604051602081830303815290604052907bffffffffffffffffffffffffffffffffffffffffffffffffffffffff19166020820180517bffffffffffffffffffffffffffffffffffffffffffffffffffffffff83818316178352505050506178f6565b505050565b6000818473ffffffffffffffffffffffffffffffffffffffff1663dd62ed3e30866040518363ffffffff1660e01b8152600401616cbd929190618f1c565b60206040518083038186803b158015616cd557600080fd5b505afa158015616ce9573d6000803e3d6000fd5b505050506040513d601f19601f82011682018060405250810190616d0d91906191d6565b616d179190618f74565b9050616d9a8463095ea7b360e01b8584604051602401616d3892919061a0b5565b604051602081830303815290604052907bffffffffffffffffffffffffffffffffffffffffffffffffffffffff19166020820180517bffffffffffffffffffffffffffffffffffffffffffffffffffffffff83818316178352505050506178f6565b50505050565b60006002811115616db457616db361804d565b5b61016e60008373ffffffffffffffffffffffffffffffffffffffff1673ffffffffffffffffffffffffffffffffffffffff16815260200190815260200160002060009054906101000a900460ff166002811115616e1457616e1361804d565b5b14616e8357600261016e60008373ffffffffffffffffffffffffffffffffffffffff1673ffffffffffffffffffffffffffffffffffffffff16815260200190815260200160002060006101000a81548160ff02191690836002811115616e7d57616e7c61804d565b5b02179055505b616e8e816001616b37565b50565b6000816003811115616ea657616ea561804d565b5b905060006003811115616ebc57616ebb61804d565b5b816003811115616ecf57616ece61804d565b5b141561715d5760006101716000858152602001908152602001600020905060006007811115616f0157616f0061804d565b5b61016d60008360000160019054906101000a900473ffffffffffffffffffffffffffffffffffffffff1673ffffffffffffffffffffffffffffffffffffffff1673ffffffffffffffffffffffffffffffffffffffff16815260200190815260200160002060009054906101000a900460ff166007811115616f8557616f8461804d565b5b14616fe3576101716000858152602001908152602001600020600080820160006101000a81549060ff02191690556000820160016101000a81549073ffffffffffffffffffffffffffffffffffffffff0219169055505050506177c1565b60036007811115616ff757616ff661804d565b5b8160000160009054906101000a900460ff16600781111561701b5761701a61804d565b5b14156170a55761704e8160000160019054906101000a900473ffffffffffffffffffffffffffffffffffffffff166153a7565b6101716000858152602001908152602001600020600080820160006101000a81549060ff02191690556000820160016101000a81549073ffffffffffffffffffffffffffffffffffffffff02191690555050617157565b609c60009054906101000a900473ffffffffffffffffffffffffffffffffffffffff1673ffffffffffffffffffffffffffffffffffffffff16639b19251a8260000160019054906101000a900473ffffffffffffffffffffffffffffffffffffffff166040518263ffffffff1660e01b8152600401617124919061845f565b600060405180830381600087803b15801561713e57600080fd5b505af1158015617152573d6000803e3d6000fd5b505050505b506177bf565b600160038111156171715761717061804d565b5b8160038111156171845761718361804d565b5b14156173dc57600260365410156171d75760365460026040517f19cfb74d0000000000000000000000000000000000000000000000000000000081526004016171ce9291906192d2565b60405180910390fd5b6000610172600085815260200190815260200160002090508060000160149054906101000a900460ff16156172c35761016f60009054906101000a900473ffffffffffffffffffffffffffffffffffffffff1673ffffffffffffffffffffffffffffffffffffffff166302fb4d858260000160009054906101000a900473ffffffffffffffffffffffffffffffffffffffff1683600101546040518363ffffffff1660e01b815260040161728c92919061a0b5565b600060405180830381600087803b1580156172a657600080fd5b505af11580156172ba573d6000803e3d6000fd5b5050505061737c565b61016f60009054906101000a900473ffffffffffffffffffffffffffffffffffffffff1673ffffffffffffffffffffffffffffffffffffffff1663a5d059ca8260000160009054906101000a900473ffffffffffffffffffffffffffffffffffffffff1683600101546040518363ffffffff1660e01b815260040161734992919061a0b5565b600060405180830381600087803b15801561736357600080fd5b505af1158015617377573d6000803e3d6000fd5b505050505b6101726000858152602001908152602001600020600080820160006101000a81549073ffffffffffffffffffffffffffffffffffffffff02191690556000820160146101000a81549060ff021916905560018201600090555050506177be565b600260038111156173f0576173ef61804d565b5b8160038111156174035761740261804d565b5b141561758b5760006101736000858152602001908152602001600020905061017060009054906101000a900473ffffffffffffffffffffffffffffffffffffffff1673ffffffffffffffffffffffffffffffffffffffff166376b81ee98260000160009054906101000a900460ff16836003018460010185600201548660000160019054906101000a900473ffffffffffffffffffffffffffffffffffffffff16876004016040518763ffffffff1660e01b81526004016174c99695949392919061a61b565b600060405180830381600087803b1580156174e357600080fd5b505af11580156174f7573d6000803e3d6000fd5b505050506101736000858152602001908152602001600020600080820160006101000a81549060ff02191690556000820160016101000a81549073ffffffffffffffffffffffffffffffffffffffff021916905560018201600061755b9190617d3a565b60028201600090556003820160006175739190617d3a565b6004820160006175839190617cfa565b5050506177bd565b60038081111561759e5761759d61804d565b5b8160038111156175b1576175b061804d565b5b141561777f576000610174600085815260200190815260200160002090506000808260000160009054906101000a900473ffffffffffffffffffffffffffffffffffffffff1673ffffffffffffffffffffffffffffffffffffffff168360000160149054906101000a900460e01b8460010160405160200161763492919061a73c565b604051602081830303815290604052604051617650919061a7d3565b6000604051808303816000865af19150503d806000811461768d576040519150601f19603f3d011682016040523d82523d6000602084013e617692565b606091505b509150915081617712578260000160009054906101000a900473ffffffffffffffffffffffffffffffffffffffff168360000160149054906101000a900460e01b826040517feaa424cc0000000000000000000000000000000000000000000000000000000081526004016177099392919061a823565b60405180910390fd5b6101746000878152602001908152602001600020600080820160006101000a81549073ffffffffffffffffffffffffffffffffffffffff02191690556000820160146101000a81549063ffffffff02191690556001820160006177759190617cfa565b50505050506177bc565b816040517f83fb3b930000000000000000000000000000000000000000000000000000000081526004016177b3919061a8d3565b60405180910390fd5b5b5b5b505b5050565b6000600154905090565b6000600254905090565b600083838346306040516020016177f495949392919061a901565b6040516020818303038152906040528051906020012090509392505050565b6000807f7fffffffffffffffffffffffffffffff5d576e7357a4501ddfe92f46681b20a08360001c111561784e5760006003915091506178ed565b600060018787878760405160008152602001604052604051617873949392919061a954565b6020604051602081039080840390855afa158015617895573d6000803e3d6000fd5b505050602060405103519050600073ffffffffffffffffffffffffffffffffffffffff168173ffffffffffffffffffffffffffffffffffffffff1614156178e4576000600192509250506178ed565b80600092509250505b94509492505050565b6000617958826040518060400160405280602081526020017f5361666545524332303a206c6f772d6c6576656c2063616c6c206661696c65648152508573ffffffffffffffffffffffffffffffffffffffff166179bd9092919063ffffffff16565b90506000815111156179b857808060200190518101906179789190619726565b6179b7576040517f08c379a00000000000000000000000000000000000000000000000000000000081526004016179ae9061aa0b565b60405180910390fd5b5b505050565b60606179cc84846000856179d5565b90509392505050565b606082471015617a1a576040517f08c379a0000000000000000000000000000000000000000000000000000000008152600401617a119061aa9d565b60405180910390fd5b6000808673ffffffffffffffffffffffffffffffffffffffff168587604051617a43919061a7d3565b60006040518083038185875af1925050503d8060008114617a80576040519150601f19603f3d011682016040523d82523d6000602084013e617a85565b606091505b5091509150617a9687838387617aa2565b92505050949350505050565b60608315617b0557600083511415617afd57617abd8561504a565b617afc576040517f08c379a0000000000000000000000000000000000000000000000000000000008152600401617af39061ab09565b60405180910390fd5b5b829050617b10565b617b0f8383617b18565b5b949350505050565b600082511115617b2b5781518083602001fd5b806040517f08c379a0000000000000000000000000000000000000000000000000000000008152600401617b5f919061ab6d565b60405180910390fd5b828054617b7490619f60565b90600052602060002090601f016020900481019282617b965760008555617bdd565b82601f10617baf57805160ff1916838001178555617bdd565b82800160010185558215617bdd579182015b82811115617bdc578251825591602001919060010190617bc1565b5b509050617bea9190617d7a565b5090565b828054617bfa90619f60565b90600052602060002090601f016020900481019282617c1c5760008555617c63565b82601f10617c3557803560ff1916838001178555617c63565b82800160010185558215617c63579182015b82811115617c62578235825591602001919060010190617c47565b5b509050617c709190617d7a565b5090565b828054617c8090619f60565b90600052602060002090601f016020900481019282617ca25760008555617ce9565b82601f10617cbb57803560ff1916838001178555617ce9565b82800160010185558215617ce9579182015b82811115617ce8578235825591602001919060010190617ccd565b5b509050617cf69190617d7a565b5090565b508054617d0690619f60565b6000825580601f10617d185750617d37565b601f016020900490600052602060002090810190617d369190617d7a565b5b50565b508054617d4690619f60565b6000825580601f10617d585750617d77565b601f016020900490600052602060002090810190617d769190617d7a565b5b50565b5b80821115617d93576000816000905550600101617d7b565b5090565b6000604051905090565b600080fd5b600080fd5b6000819050919050565b617dbe81617dab565b8114617dc957600080fd5b50565b600081359050617ddb81617db5565b92915050565b600073ffffffffffffffffffffffffffffffffffffffff82169050919050565b6000617e0c82617de1565b9050919050565b617e1c81617e01565b8114617e2757600080fd5b50565b600081359050617e3981617e13565b92915050565b60008060408385031215617e5657617e55617da1565b5b6000617e6485828601617dcc565b9250506020617e7585828601617e2a565b9150509250929050565b600081600d0b9050919050565b617e9581617e7f565b82525050565b6000602082019050617eb06000830184617e8c565b92915050565b60007fffffffff0000000000000000000000000000000000000000000000000000000082169050919050565b617eeb81617eb6565b8114617ef657600080fd5b50565b600081359050617f0881617ee2565b92915050565b600060208284031215617f2457617f23617da1565b5b6000617f3284828501617ef9565b91505092915050565b60008115159050919050565b617f5081617f3b565b82525050565b6000602082019050617f6b6000830184617f47565b92915050565b600067ffffffffffffffff82169050919050565b617f8e81617f71565b82525050565b6000602082019050617fa96000830184617f85565b92915050565b600060208284031215617fc557617fc4617da1565b5b6000617fd384828501617dcc565b91505092915050565b60006dffffffffffffffffffffffffffff82169050919050565b617fff81617fdc565b82525050565b600060208201905061801a6000830184617ff6565b92915050565b60006020828403121561803657618035617da1565b5b600061804484828501617e2a565b91505092915050565b7f4e487b7100000000000000000000000000000000000000000000000000000000600052602160045260246000fd5b6008811061808d5761808c61804d565b5b50565b600081905061809e8261807c565b919050565b60006180ae82618090565b9050919050565b6180be816180a3565b82525050565b60006020820190506180d960008301846180b5565b92915050565b600061ffff82169050919050565b6180f6816180df565b811461810157600080fd5b50565b600081359050618113816180ed565b92915050565b600080fd5b600080fd5b600080fd5b60008083601f84011261813e5761813d618119565b5b8235905067ffffffffffffffff81111561815b5761815a61811e565b5b60208301915083600182028301111561817757618176618123565b5b9250929050565b6000819050919050565b6181918161817e565b811461819c57600080fd5b50565b6000813590506181ae81618188565b92915050565b6000806000806000608086880312156181d0576181cf617da1565b5b60006181de88828901617e2a565b95505060206181ef88828901618104565b945050604086013567ffffffffffffffff8111156182105761820f617da6565b5b61821c88828901618128565b9350935050606061822f8882890161819f565b9150509295509295909350565b61824581617dab565b82525050565b6000602082019050618260600083018461823c565b92915050565b600063ffffffff82169050919050565b61827f81618266565b82525050565b600060208201905061829a6000830184618276565b92915050565b6000806000604084860312156182b9576182b8617da1565b5b60006182c786828701617dcc565b935050602084013567ffffffffffffffff8111156182e8576182e7617da6565b5b6182f486828701618128565b92509250509250925092565b6008811061830d57600080fd5b50565b60008135905061831f81618300565b92915050565b60008060008060006080868803121561834157618340617da1565b5b600061834f88828901618310565b955050602061836088828901617e2a565b94505060406183718882890161819f565b935050606086013567ffffffffffffffff81111561839257618391617da6565b5b61839e88828901618128565b92509250509295509295909350565b6183b681617f3b565b81146183c157600080fd5b50565b6000813590506183d3816183ad565b92915050565b600080604083850312156183f0576183ef617da1565b5b60006183fe858286016183c4565b925050602061840f8582860161819f565b9150509250929050565b600060ff82169050919050565b61842f81618419565b82525050565b600060208201905061844a6000830184618426565b92915050565b61845981617e01565b82525050565b60006020820190506184746000830184618450565b92915050565b6000806000806080858703121561849457618493617da1565b5b60006184a287828801617e2a565b94505060206184b3878288016183c4565b93505060406184c487828801617dcc565b92505060606184d58782880161819f565b91505092959194509250565b600381106184f2576184f161804d565b5b50565b6000819050618503826184e1565b919050565b6000618513826184f5565b9050919050565b61852381618508565b82525050565b600060208201905061853e600083018461851a565b92915050565b61854d8161817e565b82525050565b60006020820190506185686000830184618544565b92915050565b618577816180df565b82525050565b6000602082019050618592600083018461856e565b92915050565b60008060008060008060c087890312156185b5576185b4617da1565b5b60006185c389828a01617e2a565b96505060206185d489828a01617e2a565b95505060406185e589828a016183c4565b94505060606185f689828a01617dcc565b935050608061860789828a01617dcc565b92505060a061861889828a0161819f565b9150509295509295509295565b60008060006060848603121561863e5761863d617da1565b5b600061864c86828701618310565b935050602061865d86828701617e2a565b925050604061866e8682870161819f565b9150509250925092565b61868181618419565b811461868c57600080fd5b50565b60008135905061869e81618678565b92915050565b60008083601f8401126186ba576186b9618119565b5b8235905067ffffffffffffffff8111156186d7576186d661811e565b5b6020830191508360018202830111156186f3576186f2618123565b5b9250929050565b600080600080600080600080600060c08a8c03121561871c5761871b617da1565b5b600061872a8c828d0161868f565b99505060208a013567ffffffffffffffff81111561874b5761874a617da6565b5b6187578c828d016186a4565b985098505060408a013567ffffffffffffffff81111561877a57618779617da6565b5b6187868c828d016186a4565b965096505060606187998c828d0161819f565b94505060808a013567ffffffffffffffff8111156187ba576187b9617da6565b5b6187c68c828d01618128565b935093505060a06187d98c828d0161819f565b9150509295985092959850929598565b60008083601f8401126187ff576187fe618119565b5b8235905067ffffffffffffffff81111561881c5761881b61811e565b5b60208301915083602082028301111561883857618837618123565b5b9250929050565b60008060006040848603121561885857618857617da1565b5b600061886686828701617dcc565b935050602084013567ffffffffffffffff81111561888757618886617da6565b5b618893868287016187e9565b92509250509250925092565b600080600080600080600060c0888a0312156188be576188bd617da1565b5b60006188cc8a828b01617e2a565b97505060206188dd8a828b01617e2a565b96505060406188ee8a828b01617dcc565b95505060606188ff8a828b01617e2a565b945050608088013567ffffffffffffffff8111156189205761891f617da6565b5b61892c8a828b01618128565b935093505060a061893f8a828b0161819f565b91505092959891949750929550565b60008083601f84011261896457618963618119565b5b8235905067ffffffffffffffff8111156189815761898061811e565b5b60208301915083602082028301111561899d5761899c618123565b5b9250929050565b6000806000806000608086880312156189c0576189bf617da1565b5b60006189ce88828901617e2a565b95505060206189df8882890161868f565b945050604086013567ffffffffffffffff811115618a00576189ff617da6565b5b618a0c8882890161894e565b93509350506060618a1f8882890161819f565b9150509295509295909350565b600080600060408486031215618a4557618a44617da1565b5b6000618a5386828701617e2a565b935050602084013567ffffffffffffffff811115618a7457618a73617da6565b5b618a8086828701618128565b92509250509250925092565b6000601f19601f8301169050919050565b7f4e487b7100000000000000000000000000000000000000000000000000000000600052604160045260246000fd5b618ad582618a8c565b810181811067ffffffffffffffff82111715618af457618af3618a9d565b5b80604052505050565b6000618b07617d97565b9050618b138282618acc565b919050565b600067ffffffffffffffff821115618b3357618b32618a9d565b5b602082029050602081019050919050565b6000618b57618b5284618b18565b618afd565b90508083825260208201905060208402830185811115618b7a57618b79618123565b5b835b81811015618ba35780618b8f8882617dcc565b845260208401935050602081019050618b7c565b5050509392505050565b600082601f830112618bc257618bc1618119565b5b8135618bd2848260208601618b44565b91505092915050565b600067ffffffffffffffff821115618bf657618bf5618a9d565b5b602082029050602081019050919050565b618c1081617e7f565b8114618c1b57600080fd5b50565b600081359050618c2d81618c07565b92915050565b6000618c46618c4184618bdb565b618afd565b90508083825260208201905060208402830185811115618c6957618c68618123565b5b835b81811015618c925780618c7e8882618c1e565b845260208401935050602081019050618c6b565b5050509392505050565b600082601f830112618cb157618cb0618119565b5b8135618cc1848260208601618c33565b91505092915050565b60008060408385031215618ce157618ce0617da1565b5b600083013567ffffffffffffffff811115618cff57618cfe617da6565b5b618d0b85828601618bad565b925050602083013567ffffffffffffffff811115618d2c57618d2b617da6565b5b618d3885828601618c9c565b9150509250929050565b600081519050618d5181618188565b92915050565b600060208284031215618d6d57618d6c617da1565b5b6000618d7b84828501618d42565b91505092915050565b6000604082019050618d996000830185618544565b618da66020830184618544565b9392505050565b618db681617eb6565b82525050565b6000604082019050618dd16000830185618450565b618dde6020830184618dad565b9392505050565b600082825260208201905092915050565b7f467261627269632070726f706f736554687265616450726f706f73616c000000600082015250565b6000618e2c601d83618de5565b9150618e3782618df6565b602082019050919050565b6000819050919050565b6000618e67618e62618e5d846180df565b618e42565b617dab565b9050919050565b618e7781618e4c565b82525050565b60006040820190508181036000830152618e9681618e1f565b9050618ea56020830184618e6e565b92915050565b600082825260208201905092915050565b82818337600083830152505050565b6000618ed78385618eab565b9350618ee4838584618ebc565b618eed83618a8c565b840190509392505050565b60006020820190508181036000830152618f13818486618ecb565b90509392505050565b6000604082019050618f316000830185618450565b618f3e6020830184618450565b9392505050565b7f4e487b7100000000000000000000000000000000000000000000000000000000600052601160045260246000fd5b6000618f7f82617dab565b9150618f8a83617dab565b9250827fffffffffffffffffffffffffffffffffffffffffffffffffffffffffffffffff03821115618fbf57618fbe618f45565b5b828201905092915050565b6000604082019050618fdf600083018561823c565b618fec602083018461823c565b9392505050565b6000618ffe82617dab565b91507fffffffffffffffffffffffffffffffffffffffffffffffffffffffffffffffff82141561903157619030618f45565b5b600182019050919050565b600061904782617de1565b9050919050565b6190578161903c565b811461906257600080fd5b50565b6000813590506190748161904e565b92915050565b6000806000806080858703121561909457619093617da1565b5b60006190a287828801619065565b94505060206190b387828801619065565b93505060406190c487828801619065565b92505060606190d587828801619065565b91505092959194509250565b6000819050919050565b60006191066191016190fc846190e1565b618e42565b618419565b9050919050565b619116816190eb565b82525050565b600060a0820190506191316000830188618544565b61913e60208301876180b5565b61914b6040830186618450565b6191586060830185618544565b619165608083018461910d565b9695505050505050565b60006040820190506191846000830185618450565b61919160208301846180b5565b9392505050565b60006040820190506191ad6000830185618450565b6191ba602083018461851a565b9392505050565b6000815190506191d081617db5565b92915050565b6000602082840312156191ec576191eb617da1565b5b60006191fa848285016191c1565b91505092915050565b600061920e82617dab565b915061921983617dab565b92508282101561922c5761922b618f45565b5b828203905092915050565b7f4e487b7100000000000000000000000000000000000000000000000000000000600052601260045260246000fd5b600061927182617fdc565b915061927c83617fdc565b92508261928c5761928b619237565b5b828204905092915050565b6000819050919050565b60006192bc6192b76192b284619297565b618e42565b617dab565b9050919050565b6192cc816192a1565b82525050565b60006040820190506192e7600083018561823c565b6192f460208301846192c3565b9392505050565b60008060006060848603121561931457619313617da1565b5b600061932286828701619065565b935050602061933386828701619065565b925050604061934486828701619065565b9150509250925092565b60008151905061935d81618678565b92915050565b60006020828403121561937957619378617da1565b5b60006193878482850161934e565b91505092915050565b60008160011c9050919050565b6000808291508390505b60018511156193e7578086048111156193c3576193c2618f45565b5b60018516156193d25780820291505b80810290506193e085619390565b94506193a7565b94509492505050565b60008261940057600190506194bc565b8161940e57600090506194bc565b8160018114619424576002811461942e5761945d565b60019150506194bc565b60ff8411156194405761943f618f45565b5b8360020a91508482111561945757619456618f45565b5b506194bc565b5060208310610133831016604e8410600b84101617156194925782820a90508381111561948d5761948c618f45565b5b6194bc565b61949f848484600161939d565b925090508184048111156194b6576194b5618f45565b5b81810290505b9392505050565b60006194ce82617dab565b91506194d983618419565b92506195067fffffffffffffffffffffffffffffffffffffffffffffffffffffffffffffffff84846193f0565b905092915050565b600061951982617dab565b915061952483617dab565b92508261953457619533619237565b5b828204905092915050565b600061954a82617dab565b915061955583617dab565b9250817fffffffffffffffffffffffffffffffffffffffffffffffffffffffffffffffff048311821515161561958e5761958d618f45565b5b828202905092915050565b60006060820190506195ae6000830186617f47565b6195bb602083018561823c565b6195c8604083018461823c565b949350505050565b60006195db82617f71565b91506195e683617f71565b92508267ffffffffffffffff0382111561960357619602618f45565b5b828201905092915050565b6000606082019050619623600083018661823c565b619630602083018561823c565b61963d604083018461823c565b949350505050565b6000819050919050565b600061966a61966561966084617e7f565b618e42565b619645565b9050919050565b61967a8161964f565b82525050565b6000604082019050619695600083018561823c565b6196a26020830184619671565b9392505050565b60006196c46196bf6196ba84617fdc565b618e42565b617dab565b9050919050565b6196d4816196a9565b82525050565b60006060820190506196ef600083018661823c565b6196fc60208301856196cb565b61970960408301846196cb565b949350505050565b600081519050619720816183ad565b92915050565b60006020828403121561973c5761973b617da1565b5b600061974a84828501619711565b91505092915050565b600581106197645761976361804d565b5b50565b600081905061977582619753565b919050565b600061978582619767565b9050919050565b6197958161977a565b82525050565b60006040820190506197b0600083018561823c565b6197bd602083018461978c565b9392505050565b60006197d08385618de5565b93506197dd838584618ebc565b6197e683618a8c565b840190509392505050565b6000604082019050818103600083015261980c8186886197c4565b905081810360208301526198218184866197c4565b905095945050505050565b60006040820190506198416000830186618426565b8181036020830152619854818486618ecb565b9050949350505050565b6000608082019050818103600083015261987981898b6197c4565b9050818103602083015261988e8187896197c4565b905061989d6040830186618544565b81810360608301526198b0818486618ecb565b905098975050505050505050565b60006198d96198d46198cf84618266565b618e42565b617dab565b9050919050565b6198e9816198be565b82525050565b600060208201905061990460008301846198e0565b92915050565b7f4e487b7100000000000000000000000000000000000000000000000000000000600052603260045260246000fd5b600060408201905061994e600083018561823c565b61995b6020830184618450565b9392505050565b600061996d82617e7f565b915061997883617e7f565b9250827fffffffffffffffffffffffffffffffffffff8000000000000000000000000000018212600084121516156199b3576199b2618f45565b5b826d7fffffffffffffffffffffffffff0182136000841216156199d9576199d8618f45565b5b828203905092915050565b60006060820190506199f9600083018761823c565b619a066020830186618450565b8181036040830152619a19818486618ecb565b905095945050505050565b6000604082019050619a396000830185618426565b619a466020830184618426565b9392505050565b6000604082019050619a626000830185618450565b619a6f6020830184618426565b9392505050565b619a7f81617f71565b8114619a8a57600080fd5b50565b600081519050619a9c81619a76565b92915050565b600060208284031215619ab857619ab7617da1565b5b6000619ac684828501619a8d565b91505092915050565b6000608082019050619ae46000830187618544565b619af16020830186618450565b619afe6040830185618426565b619b0b606083018461823c565b95945050505050565b600080fd5b600080fd5b600080fd5b60008083356001602003843603038112619b4057619b3f619b14565b5b80840192508235915067ffffffffffffffff821115619b6257619b61619b19565b5b602083019250600182023603831315619b7e57619b7d619b1e565b5b509250929050565b6000604082019050619b9b6000830185618450565b619ba86020830184617f85565b9392505050565b6000604082019050619bc46000830185618544565b619bd16020830184618450565b9392505050565b6000604082019050619bed6000830185618450565b619bfa60208301846198e0565b9392505050565b6000619c0c82617e7f565b91507fffffffffffffffffffffffffffffffffffff8000000000000000000000000000821415619c3f57619c3e618f45565b5b816000039050919050565b6000619c5582617e7f565b9150619c6083617e7f565b925082619c7057619c6f619237565b5b600160000383147fffffffffffffffffffffffffffffffffffff800000000000000000000000000083141615619ca957619ca8618f45565b5b828205905092915050565b6000619cbf82617e7f565b9150619cca83617e7f565b9250826d7fffffffffffffffffffffffffff0482116000841360008413161615619cf757619cf6618f45565b5b817fffffffffffffffffffffffffffffffffffff80000000000000000000000000000583126000841260008413161615619d3457619d33618f45565b5b827fffffffffffffffffffffffffffffffffffff80000000000000000000000000000582126000841360008412161615619d7157619d70618f45565b5b826d7fffffffffffffffffffffffffff0582126000841260008412161615619d9c57619d9b618f45565b5b828202905092915050565b6000619db282618266565b9150619dbd83618266565b925082821015619dd057619dcf618f45565b5b828203905092915050565b6000604082019050619df06000830185617f47565b619dfd6020830184618544565b9392505050565b600081905092915050565b7f4b59432000000000000000000000000000000000000000000000000000000000600082015250565b6000619e45600483619e04565b9150619e5082619e0f565b600482019050919050565b60008160601b9050919050565b6000619e7382619e5b565b9050919050565b6000619e8582619e68565b9050919050565b619e9d619e9882617e01565b619e7a565b82525050565b6000619eae82619e38565b9150619eba8284619e8c565b60148201915081905092915050565b6000619ee4619edf619eda846190e1565b618e42565b617dab565b9050919050565b619ef481619ec9565b82525050565b6000606082019050619f0f6000830186618450565b619f1c6020830185618544565b619f296040830184619eeb565b949350505050565b7f4e487b7100000000000000000000000000000000000000000000000000000000600052602260045260246000fd5b60006002820490506001821680619f7857607f821691505b60208210811415619f8c57619f8b619f31565b5b50919050565b60008190508160005260206000209050919050565b60008154619fb481619f60565b619fbe8186618eab565b94506001821660008114619fd95760018114619feb5761a01e565b60ff198316865260208601935061a01e565b619ff485619f92565b60005b8381101561a01657815481890152600182019150602081019050619ff7565b808801955050505b50505092915050565b600060808201905061a03c6000830187618450565b61a049602083018661823c565b61a0566040830185618450565b818103606083015261a0688184619fa7565b905095945050505050565b60008151905061a08281617e13565b92915050565b60006020828403121561a09e5761a09d617da1565b5b600061a0ac8482850161a073565b91505092915050565b600060408201905061a0ca6000830185618450565b61a0d7602083018461823c565b9392505050565b6000819050919050565b600061a10361a0fe61a0f98461a0de565b618e42565b618419565b9050919050565b61a1138161a0e8565b82525050565b6000819050919050565b600061a13e61a13961a1348461a119565b618e42565b618266565b9050919050565b61a14e8161a123565b82525050565b600060e08201905061a169600083018a618450565b61a1766020830189618450565b61a1836040830188618450565b61a190606083018761823c565b61a19d608083018661a10a565b61a1aa60a0830185617f85565b61a1b760c083018461a145565b98975050505050505050565b7f4672616272696344414f205f636f6d706c65746550726f706f73616c20436f6d60008201527f6d6f6e50726f706f73616c000000000000000000000000000000000000000000602082015250565b600061a21f602b83618de5565b915061a22a8261a1c3565b604082019050919050565b6000604082019050818103600083015261a24e8161a212565b905061a25d6020830184618e6e565b92915050565b600061a26e82617fdc565b915061a27983617fdc565b92508282101561a28c5761a28b618f45565b5b828203905092915050565b600061a2a282617fdc565b915061a2ad83617fdc565b9250826dffffffffffffffffffffffffffff0382111561a2d05761a2cf618f45565b5b828201905092915050565b600061a2e682617e7f565b915061a2f183617e7f565b9250816d7fffffffffffffffffffffffffff0383136000831215161561a31a5761a319618f45565b5b817fffffffffffffffffffffffffffffffffffff800000000000000000000000000003831260008312161561a3525761a351618f45565b5b828201905092915050565b600060208201905061a3726000830184618dad565b92915050565b7f1901000000000000000000000000000000000000000000000000000000000000600082015250565b600061a3ae600283619e04565b915061a3b98261a378565b600282019050919050565b6000819050919050565b61a3df61a3da8261817e565b61a3c4565b82525050565b600061a3f08261a3a1565b915061a3fc828561a3ce565b60208201915061a40c828461a3ce565b6020820191508190509392505050565b7f45434453413a20696e76616c6964207369676e61747572650000000000000000600082015250565b600061a452601883618de5565b915061a45d8261a41c565b602082019050919050565b6000602082019050818103600083015261a4818161a445565b9050919050565b7f45434453413a20696e76616c6964207369676e6174757265206c656e67746800600082015250565b600061a4be601f83618de5565b915061a4c98261a488565b602082019050919050565b6000602082019050818103600083015261a4ed8161a4b1565b9050919050565b7f45434453413a20696e76616c6964207369676e6174757265202773272076616c60008201527f7565000000000000000000000000000000000000000000000000000000000000602082015250565b600061a550602283618de5565b915061a55b8261a4f4565b604082019050919050565b6000602082019050818103600083015261a57f8161a543565b9050919050565b60008190508160005260206000209050919050565b6000815461a5a881619f60565b61a5b28186618de5565b9450600182166000811461a5cd576001811461a5df5761a612565b60ff198316865260208601935061a612565b61a5e88561a586565b60005b8381101561a60a5781548189015260018201915060208101905061a5eb565b808801955050505b50505092915050565b600060c08201905061a6306000830189618426565b818103602083015261a642818861a59b565b9050818103604083015261a656818761a59b565b905061a6656060830186618544565b61a6726080830185618450565b81810360a083015261a6848184619fa7565b9050979650505050505050565b6000819050919050565b61a6ac61a6a782617eb6565b61a691565b82525050565b600081905092915050565b6000815461a6ca81619f60565b61a6d4818661a6b2565b9450600182166000811461a6ef576001811461a7005761a733565b60ff1983168652818601935061a733565b61a70985619f92565b60005b8381101561a72b5781548189015260018201915060208101905061a70c565b838801955050505b50505092915050565b600061a748828561a69b565b60048201915061a758828461a6bd565b91508190509392505050565b600081519050919050565b60005b8381101561a78d57808201518184015260208101905061a772565b8381111561a79c576000848401525b50505050565b600061a7ad8261a764565b61a7b7818561a6b2565b935061a7c781856020860161a76f565b80840191505092915050565b600061a7df828461a7a2565b915081905092915050565b600061a7f58261a764565b61a7ff8185618eab565b935061a80f81856020860161a76f565b61a81881618a8c565b840191505092915050565b600060608201905061a8386000830186618450565b61a8456020830185618dad565b818103604083015261a857818461a7ea565b9050949350505050565b7f46726162726963205f636f6d706c657465537065636966696350726f706f736160008201527f6c00000000000000000000000000000000000000000000000000000000000000602082015250565b600061a8bd602183618de5565b915061a8c88261a861565b604082019050919050565b6000604082019050818103600083015261a8ec8161a8b0565b905061a8fb602083018461823c565b92915050565b600060a08201905061a9166000830188618544565b61a9236020830187618544565b61a9306040830186618544565b61a93d606083018561823c565b61a94a6080830184618450565b9695505050505050565b600060808201905061a9696000830187618544565b61a9766020830186618426565b61a9836040830185618544565b61a9906060830184618544565b95945050505050565b7f5361666545524332303a204552433230206f7065726174696f6e20646964206e60008201527f6f74207375636365656400000000000000000000000000000000000000000000602082015250565b600061a9f5602a83618de5565b915061aa008261a999565b604082019050919050565b6000602082019050818103600083015261aa248161a9e8565b9050919050565b7f416464726573733a20696e73756666696369656e742062616c616e636520666f60008201527f722063616c6c0000000000000000000000000000000000000000000000000000602082015250565b600061aa87602683618de5565b915061aa928261aa2b565b604082019050919050565b6000602082019050818103600083015261aab68161aa7a565b9050919050565b7f416464726573733a2063616c6c20746f206e6f6e2d636f6e7472616374000000600082015250565b600061aaf3601d83618de5565b915061aafe8261aabd565b602082019050919050565b6000602082019050818103600083015261ab228161aae6565b9050919050565b600081519050919050565b600061ab3f8261ab29565b61ab498185618de5565b935061ab5981856020860161a76f565b61ab6281618a8c565b840191505092915050565b6000602082019050818103600083015261ab87818461ab34565b90509291505056fea264697066735822122080a0e05254f0c0c3e2c42a1a6fa9020ed403881e97d50418af015d5da732ab7564736f6c63430008090033",
      "opcodes": "PUSH1 0x80 PUSH1 0x40 MSTORE CALLVALUE DUP1 ISZERO PUSH3 0x11 JUMPI PUSH1 0x0 DUP1 REVERT JUMPDEST POP PUSH1 0x40 MLOAD DUP1 PUSH1 0x40 ADD PUSH1 0x40 MSTORE DUP1 PUSH1 0x7 DUP2 MSTORE PUSH1 0x20 ADD PUSH32 0x4672616272696300000000000000000000000000000000000000000000000000 DUP2 MSTORE POP DUP1 DUP1 MLOAD SWAP1 PUSH1 0x20 ADD KECCAK256 PUSH1 0x35 DUP2 SWAP1 SSTORE POP PUSH1 0x1 PUSH1 0x37 PUSH1 0x0 PUSH32 0x1FFC9A700000000000000000000000000000000000000000000000000000000 PUSH28 0xFFFFFFFFFFFFFFFFFFFFFFFFFFFFFFFFFFFFFFFFFFFFFFFFFFFFFFFF NOT AND PUSH28 0xFFFFFFFFFFFFFFFFFFFFFFFFFFFFFFFFFFFFFFFFFFFFFFFFFFFFFFFF NOT AND DUP2 MSTORE PUSH1 0x20 ADD SWAP1 DUP2 MSTORE PUSH1 0x20 ADD PUSH1 0x0 KECCAK256 PUSH1 0x0 PUSH2 0x100 EXP DUP2 SLOAD DUP2 PUSH1 0xFF MUL NOT AND SWAP1 DUP4 ISZERO ISZERO MUL OR SWAP1 SSTORE POP PUSH1 0x1 PUSH1 0x37 PUSH1 0x0 PUSH32 0x212D8D8C00000000000000000000000000000000000000000000000000000000 PUSH28 0xFFFFFFFFFFFFFFFFFFFFFFFFFFFFFFFFFFFFFFFFFFFFFFFFFFFFFFFF NOT AND PUSH28 0xFFFFFFFFFFFFFFFFFFFFFFFFFFFFFFFFFFFFFFFFFFFFFFFFFFFFFFFF NOT AND DUP2 MSTORE PUSH1 0x20 ADD SWAP1 DUP2 MSTORE PUSH1 0x20 ADD PUSH1 0x0 KECCAK256 PUSH1 0x0 PUSH2 0x100 EXP DUP2 SLOAD DUP2 PUSH1 0xFF MUL NOT AND SWAP1 DUP4 ISZERO ISZERO MUL OR SWAP1 SSTORE POP POP PUSH1 0x0 DUP1 PUSH1 0x1 SWAP1 SLOAD SWAP1 PUSH2 0x100 EXP SWAP1 DIV PUSH1 0xFF AND ISZERO SWAP1 POP DUP1 DUP1 ISZERO PUSH3 0x19D JUMPI POP PUSH1 0x1 PUSH1 0x0 DUP1 SLOAD SWAP1 PUSH2 0x100 EXP SWAP1 DIV PUSH1 0xFF AND PUSH1 0xFF AND LT JUMPDEST DUP1 PUSH3 0x1D9 JUMPI POP PUSH3 0x1BA ADDRESS PUSH3 0x346 PUSH1 0x20 SHL PUSH3 0x504A OR PUSH1 0x20 SHR JUMP JUMPDEST ISZERO DUP1 ISZERO PUSH3 0x1D8 JUMPI POP PUSH1 0x1 PUSH1 0x0 DUP1 SLOAD SWAP1 PUSH2 0x100 EXP SWAP1 DIV PUSH1 0xFF AND PUSH1 0xFF AND EQ JUMPDEST JUMPDEST PUSH3 0x21B JUMPI PUSH1 0x40 MLOAD PUSH32 0x8C379A000000000000000000000000000000000000000000000000000000000 DUP2 MSTORE PUSH1 0x4 ADD PUSH3 0x212 SWAP1 PUSH3 0x3F0 JUMP JUMPDEST PUSH1 0x40 MLOAD DUP1 SWAP2 SUB SWAP1 REVERT JUMPDEST PUSH1 0x1 PUSH1 0x0 DUP1 PUSH2 0x100 EXP DUP2 SLOAD DUP2 PUSH1 0xFF MUL NOT AND SWAP1 DUP4 PUSH1 0xFF AND MUL OR SWAP1 SSTORE POP DUP1 ISZERO PUSH3 0x259 JUMPI PUSH1 0x1 PUSH1 0x0 PUSH1 0x1 PUSH2 0x100 EXP DUP2 SLOAD DUP2 PUSH1 0xFF MUL NOT AND SWAP1 DUP4 ISZERO ISZERO MUL OR SWAP1 SSTORE POP JUMPDEST PUSH1 0x1 PUSH1 0x37 PUSH1 0x0 PUSH32 0x4C8E80F000000000000000000000000000000000000000000000000000000000 PUSH28 0xFFFFFFFFFFFFFFFFFFFFFFFFFFFFFFFFFFFFFFFFFFFFFFFFFFFFFFFF NOT AND PUSH28 0xFFFFFFFFFFFFFFFFFFFFFFFFFFFFFFFFFFFFFFFFFFFFFFFFFFFFFFFF NOT AND DUP2 MSTORE PUSH1 0x20 ADD SWAP1 DUP2 MSTORE PUSH1 0x20 ADD PUSH1 0x0 KECCAK256 PUSH1 0x0 PUSH2 0x100 EXP DUP2 SLOAD DUP2 PUSH1 0xFF MUL NOT AND SWAP1 DUP4 ISZERO ISZERO MUL OR SWAP1 SSTORE POP DUP1 ISZERO PUSH3 0x33F JUMPI PUSH1 0x0 DUP1 PUSH1 0x1 PUSH2 0x100 EXP DUP2 SLOAD DUP2 PUSH1 0xFF MUL NOT AND SWAP1 DUP4 ISZERO ISZERO MUL OR SWAP1 SSTORE POP PUSH32 0x7F26B83FF96E1F2B6A682F133852F6798A09C465DA95921460CEFB3847402498 PUSH1 0x1 PUSH1 0x40 MLOAD PUSH3 0x336 SWAP2 SWAP1 PUSH3 0x46C JUMP JUMPDEST PUSH1 0x40 MLOAD DUP1 SWAP2 SUB SWAP1 LOG1 JUMPDEST POP PUSH3 0x489 JUMP JUMPDEST PUSH1 0x0 DUP1 DUP3 PUSH20 0xFFFFFFFFFFFFFFFFFFFFFFFFFFFFFFFFFFFFFFFF AND EXTCODESIZE GT SWAP1 POP SWAP2 SWAP1 POP JUMP JUMPDEST PUSH1 0x0 DUP3 DUP3 MSTORE PUSH1 0x20 DUP3 ADD SWAP1 POP SWAP3 SWAP2 POP POP JUMP JUMPDEST PUSH32 0x496E697469616C697A61626C653A20636F6E747261637420697320616C726561 PUSH1 0x0 DUP3 ADD MSTORE PUSH32 0x647920696E697469616C697A6564000000000000000000000000000000000000 PUSH1 0x20 DUP3 ADD MSTORE POP JUMP JUMPDEST PUSH1 0x0 PUSH3 0x3D8 PUSH1 0x2E DUP4 PUSH3 0x369 JUMP JUMPDEST SWAP2 POP PUSH3 0x3E5 DUP3 PUSH3 0x37A JUMP JUMPDEST PUSH1 0x40 DUP3 ADD SWAP1 POP SWAP2 SWAP1 POP JUMP JUMPDEST PUSH1 0x0 PUSH1 0x20 DUP3 ADD SWAP1 POP DUP2 DUP2 SUB PUSH1 0x0 DUP4 ADD MSTORE PUSH3 0x40B DUP2 PUSH3 0x3C9 JUMP JUMPDEST SWAP1 POP SWAP2 SWAP1 POP JUMP JUMPDEST PUSH1 0x0 DUP2 SWAP1 POP SWAP2 SWAP1 POP JUMP JUMPDEST PUSH1 0x0 PUSH1 0xFF DUP3 AND SWAP1 POP SWAP2 SWAP1 POP JUMP JUMPDEST PUSH1 0x0 DUP2 SWAP1 POP SWAP2 SWAP1 POP JUMP JUMPDEST PUSH1 0x0 PUSH3 0x454 PUSH3 0x44E PUSH3 0x448 DUP5 PUSH3 0x412 JUMP JUMPDEST PUSH3 0x429 JUMP JUMPDEST PUSH3 0x41C JUMP JUMPDEST SWAP1 POP SWAP2 SWAP1 POP JUMP JUMPDEST PUSH3 0x466 DUP2 PUSH3 0x433 JUMP JUMPDEST DUP3 MSTORE POP POP JUMP JUMPDEST PUSH1 0x0 PUSH1 0x20 DUP3 ADD SWAP1 POP PUSH3 0x483 PUSH1 0x0 DUP4 ADD DUP5 PUSH3 0x45B JUMP JUMPDEST SWAP3 SWAP2 POP POP JUMP JUMPDEST PUSH2 0xABC5 DUP1 PUSH3 0x499 PUSH1 0x0 CODECOPY PUSH1 0x0 RETURN INVALID PUSH1 0x80 PUSH1 0x40 MSTORE CALLVALUE DUP1 ISZERO PUSH2 0x10 JUMPI PUSH1 0x0 DUP1 REVERT JUMPDEST POP PUSH1 0x4 CALLDATASIZE LT PUSH2 0x253 JUMPI PUSH1 0x0 CALLDATALOAD PUSH1 0xE0 SHR DUP1 PUSH4 0x6B83CD68 GT PUSH2 0x146 JUMPI DUP1 PUSH4 0xA42E9FB0 GT PUSH2 0xC3 JUMPI DUP1 PUSH4 0xE9F4741A GT PUSH2 0x87 JUMPI DUP1 PUSH4 0xE9F4741A EQ PUSH2 0x796 JUMPI DUP1 PUSH4 0xED29CE98 EQ PUSH2 0x7C6 JUMPI DUP1 PUSH4 0xEF46D90B EQ PUSH2 0x7F6 JUMPI DUP1 PUSH4 0xF2D8323C EQ PUSH2 0x826 JUMPI DUP1 PUSH4 0xFEE62BC3 EQ PUSH2 0x842 JUMPI DUP1 PUSH4 0xFF383E1B EQ PUSH2 0x860 JUMPI PUSH2 0x253 JUMP JUMPDEST DUP1 PUSH4 0xA42E9FB0 EQ PUSH2 0x6E2 JUMPI DUP1 PUSH4 0xB4C863DD EQ PUSH2 0x712 JUMPI DUP1 PUSH4 0xBF84BF5B EQ PUSH2 0x72E JUMPI DUP1 PUSH4 0xD8965F55 EQ PUSH2 0x75E JUMPI DUP1 PUSH4 0xE1F02FFA EQ PUSH2 0x77A JUMPI PUSH2 0x253 JUMP JUMPDEST DUP1 PUSH4 0x8788CC53 GT PUSH2 0x10A JUMPI DUP1 PUSH4 0x8788CC53 EQ PUSH2 0x62A JUMPI DUP1 PUSH4 0x8B5D4B2C EQ PUSH2 0x65A JUMPI DUP1 PUSH4 0x8EB98E37 EQ PUSH2 0x678 JUMPI DUP1 PUSH4 0x8FFF0FED EQ PUSH2 0x696 JUMPI DUP1 PUSH4 0x94A14A34 EQ PUSH2 0x6C6 JUMPI PUSH2 0x253 JUMP JUMPDEST DUP1 PUSH4 0x6B83CD68 EQ PUSH2 0x584 JUMPI DUP1 PUSH4 0x70EC42E8 EQ PUSH2 0x5A2 JUMPI DUP1 PUSH4 0x75D0C0DC EQ PUSH2 0x5D2 JUMPI DUP1 PUSH4 0x77173C1E EQ PUSH2 0x5F0 JUMPI DUP1 PUSH4 0x785E9E86 EQ PUSH2 0x60C JUMPI PUSH2 0x253 JUMP JUMPDEST DUP1 PUSH4 0x42B4632E GT PUSH2 0x1D4 JUMPI DUP1 PUSH4 0x5E51BD05 GT PUSH2 0x198 JUMPI DUP1 PUSH4 0x5E51BD05 EQ PUSH2 0x4DC JUMPI DUP1 PUSH4 0x64691E5E EQ PUSH2 0x4FA JUMPI DUP1 PUSH4 0x64C9EC6F EQ PUSH2 0x518 JUMPI DUP1 PUSH4 0x662457C6 EQ PUSH2 0x536 JUMPI DUP1 PUSH4 0x67B48E98 EQ PUSH2 0x554 JUMPI PUSH2 0x253 JUMP JUMPDEST DUP1 PUSH4 0x42B4632E EQ PUSH2 0x412 JUMPI DUP1 PUSH4 0x450B9743 EQ PUSH2 0x442 JUMPI DUP1 PUSH4 0x54FD4D50 EQ PUSH2 0x472 JUMPI DUP1 PUSH4 0x57E0AC90 EQ PUSH2 0x490 JUMPI DUP1 PUSH4 0x5BE59CC0 EQ PUSH2 0x4AC JUMPI PUSH2 0x253 JUMP JUMPDEST DUP1 PUSH4 0x2605B3C7 GT PUSH2 0x21B JUMPI DUP1 PUSH4 0x2605B3C7 EQ PUSH2 0x336 JUMPI DUP1 PUSH4 0x2E98BDA5 EQ PUSH2 0x366 JUMPI DUP1 PUSH4 0x35743AC9 EQ PUSH2 0x396 JUMPI DUP1 PUSH4 0x37716745 EQ PUSH2 0x3C6 JUMPI DUP1 PUSH4 0x3B99BCEE EQ PUSH2 0x3F6 JUMPI PUSH2 0x253 JUMP JUMPDEST DUP1 PUSH4 0x117C909 EQ PUSH2 0x258 JUMPI DUP1 PUSH4 0x1FFC9A7 EQ PUSH2 0x288 JUMPI DUP1 PUSH4 0x2A251A3 EQ PUSH2 0x2B8 JUMPI DUP1 PUSH4 0xA0155E5 EQ PUSH2 0x2D6 JUMPI DUP1 PUSH4 0x19E6E158 EQ PUSH2 0x306 JUMPI JUMPDEST PUSH1 0x0 DUP1 REVERT JUMPDEST PUSH2 0x272 PUSH1 0x4 DUP1 CALLDATASIZE SUB DUP2 ADD SWAP1 PUSH2 0x26D SWAP2 SWAP1 PUSH2 0x7E3F JUMP JUMPDEST PUSH2 0x87C JUMP JUMPDEST PUSH1 0x40 MLOAD PUSH2 0x27F SWAP2 SWAP1 PUSH2 0x7E9B JUMP JUMPDEST PUSH1 0x40 MLOAD DUP1 SWAP2 SUB SWAP1 RETURN JUMPDEST PUSH2 0x2A2 PUSH1 0x4 DUP1 CALLDATASIZE SUB DUP2 ADD SWAP1 PUSH2 0x29D SWAP2 SWAP1 PUSH2 0x7F0E JUMP JUMPDEST PUSH2 0x8E7 JUMP JUMPDEST PUSH1 0x40 MLOAD PUSH2 0x2AF SWAP2 SWAP1 PUSH2 0x7F56 JUMP JUMPDEST PUSH1 0x40 MLOAD DUP1 SWAP2 SUB SWAP1 RETURN JUMPDEST PUSH2 0x2C0 PUSH2 0x907 JUMP JUMPDEST PUSH1 0x40 MLOAD PUSH2 0x2CD SWAP2 SWAP1 PUSH2 0x7F94 JUMP JUMPDEST PUSH1 0x40 MLOAD DUP1 SWAP2 SUB SWAP1 RETURN JUMPDEST PUSH2 0x2F0 PUSH1 0x4 DUP1 CALLDATASIZE SUB DUP2 ADD SWAP1 PUSH2 0x2EB SWAP2 SWAP1 PUSH2 0x7FAF JUMP JUMPDEST PUSH2 0x921 JUMP JUMPDEST PUSH1 0x40 MLOAD PUSH2 0x2FD SWAP2 SWAP1 PUSH2 0x7F56 JUMP JUMPDEST PUSH1 0x40 MLOAD DUP1 SWAP2 SUB SWAP1 RETURN JUMPDEST PUSH2 0x320 PUSH1 0x4 DUP1 CALLDATASIZE SUB DUP2 ADD SWAP1 PUSH2 0x31B SWAP2 SWAP1 PUSH2 0x7FAF JUMP JUMPDEST PUSH2 0x941 JUMP JUMPDEST PUSH1 0x40 MLOAD PUSH2 0x32D SWAP2 SWAP1 PUSH2 0x8005 JUMP JUMPDEST PUSH1 0x40 MLOAD DUP1 SWAP2 SUB SWAP1 RETURN JUMPDEST PUSH2 0x350 PUSH1 0x4 DUP1 CALLDATASIZE SUB DUP2 ADD SWAP1 PUSH2 0x34B SWAP2 SWAP1 PUSH2 0x8020 JUMP JUMPDEST PUSH2 0x97B JUMP JUMPDEST PUSH1 0x40 MLOAD PUSH2 0x35D SWAP2 SWAP1 PUSH2 0x80C4 JUMP JUMPDEST PUSH1 0x40 MLOAD DUP1 SWAP2 SUB SWAP1 RETURN JUMPDEST PUSH2 0x380 PUSH1 0x4 DUP1 CALLDATASIZE SUB DUP2 ADD SWAP1 PUSH2 0x37B SWAP2 SWAP1 PUSH2 0x81B4 JUMP JUMPDEST PUSH2 0x99C JUMP JUMPDEST PUSH1 0x40 MLOAD PUSH2 0x38D SWAP2 SWAP1 PUSH2 0x824B JUMP JUMPDEST PUSH1 0x40 MLOAD DUP1 SWAP2 SUB SWAP1 RETURN JUMPDEST PUSH2 0x3B0 PUSH1 0x4 DUP1 CALLDATASIZE SUB DUP2 ADD SWAP1 PUSH2 0x3AB SWAP2 SWAP1 PUSH2 0x7FAF JUMP JUMPDEST PUSH2 0xEF4 JUMP JUMPDEST PUSH1 0x40 MLOAD PUSH2 0x3BD SWAP2 SWAP1 PUSH2 0x7F56 JUMP JUMPDEST PUSH1 0x40 MLOAD DUP1 SWAP2 SUB SWAP1 RETURN JUMPDEST PUSH2 0x3E0 PUSH1 0x4 DUP1 CALLDATASIZE SUB DUP2 ADD SWAP1 PUSH2 0x3DB SWAP2 SWAP1 PUSH2 0x7FAF JUMP JUMPDEST PUSH2 0xF18 JUMP JUMPDEST PUSH1 0x40 MLOAD PUSH2 0x3ED SWAP2 SWAP1 PUSH2 0x8285 JUMP JUMPDEST PUSH1 0x40 MLOAD DUP1 SWAP2 SUB SWAP1 RETURN JUMPDEST PUSH2 0x410 PUSH1 0x4 DUP1 CALLDATASIZE SUB DUP2 ADD SWAP1 PUSH2 0x40B SWAP2 SWAP1 PUSH2 0x82A0 JUMP JUMPDEST PUSH2 0xF48 JUMP JUMPDEST STOP JUMPDEST PUSH2 0x42C PUSH1 0x4 DUP1 CALLDATASIZE SUB DUP2 ADD SWAP1 PUSH2 0x427 SWAP2 SWAP1 PUSH2 0x8020 JUMP JUMPDEST PUSH2 0x1592 JUMP JUMPDEST PUSH1 0x40 MLOAD PUSH2 0x439 SWAP2 SWAP1 PUSH2 0x7F56 JUMP JUMPDEST PUSH1 0x40 MLOAD DUP1 SWAP2 SUB SWAP1 RETURN JUMPDEST PUSH2 0x45C PUSH1 0x4 DUP1 CALLDATASIZE SUB DUP2 ADD SWAP1 PUSH2 0x457 SWAP2 SWAP1 PUSH2 0x8020 JUMP JUMPDEST PUSH2 0x1617 JUMP JUMPDEST PUSH1 0x40 MLOAD PUSH2 0x469 SWAP2 SWAP1 PUSH2 0x824B JUMP JUMPDEST PUSH1 0x40 MLOAD DUP1 SWAP2 SUB SWAP1 RETURN JUMPDEST PUSH2 0x47A PUSH2 0x1630 JUMP JUMPDEST PUSH1 0x40 MLOAD PUSH2 0x487 SWAP2 SWAP1 PUSH2 0x824B JUMP JUMPDEST PUSH1 0x40 MLOAD DUP1 SWAP2 SUB SWAP1 RETURN JUMPDEST PUSH2 0x4AA PUSH1 0x4 DUP1 CALLDATASIZE SUB DUP2 ADD SWAP1 PUSH2 0x4A5 SWAP2 SWAP1 PUSH2 0x8325 JUMP JUMPDEST PUSH2 0x1636 JUMP JUMPDEST STOP JUMPDEST PUSH2 0x4C6 PUSH1 0x4 DUP1 CALLDATASIZE SUB DUP2 ADD SWAP1 PUSH2 0x4C1 SWAP2 SWAP1 PUSH2 0x83D9 JUMP JUMPDEST PUSH2 0x1BBE JUMP JUMPDEST PUSH1 0x40 MLOAD PUSH2 0x4D3 SWAP2 SWAP1 PUSH2 0x824B JUMP JUMPDEST PUSH1 0x40 MLOAD DUP1 SWAP2 SUB SWAP1 RETURN JUMPDEST PUSH2 0x4E4 PUSH2 0x1BEA JUMP JUMPDEST PUSH1 0x40 MLOAD PUSH2 0x4F1 SWAP2 SWAP1 PUSH2 0x8435 JUMP JUMPDEST PUSH1 0x40 MLOAD DUP1 SWAP2 SUB SWAP1 RETURN JUMPDEST PUSH2 0x502 PUSH2 0x1BFE JUMP JUMPDEST PUSH1 0x40 MLOAD PUSH2 0x50F SWAP2 SWAP1 PUSH2 0x845F JUMP JUMPDEST PUSH1 0x40 MLOAD DUP1 SWAP2 SUB SWAP1 RETURN JUMPDEST PUSH2 0x520 PUSH2 0x1C25 JUMP JUMPDEST PUSH1 0x40 MLOAD PUSH2 0x52D SWAP2 SWAP1 PUSH2 0x845F JUMP JUMPDEST PUSH1 0x40 MLOAD DUP1 SWAP2 SUB SWAP1 RETURN JUMPDEST PUSH2 0x53E PUSH2 0x1C4C JUMP JUMPDEST PUSH1 0x40 MLOAD PUSH2 0x54B SWAP2 SWAP1 PUSH2 0x824B JUMP JUMPDEST PUSH1 0x40 MLOAD DUP1 SWAP2 SUB SWAP1 RETURN JUMPDEST PUSH2 0x56E PUSH1 0x4 DUP1 CALLDATASIZE SUB DUP2 ADD SWAP1 PUSH2 0x569 SWAP2 SWAP1 PUSH2 0x847A JUMP JUMPDEST PUSH2 0x1C56 JUMP JUMPDEST PUSH1 0x40 MLOAD PUSH2 0x57B SWAP2 SWAP1 PUSH2 0x824B JUMP JUMPDEST PUSH1 0x40 MLOAD DUP1 SWAP2 SUB SWAP1 RETURN JUMPDEST PUSH2 0x58C PUSH2 0x1E94 JUMP JUMPDEST PUSH1 0x40 MLOAD PUSH2 0x599 SWAP2 SWAP1 PUSH2 0x8005 JUMP JUMPDEST PUSH1 0x40 MLOAD DUP1 SWAP2 SUB SWAP1 RETURN JUMPDEST PUSH2 0x5BC PUSH1 0x4 DUP1 CALLDATASIZE SUB DUP2 ADD SWAP1 PUSH2 0x5B7 SWAP2 SWAP1 PUSH2 0x8020 JUMP JUMPDEST PUSH2 0x1FFC JUMP JUMPDEST PUSH1 0x40 MLOAD PUSH2 0x5C9 SWAP2 SWAP1 PUSH2 0x8529 JUMP JUMPDEST PUSH1 0x40 MLOAD DUP1 SWAP2 SUB SWAP1 RETURN JUMPDEST PUSH2 0x5DA PUSH2 0x201D JUMP JUMPDEST PUSH1 0x40 MLOAD PUSH2 0x5E7 SWAP2 SWAP1 PUSH2 0x8553 JUMP JUMPDEST PUSH1 0x40 MLOAD DUP1 SWAP2 SUB SWAP1 RETURN JUMPDEST PUSH2 0x60A PUSH1 0x4 DUP1 CALLDATASIZE SUB DUP2 ADD SWAP1 PUSH2 0x605 SWAP2 SWAP1 PUSH2 0x82A0 JUMP JUMPDEST PUSH2 0x2023 JUMP JUMPDEST STOP JUMPDEST PUSH2 0x614 PUSH2 0x21E1 JUMP JUMPDEST PUSH1 0x40 MLOAD PUSH2 0x621 SWAP2 SWAP1 PUSH2 0x845F JUMP JUMPDEST PUSH1 0x40 MLOAD DUP1 SWAP2 SUB SWAP1 RETURN JUMPDEST PUSH2 0x644 PUSH1 0x4 DUP1 CALLDATASIZE SUB DUP2 ADD SWAP1 PUSH2 0x63F SWAP2 SWAP1 PUSH2 0x7FAF JUMP JUMPDEST PUSH2 0x2207 JUMP JUMPDEST PUSH1 0x40 MLOAD PUSH2 0x651 SWAP2 SWAP1 PUSH2 0x7E9B JUMP JUMPDEST PUSH1 0x40 MLOAD DUP1 SWAP2 SUB SWAP1 RETURN JUMPDEST PUSH2 0x662 PUSH2 0x2234 JUMP JUMPDEST PUSH1 0x40 MLOAD PUSH2 0x66F SWAP2 SWAP1 PUSH2 0x7F94 JUMP JUMPDEST PUSH1 0x40 MLOAD DUP1 SWAP2 SUB SWAP1 RETURN JUMPDEST PUSH2 0x680 PUSH2 0x224E JUMP JUMPDEST PUSH1 0x40 MLOAD PUSH2 0x68D SWAP2 SWAP1 PUSH2 0x857D JUMP JUMPDEST PUSH1 0x40 MLOAD DUP1 SWAP2 SUB SWAP1 RETURN JUMPDEST PUSH2 0x6B0 PUSH1 0x4 DUP1 CALLDATASIZE SUB DUP2 ADD SWAP1 PUSH2 0x6AB SWAP2 SWAP1 PUSH2 0x8598 JUMP JUMPDEST PUSH2 0x2254 JUMP JUMPDEST PUSH1 0x40 MLOAD PUSH2 0x6BD SWAP2 SWAP1 PUSH2 0x824B JUMP JUMPDEST PUSH1 0x40 MLOAD DUP1 SWAP2 SUB SWAP1 RETURN JUMPDEST PUSH2 0x6E0 PUSH1 0x4 DUP1 CALLDATASIZE SUB DUP2 ADD SWAP1 PUSH2 0x6DB SWAP2 SWAP1 PUSH2 0x7FAF JUMP JUMPDEST PUSH2 0x2733 JUMP JUMPDEST STOP JUMPDEST PUSH2 0x6FC PUSH1 0x4 DUP1 CALLDATASIZE SUB DUP2 ADD SWAP1 PUSH2 0x6F7 SWAP2 SWAP1 PUSH2 0x8625 JUMP JUMPDEST PUSH2 0x2A6C JUMP JUMPDEST PUSH1 0x40 MLOAD PUSH2 0x709 SWAP2 SWAP1 PUSH2 0x824B JUMP JUMPDEST PUSH1 0x40 MLOAD DUP1 SWAP2 SUB SWAP1 RETURN JUMPDEST PUSH2 0x72C PUSH1 0x4 DUP1 CALLDATASIZE SUB DUP2 ADD SWAP1 PUSH2 0x727 SWAP2 SWAP1 PUSH2 0x82A0 JUMP JUMPDEST PUSH2 0x2DC6 JUMP JUMPDEST STOP JUMPDEST PUSH2 0x748 PUSH1 0x4 DUP1 CALLDATASIZE SUB DUP2 ADD SWAP1 PUSH2 0x743 SWAP2 SWAP1 PUSH2 0x86FA JUMP JUMPDEST PUSH2 0x31EB JUMP JUMPDEST PUSH1 0x40 MLOAD PUSH2 0x755 SWAP2 SWAP1 PUSH2 0x824B JUMP JUMPDEST PUSH1 0x40 MLOAD DUP1 SWAP2 SUB SWAP1 RETURN JUMPDEST PUSH2 0x778 PUSH1 0x4 DUP1 CALLDATASIZE SUB DUP2 ADD SWAP1 PUSH2 0x773 SWAP2 SWAP1 PUSH2 0x883F JUMP JUMPDEST PUSH2 0x3593 JUMP JUMPDEST STOP JUMPDEST PUSH2 0x794 PUSH1 0x4 DUP1 CALLDATASIZE SUB DUP2 ADD SWAP1 PUSH2 0x78F SWAP2 SWAP1 PUSH2 0x7FAF JUMP JUMPDEST PUSH2 0x3B3A JUMP JUMPDEST STOP JUMPDEST PUSH2 0x7B0 PUSH1 0x4 DUP1 CALLDATASIZE SUB DUP2 ADD SWAP1 PUSH2 0x7AB SWAP2 SWAP1 PUSH2 0x889F JUMP JUMPDEST PUSH2 0x3DFB JUMP JUMPDEST PUSH1 0x40 MLOAD PUSH2 0x7BD SWAP2 SWAP1 PUSH2 0x824B JUMP JUMPDEST PUSH1 0x40 MLOAD DUP1 SWAP2 SUB SWAP1 RETURN JUMPDEST PUSH2 0x7E0 PUSH1 0x4 DUP1 CALLDATASIZE SUB DUP2 ADD SWAP1 PUSH2 0x7DB SWAP2 SWAP1 PUSH2 0x89A4 JUMP JUMPDEST PUSH2 0x42FF JUMP JUMPDEST PUSH1 0x40 MLOAD PUSH2 0x7ED SWAP2 SWAP1 PUSH2 0x824B JUMP JUMPDEST PUSH1 0x40 MLOAD DUP1 SWAP2 SUB SWAP1 RETURN JUMPDEST PUSH2 0x810 PUSH1 0x4 DUP1 CALLDATASIZE SUB DUP2 ADD SWAP1 PUSH2 0x80B SWAP2 SWAP1 PUSH2 0x7FAF JUMP JUMPDEST PUSH2 0x492B JUMP JUMPDEST PUSH1 0x40 MLOAD PUSH2 0x81D SWAP2 SWAP1 PUSH2 0x7F56 JUMP JUMPDEST PUSH1 0x40 MLOAD DUP1 SWAP2 SUB SWAP1 RETURN JUMPDEST PUSH2 0x840 PUSH1 0x4 DUP1 CALLDATASIZE SUB DUP2 ADD SWAP1 PUSH2 0x83B SWAP2 SWAP1 PUSH2 0x8A2C JUMP JUMPDEST PUSH2 0x4958 JUMP JUMPDEST STOP JUMPDEST PUSH2 0x84A PUSH2 0x4D2B JUMP JUMPDEST PUSH1 0x40 MLOAD PUSH2 0x857 SWAP2 SWAP1 PUSH2 0x7F94 JUMP JUMPDEST PUSH1 0x40 MLOAD DUP1 SWAP2 SUB SWAP1 RETURN JUMPDEST PUSH2 0x87A PUSH1 0x4 DUP1 CALLDATASIZE SUB DUP2 ADD SWAP1 PUSH2 0x875 SWAP2 SWAP1 PUSH2 0x8CCA JUMP JUMPDEST PUSH2 0x4D45 JUMP JUMPDEST STOP JUMPDEST PUSH1 0x0 PUSH1 0x9F PUSH1 0x0 DUP5 DUP2 MSTORE PUSH1 0x20 ADD SWAP1 DUP2 MSTORE PUSH1 0x20 ADD PUSH1 0x0 KECCAK256 PUSH1 0x1 ADD PUSH1 0x0 DUP4 PUSH20 0xFFFFFFFFFFFFFFFFFFFFFFFFFFFFFFFFFFFFFFFF AND PUSH20 0xFFFFFFFFFFFFFFFFFFFFFFFFFFFFFFFFFFFFFFFF AND DUP2 MSTORE PUSH1 0x20 ADD SWAP1 DUP2 MSTORE PUSH1 0x20 ADD PUSH1 0x0 KECCAK256 PUSH1 0x0 SWAP1 SLOAD SWAP1 PUSH2 0x100 EXP SWAP1 DIV PUSH1 0xD SIGNEXTEND SWAP1 POP SWAP3 SWAP2 POP POP JUMP JUMPDEST PUSH1 0x37 PUSH1 0x20 MSTORE DUP1 PUSH1 0x0 MSTORE PUSH1 0x40 PUSH1 0x0 KECCAK256 PUSH1 0x0 SWAP2 POP SLOAD SWAP1 PUSH2 0x100 EXP SWAP1 DIV PUSH1 0xFF AND DUP2 JUMP JUMPDEST PUSH1 0x9C PUSH1 0x14 SWAP1 SLOAD SWAP1 PUSH2 0x100 EXP SWAP1 DIV PUSH8 0xFFFFFFFFFFFFFFFF AND DUP2 JUMP JUMPDEST PUSH1 0xA0 PUSH1 0x20 MSTORE DUP1 PUSH1 0x0 MSTORE PUSH1 0x40 PUSH1 0x0 KECCAK256 PUSH1 0x0 SWAP2 POP SLOAD SWAP1 PUSH2 0x100 EXP SWAP1 DIV PUSH1 0xFF AND DUP2 JUMP JUMPDEST PUSH1 0x0 PUSH1 0x9F PUSH1 0x0 DUP4 DUP2 MSTORE PUSH1 0x20 ADD SWAP1 DUP2 MSTORE PUSH1 0x20 ADD PUSH1 0x0 KECCAK256 PUSH1 0x2 ADD PUSH1 0xE SWAP1 SLOAD SWAP1 PUSH2 0x100 EXP SWAP1 DIV PUSH14 0xFFFFFFFFFFFFFFFFFFFFFFFFFFFF AND SWAP1 POP SWAP2 SWAP1 POP JUMP JUMPDEST PUSH2 0x16D PUSH1 0x20 MSTORE DUP1 PUSH1 0x0 MSTORE PUSH1 0x40 PUSH1 0x0 KECCAK256 PUSH1 0x0 SWAP2 POP SLOAD SWAP1 PUSH2 0x100 EXP SWAP1 DIV PUSH1 0xFF AND DUP2 JUMP JUMPDEST PUSH1 0x0 PUSH32 0xCA2C126ED1BACB99ED7C83650FD39B710BA646480C540ADA7FF31B61F40BEFBE DUP7 PUSH20 0xFFFFFFFFFFFFFFFFFFFFFFFFFFFFFFFFFFFFFFFF AND PUSH4 0x75D0C0DC PUSH1 0x40 MLOAD DUP2 PUSH4 0xFFFFFFFF AND PUSH1 0xE0 SHL DUP2 MSTORE PUSH1 0x4 ADD PUSH1 0x20 PUSH1 0x40 MLOAD DUP1 DUP4 SUB DUP2 PUSH1 0x0 DUP8 DUP1 EXTCODESIZE ISZERO DUP1 ISZERO PUSH2 0xA07 JUMPI PUSH1 0x0 DUP1 REVERT JUMPDEST POP GAS CALL ISZERO DUP1 ISZERO PUSH2 0xA1B JUMPI RETURNDATASIZE PUSH1 0x0 DUP1 RETURNDATACOPY RETURNDATASIZE PUSH1 0x0 REVERT JUMPDEST POP POP POP POP PUSH1 0x40 MLOAD RETURNDATASIZE PUSH1 0x1F NOT PUSH1 0x1F DUP3 ADD AND DUP3 ADD DUP1 PUSH1 0x40 MSTORE POP DUP2 ADD SWAP1 PUSH2 0xA3F SWAP2 SWAP1 PUSH2 0x8D57 JUMP JUMPDEST EQ PUSH2 0xB22 JUMPI DUP6 PUSH20 0xFFFFFFFFFFFFFFFFFFFFFFFFFFFFFFFFFFFFFFFF AND PUSH4 0x75D0C0DC PUSH1 0x40 MLOAD DUP2 PUSH4 0xFFFFFFFF AND PUSH1 0xE0 SHL DUP2 MSTORE PUSH1 0x4 ADD PUSH1 0x20 PUSH1 0x40 MLOAD DUP1 DUP4 SUB DUP2 PUSH1 0x0 DUP8 DUP1 EXTCODESIZE ISZERO DUP1 ISZERO PUSH2 0xA8C JUMPI PUSH1 0x0 DUP1 REVERT JUMPDEST POP GAS CALL ISZERO DUP1 ISZERO PUSH2 0xAA0 JUMPI RETURNDATASIZE PUSH1 0x0 DUP1 RETURNDATACOPY RETURNDATASIZE PUSH1 0x0 REVERT JUMPDEST POP POP POP POP PUSH1 0x40 MLOAD RETURNDATASIZE PUSH1 0x1F NOT PUSH1 0x1F DUP3 ADD AND DUP3 ADD DUP1 PUSH1 0x40 MSTORE POP DUP2 ADD SWAP1 PUSH2 0xAC4 SWAP2 SWAP1 PUSH2 0x8D57 JUMP JUMPDEST PUSH32 0xCA2C126ED1BACB99ED7C83650FD39B710BA646480C540ADA7FF31B61F40BEFBE PUSH1 0x40 MLOAD PUSH32 0x4ED7288800000000000000000000000000000000000000000000000000000000 DUP2 MSTORE PUSH1 0x4 ADD PUSH2 0xB19 SWAP3 SWAP2 SWAP1 PUSH2 0x8D84 JUMP JUMPDEST PUSH1 0x40 MLOAD DUP1 SWAP2 SUB SWAP1 REVERT JUMPDEST PUSH1 0x0 PUSH2 0xB2D DUP7 PUSH2 0x506D JUMP JUMPDEST ISZERO PUSH2 0xBE1 JUMPI PUSH2 0xB7A PUSH31 0x2F1A9D00000000000000000000000000000000000000000000000000000000 DUP9 PUSH20 0xFFFFFFFFFFFFFFFFFFFFFFFFFFFFFFFFFFFFFFFF AND PUSH2 0x5086 SWAP1 SWAP2 SWAP1 PUSH4 0xFFFFFFFF AND JUMP JUMPDEST PUSH2 0xBDC JUMPI DUP7 PUSH31 0x2F1A9D00000000000000000000000000000000000000000000000000000000 PUSH1 0x40 MLOAD PUSH32 0x8A05A4C600000000000000000000000000000000000000000000000000000000 DUP2 MSTORE PUSH1 0x4 ADD PUSH2 0xBD3 SWAP3 SWAP2 SWAP1 PUSH2 0x8DBC JUMP JUMPDEST PUSH1 0x40 MLOAD DUP1 SWAP2 SUB SWAP1 REVERT JUMPDEST PUSH2 0xC8E JUMP JUMPDEST PUSH2 0xC2A PUSH32 0x4B91B37C00000000000000000000000000000000000000000000000000000000 DUP9 PUSH20 0xFFFFFFFFFFFFFFFFFFFFFFFFFFFFFFFFFFFFFFFF AND PUSH2 0x5086 SWAP1 SWAP2 SWAP1 PUSH4 0xFFFFFFFF AND JUMP JUMPDEST PUSH2 0xC8D JUMPI DUP7 PUSH32 0x4B91B37C00000000000000000000000000000000000000000000000000000000 PUSH1 0x40 MLOAD PUSH32 0x8A05A4C600000000000000000000000000000000000000000000000000000000 DUP2 MSTORE PUSH1 0x4 ADD PUSH2 0xC84 SWAP3 SWAP2 SWAP1 PUSH2 0x8DBC JUMP JUMPDEST PUSH1 0x40 MLOAD DUP1 SWAP2 SUB SWAP1 REVERT JUMPDEST JUMPDEST PUSH2 0x176 PUSH1 0x0 DUP8 PUSH2 0xFFFF AND PUSH2 0xFFFF AND DUP2 MSTORE PUSH1 0x20 ADD SWAP1 DUP2 MSTORE PUSH1 0x20 ADD PUSH1 0x0 KECCAK256 PUSH1 0x0 SWAP1 SLOAD SWAP1 PUSH2 0x100 EXP SWAP1 DIV PUSH1 0xE0 SHL SWAP1 POP PUSH1 0x0 PUSH1 0xE0 SHL PUSH28 0xFFFFFFFFFFFFFFFFFFFFFFFFFFFFFFFFFFFFFFFFFFFFFFFFFFFFFFFF NOT AND DUP2 PUSH28 0xFFFFFFFFFFFFFFFFFFFFFFFFFFFFFFFFFFFFFFFFFFFFFFFFFFFFFFFF NOT AND EQ ISZERO PUSH2 0xD41 JUMPI DUP6 PUSH1 0x40 MLOAD PUSH32 0x83FB3B9300000000000000000000000000000000000000000000000000000000 DUP2 MSTORE PUSH1 0x4 ADD PUSH2 0xD38 SWAP2 SWAP1 PUSH2 0x8E7D JUMP JUMPDEST PUSH1 0x40 MLOAD DUP1 SWAP2 SUB SWAP1 REVERT JUMPDEST PUSH2 0xD5F PUSH1 0x3 DUP1 DUP2 GT ISZERO PUSH2 0xD57 JUMPI PUSH2 0xD56 PUSH2 0x804D JUMP JUMPDEST JUMPDEST PUSH1 0x0 DUP6 PUSH2 0x50AB JUMP JUMPDEST SWAP2 POP PUSH1 0x40 MLOAD DUP1 PUSH1 0x60 ADD PUSH1 0x40 MSTORE DUP1 DUP9 PUSH20 0xFFFFFFFFFFFFFFFFFFFFFFFFFFFFFFFFFFFFFFFF AND DUP2 MSTORE PUSH1 0x20 ADD DUP3 PUSH28 0xFFFFFFFFFFFFFFFFFFFFFFFFFFFFFFFFFFFFFFFFFFFFFFFFFFFFFFFF NOT AND DUP2 MSTORE PUSH1 0x20 ADD DUP7 DUP7 DUP1 DUP1 PUSH1 0x1F ADD PUSH1 0x20 DUP1 SWAP2 DIV MUL PUSH1 0x20 ADD PUSH1 0x40 MLOAD SWAP1 DUP2 ADD PUSH1 0x40 MSTORE DUP1 SWAP4 SWAP3 SWAP2 SWAP1 DUP2 DUP2 MSTORE PUSH1 0x20 ADD DUP4 DUP4 DUP1 DUP3 DUP5 CALLDATACOPY PUSH1 0x0 DUP2 DUP5 ADD MSTORE PUSH1 0x1F NOT PUSH1 0x1F DUP3 ADD AND SWAP1 POP DUP1 DUP4 ADD SWAP3 POP POP POP POP POP POP POP DUP2 MSTORE POP PUSH2 0x174 PUSH1 0x0 DUP5 DUP2 MSTORE PUSH1 0x20 ADD SWAP1 DUP2 MSTORE PUSH1 0x20 ADD PUSH1 0x0 KECCAK256 PUSH1 0x0 DUP3 ADD MLOAD DUP2 PUSH1 0x0 ADD PUSH1 0x0 PUSH2 0x100 EXP DUP2 SLOAD DUP2 PUSH20 0xFFFFFFFFFFFFFFFFFFFFFFFFFFFFFFFFFFFFFFFF MUL NOT AND SWAP1 DUP4 PUSH20 0xFFFFFFFFFFFFFFFFFFFFFFFFFFFFFFFFFFFFFFFF AND MUL OR SWAP1 SSTORE POP PUSH1 0x20 DUP3 ADD MLOAD DUP2 PUSH1 0x0 ADD PUSH1 0x14 PUSH2 0x100 EXP DUP2 SLOAD DUP2 PUSH4 0xFFFFFFFF MUL NOT AND SWAP1 DUP4 PUSH1 0xE0 SHR MUL OR SWAP1 SSTORE POP PUSH1 0x40 DUP3 ADD MLOAD DUP2 PUSH1 0x1 ADD SWAP1 DUP1 MLOAD SWAP1 PUSH1 0x20 ADD SWAP1 PUSH2 0xE90 SWAP3 SWAP2 SWAP1 PUSH2 0x7B68 JUMP JUMPDEST POP SWAP1 POP POP DUP6 PUSH2 0xFFFF AND DUP8 PUSH20 0xFFFFFFFFFFFFFFFFFFFFFFFFFFFFFFFFFFFFFFFF AND DUP4 PUSH32 0x255A4EFA8FA4508E2724984F49F6DAC04764BEC588A3069B4780B19E293801EC DUP9 DUP9 PUSH1 0x40 MLOAD PUSH2 0xEE2 SWAP3 SWAP2 SWAP1 PUSH2 0x8EF8 JUMP JUMPDEST PUSH1 0x40 MLOAD DUP1 SWAP2 SUB SWAP1 LOG4 POP SWAP6 SWAP5 POP POP POP POP POP JUMP JUMPDEST PUSH1 0x0 PUSH2 0xF11 PUSH1 0x9F PUSH1 0x0 DUP5 DUP2 MSTORE PUSH1 0x20 ADD SWAP1 DUP2 MSTORE PUSH1 0x20 ADD PUSH1 0x0 KECCAK256 PUSH2 0x530D JUMP JUMPDEST SWAP1 POP SWAP2 SWAP1 POP JUMP JUMPDEST PUSH1 0x0 PUSH1 0x9F PUSH1 0x0 DUP4 DUP2 MSTORE PUSH1 0x20 ADD SWAP1 DUP2 MSTORE PUSH1 0x20 ADD PUSH1 0x0 KECCAK256 PUSH1 0x2 ADD PUSH1 0x1C SWAP1 SLOAD SWAP1 PUSH2 0x100 EXP SWAP1 DIV PUSH4 0xFFFFFFFF AND SWAP1 POP SWAP2 SWAP1 POP JUMP JUMPDEST PUSH1 0x0 PUSH2 0xF76 PUSH32 0xA3F0AD74E5423AEBFD80D3EF4346578335A9A72AEAEE59FF6CB3582B35133D50 PUSH1 0x0 SHL PUSH2 0x539D JUMP JUMPDEST PUSH1 0x0 ADD PUSH1 0x0 SWAP1 SLOAD SWAP1 PUSH2 0x100 EXP SWAP1 DIV PUSH20 0xFFFFFFFFFFFFFFFFFFFFFFFFFFFFFFFFFFFFFFFF AND SWAP1 POP DUP1 PUSH20 0xFFFFFFFFFFFFFFFFFFFFFFFFFFFFFFFFFFFFFFFF AND CALLER PUSH20 0xFFFFFFFFFFFFFFFFFFFFFFFFFFFFFFFFFFFFFFFF AND EQ PUSH2 0x100E JUMPI CALLER DUP2 PUSH1 0x40 MLOAD PUSH32 0x51D6E6F700000000000000000000000000000000000000000000000000000000 DUP2 MSTORE PUSH1 0x4 ADD PUSH2 0x1005 SWAP3 SWAP2 SWAP1 PUSH2 0x8F1C JUMP JUMPDEST PUSH1 0x40 MLOAD DUP1 SWAP2 SUB SWAP1 REVERT JUMPDEST PUSH1 0x1 PUSH1 0x36 SLOAD PUSH2 0x101D SWAP2 SWAP1 PUSH2 0x8F74 JUMP JUMPDEST DUP5 EQ PUSH2 0x1070 JUMPI DUP4 PUSH1 0x1 PUSH1 0x36 SLOAD PUSH2 0x1033 SWAP2 SWAP1 PUSH2 0x8F74 JUMP JUMPDEST PUSH1 0x40 MLOAD PUSH32 0x75F4166700000000000000000000000000000000000000000000000000000000 DUP2 MSTORE PUSH1 0x4 ADD PUSH2 0x1067 SWAP3 SWAP2 SWAP1 PUSH2 0x8FCA JUMP JUMPDEST PUSH1 0x40 MLOAD DUP1 SWAP2 SUB SWAP1 REVERT JUMPDEST PUSH1 0x36 PUSH1 0x0 DUP2 SLOAD DUP1 SWAP3 SWAP2 SWAP1 PUSH2 0x1083 SWAP1 PUSH2 0x8FF3 JUMP JUMPDEST SWAP2 SWAP1 POP SSTORE POP PUSH1 0x0 PUSH1 0x37 PUSH1 0x0 PUSH32 0x2605B3C700000000000000000000000000000000000000000000000000000000 PUSH28 0xFFFFFFFFFFFFFFFFFFFFFFFFFFFFFFFFFFFFFFFFFFFFFFFFFFFFFFFF NOT AND PUSH28 0xFFFFFFFFFFFFFFFFFFFFFFFFFFFFFFFFFFFFFFFFFFFFFFFFFFFFFFFF NOT AND DUP2 MSTORE PUSH1 0x20 ADD SWAP1 DUP2 MSTORE PUSH1 0x20 ADD PUSH1 0x0 KECCAK256 PUSH1 0x0 PUSH2 0x100 EXP DUP2 SLOAD DUP2 PUSH1 0xFF MUL NOT AND SWAP1 DUP4 ISZERO ISZERO MUL OR SWAP1 SSTORE POP PUSH1 0x1 PUSH1 0x37 PUSH1 0x0 PUSH32 0x70EC42E800000000000000000000000000000000000000000000000000000000 PUSH28 0xFFFFFFFFFFFFFFFFFFFFFFFFFFFFFFFFFFFFFFFFFFFFFFFFFFFFFFFF NOT AND PUSH28 0xFFFFFFFFFFFFFFFFFFFFFFFFFFFFFFFFFFFFFFFFFFFFFFFFFFFFFFFF NOT AND DUP2 MSTORE PUSH1 0x20 ADD SWAP1 DUP2 MSTORE PUSH1 0x20 ADD PUSH1 0x0 KECCAK256 PUSH1 0x0 PUSH2 0x100 EXP DUP2 SLOAD DUP2 PUSH1 0xFF MUL NOT AND SWAP1 DUP4 ISZERO ISZERO MUL OR SWAP1 SSTORE POP PUSH1 0x1 PUSH1 0x37 PUSH1 0x0 PUSH32 0x94105BCF00000000000000000000000000000000000000000000000000000000 PUSH28 0xFFFFFFFFFFFFFFFFFFFFFFFFFFFFFFFFFFFFFFFFFFFFFFFFFFFFFFFF NOT AND PUSH28 0xFFFFFFFFFFFFFFFFFFFFFFFFFFFFFFFFFFFFFFFFFFFFFFFFFFFFFFFF NOT AND DUP2 MSTORE PUSH1 0x20 ADD SWAP1 DUP2 MSTORE PUSH1 0x20 ADD PUSH1 0x0 KECCAK256 PUSH1 0x0 PUSH2 0x100 EXP DUP2 SLOAD DUP2 PUSH1 0xFF MUL NOT AND SWAP1 DUP4 ISZERO ISZERO MUL OR SWAP1 SSTORE POP PUSH1 0x0 DUP1 DUP5 DUP5 DUP2 ADD SWAP1 PUSH2 0x1238 SWAP2 SWAP1 PUSH2 0x907A JUMP JUMPDEST PUSH2 0x16F PUSH1 0x0 PUSH2 0x170 PUSH1 0x0 DUP5 SWAP9 POP DUP6 SWAP10 POP DUP7 SWAP2 SWAP1 PUSH2 0x100 EXP DUP2 SLOAD DUP2 PUSH20 0xFFFFFFFFFFFFFFFFFFFFFFFFFFFFFFFFFFFFFFFF MUL NOT AND SWAP1 DUP4 PUSH20 0xFFFFFFFFFFFFFFFFFFFFFFFFFFFFFFFFFFFFFFFF AND MUL OR SWAP1 SSTORE POP DUP6 SWAP2 SWAP1 PUSH2 0x100 EXP DUP2 SLOAD DUP2 PUSH20 0xFFFFFFFFFFFFFFFFFFFFFFFFFFFFFFFFFFFFFFFF MUL NOT AND SWAP1 DUP4 PUSH20 0xFFFFFFFFFFFFFFFFFFFFFFFFFFFFFFFFFFFFFFFF AND MUL OR SWAP1 SSTORE POP POP POP POP POP PUSH2 0x12D3 DUP3 PUSH2 0x53A7 JUMP JUMPDEST PUSH2 0x12FF DUP2 PUSH1 0x4 PUSH32 0xFEE0F3F6D95202B4D5EAD81DB126B56790020C84B536331F8F9E5155446B1895 PUSH2 0x53DC JUMP JUMPDEST PUSH1 0x1 PUSH2 0x16E PUSH1 0x0 DUP4 PUSH20 0xFFFFFFFFFFFFFFFFFFFFFFFFFFFFFFFFFFFFFFFF AND PUSH20 0xFFFFFFFFFFFFFFFFFFFFFFFFFFFFFFFFFFFFFFFF AND DUP2 MSTORE PUSH1 0x20 ADD SWAP1 DUP2 MSTORE PUSH1 0x20 ADD PUSH1 0x0 KECCAK256 PUSH1 0x0 PUSH2 0x100 EXP DUP2 SLOAD DUP2 PUSH1 0xFF MUL NOT AND SWAP1 DUP4 PUSH1 0x2 DUP2 GT ISZERO PUSH2 0x1363 JUMPI PUSH2 0x1362 PUSH2 0x804D JUMP JUMPDEST JUMPDEST MUL OR SWAP1 SSTORE POP PUSH4 0x5BE59CC0 PUSH1 0xE0 SHL PUSH2 0x176 PUSH1 0x0 PUSH2 0x100 PUSH1 0x0 PUSH1 0x3 DUP2 GT ISZERO PUSH2 0x138C JUMPI PUSH2 0x138B PUSH2 0x804D JUMP JUMPDEST JUMPDEST XOR PUSH2 0xFFFF AND PUSH2 0xFFFF AND DUP2 MSTORE PUSH1 0x20 ADD SWAP1 DUP2 MSTORE PUSH1 0x20 ADD PUSH1 0x0 KECCAK256 PUSH1 0x0 PUSH2 0x100 EXP DUP2 SLOAD DUP2 PUSH4 0xFFFFFFFF MUL NOT AND SWAP1 DUP4 PUSH1 0xE0 SHR MUL OR SWAP1 SSTORE POP PUSH4 0xE9F4741A PUSH1 0xE0 SHL PUSH2 0x176 PUSH1 0x0 PUSH2 0x100 PUSH1 0x1 PUSH1 0x3 DUP2 GT ISZERO PUSH2 0x13E2 JUMPI PUSH2 0x13E1 PUSH2 0x804D JUMP JUMPDEST JUMPDEST XOR PUSH2 0xFFFF AND PUSH2 0xFFFF AND DUP2 MSTORE PUSH1 0x20 ADD SWAP1 DUP2 MSTORE PUSH1 0x20 ADD PUSH1 0x0 KECCAK256 PUSH1 0x0 PUSH2 0x100 EXP DUP2 SLOAD DUP2 PUSH4 0xFFFFFFFF MUL NOT AND SWAP1 DUP4 PUSH1 0xE0 SHR MUL OR SWAP1 SSTORE POP PUSH4 0x8FFF0FED PUSH1 0xE0 SHL PUSH2 0x176 PUSH1 0x0 PUSH2 0x100 PUSH1 0x2 PUSH1 0x3 DUP2 GT ISZERO PUSH2 0x1438 JUMPI PUSH2 0x1437 PUSH2 0x804D JUMP JUMPDEST JUMPDEST XOR PUSH2 0xFFFF AND PUSH2 0xFFFF AND DUP2 MSTORE PUSH1 0x20 ADD SWAP1 DUP2 MSTORE PUSH1 0x20 ADD PUSH1 0x0 KECCAK256 PUSH1 0x0 PUSH2 0x100 EXP DUP2 SLOAD DUP2 PUSH4 0xFFFFFFFF MUL NOT AND SWAP1 DUP4 PUSH1 0xE0 SHR MUL OR SWAP1 SSTORE POP PUSH4 0x9F30834B PUSH1 0xE0 SHL PUSH2 0x176 PUSH1 0x0 DUP1 PUSH1 0x4 DUP2 GT ISZERO PUSH2 0x148A JUMPI PUSH2 0x1489 PUSH2 0x804D JUMP JUMPDEST JUMPDEST PUSH2 0xFFFF AND PUSH2 0xFFFF AND DUP2 MSTORE PUSH1 0x20 ADD SWAP1 DUP2 MSTORE PUSH1 0x20 ADD PUSH1 0x0 KECCAK256 PUSH1 0x0 PUSH2 0x100 EXP DUP2 SLOAD DUP2 PUSH4 0xFFFFFFFF MUL NOT AND SWAP1 DUP4 PUSH1 0xE0 SHR MUL OR SWAP1 SSTORE POP PUSH4 0x613B1115 PUSH1 0xE0 SHL PUSH2 0x176 PUSH1 0x0 PUSH1 0x2 PUSH1 0x4 DUP2 GT ISZERO PUSH2 0x14DC JUMPI PUSH2 0x14DB PUSH2 0x804D JUMP JUMPDEST JUMPDEST PUSH2 0xFFFF AND PUSH2 0xFFFF AND DUP2 MSTORE PUSH1 0x20 ADD SWAP1 DUP2 MSTORE PUSH1 0x20 ADD PUSH1 0x0 KECCAK256 PUSH1 0x0 PUSH2 0x100 EXP DUP2 SLOAD DUP2 PUSH4 0xFFFFFFFF MUL NOT AND SWAP1 DUP4 PUSH1 0xE0 SHR MUL OR SWAP1 SSTORE POP PUSH4 0x9738B5EE PUSH1 0xE0 SHL PUSH2 0x176 PUSH1 0x0 PUSH1 0x4 DUP1 DUP2 GT ISZERO PUSH2 0x152D JUMPI PUSH2 0x152C PUSH2 0x804D JUMP JUMPDEST JUMPDEST PUSH2 0xFFFF AND PUSH2 0xFFFF AND DUP2 MSTORE PUSH1 0x20 ADD SWAP1 DUP2 MSTORE PUSH1 0x20 ADD PUSH1 0x0 KECCAK256 PUSH1 0x0 PUSH2 0x100 EXP DUP2 SLOAD DUP2 PUSH4 0xFFFFFFFF MUL NOT AND SWAP1 DUP4 PUSH1 0xE0 SHR MUL OR SWAP1 SSTORE POP PUSH3 0x93A80 PUSH1 0x9C PUSH1 0x14 PUSH2 0x100 EXP DUP2 SLOAD DUP2 PUSH8 0xFFFFFFFFFFFFFFFF MUL NOT AND SWAP1 DUP4 PUSH8 0xFFFFFFFFFFFFFFFF AND MUL OR SWAP1 SSTORE POP POP POP POP POP POP POP JUMP JUMPDEST PUSH1 0x0 PUSH1 0x2 PUSH1 0x7 DUP2 GT ISZERO PUSH2 0x15A8 JUMPI PUSH2 0x15A7 PUSH2 0x804D JUMP JUMPDEST JUMPDEST PUSH1 0xFF AND PUSH2 0x16D PUSH1 0x0 DUP5 PUSH20 0xFFFFFFFFFFFFFFFFFFFFFFFFFFFFFFFFFFFFFFFF AND PUSH20 0xFFFFFFFFFFFFFFFFFFFFFFFFFFFFFFFFFFFFFFFF AND DUP2 MSTORE PUSH1 0x20 ADD SWAP1 DUP2 MSTORE PUSH1 0x20 ADD PUSH1 0x0 KECCAK256 PUSH1 0x0 SWAP1 SLOAD SWAP1 PUSH2 0x100 EXP SWAP1 DIV PUSH1 0xFF AND PUSH1 0x7 DUP2 GT ISZERO PUSH2 0x160B JUMPI PUSH2 0x160A PUSH2 0x804D JUMP JUMPDEST JUMPDEST PUSH1 0xFF AND LT ISZERO SWAP1 POP SWAP2 SWAP1 POP JUMP JUMPDEST PUSH2 0x175 PUSH1 0x20 MSTORE DUP1 PUSH1 0x0 MSTORE PUSH1 0x40 PUSH1 0x0 KECCAK256 PUSH1 0x0 SWAP2 POP SWAP1 POP SLOAD DUP2 JUMP JUMPDEST PUSH1 0x36 SLOAD DUP2 JUMP JUMPDEST PUSH1 0x0 PUSH1 0x7 DUP2 GT ISZERO PUSH2 0x164A JUMPI PUSH2 0x1649 PUSH2 0x804D JUMP JUMPDEST JUMPDEST DUP6 PUSH1 0x7 DUP2 GT ISZERO PUSH2 0x165D JUMPI PUSH2 0x165C PUSH2 0x804D JUMP JUMPDEST JUMPDEST EQ DUP1 ISZERO PUSH2 0x169D JUMPI POP PUSH1 0xA0 PUSH1 0x0 DUP6 PUSH20 0xFFFFFFFFFFFFFFFFFFFFFFFFFFFFFFFFFFFFFFFF AND DUP2 MSTORE PUSH1 0x20 ADD SWAP1 DUP2 MSTORE PUSH1 0x20 ADD PUSH1 0x0 KECCAK256 PUSH1 0x0 SWAP1 SLOAD SWAP1 PUSH2 0x100 EXP SWAP1 DIV PUSH1 0xFF AND JUMPDEST ISZERO PUSH2 0x1814 JUMPI PUSH1 0x0 PUSH2 0x171 PUSH1 0x0 DUP7 PUSH20 0xFFFFFFFFFFFFFFFFFFFFFFFFFFFFFFFFFFFFFFFF AND DUP2 MSTORE PUSH1 0x20 ADD SWAP1 DUP2 MSTORE PUSH1 0x20 ADD PUSH1 0x0 KECCAK256 PUSH1 0x0 ADD PUSH1 0x1 SWAP1 SLOAD SWAP1 PUSH2 0x100 EXP SWAP1 DIV PUSH20 0xFFFFFFFFFFFFFFFFFFFFFFFFFFFFFFFFFFFFFFFF AND SWAP1 POP PUSH1 0x0 PUSH20 0xFFFFFFFFFFFFFFFFFFFFFFFFFFFFFFFFFFFFFFFF AND DUP2 PUSH20 0xFFFFFFFFFFFFFFFFFFFFFFFFFFFFFFFFFFFFFFFF AND EQ ISZERO PUSH2 0x1766 JUMPI DUP5 PUSH1 0x40 MLOAD PUSH32 0xA57E640E00000000000000000000000000000000000000000000000000000000 DUP2 MSTORE PUSH1 0x4 ADD PUSH2 0x175D SWAP2 SWAP1 PUSH2 0x845F JUMP JUMPDEST PUSH1 0x40 MLOAD DUP1 SWAP2 SUB SWAP1 REVERT JUMPDEST PUSH2 0x171 PUSH1 0x0 DUP7 PUSH20 0xFFFFFFFFFFFFFFFFFFFFFFFFFFFFFFFFFFFFFFFF AND DUP2 MSTORE PUSH1 0x20 ADD SWAP1 DUP2 MSTORE PUSH1 0x20 ADD PUSH1 0x0 KECCAK256 PUSH1 0x0 ADD PUSH1 0x0 SWAP1 SLOAD SWAP1 PUSH2 0x100 EXP SWAP1 DIV PUSH1 0xFF AND SWAP6 POP PUSH2 0x171 PUSH1 0x0 DUP7 PUSH20 0xFFFFFFFFFFFFFFFFFFFFFFFFFFFFFFFFFFFFFFFF AND DUP2 MSTORE PUSH1 0x20 ADD SWAP1 DUP2 MSTORE PUSH1 0x20 ADD PUSH1 0x0 KECCAK256 PUSH1 0x0 DUP1 DUP3 ADD PUSH1 0x0 PUSH2 0x100 EXP DUP2 SLOAD SWAP1 PUSH1 0xFF MUL NOT AND SWAP1 SSTORE PUSH1 0x0 DUP3 ADD PUSH1 0x1 PUSH2 0x100 EXP DUP2 SLOAD SWAP1 PUSH20 0xFFFFFFFFFFFFFFFFFFFFFFFFFFFFFFFFFFFFFFFF MUL NOT AND SWAP1 SSTORE POP POP DUP1 SWAP5 POP POP PUSH2 0x18B0 JUMP JUMPDEST PUSH1 0x6 PUSH1 0x7 DUP2 GT ISZERO PUSH2 0x1828 JUMPI PUSH2 0x1827 PUSH2 0x804D JUMP JUMPDEST JUMPDEST DUP6 PUSH1 0x7 DUP2 GT ISZERO PUSH2 0x183B JUMPI PUSH2 0x183A PUSH2 0x804D JUMP JUMPDEST JUMPDEST EQ ISZERO DUP1 ISZERO PUSH2 0x186D JUMPI POP PUSH1 0x7 DUP1 DUP2 GT ISZERO PUSH2 0x1857 JUMPI PUSH2 0x1856 PUSH2 0x804D JUMP JUMPDEST JUMPDEST DUP6 PUSH1 0x7 DUP2 GT ISZERO PUSH2 0x186A JUMPI PUSH2 0x1869 PUSH2 0x804D JUMP JUMPDEST JUMPDEST EQ ISZERO JUMPDEST ISZERO PUSH2 0x18AF JUMPI DUP5 PUSH1 0x40 MLOAD PUSH32 0xB22CDB5E00000000000000000000000000000000000000000000000000000000 DUP2 MSTORE PUSH1 0x4 ADD PUSH2 0x18A6 SWAP2 SWAP1 PUSH2 0x80C4 JUMP JUMPDEST PUSH1 0x40 MLOAD DUP1 SWAP2 SUB SWAP1 REVERT JUMPDEST JUMPDEST PUSH1 0x0 PUSH2 0x1957 PUSH2 0x190D PUSH32 0x37B2BAA58F577C76B3BBE989BA951144CF2E89EB6859EBC64E743B4CD3B4BF32 DUP9 DUP9 DUP9 PUSH1 0x0 PUSH1 0x40 MLOAD PUSH1 0x20 ADD PUSH2 0x18F2 SWAP6 SWAP5 SWAP4 SWAP3 SWAP2 SWAP1 PUSH2 0x911C JUMP JUMPDEST PUSH1 0x40 MLOAD PUSH1 0x20 DUP2 DUP4 SUB SUB DUP2 MSTORE SWAP1 PUSH1 0x40 MSTORE DUP1 MLOAD SWAP1 PUSH1 0x20 ADD KECCAK256 PUSH2 0x5479 JUMP JUMPDEST DUP5 DUP5 DUP1 DUP1 PUSH1 0x1F ADD PUSH1 0x20 DUP1 SWAP2 DIV MUL PUSH1 0x20 ADD PUSH1 0x40 MLOAD SWAP1 DUP2 ADD PUSH1 0x40 MSTORE DUP1 SWAP4 SWAP3 SWAP2 SWAP1 DUP2 DUP2 MSTORE PUSH1 0x20 ADD DUP4 DUP4 DUP1 DUP3 DUP5 CALLDATACOPY PUSH1 0x0 DUP2 DUP5 ADD MSTORE PUSH1 0x1F NOT PUSH1 0x1F DUP3 ADD AND SWAP1 POP DUP1 DUP4 ADD SWAP3 POP POP POP POP POP POP POP PUSH2 0x5493 JUMP JUMPDEST SWAP1 POP PUSH1 0x3 PUSH1 0x7 DUP2 GT ISZERO PUSH2 0x196D JUMPI PUSH2 0x196C PUSH2 0x804D JUMP JUMPDEST JUMPDEST PUSH2 0x16D PUSH1 0x0 DUP4 PUSH20 0xFFFFFFFFFFFFFFFFFFFFFFFFFFFFFFFFFFFFFFFF AND PUSH20 0xFFFFFFFFFFFFFFFFFFFFFFFFFFFFFFFFFFFFFFFF AND DUP2 MSTORE PUSH1 0x20 ADD SWAP1 DUP2 MSTORE PUSH1 0x20 ADD PUSH1 0x0 KECCAK256 PUSH1 0x0 SWAP1 SLOAD SWAP1 PUSH2 0x100 EXP SWAP1 DIV PUSH1 0xFF AND PUSH1 0x7 DUP2 GT ISZERO PUSH2 0x19CD JUMPI PUSH2 0x19CC PUSH2 0x804D JUMP JUMPDEST JUMPDEST EQ PUSH2 0x1A5E JUMPI DUP1 PUSH2 0x16D PUSH1 0x0 DUP4 PUSH20 0xFFFFFFFFFFFFFFFFFFFFFFFFFFFFFFFFFFFFFFFF AND PUSH20 0xFFFFFFFFFFFFFFFFFFFFFFFFFFFFFFFFFFFFFFFF AND DUP2 MSTORE PUSH1 0x20 ADD SWAP1 DUP2 MSTORE PUSH1 0x20 ADD PUSH1 0x0 KECCAK256 PUSH1 0x0 SWAP1 SLOAD SWAP1 PUSH2 0x100 EXP SWAP1 DIV PUSH1 0xFF AND PUSH1 0x40 MLOAD PUSH32 0x947EBCA800000000000000000000000000000000000000000000000000000000 DUP2 MSTORE PUSH1 0x4 ADD PUSH2 0x1A55 SWAP3 SWAP2 SWAP1 PUSH2 0x916F JUMP JUMPDEST PUSH1 0x40 MLOAD DUP1 SWAP2 SUB SWAP1 REVERT JUMPDEST PUSH1 0x0 PUSH1 0x7 DUP2 GT ISZERO PUSH2 0x1A72 JUMPI PUSH2 0x1A71 PUSH2 0x804D JUMP JUMPDEST JUMPDEST PUSH2 0x16D PUSH1 0x0 DUP8 PUSH20 0xFFFFFFFFFFFFFFFFFFFFFFFFFFFFFFFFFFFFFFFF AND PUSH20 0xFFFFFFFFFFFFFFFFFFFFFFFFFFFFFFFFFFFFFFFF AND DUP2 MSTORE PUSH1 0x20 ADD SWAP1 DUP2 MSTORE PUSH1 0x20 ADD PUSH1 0x0 KECCAK256 PUSH1 0x0 SWAP1 SLOAD SWAP1 PUSH2 0x100 EXP SWAP1 DIV PUSH1 0xFF AND PUSH1 0x7 DUP2 GT ISZERO PUSH2 0x1AD2 JUMPI PUSH2 0x1AD1 PUSH2 0x804D JUMP JUMPDEST JUMPDEST EQ PUSH2 0x1B14 JUMPI DUP5 PUSH1 0x40 MLOAD PUSH32 0xA57E640E00000000000000000000000000000000000000000000000000000000 DUP2 MSTORE PUSH1 0x4 ADD PUSH2 0x1B0B SWAP2 SWAP1 PUSH2 0x845F JUMP JUMPDEST PUSH1 0x40 MLOAD DUP1 SWAP2 SUB SWAP1 REVERT JUMPDEST PUSH2 0x1B1F DUP6 DUP8 DUP7 PUSH2 0x54BA JUMP JUMPDEST PUSH1 0x4 PUSH1 0x7 DUP2 GT ISZERO PUSH2 0x1B33 JUMPI PUSH2 0x1B32 PUSH2 0x804D JUMP JUMPDEST JUMPDEST DUP7 PUSH1 0x7 DUP2 GT ISZERO PUSH2 0x1B46 JUMPI PUSH2 0x1B45 PUSH2 0x804D JUMP JUMPDEST JUMPDEST EQ ISZERO PUSH2 0x1BB6 JUMPI PUSH1 0x1 PUSH2 0x16E PUSH1 0x0 DUP8 PUSH20 0xFFFFFFFFFFFFFFFFFFFFFFFFFFFFFFFFFFFFFFFF AND PUSH20 0xFFFFFFFFFFFFFFFFFFFFFFFFFFFFFFFFFFFFFFFF AND DUP2 MSTORE PUSH1 0x20 ADD SWAP1 DUP2 MSTORE PUSH1 0x20 ADD PUSH1 0x0 KECCAK256 PUSH1 0x0 PUSH2 0x100 EXP DUP2 SLOAD DUP2 PUSH1 0xFF MUL NOT AND SWAP1 DUP4 PUSH1 0x2 DUP2 GT ISZERO PUSH2 0x1BB0 JUMPI PUSH2 0x1BAF PUSH2 0x804D JUMP JUMPDEST JUMPDEST MUL OR SWAP1 SSTORE POP JUMPDEST POP POP POP POP POP POP JUMP JUMPDEST PUSH1 0x0 PUSH2 0x1BE2 PUSH2 0x100 PUSH1 0x0 PUSH1 0x3 DUP2 GT ISZERO PUSH2 0x1BDA JUMPI PUSH2 0x1BD9 PUSH2 0x804D JUMP JUMPDEST JUMPDEST OR DUP5 DUP5 PUSH2 0x50AB JUMP JUMPDEST SWAP1 POP SWAP3 SWAP2 POP POP JUMP JUMPDEST PUSH2 0x105 PUSH1 0x0 SWAP1 SLOAD SWAP1 PUSH2 0x100 EXP SWAP1 DIV PUSH1 0xFF AND DUP2 JUMP JUMPDEST PUSH2 0x170 PUSH1 0x0 SWAP1 SLOAD SWAP1 PUSH2 0x100 EXP SWAP1 DIV PUSH20 0xFFFFFFFFFFFFFFFFFFFFFFFFFFFFFFFFFFFFFFFF AND DUP2 JUMP JUMPDEST PUSH2 0x16F PUSH1 0x0 SWAP1 SLOAD SWAP1 PUSH2 0x100 EXP SWAP1 DIV PUSH20 0xFFFFFFFFFFFFFFFFFFFFFFFFFFFFFFFFFFFFFFFF AND DUP2 JUMP JUMPDEST PUSH1 0x0 PUSH1 0x9E SLOAD SWAP1 POP SWAP1 JUMP JUMPDEST PUSH1 0x0 PUSH2 0x1C77 PUSH1 0x1 PUSH1 0x3 DUP2 GT ISZERO PUSH2 0x1C6F JUMPI PUSH2 0x1C6E PUSH2 0x804D JUMP JUMPDEST JUMPDEST PUSH1 0x0 DUP5 PUSH2 0x50AB JUMP JUMPDEST SWAP1 POP PUSH1 0x40 MLOAD DUP1 PUSH1 0x60 ADD PUSH1 0x40 MSTORE DUP1 DUP7 PUSH20 0xFFFFFFFFFFFFFFFFFFFFFFFFFFFFFFFFFFFFFFFF AND DUP2 MSTORE PUSH1 0x20 ADD DUP6 ISZERO ISZERO DUP2 MSTORE PUSH1 0x20 ADD DUP5 DUP2 MSTORE POP PUSH2 0x172 PUSH1 0x0 DUP4 DUP2 MSTORE PUSH1 0x20 ADD SWAP1 DUP2 MSTORE PUSH1 0x20 ADD PUSH1 0x0 KECCAK256 PUSH1 0x0 DUP3 ADD MLOAD DUP2 PUSH1 0x0 ADD PUSH1 0x0 PUSH2 0x100 EXP DUP2 SLOAD DUP2 PUSH20 0xFFFFFFFFFFFFFFFFFFFFFFFFFFFFFFFFFFFFFFFF MUL NOT AND SWAP1 DUP4 PUSH20 0xFFFFFFFFFFFFFFFFFFFFFFFFFFFFFFFFFFFFFFFF AND MUL OR SWAP1 SSTORE POP PUSH1 0x20 DUP3 ADD MLOAD DUP2 PUSH1 0x0 ADD PUSH1 0x14 PUSH2 0x100 EXP DUP2 SLOAD DUP2 PUSH1 0xFF MUL NOT AND SWAP1 DUP4 ISZERO ISZERO MUL OR SWAP1 SSTORE POP PUSH1 0x40 DUP3 ADD MLOAD DUP2 PUSH1 0x1 ADD SSTORE SWAP1 POP POP PUSH1 0x1 PUSH1 0x2 DUP2 GT ISZERO PUSH2 0x1D48 JUMPI PUSH2 0x1D47 PUSH2 0x804D JUMP JUMPDEST JUMPDEST PUSH2 0x16E PUSH1 0x0 DUP8 PUSH20 0xFFFFFFFFFFFFFFFFFFFFFFFFFFFFFFFFFFFFFFFF AND PUSH20 0xFFFFFFFFFFFFFFFFFFFFFFFFFFFFFFFFFFFFFFFF AND DUP2 MSTORE PUSH1 0x20 ADD SWAP1 DUP2 MSTORE PUSH1 0x20 ADD PUSH1 0x0 KECCAK256 PUSH1 0x0 SWAP1 SLOAD SWAP1 PUSH2 0x100 EXP SWAP1 DIV PUSH1 0xFF AND PUSH1 0x2 DUP2 GT ISZERO PUSH2 0x1DA8 JUMPI PUSH2 0x1DA7 PUSH2 0x804D JUMP JUMPDEST JUMPDEST LT ISZERO PUSH2 0x1E3A JUMPI DUP5 PUSH2 0x16E PUSH1 0x0 DUP8 PUSH20 0xFFFFFFFFFFFFFFFFFFFFFFFFFFFFFFFFFFFFFFFF AND PUSH20 0xFFFFFFFFFFFFFFFFFFFFFFFFFFFFFFFFFFFFFFFF AND DUP2 MSTORE PUSH1 0x20 ADD SWAP1 DUP2 MSTORE PUSH1 0x20 ADD PUSH1 0x0 KECCAK256 PUSH1 0x0 SWAP1 SLOAD SWAP1 PUSH2 0x100 EXP SWAP1 DIV PUSH1 0xFF AND PUSH1 0x40 MLOAD PUSH32 0xFECB516E00000000000000000000000000000000000000000000000000000000 DUP2 MSTORE PUSH1 0x4 ADD PUSH2 0x1E31 SWAP3 SWAP2 SWAP1 PUSH2 0x9198 JUMP JUMPDEST PUSH1 0x40 MLOAD DUP1 SWAP2 SUB SWAP1 REVERT JUMPDEST DUP4 ISZERO ISZERO DUP6 PUSH20 0xFFFFFFFFFFFFFFFFFFFFFFFFFFFFFFFFFFFFFFFF AND DUP3 PUSH32 0xC8ADDD39F41787290419571C452C76A0F9D6FB24E8B8A4B9E6CBBFFBDAC44EF DUP7 PUSH1 0x40 MLOAD PUSH2 0x1E84 SWAP2 SWAP1 PUSH2 0x824B JUMP JUMPDEST PUSH1 0x40 MLOAD DUP1 SWAP2 SUB SWAP1 LOG4 SWAP5 SWAP4 POP POP POP POP JUMP JUMPDEST PUSH1 0x0 PUSH1 0xA PUSH1 0x9C PUSH1 0x0 SWAP1 SLOAD SWAP1 PUSH2 0x100 EXP SWAP1 DIV PUSH20 0xFFFFFFFFFFFFFFFFFFFFFFFFFFFFFFFFFFFFFFFF AND PUSH20 0xFFFFFFFFFFFFFFFFFFFFFFFFFFFFFFFFFFFFFFFF AND PUSH4 0x70A08231 ADDRESS PUSH1 0x40 MLOAD DUP3 PUSH4 0xFFFFFFFF AND PUSH1 0xE0 SHL DUP2 MSTORE PUSH1 0x4 ADD PUSH2 0x1EF3 SWAP2 SWAP1 PUSH2 0x845F JUMP JUMPDEST PUSH1 0x20 PUSH1 0x40 MLOAD DUP1 DUP4 SUB DUP2 DUP7 DUP1 EXTCODESIZE ISZERO DUP1 ISZERO PUSH2 0x1F0B JUMPI PUSH1 0x0 DUP1 REVERT JUMPDEST POP GAS STATICCALL ISZERO DUP1 ISZERO PUSH2 0x1F1F JUMPI RETURNDATASIZE PUSH1 0x0 DUP1 RETURNDATACOPY RETURNDATASIZE PUSH1 0x0 REVERT JUMPDEST POP POP POP POP PUSH1 0x40 MLOAD RETURNDATASIZE PUSH1 0x1F NOT PUSH1 0x1F DUP3 ADD AND DUP3 ADD DUP1 PUSH1 0x40 MSTORE POP DUP2 ADD SWAP1 PUSH2 0x1F43 SWAP2 SWAP1 PUSH2 0x91D6 JUMP JUMPDEST PUSH1 0x9C PUSH1 0x0 SWAP1 SLOAD SWAP1 PUSH2 0x100 EXP SWAP1 DIV PUSH20 0xFFFFFFFFFFFFFFFFFFFFFFFFFFFFFFFFFFFFFFFF AND PUSH20 0xFFFFFFFFFFFFFFFFFFFFFFFFFFFFFFFFFFFFFFFF AND PUSH4 0x18160DDD PUSH1 0x40 MLOAD DUP2 PUSH4 0xFFFFFFFF AND PUSH1 0xE0 SHL DUP2 MSTORE PUSH1 0x4 ADD PUSH1 0x20 PUSH1 0x40 MLOAD DUP1 DUP4 SUB DUP2 DUP7 DUP1 EXTCODESIZE ISZERO DUP1 ISZERO PUSH2 0x1FAB JUMPI PUSH1 0x0 DUP1 REVERT JUMPDEST POP GAS STATICCALL ISZERO DUP1 ISZERO PUSH2 0x1FBF JUMPI RETURNDATASIZE PUSH1 0x0 DUP1 RETURNDATACOPY RETURNDATASIZE PUSH1 0x0 REVERT JUMPDEST POP POP POP POP PUSH1 0x40 MLOAD RETURNDATASIZE PUSH1 0x1F NOT PUSH1 0x1F DUP3 ADD AND DUP3 ADD DUP1 PUSH1 0x40 MSTORE POP DUP2 ADD SWAP1 PUSH2 0x1FE3 SWAP2 SWAP1 PUSH2 0x91D6 JUMP JUMPDEST PUSH2 0x1FED SWAP2 SWAP1 PUSH2 0x9203 JUMP JUMPDEST PUSH2 0x1FF7 SWAP2 SWAP1 PUSH2 0x9266 JUMP JUMPDEST SWAP1 POP SWAP1 JUMP JUMPDEST PUSH2 0x16E PUSH1 0x20 MSTORE DUP1 PUSH1 0x0 MSTORE PUSH1 0x40 PUSH1 0x0 KECCAK256 PUSH1 0x0 SWAP2 POP SLOAD SWAP1 PUSH2 0x100 EXP SWAP1 DIV PUSH1 0xFF AND DUP2 JUMP JUMPDEST PUSH1 0x35 SLOAD DUP2 JUMP JUMPDEST PUSH1 0x2 DUP4 EQ PUSH2 0x206B JUMPI DUP3 PUSH1 0x2 PUSH1 0x40 MLOAD PUSH32 0x75F4166700000000000000000000000000000000000000000000000000000000 DUP2 MSTORE PUSH1 0x4 ADD PUSH2 0x2062 SWAP3 SWAP2 SWAP1 PUSH2 0x92D2 JUMP JUMPDEST PUSH1 0x40 MLOAD DUP1 SWAP2 SUB SWAP1 REVERT JUMPDEST PUSH1 0x0 DUP1 DUP4 DUP4 DUP2 ADD SWAP1 PUSH2 0x207D SWAP2 SWAP1 PUSH2 0x92FB JUMP JUMPDEST POP SWAP2 POP SWAP2 POP PUSH2 0x20CB PUSH32 0xA72B144F00000000000000000000000000000000000000000000000000000000 DUP4 PUSH20 0xFFFFFFFFFFFFFFFFFFFFFFFFFFFFFFFFFFFFFFFF AND PUSH2 0x5086 SWAP1 SWAP2 SWAP1 PUSH4 0xFFFFFFFF AND JUMP JUMPDEST PUSH2 0x212E JUMPI DUP2 PUSH32 0xA72B144F00000000000000000000000000000000000000000000000000000000 PUSH1 0x40 MLOAD PUSH32 0x8A05A4C600000000000000000000000000000000000000000000000000000000 DUP2 MSTORE PUSH1 0x4 ADD PUSH2 0x2125 SWAP3 SWAP2 SWAP1 PUSH2 0x8DBC JUMP JUMPDEST PUSH1 0x40 MLOAD DUP1 SWAP2 SUB SWAP1 REVERT JUMPDEST PUSH2 0x2177 PUSH32 0x2F79614B00000000000000000000000000000000000000000000000000000000 DUP3 PUSH20 0xFFFFFFFFFFFFFFFFFFFFFFFFFFFFFFFFFFFFFFFF AND PUSH2 0x5086 SWAP1 SWAP2 SWAP1 PUSH4 0xFFFFFFFF AND JUMP JUMPDEST PUSH2 0x21DA JUMPI DUP1 PUSH32 0x2F79614B00000000000000000000000000000000000000000000000000000000 PUSH1 0x40 MLOAD PUSH32 0x8A05A4C600000000000000000000000000000000000000000000000000000000 DUP2 MSTORE PUSH1 0x4 ADD PUSH2 0x21D1 SWAP3 SWAP2 SWAP1 PUSH2 0x8DBC JUMP JUMPDEST PUSH1 0x40 MLOAD DUP1 SWAP2 SUB SWAP1 REVERT JUMPDEST POP POP POP POP POP JUMP JUMPDEST PUSH1 0x9C PUSH1 0x0 SWAP1 SLOAD SWAP1 PUSH2 0x100 EXP SWAP1 DIV PUSH20 0xFFFFFFFFFFFFFFFFFFFFFFFFFFFFFFFFFFFFFFFF AND DUP2 JUMP JUMPDEST PUSH1 0x0 PUSH1 0x9F PUSH1 0x0 DUP4 DUP2 MSTORE PUSH1 0x20 ADD SWAP1 DUP2 MSTORE PUSH1 0x20 ADD PUSH1 0x0 KECCAK256 PUSH1 0x2 ADD PUSH1 0x0 SWAP1 SLOAD SWAP1 PUSH2 0x100 EXP SWAP1 DIV PUSH1 0xD SIGNEXTEND SWAP1 POP SWAP2 SWAP1 POP JUMP JUMPDEST PUSH1 0x9D PUSH1 0x0 SWAP1 SLOAD SWAP1 PUSH2 0x100 EXP SWAP1 DIV PUSH8 0xFFFFFFFFFFFFFFFF AND DUP2 JUMP JUMPDEST PUSH2 0x100 DUP2 JUMP JUMPDEST PUSH1 0x0 DUP1 PUSH1 0x0 SWAP1 POP DUP6 ISZERO PUSH2 0x231C JUMPI PUSH1 0x1 SWAP1 POP PUSH1 0x9C PUSH1 0x0 SWAP1 SLOAD SWAP1 PUSH2 0x100 EXP SWAP1 DIV PUSH20 0xFFFFFFFFFFFFFFFFFFFFFFFFFFFFFFFFFFFFFFFF AND PUSH20 0xFFFFFFFFFFFFFFFFFFFFFFFFFFFFFFFFFFFFFFFF AND DUP9 PUSH20 0xFFFFFFFFFFFFFFFFFFFFFFFFFFFFFFFFFFFFFFFF AND EQ PUSH2 0x231B JUMPI DUP8 PUSH1 0x9C PUSH1 0x0 SWAP1 SLOAD SWAP1 PUSH2 0x100 EXP SWAP1 DIV PUSH20 0xFFFFFFFFFFFFFFFFFFFFFFFFFFFFFFFFFFFFFFFF AND PUSH1 0x40 MLOAD PUSH32 0xA04B197700000000000000000000000000000000000000000000000000000000 DUP2 MSTORE PUSH1 0x4 ADD PUSH2 0x2312 SWAP3 SWAP2 SWAP1 PUSH2 0x8F1C JUMP JUMPDEST PUSH1 0x40 MLOAD DUP1 SWAP2 SUB SWAP1 REVERT JUMPDEST JUMPDEST PUSH1 0x0 DUP6 EQ PUSH2 0x2530 JUMPI ADDRESS PUSH20 0xFFFFFFFFFFFFFFFFFFFFFFFFFFFFFFFFFFFFFFFF AND DUP8 PUSH20 0xFFFFFFFFFFFFFFFFFFFFFFFFFFFFFFFFFFFFFFFF AND EQ PUSH2 0x2396 JUMPI DUP7 ADDRESS PUSH1 0x40 MLOAD PUSH32 0x6818E6200000000000000000000000000000000000000000000000000000000 DUP2 MSTORE PUSH1 0x4 ADD PUSH2 0x238D SWAP3 SWAP2 SWAP1 PUSH2 0x8F1C JUMP JUMPDEST PUSH1 0x40 MLOAD DUP1 SWAP2 SUB SWAP1 REVERT JUMPDEST PUSH2 0x23DF PUSH32 0xE3B2AD6300000000000000000000000000000000000000000000000000000000 DUP10 PUSH20 0xFFFFFFFFFFFFFFFFFFFFFFFFFFFFFFFFFFFFFFFF AND PUSH2 0x5086 SWAP1 SWAP2 SWAP1 PUSH4 0xFFFFFFFF AND JUMP JUMPDEST PUSH2 0x2442 JUMPI DUP8 PUSH32 0xE3B2AD6300000000000000000000000000000000000000000000000000000000 PUSH1 0x40 MLOAD PUSH32 0x8A05A4C600000000000000000000000000000000000000000000000000000000 DUP2 MSTORE PUSH1 0x4 ADD PUSH2 0x2439 SWAP3 SWAP2 SWAP1 PUSH2 0x8DBC JUMP JUMPDEST PUSH1 0x40 MLOAD DUP1 SWAP2 SUB SWAP1 REVERT JUMPDEST PUSH1 0x0 DUP9 PUSH20 0xFFFFFFFFFFFFFFFFFFFFFFFFFFFFFFFFFFFFFFFF AND PUSH4 0x313CE567 PUSH1 0x40 MLOAD DUP2 PUSH4 0xFFFFFFFF AND PUSH1 0xE0 SHL DUP2 MSTORE PUSH1 0x4 ADD PUSH1 0x20 PUSH1 0x40 MLOAD DUP1 DUP4 SUB DUP2 DUP7 DUP1 EXTCODESIZE ISZERO DUP1 ISZERO PUSH2 0x248A JUMPI PUSH1 0x0 DUP1 REVERT JUMPDEST POP GAS STATICCALL ISZERO DUP1 ISZERO PUSH2 0x249E JUMPI RETURNDATASIZE PUSH1 0x0 DUP1 RETURNDATACOPY RETURNDATASIZE PUSH1 0x0 REVERT JUMPDEST POP POP POP POP PUSH1 0x40 MLOAD RETURNDATASIZE PUSH1 0x1F NOT PUSH1 0x1F DUP3 ADD AND DUP3 ADD DUP1 PUSH1 0x40 MSTORE POP DUP2 ADD SWAP1 PUSH2 0x24C2 SWAP2 SWAP1 PUSH2 0x9363 JUMP JUMPDEST PUSH1 0xA PUSH2 0x24CE SWAP2 SWAP1 PUSH2 0x94C3 JUMP JUMPDEST SWAP1 POP DUP5 DUP2 DUP3 DUP8 PUSH2 0x24DE SWAP2 SWAP1 PUSH2 0x950E JUMP JUMPDEST PUSH2 0x24E8 SWAP2 SWAP1 PUSH2 0x953F JUMP JUMPDEST EQ PUSH2 0x252A JUMPI DUP5 PUSH1 0x40 MLOAD PUSH32 0xF658BF1200000000000000000000000000000000000000000000000000000000 DUP2 MSTORE PUSH1 0x4 ADD PUSH2 0x2521 SWAP2 SWAP1 PUSH2 0x824B JUMP JUMPDEST PUSH1 0x40 MLOAD DUP1 SWAP2 SUB SWAP1 REVERT JUMPDEST POP PUSH2 0x256C JUMP JUMPDEST PUSH1 0x0 DUP5 EQ ISZERO PUSH2 0x256B JUMPI PUSH1 0x40 MLOAD PUSH32 0x1F2A200500000000000000000000000000000000000000000000000000000000 DUP2 MSTORE PUSH1 0x4 ADD PUSH1 0x40 MLOAD DUP1 SWAP2 SUB SWAP1 REVERT JUMPDEST JUMPDEST PUSH2 0x258E PUSH2 0x100 PUSH1 0x2 PUSH1 0x3 DUP2 GT ISZERO PUSH2 0x2586 JUMPI PUSH2 0x2585 PUSH2 0x804D JUMP JUMPDEST JUMPDEST OR DUP3 DUP6 PUSH2 0x50AB JUMP JUMPDEST SWAP2 POP PUSH1 0x40 MLOAD DUP1 PUSH1 0xA0 ADD PUSH1 0x40 MSTORE DUP1 DUP10 PUSH20 0xFFFFFFFFFFFFFFFFFFFFFFFFFFFFFFFFFFFFFFFF AND DUP2 MSTORE PUSH1 0x20 ADD DUP9 PUSH20 0xFFFFFFFFFFFFFFFFFFFFFFFFFFFFFFFFFFFFFFFF AND DUP2 MSTORE PUSH1 0x20 ADD DUP8 ISZERO ISZERO DUP2 MSTORE PUSH1 0x20 ADD DUP7 DUP2 MSTORE PUSH1 0x20 ADD DUP6 DUP2 MSTORE POP PUSH2 0x107 PUSH1 0x0 DUP5 DUP2 MSTORE PUSH1 0x20 ADD SWAP1 DUP2 MSTORE PUSH1 0x20 ADD PUSH1 0x0 KECCAK256 PUSH1 0x0 DUP3 ADD MLOAD DUP2 PUSH1 0x0 ADD PUSH1 0x0 PUSH2 0x100 EXP DUP2 SLOAD DUP2 PUSH20 0xFFFFFFFFFFFFFFFFFFFFFFFFFFFFFFFFFFFFFFFF MUL NOT AND SWAP1 DUP4 PUSH20 0xFFFFFFFFFFFFFFFFFFFFFFFFFFFFFFFFFFFFFFFF AND MUL OR SWAP1 SSTORE POP PUSH1 0x20 DUP3 ADD MLOAD DUP2 PUSH1 0x1 ADD PUSH1 0x0 PUSH2 0x100 EXP DUP2 SLOAD DUP2 PUSH20 0xFFFFFFFFFFFFFFFFFFFFFFFFFFFFFFFFFFFFFFFF MUL NOT AND SWAP1 DUP4 PUSH20 0xFFFFFFFFFFFFFFFFFFFFFFFFFFFFFFFFFFFFFFFF AND MUL OR SWAP1 SSTORE POP PUSH1 0x40 DUP3 ADD MLOAD DUP2 PUSH1 0x1 ADD PUSH1 0x14 PUSH2 0x100 EXP DUP2 SLOAD DUP2 PUSH1 0xFF MUL NOT AND SWAP1 DUP4 ISZERO ISZERO MUL OR SWAP1 SSTORE POP PUSH1 0x60 DUP3 ADD MLOAD DUP2 PUSH1 0x2 ADD SSTORE PUSH1 0x80 DUP3 ADD MLOAD DUP2 PUSH1 0x3 ADD SSTORE SWAP1 POP POP DUP7 PUSH20 0xFFFFFFFFFFFFFFFFFFFFFFFFFFFFFFFFFFFFFFFF AND DUP9 PUSH20 0xFFFFFFFFFFFFFFFFFFFFFFFFFFFFFFFFFFFFFFFF AND DUP4 PUSH32 0xD05E10A799DF65BB4C7A900FB77DCB7BE2871D4F3DC3454C3525F098AD281ADC DUP10 DUP10 DUP10 PUSH1 0x40 MLOAD PUSH2 0x2720 SWAP4 SWAP3 SWAP2 SWAP1 PUSH2 0x9599 JUMP JUMPDEST PUSH1 0x40 MLOAD DUP1 SWAP2 SUB SWAP1 LOG4 POP SWAP7 SWAP6 POP POP POP POP POP POP JUMP JUMPDEST PUSH1 0x0 PUSH1 0x9F PUSH1 0x0 DUP4 DUP2 MSTORE PUSH1 0x20 ADD SWAP1 DUP2 MSTORE PUSH1 0x20 ADD PUSH1 0x0 KECCAK256 SWAP1 POP PUSH1 0x1 PUSH1 0x4 DUP2 GT ISZERO PUSH2 0x275E JUMPI PUSH2 0x275D PUSH2 0x804D JUMP JUMPDEST JUMPDEST DUP2 PUSH1 0x0 ADD PUSH1 0x14 SWAP1 SLOAD SWAP1 PUSH2 0x100 EXP SWAP1 DIV PUSH1 0xFF AND PUSH1 0x4 DUP2 GT ISZERO PUSH2 0x2782 JUMPI PUSH2 0x2781 PUSH2 0x804D JUMP JUMPDEST JUMPDEST EQ PUSH2 0x27C4 JUMPI DUP2 PUSH1 0x40 MLOAD PUSH32 0x8166C02700000000000000000000000000000000000000000000000000000000 DUP2 MSTORE PUSH1 0x4 ADD PUSH2 0x27BB SWAP2 SWAP1 PUSH2 0x824B JUMP JUMPDEST PUSH1 0x40 MLOAD DUP1 SWAP2 SUB SWAP1 REVERT JUMPDEST PUSH1 0x0 PUSH1 0x9C PUSH1 0x14 SWAP1 SLOAD SWAP1 PUSH2 0x100 EXP SWAP1 DIV PUSH8 0xFFFFFFFFFFFFFFFF AND DUP3 PUSH1 0x0 ADD PUSH1 0x15 SWAP1 SLOAD SWAP1 PUSH2 0x100 EXP SWAP1 DIV PUSH8 0xFFFFFFFFFFFFFFFF AND PUSH2 0x2800 SWAP2 SWAP1 PUSH2 0x95D0 JUMP JUMPDEST PUSH8 0xFFFFFFFFFFFFFFFF AND SWAP1 POP DUP1 TIMESTAMP LT ISZERO PUSH2 0x2855 JUMPI DUP3 TIMESTAMP DUP3 PUSH1 0x40 MLOAD PUSH32 0x104766B00000000000000000000000000000000000000000000000000000000 DUP2 MSTORE PUSH1 0x4 ADD PUSH2 0x284C SWAP4 SWAP3 SWAP2 SWAP1 PUSH2 0x960E JUMP JUMPDEST PUSH1 0x40 MLOAD DUP1 SWAP2 SUB SWAP1 REVERT JUMPDEST PUSH1 0x0 DUP3 PUSH1 0x0 ADD PUSH1 0x1F SWAP1 SLOAD SWAP1 PUSH2 0x100 EXP SWAP1 DIV PUSH1 0xFF AND ISZERO PUSH2 0x289C JUMPI PUSH1 0x3 DUP4 PUSH1 0x2 ADD PUSH1 0xE SWAP1 SLOAD SWAP1 PUSH2 0x100 EXP SWAP1 DIV PUSH14 0xFFFFFFFFFFFFFFFFFFFFFFFFFFFF AND PUSH2 0x2899 SWAP2 SWAP1 PUSH2 0x9266 JUMP JUMPDEST SWAP1 POP JUMPDEST DUP1 PUSH1 0xD SIGNEXTEND DUP4 PUSH1 0x2 ADD PUSH1 0x0 SWAP1 SLOAD SWAP1 PUSH2 0x100 EXP SWAP1 DIV PUSH1 0xD SIGNEXTEND PUSH1 0xD SIGNEXTEND SGT PUSH2 0x290A JUMPI DUP4 DUP4 PUSH1 0x2 ADD PUSH1 0x0 SWAP1 SLOAD SWAP1 PUSH2 0x100 EXP SWAP1 DIV PUSH1 0xD SIGNEXTEND PUSH1 0x40 MLOAD PUSH32 0x32F8D2CF00000000000000000000000000000000000000000000000000000000 DUP2 MSTORE PUSH1 0x4 ADD PUSH2 0x2901 SWAP3 SWAP2 SWAP1 PUSH2 0x9680 JUMP JUMPDEST PUSH1 0x40 MLOAD DUP1 SWAP2 SUB SWAP1 REVERT JUMPDEST PUSH2 0x2912 PUSH2 0x1E94 JUMP JUMPDEST PUSH14 0xFFFFFFFFFFFFFFFFFFFFFFFFFFFF AND DUP4 PUSH1 0x2 ADD PUSH1 0xE SWAP1 SLOAD SWAP1 PUSH2 0x100 EXP SWAP1 DIV PUSH14 0xFFFFFFFFFFFFFFFFFFFFFFFFFFFF AND PUSH14 0xFFFFFFFFFFFFFFFFFFFFFFFFFFFF AND LT ISZERO PUSH2 0x29BD JUMPI DUP4 DUP4 PUSH1 0x2 ADD PUSH1 0xE SWAP1 SLOAD SWAP1 PUSH2 0x100 EXP SWAP1 DIV PUSH14 0xFFFFFFFFFFFFFFFFFFFFFFFFFFFF AND PUSH2 0x297F PUSH2 0x1E94 JUMP JUMPDEST PUSH1 0x40 MLOAD PUSH32 0x21C1F97D00000000000000000000000000000000000000000000000000000000 DUP2 MSTORE PUSH1 0x4 ADD PUSH2 0x29B4 SWAP4 SWAP3 SWAP2 SWAP1 PUSH2 0x96DA JUMP JUMPDEST PUSH1 0x40 MLOAD DUP1 SWAP2 SUB SWAP1 REVERT JUMPDEST PUSH1 0x2 DUP4 PUSH1 0x0 ADD PUSH1 0x14 PUSH2 0x100 EXP DUP2 SLOAD DUP2 PUSH1 0xFF MUL NOT AND SWAP1 DUP4 PUSH1 0x4 DUP2 GT ISZERO PUSH2 0x29E5 JUMPI PUSH2 0x29E4 PUSH2 0x804D JUMP JUMPDEST JUMPDEST MUL OR SWAP1 SSTORE POP TIMESTAMP DUP4 PUSH1 0x0 ADD PUSH1 0x15 PUSH2 0x100 EXP DUP2 SLOAD DUP2 PUSH8 0xFFFFFFFFFFFFFFFF MUL NOT AND SWAP1 DUP4 PUSH8 0xFFFFFFFFFFFFFFFF AND MUL OR SWAP1 SSTORE POP DUP3 PUSH1 0x0 ADD PUSH1 0x14 SWAP1 SLOAD SWAP1 PUSH2 0x100 EXP SWAP1 DIV PUSH1 0xFF AND PUSH1 0x4 DUP2 GT ISZERO PUSH2 0x2A39 JUMPI PUSH2 0x2A38 PUSH2 0x804D JUMP JUMPDEST JUMPDEST DUP5 PUSH32 0xAE774EE17B72F8C8F4C7144D988D61A4DA4DF057D2B0F9EB733E5A4E3912A8FB PUSH1 0x40 MLOAD PUSH1 0x40 MLOAD DUP1 SWAP2 SUB SWAP1 LOG3 POP POP POP POP JUMP JUMPDEST PUSH1 0x0 PUSH1 0x3 PUSH1 0x7 DUP2 GT ISZERO PUSH2 0x2A82 JUMPI PUSH2 0x2A81 PUSH2 0x804D JUMP JUMPDEST JUMPDEST DUP5 PUSH1 0x7 DUP2 GT ISZERO PUSH2 0x2A95 JUMPI PUSH2 0x2A94 PUSH2 0x804D JUMP JUMPDEST JUMPDEST LT DUP1 PUSH2 0x2AC5 JUMPI POP DUP4 PUSH1 0x7 DUP2 GT ISZERO PUSH2 0x2AAF JUMPI PUSH2 0x2AAE PUSH2 0x804D JUMP JUMPDEST JUMPDEST PUSH1 0x5 PUSH1 0x7 DUP2 GT ISZERO PUSH2 0x2AC3 JUMPI PUSH2 0x2AC2 PUSH2 0x804D JUMP JUMPDEST JUMPDEST LT JUMPDEST ISZERO PUSH2 0x2B07 JUMPI DUP4 PUSH1 0x40 MLOAD PUSH32 0xB22CDB5E00000000000000000000000000000000000000000000000000000000 DUP2 MSTORE PUSH1 0x4 ADD PUSH2 0x2AFE SWAP2 SWAP1 PUSH2 0x80C4 JUMP JUMPDEST PUSH1 0x40 MLOAD DUP1 SWAP2 SUB SWAP1 REVERT JUMPDEST PUSH1 0x0 PUSH1 0x7 DUP2 GT ISZERO PUSH2 0x2B1B JUMPI PUSH2 0x2B1A PUSH2 0x804D JUMP JUMPDEST JUMPDEST PUSH2 0x16D PUSH1 0x0 DUP6 PUSH20 0xFFFFFFFFFFFFFFFFFFFFFFFFFFFFFFFFFFFFFFFF AND PUSH20 0xFFFFFFFFFFFFFFFFFFFFFFFFFFFFFFFFFFFFFFFF AND DUP2 MSTORE PUSH1 0x20 ADD SWAP1 DUP2 MSTORE PUSH1 0x20 ADD PUSH1 0x0 KECCAK256 PUSH1 0x0 SWAP1 SLOAD SWAP1 PUSH2 0x100 EXP SWAP1 DIV PUSH1 0xFF AND PUSH1 0x7 DUP2 GT ISZERO PUSH2 0x2B7B JUMPI PUSH2 0x2B7A PUSH2 0x804D JUMP JUMPDEST JUMPDEST EQ ISZERO DUP1 PUSH2 0x2C2F JUMPI POP PUSH1 0x9C PUSH1 0x0 SWAP1 SLOAD SWAP1 PUSH2 0x100 EXP SWAP1 DIV PUSH20 0xFFFFFFFFFFFFFFFFFFFFFFFFFFFFFFFFFFFFFFFF AND PUSH20 0xFFFFFFFFFFFFFFFFFFFFFFFFFFFFFFFFFFFFFFFF AND PUSH4 0xD936547E DUP5 PUSH1 0x40 MLOAD DUP3 PUSH4 0xFFFFFFFF AND PUSH1 0xE0 SHL DUP2 MSTORE PUSH1 0x4 ADD PUSH2 0x2BDE SWAP2 SWAP1 PUSH2 0x845F JUMP JUMPDEST PUSH1 0x20 PUSH1 0x40 MLOAD DUP1 DUP4 SUB DUP2 DUP7 DUP1 EXTCODESIZE ISZERO DUP1 ISZERO PUSH2 0x2BF6 JUMPI PUSH1 0x0 DUP1 REVERT JUMPDEST POP GAS STATICCALL ISZERO DUP1 ISZERO PUSH2 0x2C0A JUMPI RETURNDATASIZE PUSH1 0x0 DUP1 RETURNDATACOPY RETURNDATASIZE PUSH1 0x0 REVERT JUMPDEST POP POP POP POP PUSH1 0x40 MLOAD RETURNDATASIZE PUSH1 0x1F NOT PUSH1 0x1F DUP3 ADD AND DUP3 ADD DUP1 PUSH1 0x40 MSTORE POP DUP2 ADD SWAP1 PUSH2 0x2C2E SWAP2 SWAP1 PUSH2 0x9726 JUMP JUMPDEST JUMPDEST ISZERO PUSH2 0x2C71 JUMPI DUP3 PUSH1 0x40 MLOAD PUSH32 0xA57E640E00000000000000000000000000000000000000000000000000000000 DUP2 MSTORE PUSH1 0x4 ADD PUSH2 0x2C68 SWAP2 SWAP1 PUSH2 0x845F JUMP JUMPDEST PUSH1 0x40 MLOAD DUP1 SWAP2 SUB SWAP1 REVERT JUMPDEST PUSH2 0x2C90 PUSH1 0x0 PUSH1 0x3 DUP2 GT ISZERO PUSH2 0x2C88 JUMPI PUSH2 0x2C87 PUSH2 0x804D JUMP JUMPDEST JUMPDEST PUSH1 0x0 DUP5 PUSH2 0x50AB JUMP JUMPDEST SWAP1 POP PUSH1 0x40 MLOAD DUP1 PUSH1 0x40 ADD PUSH1 0x40 MSTORE DUP1 DUP6 PUSH1 0x7 DUP2 GT ISZERO PUSH2 0x2CB0 JUMPI PUSH2 0x2CAF PUSH2 0x804D JUMP JUMPDEST JUMPDEST DUP2 MSTORE PUSH1 0x20 ADD DUP5 PUSH20 0xFFFFFFFFFFFFFFFFFFFFFFFFFFFFFFFFFFFFFFFF AND DUP2 MSTORE POP PUSH2 0x171 PUSH1 0x0 DUP4 DUP2 MSTORE PUSH1 0x20 ADD SWAP1 DUP2 MSTORE PUSH1 0x20 ADD PUSH1 0x0 KECCAK256 PUSH1 0x0 DUP3 ADD MLOAD DUP2 PUSH1 0x0 ADD PUSH1 0x0 PUSH2 0x100 EXP DUP2 SLOAD DUP2 PUSH1 0xFF MUL NOT AND SWAP1 DUP4 PUSH1 0x7 DUP2 GT ISZERO PUSH2 0x2D0E JUMPI PUSH2 0x2D0D PUSH2 0x804D JUMP JUMPDEST JUMPDEST MUL OR SWAP1 SSTORE POP PUSH1 0x20 DUP3 ADD MLOAD DUP2 PUSH1 0x0 ADD PUSH1 0x1 PUSH2 0x100 EXP DUP2 SLOAD DUP2 PUSH20 0xFFFFFFFFFFFFFFFFFFFFFFFFFFFFFFFFFFFFFFFF MUL NOT AND SWAP1 DUP4 PUSH20 0xFFFFFFFFFFFFFFFFFFFFFFFFFFFFFFFFFFFFFFFF AND MUL OR SWAP1 SSTORE POP SWAP1 POP POP CALLER PUSH20 0xFFFFFFFFFFFFFFFFFFFFFFFFFFFFFFFFFFFFFFFF AND DUP5 PUSH1 0x7 DUP2 GT ISZERO PUSH2 0x2D87 JUMPI PUSH2 0x2D86 PUSH2 0x804D JUMP JUMPDEST JUMPDEST DUP3 PUSH32 0x95E1E48371ECEB3A97C3E46EC861CB17983AC8B2F0A792043C110AADC54FEC6B DUP7 PUSH1 0x40 MLOAD PUSH2 0x2DB7 SWAP2 SWAP1 PUSH2 0x845F JUMP JUMPDEST PUSH1 0x40 MLOAD DUP1 SWAP2 SUB SWAP1 LOG4 SWAP4 SWAP3 POP POP POP JUMP JUMPDEST PUSH1 0x0 PUSH1 0x9F PUSH1 0x0 DUP6 DUP2 MSTORE PUSH1 0x20 ADD SWAP1 DUP2 MSTORE PUSH1 0x20 ADD PUSH1 0x0 KECCAK256 SWAP1 POP PUSH1 0x0 DUP2 PUSH1 0x0 ADD PUSH1 0x1D SWAP1 SLOAD SWAP1 PUSH2 0x100 EXP SWAP1 DIV PUSH2 0xFFFF AND SWAP1 POP PUSH1 0x2 PUSH1 0x4 DUP2 GT ISZERO PUSH2 0x2E08 JUMPI PUSH2 0x2E07 PUSH2 0x804D JUMP JUMPDEST JUMPDEST DUP3 PUSH1 0x0 ADD PUSH1 0x14 SWAP1 SLOAD SWAP1 PUSH2 0x100 EXP SWAP1 DIV PUSH1 0xFF AND PUSH1 0x4 DUP2 GT ISZERO PUSH2 0x2E2C JUMPI PUSH2 0x2E2B PUSH2 0x804D JUMP JUMPDEST JUMPDEST EQ PUSH2 0x2E81 JUMPI DUP5 DUP3 PUSH1 0x0 ADD PUSH1 0x14 SWAP1 SLOAD SWAP1 PUSH2 0x100 EXP SWAP1 DIV PUSH1 0xFF AND PUSH1 0x40 MLOAD PUSH32 0x59CCB92800000000000000000000000000000000000000000000000000000000 DUP2 MSTORE PUSH1 0x4 ADD PUSH2 0x2E78 SWAP3 SWAP2 SWAP1 PUSH2 0x979B JUMP JUMPDEST PUSH1 0x40 MLOAD DUP1 SWAP2 SUB SWAP1 REVERT JUMPDEST PUSH1 0x0 PUSH1 0x9D PUSH1 0x0 SWAP1 SLOAD SWAP1 PUSH2 0x100 EXP SWAP1 DIV PUSH8 0xFFFFFFFFFFFFFFFF AND DUP4 PUSH1 0x0 ADD PUSH1 0x15 SWAP1 SLOAD SWAP1 PUSH2 0x100 EXP SWAP1 DIV PUSH8 0xFFFFFFFFFFFFFFFF AND PUSH2 0x2EBD SWAP2 SWAP1 PUSH2 0x95D0 JUMP JUMPDEST PUSH8 0xFFFFFFFFFFFFFFFF AND SWAP1 POP DUP1 TIMESTAMP LT ISZERO PUSH2 0x2F12 JUMPI DUP6 TIMESTAMP DUP3 PUSH1 0x40 MLOAD PUSH32 0x40F93BC600000000000000000000000000000000000000000000000000000000 DUP2 MSTORE PUSH1 0x4 ADD PUSH2 0x2F09 SWAP4 SWAP3 SWAP2 SWAP1 PUSH2 0x960E JUMP JUMPDEST PUSH1 0x40 MLOAD DUP1 SWAP2 SUB SWAP1 REVERT JUMPDEST PUSH1 0x9D PUSH1 0x8 SWAP1 SLOAD SWAP1 PUSH2 0x100 EXP SWAP1 DIV PUSH8 0xFFFFFFFFFFFFFFFF AND PUSH8 0xFFFFFFFFFFFFFFFF AND DUP2 PUSH2 0x2F3E SWAP2 SWAP1 PUSH2 0x8F74 JUMP JUMPDEST TIMESTAMP GT ISZERO PUSH2 0x307B JUMPI PUSH1 0x9F PUSH1 0x0 DUP8 DUP2 MSTORE PUSH1 0x20 ADD SWAP1 DUP2 MSTORE PUSH1 0x20 ADD PUSH1 0x0 KECCAK256 PUSH1 0x0 DUP1 DUP3 ADD PUSH1 0x0 PUSH2 0x100 EXP DUP2 SLOAD SWAP1 PUSH20 0xFFFFFFFFFFFFFFFFFFFFFFFFFFFFFFFFFFFFFFFF MUL NOT AND SWAP1 SSTORE PUSH1 0x0 DUP3 ADD PUSH1 0x14 PUSH2 0x100 EXP DUP2 SLOAD SWAP1 PUSH1 0xFF MUL NOT AND SWAP1 SSTORE PUSH1 0x0 DUP3 ADD PUSH1 0x15 PUSH2 0x100 EXP DUP2 SLOAD SWAP1 PUSH8 0xFFFFFFFFFFFFFFFF MUL NOT AND SWAP1 SSTORE PUSH1 0x0 DUP3 ADD PUSH1 0x1D PUSH2 0x100 EXP DUP2 SLOAD SWAP1 PUSH2 0xFFFF MUL NOT AND SWAP1 SSTORE PUSH1 0x0 DUP3 ADD PUSH1 0x1F PUSH2 0x100 EXP DUP2 SLOAD SWAP1 PUSH1 0xFF MUL NOT AND SWAP1 SSTORE PUSH1 0x2 DUP3 ADD PUSH1 0x0 PUSH2 0x100 EXP DUP2 SLOAD SWAP1 PUSH14 0xFFFFFFFFFFFFFFFFFFFFFFFFFFFF MUL NOT AND SWAP1 SSTORE PUSH1 0x2 DUP3 ADD PUSH1 0xE PUSH2 0x100 EXP DUP2 SLOAD SWAP1 PUSH14 0xFFFFFFFFFFFFFFFFFFFFFFFFFFFF MUL NOT AND SWAP1 SSTORE PUSH1 0x2 DUP3 ADD PUSH1 0x1C PUSH2 0x100 EXP DUP2 SLOAD SWAP1 PUSH4 0xFFFFFFFF MUL NOT AND SWAP1 SSTORE POP POP PUSH1 0x4 DUP1 DUP2 GT ISZERO PUSH2 0x3046 JUMPI PUSH2 0x3045 PUSH2 0x804D JUMP JUMPDEST JUMPDEST DUP7 PUSH32 0xAE774EE17B72F8C8F4C7144D988D61A4DA4DF057D2B0F9EB733E5A4E3912A8FB PUSH1 0x40 MLOAD PUSH1 0x40 MLOAD DUP1 SWAP2 SUB SWAP1 LOG3 POP POP POP PUSH2 0x31E6 JUMP JUMPDEST PUSH1 0x9F PUSH1 0x0 DUP8 DUP2 MSTORE PUSH1 0x20 ADD SWAP1 DUP2 MSTORE PUSH1 0x20 ADD PUSH1 0x0 KECCAK256 PUSH1 0x0 DUP1 DUP3 ADD PUSH1 0x0 PUSH2 0x100 EXP DUP2 SLOAD SWAP1 PUSH20 0xFFFFFFFFFFFFFFFFFFFFFFFFFFFFFFFFFFFFFFFF MUL NOT AND SWAP1 SSTORE PUSH1 0x0 DUP3 ADD PUSH1 0x14 PUSH2 0x100 EXP DUP2 SLOAD SWAP1 PUSH1 0xFF MUL NOT AND SWAP1 SSTORE PUSH1 0x0 DUP3 ADD PUSH1 0x15 PUSH2 0x100 EXP DUP2 SLOAD SWAP1 PUSH8 0xFFFFFFFFFFFFFFFF MUL NOT AND SWAP1 SSTORE PUSH1 0x0 DUP3 ADD PUSH1 0x1D PUSH2 0x100 EXP DUP2 SLOAD SWAP1 PUSH2 0xFFFF MUL NOT AND SWAP1 SSTORE PUSH1 0x0 DUP3 ADD PUSH1 0x1F PUSH2 0x100 EXP DUP2 SLOAD SWAP1 PUSH1 0xFF MUL NOT AND SWAP1 SSTORE PUSH1 0x2 DUP3 ADD PUSH1 0x0 PUSH2 0x100 EXP DUP2 SLOAD SWAP1 PUSH14 0xFFFFFFFFFFFFFFFFFFFFFFFFFFFF MUL NOT AND SWAP1 SSTORE PUSH1 0x2 DUP3 ADD PUSH1 0xE PUSH2 0x100 EXP DUP2 SLOAD SWAP1 PUSH14 0xFFFFFFFFFFFFFFFFFFFFFFFFFFFF MUL NOT AND SWAP1 SSTORE PUSH1 0x2 DUP3 ADD PUSH1 0x1C PUSH2 0x100 EXP DUP2 SLOAD SWAP1 PUSH4 0xFFFFFFFF MUL NOT AND SWAP1 SSTORE POP POP PUSH1 0x1 PUSH1 0xA0 PUSH1 0x0 DUP9 DUP2 MSTORE PUSH1 0x20 ADD SWAP1 DUP2 MSTORE PUSH1 0x20 ADD PUSH1 0x0 KECCAK256 PUSH1 0x0 PUSH2 0x100 EXP DUP2 SLOAD DUP2 PUSH1 0xFF MUL NOT AND SWAP1 DUP4 ISZERO ISZERO MUL OR SWAP1 SSTORE POP PUSH1 0x3 PUSH1 0x4 DUP2 GT ISZERO PUSH2 0x31A9 JUMPI PUSH2 0x31A8 PUSH2 0x804D JUMP JUMPDEST JUMPDEST DUP7 PUSH32 0xAE774EE17B72F8C8F4C7144D988D61A4DA4DF057D2B0F9EB733E5A4E3912A8FB PUSH1 0x40 MLOAD PUSH1 0x40 MLOAD DUP1 SWAP2 SUB SWAP1 LOG3 PUSH2 0x31E2 DUP7 DUP4 DUP8 DUP8 PUSH2 0x555B JUMP JUMPDEST POP POP POP JUMPDEST POP POP POP JUMP JUMPDEST PUSH1 0x0 PUSH1 0x2 PUSH1 0x36 SLOAD LT ISZERO PUSH2 0x323A JUMPI PUSH1 0x36 SLOAD PUSH1 0x2 PUSH1 0x40 MLOAD PUSH32 0x19CFB74D00000000000000000000000000000000000000000000000000000000 DUP2 MSTORE PUSH1 0x4 ADD PUSH2 0x3231 SWAP3 SWAP2 SWAP1 PUSH2 0x92D2 JUMP JUMPDEST PUSH1 0x40 MLOAD DUP1 SWAP2 SUB SWAP1 REVERT JUMPDEST PUSH1 0x1 PUSH1 0x2 DUP2 GT ISZERO PUSH2 0x324E JUMPI PUSH2 0x324D PUSH2 0x804D JUMP JUMPDEST JUMPDEST PUSH2 0x16E PUSH1 0x0 CALLER PUSH20 0xFFFFFFFFFFFFFFFFFFFFFFFFFFFFFFFFFFFFFFFF AND PUSH20 0xFFFFFFFFFFFFFFFFFFFFFFFFFFFFFFFFFFFFFFFF AND DUP2 MSTORE PUSH1 0x20 ADD SWAP1 DUP2 MSTORE PUSH1 0x20 ADD PUSH1 0x0 KECCAK256 PUSH1 0x0 SWAP1 SLOAD SWAP1 PUSH2 0x100 EXP SWAP1 DIV PUSH1 0xFF AND PUSH1 0x2 DUP2 GT ISZERO PUSH2 0x32AE JUMPI PUSH2 0x32AD PUSH2 0x804D JUMP JUMPDEST JUMPDEST EQ PUSH2 0x333F JUMPI CALLER PUSH2 0x16E PUSH1 0x0 CALLER PUSH20 0xFFFFFFFFFFFFFFFFFFFFFFFFFFFFFFFFFFFFFFFF AND PUSH20 0xFFFFFFFFFFFFFFFFFFFFFFFFFFFFFFFFFFFFFFFF AND DUP2 MSTORE PUSH1 0x20 ADD SWAP1 DUP2 MSTORE PUSH1 0x20 ADD PUSH1 0x0 KECCAK256 PUSH1 0x0 SWAP1 SLOAD SWAP1 PUSH2 0x100 EXP SWAP1 DIV PUSH1 0xFF AND PUSH1 0x40 MLOAD PUSH32 0xFECB516E00000000000000000000000000000000000000000000000000000000 DUP2 MSTORE PUSH1 0x4 ADD PUSH2 0x3336 SWAP3 SWAP2 SWAP1 PUSH2 0x9198 JUMP JUMPDEST PUSH1 0x40 MLOAD DUP1 SWAP2 SUB SWAP1 REVERT JUMPDEST PUSH1 0x6 DUP10 DUP10 SWAP1 POP LT DUP1 PUSH2 0x3354 JUMPI POP PUSH1 0x40 DUP10 DUP10 SWAP1 POP GT JUMPDEST DUP1 PUSH2 0x3362 JUMPI POP PUSH1 0x2 DUP8 DUP8 SWAP1 POP LT JUMPDEST DUP1 PUSH2 0x3370 JUMPI POP PUSH1 0x5 DUP8 DUP8 SWAP1 POP GT JUMPDEST ISZERO PUSH2 0x33B8 JUMPI DUP9 DUP9 DUP9 DUP9 PUSH1 0x40 MLOAD PUSH32 0xF04731CC00000000000000000000000000000000000000000000000000000000 DUP2 MSTORE PUSH1 0x4 ADD PUSH2 0x33AF SWAP5 SWAP4 SWAP3 SWAP2 SWAP1 PUSH2 0x97F1 JUMP JUMPDEST PUSH1 0x40 MLOAD DUP1 SWAP2 SUB SWAP1 REVERT JUMPDEST PUSH2 0x170 PUSH1 0x0 SWAP1 SLOAD SWAP1 PUSH2 0x100 EXP SWAP1 DIV PUSH20 0xFFFFFFFFFFFFFFFFFFFFFFFFFFFFFFFFFFFFFFFF AND PUSH20 0xFFFFFFFFFFFFFFFFFFFFFFFFFFFFFFFFFFFFFFFF AND PUSH4 0xD32A3D30 DUP12 DUP7 DUP7 PUSH1 0x40 MLOAD DUP5 PUSH4 0xFFFFFFFF AND PUSH1 0xE0 SHL DUP2 MSTORE PUSH1 0x4 ADD PUSH2 0x3418 SWAP4 SWAP3 SWAP2 SWAP1 PUSH2 0x982C JUMP JUMPDEST PUSH1 0x0 PUSH1 0x40 MLOAD DUP1 DUP4 SUB DUP2 DUP7 DUP1 EXTCODESIZE ISZERO DUP1 ISZERO PUSH2 0x3430 JUMPI PUSH1 0x0 DUP1 REVERT JUMPDEST POP GAS STATICCALL ISZERO DUP1 ISZERO PUSH2 0x3444 JUMPI RETURNDATASIZE PUSH1 0x0 DUP1 RETURNDATACOPY RETURNDATASIZE PUSH1 0x0 REVERT JUMPDEST POP POP POP POP PUSH2 0x3467 PUSH1 0x2 PUSH1 0x3 DUP2 GT ISZERO PUSH2 0x345F JUMPI PUSH2 0x345E PUSH2 0x804D JUMP JUMPDEST JUMPDEST PUSH1 0x0 DUP5 PUSH2 0x50AB JUMP JUMPDEST SWAP1 POP PUSH1 0x0 PUSH2 0x173 PUSH1 0x0 DUP4 DUP2 MSTORE PUSH1 0x20 ADD SWAP1 DUP2 MSTORE PUSH1 0x20 ADD PUSH1 0x0 KECCAK256 SWAP1 POP DUP11 DUP2 PUSH1 0x0 ADD PUSH1 0x0 PUSH2 0x100 EXP DUP2 SLOAD DUP2 PUSH1 0xFF MUL NOT AND SWAP1 DUP4 PUSH1 0xFF AND MUL OR SWAP1 SSTORE POP DUP10 DUP10 DUP3 PUSH1 0x3 ADD SWAP2 SWAP1 PUSH2 0x34B1 SWAP3 SWAP2 SWAP1 PUSH2 0x7BEE JUMP JUMPDEST POP DUP8 DUP8 DUP3 PUSH1 0x1 ADD SWAP2 SWAP1 PUSH2 0x34C5 SWAP3 SWAP2 SWAP1 PUSH2 0x7BEE JUMP JUMPDEST POP DUP6 DUP2 PUSH1 0x2 ADD DUP2 SWAP1 SSTORE POP CALLER DUP2 PUSH1 0x0 ADD PUSH1 0x1 PUSH2 0x100 EXP DUP2 SLOAD DUP2 PUSH20 0xFFFFFFFFFFFFFFFFFFFFFFFFFFFFFFFFFFFFFFFF MUL NOT AND SWAP1 DUP4 PUSH20 0xFFFFFFFFFFFFFFFFFFFFFFFFFFFFFFFFFFFFFFFF AND MUL OR SWAP1 SSTORE POP DUP5 DUP5 DUP3 PUSH1 0x4 ADD SWAP2 SWAP1 PUSH2 0x3525 SWAP3 SWAP2 SWAP1 PUSH2 0x7C74 JUMP JUMPDEST POP CALLER PUSH20 0xFFFFFFFFFFFFFFFFFFFFFFFFFFFFFFFFFFFFFFFF AND DUP12 PUSH1 0xFF AND DUP4 PUSH32 0xC5C9CCA3AEDA2E50159DABEE640BADF492A6600BAC4E663F5CC268DB5362059E DUP14 DUP14 DUP14 DUP14 DUP14 DUP14 DUP14 PUSH1 0x40 MLOAD PUSH2 0x357D SWAP8 SWAP7 SWAP6 SWAP5 SWAP4 SWAP3 SWAP2 SWAP1 PUSH2 0x985E JUMP JUMPDEST PUSH1 0x40 MLOAD DUP1 SWAP2 SUB SWAP1 LOG4 POP SWAP10 SWAP9 POP POP POP POP POP POP POP POP POP JUMP JUMPDEST PUSH1 0x0 PUSH1 0x9F PUSH1 0x0 DUP6 DUP2 MSTORE PUSH1 0x20 ADD SWAP1 DUP2 MSTORE PUSH1 0x20 ADD PUSH1 0x0 KECCAK256 SWAP1 POP PUSH1 0x2 PUSH1 0x4 DUP2 GT ISZERO PUSH2 0x35BE JUMPI PUSH2 0x35BD PUSH2 0x804D JUMP JUMPDEST JUMPDEST DUP2 PUSH1 0x0 ADD PUSH1 0x14 SWAP1 SLOAD SWAP1 PUSH2 0x100 EXP SWAP1 DIV PUSH1 0xFF AND PUSH1 0x4 DUP2 GT ISZERO PUSH2 0x35E2 JUMPI PUSH2 0x35E1 PUSH2 0x804D JUMP JUMPDEST JUMPDEST EQ PUSH2 0x3637 JUMPI DUP4 DUP2 PUSH1 0x0 ADD PUSH1 0x14 SWAP1 SLOAD SWAP1 PUSH2 0x100 EXP SWAP1 DIV PUSH1 0xFF AND PUSH1 0x40 MLOAD PUSH32 0x59CCB92800000000000000000000000000000000000000000000000000000000 DUP2 MSTORE PUSH1 0x4 ADD PUSH2 0x362E SWAP3 SWAP2 SWAP1 PUSH2 0x979B JUMP JUMPDEST PUSH1 0x40 MLOAD DUP1 SWAP2 SUB SWAP1 REVERT JUMPDEST PUSH1 0x0 PUSH1 0xA PUSH1 0x9C PUSH1 0x0 SWAP1 SLOAD SWAP1 PUSH2 0x100 EXP SWAP1 DIV PUSH20 0xFFFFFFFFFFFFFFFFFFFFFFFFFFFFFFFFFFFFFFFF AND PUSH20 0xFFFFFFFFFFFFFFFFFFFFFFFFFFFFFFFFFFFFFFFF AND PUSH4 0x8E539E8C DUP5 PUSH1 0x2 ADD PUSH1 0x1C SWAP1 SLOAD SWAP1 PUSH2 0x100 EXP SWAP1 DIV PUSH4 0xFFFFFFFF AND PUSH1 0x40 MLOAD DUP3 PUSH4 0xFFFFFFFF AND PUSH1 0xE0 SHL DUP2 MSTORE PUSH1 0x4 ADD PUSH2 0x36AA SWAP2 SWAP1 PUSH2 0x98EF JUMP JUMPDEST PUSH1 0x20 PUSH1 0x40 MLOAD DUP1 DUP4 SUB DUP2 DUP7 DUP1 EXTCODESIZE ISZERO DUP1 ISZERO PUSH2 0x36C2 JUMPI PUSH1 0x0 DUP1 REVERT JUMPDEST POP GAS STATICCALL ISZERO DUP1 ISZERO PUSH2 0x36D6 JUMPI RETURNDATASIZE PUSH1 0x0 DUP1 RETURNDATACOPY RETURNDATASIZE PUSH1 0x0 REVERT JUMPDEST POP POP POP POP PUSH1 0x40 MLOAD RETURNDATASIZE PUSH1 0x1F NOT PUSH1 0x1F DUP3 ADD AND DUP3 ADD DUP1 PUSH1 0x40 MSTORE POP DUP2 ADD SWAP1 PUSH2 0x36FA SWAP2 SWAP1 PUSH2 0x91D6 JUMP JUMPDEST PUSH2 0x3704 SWAP2 SWAP1 PUSH2 0x950E JUMP JUMPDEST SWAP1 POP PUSH1 0x0 DUP3 PUSH1 0x2 ADD PUSH1 0x0 SWAP1 SLOAD SWAP1 PUSH2 0x100 EXP SWAP1 DIV PUSH1 0xD SIGNEXTEND SWAP1 POP PUSH1 0x0 DUP1 JUMPDEST DUP7 DUP7 SWAP1 POP DUP2 LT ISZERO PUSH2 0x396D JUMPI PUSH1 0x0 DUP8 DUP8 DUP4 DUP2 DUP2 LT PUSH2 0x3740 JUMPI PUSH2 0x373F PUSH2 0x990A JUMP JUMPDEST JUMPDEST SWAP1 POP PUSH1 0x20 MUL ADD PUSH1 0x20 DUP2 ADD SWAP1 PUSH2 0x3755 SWAP2 SWAP1 PUSH2 0x8020 JUMP JUMPDEST SWAP1 POP DUP3 PUSH20 0xFFFFFFFFFFFFFFFFFFFFFFFFFFFFFFFFFFFFFFFF AND DUP2 PUSH20 0xFFFFFFFFFFFFFFFFFFFFFFFFFFFFFFFFFFFFFFFF AND GT PUSH2 0x37C7 JUMPI DUP1 PUSH1 0x40 MLOAD PUSH32 0xDC2BA98E00000000000000000000000000000000000000000000000000000000 DUP2 MSTORE PUSH1 0x4 ADD PUSH2 0x37BE SWAP2 SWAP1 PUSH2 0x845F JUMP JUMPDEST PUSH1 0x40 MLOAD DUP1 SWAP2 SUB SWAP1 REVERT JUMPDEST DUP1 SWAP3 POP PUSH1 0x0 DUP7 PUSH1 0x1 ADD PUSH1 0x0 DUP4 PUSH20 0xFFFFFFFFFFFFFFFFFFFFFFFFFFFFFFFFFFFFFFFF AND PUSH20 0xFFFFFFFFFFFFFFFFFFFFFFFFFFFFFFFFFFFFFFFF AND DUP2 MSTORE PUSH1 0x20 ADD SWAP1 DUP2 MSTORE PUSH1 0x20 ADD PUSH1 0x0 KECCAK256 PUSH1 0x0 SWAP1 SLOAD SWAP1 PUSH2 0x100 EXP SWAP1 DIV PUSH1 0xD SIGNEXTEND SWAP1 POP PUSH1 0x0 DUP2 PUSH1 0xD SIGNEXTEND SGT PUSH2 0x3867 JUMPI DUP10 DUP3 PUSH1 0x40 MLOAD PUSH32 0x890C638200000000000000000000000000000000000000000000000000000000 DUP2 MSTORE PUSH1 0x4 ADD PUSH2 0x385E SWAP3 SWAP2 SWAP1 PUSH2 0x9939 JUMP JUMPDEST PUSH1 0x40 MLOAD DUP1 SWAP2 SUB SWAP1 REVERT JUMPDEST PUSH1 0x0 PUSH1 0x9C PUSH1 0x0 SWAP1 SLOAD SWAP1 PUSH2 0x100 EXP SWAP1 DIV PUSH20 0xFFFFFFFFFFFFFFFFFFFFFFFFFFFFFFFFFFFFFFFF AND PUSH20 0xFFFFFFFFFFFFFFFFFFFFFFFFFFFFFFFFFFFFFFFF AND PUSH4 0x70A08231 DUP5 PUSH1 0x40 MLOAD DUP3 PUSH4 0xFFFFFFFF AND PUSH1 0xE0 SHL DUP2 MSTORE PUSH1 0x4 ADD PUSH2 0x38C4 SWAP2 SWAP1 PUSH2 0x845F JUMP JUMPDEST PUSH1 0x20 PUSH1 0x40 MLOAD DUP1 DUP4 SUB DUP2 DUP7 DUP1 EXTCODESIZE ISZERO DUP1 ISZERO PUSH2 0x38DC JUMPI PUSH1 0x0 DUP1 REVERT JUMPDEST POP GAS STATICCALL ISZERO DUP1 ISZERO PUSH2 0x38F0 JUMPI RETURNDATASIZE PUSH1 0x0 DUP1 RETURNDATACOPY RETURNDATASIZE PUSH1 0x0 REVERT JUMPDEST POP POP POP POP PUSH1 0x40 MLOAD RETURNDATASIZE PUSH1 0x1F NOT PUSH1 0x1F DUP3 ADD AND DUP3 ADD DUP1 PUSH1 0x40 MSTORE POP DUP2 ADD SWAP1 PUSH2 0x3914 SWAP2 SWAP1 PUSH2 0x91D6 JUMP JUMPDEST SWAP1 POP DUP7 PUSH1 0xD SIGNEXTEND DUP2 PUSH1 0xD SIGNEXTEND SGT ISZERO PUSH2 0x3928 JUMPI DUP7 SWAP1 POP JUMPDEST DUP2 PUSH1 0xD SIGNEXTEND DUP2 PUSH1 0xD SIGNEXTEND SLT PUSH2 0x393D JUMPI POP POP POP PUSH2 0x395A JUMP JUMPDEST DUP1 DUP3 PUSH2 0x3949 SWAP2 SWAP1 PUSH2 0x9962 JUMP JUMPDEST DUP7 PUSH2 0x3954 SWAP2 SWAP1 PUSH2 0x9962 JUMP JUMPDEST SWAP6 POP POP POP POP JUMPDEST DUP1 DUP1 PUSH2 0x3965 SWAP1 PUSH2 0x8FF3 JUMP JUMPDEST SWAP2 POP POP PUSH2 0x3720 JUMP JUMPDEST POP PUSH1 0x0 DUP5 PUSH1 0x0 ADD PUSH1 0x1F SWAP1 SLOAD SWAP1 PUSH2 0x100 EXP SWAP1 DIV PUSH1 0xFF AND ISZERO PUSH2 0x39B5 JUMPI PUSH1 0x3 DUP6 PUSH1 0x2 ADD PUSH1 0xE SWAP1 SLOAD SWAP1 PUSH2 0x100 EXP SWAP1 DIV PUSH14 0xFFFFFFFFFFFFFFFFFFFFFFFFFFFF AND PUSH2 0x39B2 SWAP2 SWAP1 PUSH2 0x9266 JUMP JUMPDEST SWAP1 POP JUMPDEST DUP1 PUSH1 0xD SIGNEXTEND DUP4 PUSH1 0xD SIGNEXTEND SGT ISZERO PUSH2 0x3A02 JUMPI DUP8 DUP4 PUSH1 0x40 MLOAD PUSH32 0x3027963600000000000000000000000000000000000000000000000000000000 DUP2 MSTORE PUSH1 0x4 ADD PUSH2 0x39F9 SWAP3 SWAP2 SWAP1 PUSH2 0x9680 JUMP JUMPDEST PUSH1 0x40 MLOAD DUP1 SWAP2 SUB SWAP1 REVERT JUMPDEST PUSH1 0x9F PUSH1 0x0 DUP10 DUP2 MSTORE PUSH1 0x20 ADD SWAP1 DUP2 MSTORE PUSH1 0x20 ADD PUSH1 0x0 KECCAK256 PUSH1 0x0 DUP1 DUP3 ADD PUSH1 0x0 PUSH2 0x100 EXP DUP2 SLOAD SWAP1 PUSH20 0xFFFFFFFFFFFFFFFFFFFFFFFFFFFFFFFFFFFFFFFF MUL NOT AND SWAP1 SSTORE PUSH1 0x0 DUP3 ADD PUSH1 0x14 PUSH2 0x100 EXP DUP2 SLOAD SWAP1 PUSH1 0xFF MUL NOT AND SWAP1 SSTORE PUSH1 0x0 DUP3 ADD PUSH1 0x15 PUSH2 0x100 EXP DUP2 SLOAD SWAP1 PUSH8 0xFFFFFFFFFFFFFFFF MUL NOT AND SWAP1 SSTORE PUSH1 0x0 DUP3 ADD PUSH1 0x1D PUSH2 0x100 EXP DUP2 SLOAD SWAP1 PUSH2 0xFFFF MUL NOT AND SWAP1 SSTORE PUSH1 0x0 DUP3 ADD PUSH1 0x1F PUSH2 0x100 EXP DUP2 SLOAD SWAP1 PUSH1 0xFF MUL NOT AND SWAP1 SSTORE PUSH1 0x2 DUP3 ADD PUSH1 0x0 PUSH2 0x100 EXP DUP2 SLOAD SWAP1 PUSH14 0xFFFFFFFFFFFFFFFFFFFFFFFFFFFF MUL NOT AND SWAP1 SSTORE PUSH1 0x2 DUP3 ADD PUSH1 0xE PUSH2 0x100 EXP DUP2 SLOAD SWAP1 PUSH14 0xFFFFFFFFFFFFFFFFFFFFFFFFFFFF MUL NOT AND SWAP1 SSTORE PUSH1 0x2 DUP3 ADD PUSH1 0x1C PUSH2 0x100 EXP DUP2 SLOAD SWAP1 PUSH4 0xFFFFFFFF MUL NOT AND SWAP1 SSTORE POP POP PUSH1 0x4 DUP1 DUP2 GT ISZERO PUSH2 0x3B03 JUMPI PUSH2 0x3B02 PUSH2 0x804D JUMP JUMPDEST JUMPDEST DUP9 PUSH32 0xAE774EE17B72F8C8F4C7144D988D61A4DA4DF057D2B0F9EB733E5A4E3912A8FB PUSH1 0x40 MLOAD PUSH1 0x40 MLOAD DUP1 SWAP2 SUB SWAP1 LOG3 POP POP POP POP POP POP POP POP JUMP JUMPDEST PUSH1 0x0 PUSH1 0x9F PUSH1 0x0 DUP4 DUP2 MSTORE PUSH1 0x20 ADD SWAP1 DUP2 MSTORE PUSH1 0x20 ADD PUSH1 0x0 KECCAK256 SWAP1 POP PUSH1 0x1 PUSH1 0x4 DUP2 GT ISZERO PUSH2 0x3B65 JUMPI PUSH2 0x3B64 PUSH2 0x804D JUMP JUMPDEST JUMPDEST DUP2 PUSH1 0x0 ADD PUSH1 0x14 SWAP1 SLOAD SWAP1 PUSH2 0x100 EXP SWAP1 DIV PUSH1 0xFF AND PUSH1 0x4 DUP2 GT ISZERO PUSH2 0x3B89 JUMPI PUSH2 0x3B88 PUSH2 0x804D JUMP JUMPDEST JUMPDEST EQ ISZERO DUP1 ISZERO PUSH2 0x3BCD JUMPI POP PUSH1 0x2 PUSH1 0x4 DUP2 GT ISZERO PUSH2 0x3BA6 JUMPI PUSH2 0x3BA5 PUSH2 0x804D JUMP JUMPDEST JUMPDEST DUP2 PUSH1 0x0 ADD PUSH1 0x14 SWAP1 SLOAD SWAP1 PUSH2 0x100 EXP SWAP1 DIV PUSH1 0xFF AND PUSH1 0x4 DUP2 GT ISZERO PUSH2 0x3BCA JUMPI PUSH2 0x3BC9 PUSH2 0x804D JUMP JUMPDEST JUMPDEST EQ ISZERO JUMPDEST ISZERO PUSH2 0x3C0F JUMPI DUP2 PUSH1 0x40 MLOAD PUSH32 0x8166C02700000000000000000000000000000000000000000000000000000000 DUP2 MSTORE PUSH1 0x4 ADD PUSH2 0x3C06 SWAP2 SWAP1 PUSH2 0x824B JUMP JUMPDEST PUSH1 0x40 MLOAD DUP1 SWAP2 SUB SWAP1 REVERT JUMPDEST CALLER PUSH20 0xFFFFFFFFFFFFFFFFFFFFFFFFFFFFFFFFFFFFFFFF AND DUP2 PUSH1 0x0 ADD PUSH1 0x0 SWAP1 SLOAD SWAP1 PUSH2 0x100 EXP SWAP1 DIV PUSH20 0xFFFFFFFFFFFFFFFFFFFFFFFFFFFFFFFFFFFFFFFF AND PUSH20 0xFFFFFFFFFFFFFFFFFFFFFFFFFFFFFFFFFFFFFFFF AND EQ PUSH2 0x3CC9 JUMPI CALLER DUP2 PUSH1 0x0 ADD PUSH1 0x0 SWAP1 SLOAD SWAP1 PUSH2 0x100 EXP SWAP1 DIV PUSH20 0xFFFFFFFFFFFFFFFFFFFFFFFFFFFFFFFFFFFFFFFF AND PUSH1 0x40 MLOAD PUSH32 0x295A81C100000000000000000000000000000000000000000000000000000000 DUP2 MSTORE PUSH1 0x4 ADD PUSH2 0x3CC0 SWAP3 SWAP2 SWAP1 PUSH2 0x8F1C JUMP JUMPDEST PUSH1 0x40 MLOAD DUP1 SWAP2 SUB SWAP1 REVERT JUMPDEST PUSH1 0x9F PUSH1 0x0 DUP4 DUP2 MSTORE PUSH1 0x20 ADD SWAP1 DUP2 MSTORE PUSH1 0x20 ADD PUSH1 0x0 KECCAK256 PUSH1 0x0 DUP1 DUP3 ADD PUSH1 0x0 PUSH2 0x100 EXP DUP2 SLOAD SWAP1 PUSH20 0xFFFFFFFFFFFFFFFFFFFFFFFFFFFFFFFFFFFFFFFF MUL NOT AND SWAP1 SSTORE PUSH1 0x0 DUP3 ADD PUSH1 0x14 PUSH2 0x100 EXP DUP2 SLOAD SWAP1 PUSH1 0xFF MUL NOT AND SWAP1 SSTORE PUSH1 0x0 DUP3 ADD PUSH1 0x15 PUSH2 0x100 EXP DUP2 SLOAD SWAP1 PUSH8 0xFFFFFFFFFFFFFFFF MUL NOT AND SWAP1 SSTORE PUSH1 0x0 DUP3 ADD PUSH1 0x1D PUSH2 0x100 EXP DUP2 SLOAD SWAP1 PUSH2 0xFFFF MUL NOT AND SWAP1 SSTORE PUSH1 0x0 DUP3 ADD PUSH1 0x1F PUSH2 0x100 EXP DUP2 SLOAD SWAP1 PUSH1 0xFF MUL NOT AND SWAP1 SSTORE PUSH1 0x2 DUP3 ADD PUSH1 0x0 PUSH2 0x100 EXP DUP2 SLOAD SWAP1 PUSH14 0xFFFFFFFFFFFFFFFFFFFFFFFFFFFF MUL NOT AND SWAP1 SSTORE PUSH1 0x2 DUP3 ADD PUSH1 0xE PUSH2 0x100 EXP DUP2 SLOAD SWAP1 PUSH14 0xFFFFFFFFFFFFFFFFFFFFFFFFFFFF MUL NOT AND SWAP1 SSTORE PUSH1 0x2 DUP3 ADD PUSH1 0x1C PUSH2 0x100 EXP DUP2 SLOAD SWAP1 PUSH4 0xFFFFFFFF MUL NOT AND SWAP1 SSTORE POP POP PUSH1 0x4 DUP1 DUP2 GT ISZERO PUSH2 0x3DCA JUMPI PUSH2 0x3DC9 PUSH2 0x804D JUMP JUMPDEST JUMPDEST DUP3 PUSH32 0xAE774EE17B72F8C8F4C7144D988D61A4DA4DF057D2B0F9EB733E5A4E3912A8FB PUSH1 0x40 MLOAD PUSH1 0x40 MLOAD DUP1 SWAP2 SUB SWAP1 LOG3 POP POP JUMP JUMPDEST PUSH1 0x0 PUSH2 0x3E46 PUSH32 0x65482DE500000000000000000000000000000000000000000000000000000000 DUP10 PUSH20 0xFFFFFFFFFFFFFFFFFFFFFFFFFFFFFFFFFFFFFFFF AND PUSH2 0x5086 SWAP1 SWAP2 SWAP1 PUSH4 0xFFFFFFFF AND JUMP JUMPDEST PUSH2 0x3EA9 JUMPI DUP8 PUSH32 0x65482DE500000000000000000000000000000000000000000000000000000000 PUSH1 0x40 MLOAD PUSH32 0x8A05A4C600000000000000000000000000000000000000000000000000000000 DUP2 MSTORE PUSH1 0x4 ADD PUSH2 0x3EA0 SWAP3 SWAP2 SWAP1 PUSH2 0x8DBC JUMP JUMPDEST PUSH1 0x40 MLOAD DUP1 SWAP2 SUB SWAP1 REVERT JUMPDEST PUSH1 0x0 DUP9 PUSH20 0xFFFFFFFFFFFFFFFFFFFFFFFFFFFFFFFFFFFFFFFF AND PUSH4 0x52F37789 PUSH1 0x40 MLOAD DUP2 PUSH4 0xFFFFFFFF AND PUSH1 0xE0 SHL DUP2 MSTORE PUSH1 0x4 ADD PUSH1 0x20 PUSH1 0x40 MLOAD DUP1 DUP4 SUB DUP2 DUP7 DUP1 EXTCODESIZE ISZERO DUP1 ISZERO PUSH2 0x3EF1 JUMPI PUSH1 0x0 DUP1 REVERT JUMPDEST POP GAS STATICCALL ISZERO DUP1 ISZERO PUSH2 0x3F05 JUMPI RETURNDATASIZE PUSH1 0x0 DUP1 RETURNDATACOPY RETURNDATASIZE PUSH1 0x0 REVERT JUMPDEST POP POP POP POP PUSH1 0x40 MLOAD RETURNDATASIZE PUSH1 0x1F NOT PUSH1 0x1F DUP3 ADD AND DUP3 ADD DUP1 PUSH1 0x40 MSTORE POP DUP2 ADD SWAP1 PUSH2 0x3F29 SWAP2 SWAP1 PUSH2 0x8D57 JUMP JUMPDEST SWAP1 POP PUSH2 0x3F74 PUSH32 0x212D8D8C00000000000000000000000000000000000000000000000000000000 DUP8 PUSH20 0xFFFFFFFFFFFFFFFFFFFFFFFFFFFFFFFFFFFFFFFF AND PUSH2 0x5086 SWAP1 SWAP2 SWAP1 PUSH4 0xFFFFFFFF AND JUMP JUMPDEST PUSH2 0x3FD7 JUMPI DUP6 PUSH32 0x212D8D8C00000000000000000000000000000000000000000000000000000000 PUSH1 0x40 MLOAD PUSH32 0x8A05A4C600000000000000000000000000000000000000000000000000000000 DUP2 MSTORE PUSH1 0x4 ADD PUSH2 0x3FCE SWAP3 SWAP2 SWAP1 PUSH2 0x8DBC JUMP JUMPDEST PUSH1 0x40 MLOAD DUP1 SWAP2 SUB SWAP1 REVERT JUMPDEST PUSH1 0x0 DUP7 PUSH20 0xFFFFFFFFFFFFFFFFFFFFFFFFFFFFFFFFFFFFFFFF AND PUSH4 0x75D0C0DC PUSH1 0x40 MLOAD DUP2 PUSH4 0xFFFFFFFF AND PUSH1 0xE0 SHL DUP2 MSTORE PUSH1 0x4 ADD PUSH1 0x20 PUSH1 0x40 MLOAD DUP1 DUP4 SUB DUP2 PUSH1 0x0 DUP8 DUP1 EXTCODESIZE ISZERO DUP1 ISZERO PUSH2 0x4021 JUMPI PUSH1 0x0 DUP1 REVERT JUMPDEST POP GAS CALL ISZERO DUP1 ISZERO PUSH2 0x4035 JUMPI RETURNDATASIZE PUSH1 0x0 DUP1 RETURNDATACOPY RETURNDATASIZE PUSH1 0x0 REVERT JUMPDEST POP POP POP POP PUSH1 0x40 MLOAD RETURNDATASIZE PUSH1 0x1F NOT PUSH1 0x1F DUP3 ADD AND DUP3 ADD DUP1 PUSH1 0x40 MSTORE POP DUP2 ADD SWAP1 PUSH2 0x4059 SWAP2 SWAP1 PUSH2 0x8D57 JUMP JUMPDEST SWAP1 POP DUP1 DUP3 EQ PUSH2 0x40A1 JUMPI DUP2 DUP2 PUSH1 0x40 MLOAD PUSH32 0x4ED7288800000000000000000000000000000000000000000000000000000000 DUP2 MSTORE PUSH1 0x4 ADD PUSH2 0x4098 SWAP3 SWAP2 SWAP1 PUSH2 0x8D84 JUMP JUMPDEST PUSH1 0x40 MLOAD DUP1 SWAP2 SUB SWAP1 REVERT JUMPDEST PUSH2 0x40C4 PUSH2 0x100 PUSH1 0x1 PUSH1 0x3 DUP2 GT ISZERO PUSH2 0x40BB JUMPI PUSH2 0x40BA PUSH2 0x804D JUMP JUMPDEST JUMPDEST OR PUSH1 0x1 DUP7 PUSH2 0x50AB JUMP JUMPDEST SWAP3 POP PUSH1 0x40 MLOAD DUP1 PUSH1 0xA0 ADD PUSH1 0x40 MSTORE DUP1 DUP12 PUSH20 0xFFFFFFFFFFFFFFFFFFFFFFFFFFFFFFFFFFFFFFFF AND DUP2 MSTORE PUSH1 0x20 ADD DUP11 PUSH20 0xFFFFFFFFFFFFFFFFFFFFFFFFFFFFFFFFFFFFFFFF AND DUP2 MSTORE PUSH1 0x20 ADD DUP9 PUSH20 0xFFFFFFFFFFFFFFFFFFFFFFFFFFFFFFFFFFFFFFFF AND DUP2 MSTORE PUSH1 0x20 ADD DUP10 DUP2 MSTORE PUSH1 0x20 ADD DUP8 DUP8 DUP1 DUP1 PUSH1 0x1F ADD PUSH1 0x20 DUP1 SWAP2 DIV MUL PUSH1 0x20 ADD PUSH1 0x40 MLOAD SWAP1 DUP2 ADD PUSH1 0x40 MSTORE DUP1 SWAP4 SWAP3 SWAP2 SWAP1 DUP2 DUP2 MSTORE PUSH1 0x20 ADD DUP4 DUP4 DUP1 DUP3 DUP5 CALLDATACOPY PUSH1 0x0 DUP2 DUP5 ADD MSTORE PUSH1 0x1F NOT PUSH1 0x1F DUP3 ADD AND SWAP1 POP DUP1 DUP4 ADD SWAP3 POP POP POP POP POP POP POP DUP2 MSTORE POP PUSH2 0x106 PUSH1 0x0 DUP6 DUP2 MSTORE PUSH1 0x20 ADD SWAP1 DUP2 MSTORE PUSH1 0x20 ADD PUSH1 0x0 KECCAK256 PUSH1 0x0 DUP3 ADD MLOAD DUP2 PUSH1 0x0 ADD PUSH1 0x0 PUSH2 0x100 EXP DUP2 SLOAD DUP2 PUSH20 0xFFFFFFFFFFFFFFFFFFFFFFFFFFFFFFFFFFFFFFFF MUL NOT AND SWAP1 DUP4 PUSH20 0xFFFFFFFFFFFFFFFFFFFFFFFFFFFFFFFFFFFFFFFF AND MUL OR SWAP1 SSTORE POP PUSH1 0x20 DUP3 ADD MLOAD DUP2 PUSH1 0x1 ADD PUSH1 0x0 PUSH2 0x100 EXP DUP2 SLOAD DUP2 PUSH20 0xFFFFFFFFFFFFFFFFFFFFFFFFFFFFFFFFFFFFFFFF MUL NOT AND SWAP1 DUP4 PUSH20 0xFFFFFFFFFFFFFFFFFFFFFFFFFFFFFFFFFFFFFFFF AND MUL OR SWAP1 SSTORE POP PUSH1 0x40 DUP3 ADD MLOAD DUP2 PUSH1 0x2 ADD PUSH1 0x0 PUSH2 0x100 EXP DUP2 SLOAD DUP2 PUSH20 0xFFFFFFFFFFFFFFFFFFFFFFFFFFFFFFFFFFFFFFFF MUL NOT AND SWAP1 DUP4 PUSH20 0xFFFFFFFFFFFFFFFFFFFFFFFFFFFFFFFFFFFFFFFF AND MUL OR SWAP1 SSTORE POP PUSH1 0x60 DUP3 ADD MLOAD DUP2 PUSH1 0x3 ADD SSTORE PUSH1 0x80 DUP3 ADD MLOAD DUP2 PUSH1 0x4 ADD SWAP1 DUP1 MLOAD SWAP1 PUSH1 0x20 ADD SWAP1 PUSH2 0x4282 SWAP3 SWAP2 SWAP1 PUSH2 0x7B68 JUMP JUMPDEST POP SWAP1 POP POP DUP9 PUSH20 0xFFFFFFFFFFFFFFFFFFFFFFFFFFFFFFFFFFFFFFFF AND DUP11 PUSH20 0xFFFFFFFFFFFFFFFFFFFFFFFFFFFFFFFFFFFFFFFF AND DUP5 PUSH32 0x7C6C720473E9E2352BC174A5845E65DD9294EC0BEF4C342CC790679603FE47AC DUP12 DUP12 DUP12 DUP12 PUSH1 0x40 MLOAD PUSH2 0x42EA SWAP5 SWAP4 SWAP3 SWAP2 SWAP1 PUSH2 0x99E4 JUMP JUMPDEST PUSH1 0x40 MLOAD DUP1 SWAP2 SUB SWAP1 LOG4 POP POP SWAP8 SWAP7 POP POP POP POP POP POP POP JUMP JUMPDEST PUSH1 0x0 ADDRESS PUSH20 0xFFFFFFFFFFFFFFFFFFFFFFFFFFFFFFFFFFFFFFFF AND DUP7 PUSH20 0xFFFFFFFFFFFFFFFFFFFFFFFFFFFFFFFFFFFFFFFF AND EQ ISZERO PUSH2 0x4372 JUMPI DUP6 PUSH1 0x40 MLOAD PUSH32 0xD373DD4200000000000000000000000000000000000000000000000000000000 DUP2 MSTORE PUSH1 0x4 ADD PUSH2 0x4369 SWAP2 SWAP1 PUSH2 0x845F JUMP JUMPDEST PUSH1 0x40 MLOAD DUP1 SWAP2 SUB SWAP1 REVERT JUMPDEST PUSH2 0x105 PUSH1 0x0 SWAP1 SLOAD SWAP1 PUSH2 0x100 EXP SWAP1 DIV PUSH1 0xFF AND PUSH1 0xFF AND DUP6 PUSH1 0xFF AND GT ISZERO PUSH2 0x43DF JUMPI DUP5 PUSH2 0x105 PUSH1 0x0 SWAP1 SLOAD SWAP1 PUSH2 0x100 EXP SWAP1 DIV PUSH1 0xFF AND PUSH1 0x40 MLOAD PUSH32 0xF59DBED700000000000000000000000000000000000000000000000000000000 DUP2 MSTORE PUSH1 0x4 ADD PUSH2 0x43D6 SWAP3 SWAP2 SWAP1 PUSH2 0x9A24 JUMP JUMPDEST PUSH1 0x40 MLOAD DUP1 SWAP2 SUB SWAP1 REVERT JUMPDEST PUSH2 0x4401 PUSH2 0x100 PUSH1 0x3 DUP1 DUP2 GT ISZERO PUSH2 0x43F8 JUMPI PUSH2 0x43F7 PUSH2 0x804D JUMP JUMPDEST JUMPDEST OR PUSH1 0x0 DUP5 PUSH2 0x50AB JUMP JUMPDEST SWAP1 POP PUSH1 0x40 MLOAD DUP1 PUSH1 0x40 ADD PUSH1 0x40 MSTORE DUP1 DUP8 PUSH20 0xFFFFFFFFFFFFFFFFFFFFFFFFFFFFFFFFFFFFFFFF AND DUP2 MSTORE PUSH1 0x20 ADD DUP7 PUSH1 0xFF AND DUP2 MSTORE POP PUSH2 0x108 PUSH1 0x0 DUP4 DUP2 MSTORE PUSH1 0x20 ADD SWAP1 DUP2 MSTORE PUSH1 0x20 ADD PUSH1 0x0 KECCAK256 PUSH1 0x0 DUP3 ADD MLOAD DUP2 PUSH1 0x0 ADD PUSH1 0x0 PUSH2 0x100 EXP DUP2 SLOAD DUP2 PUSH20 0xFFFFFFFFFFFFFFFFFFFFFFFFFFFFFFFFFFFFFFFF MUL NOT AND SWAP1 DUP4 PUSH20 0xFFFFFFFFFFFFFFFFFFFFFFFFFFFFFFFFFFFFFFFF AND MUL OR SWAP1 SSTORE POP PUSH1 0x20 DUP3 ADD MLOAD DUP2 PUSH1 0x0 ADD PUSH1 0x14 PUSH2 0x100 EXP DUP2 SLOAD DUP2 PUSH1 0xFF MUL NOT AND SWAP1 DUP4 PUSH1 0xFF AND MUL OR SWAP1 SSTORE POP SWAP1 POP POP DUP1 PUSH32 0x3D396C764D54FB51DF30FE13C8E351F9E3F6945949B662978F8440D5C9AA272B DUP8 DUP8 PUSH1 0x40 MLOAD PUSH2 0x44E2 SWAP3 SWAP2 SWAP1 PUSH2 0x9A4D JUMP JUMPDEST PUSH1 0x40 MLOAD DUP1 SWAP2 SUB SWAP1 LOG2 PUSH1 0x0 DUP5 DUP5 SWAP1 POP EQ PUSH2 0x4922 JUMPI PUSH2 0x4560 PUSH32 0x79EFBDBC00000000000000000000000000000000000000000000000000000000 PUSH1 0x9C PUSH1 0x0 SWAP1 SLOAD SWAP1 PUSH2 0x100 EXP SWAP1 DIV PUSH20 0xFFFFFFFFFFFFFFFFFFFFFFFFFFFFFFFFFFFFFFFF AND PUSH20 0xFFFFFFFFFFFFFFFFFFFFFFFFFFFFFFFFFFFFFFFF AND PUSH2 0x5086 SWAP1 SWAP2 SWAP1 PUSH4 0xFFFFFFFF AND JUMP JUMPDEST PUSH2 0x45E5 JUMPI PUSH1 0x9C PUSH1 0x0 SWAP1 SLOAD SWAP1 PUSH2 0x100 EXP SWAP1 DIV PUSH20 0xFFFFFFFFFFFFFFFFFFFFFFFFFFFFFFFFFFFFFFFF AND PUSH32 0x79EFBDBC00000000000000000000000000000000000000000000000000000000 PUSH1 0x40 MLOAD PUSH32 0x8A05A4C600000000000000000000000000000000000000000000000000000000 DUP2 MSTORE PUSH1 0x4 ADD PUSH2 0x45DC SWAP3 SWAP2 SWAP1 PUSH2 0x8DBC JUMP JUMPDEST PUSH1 0x40 MLOAD DUP1 SWAP2 SUB SWAP1 REVERT JUMPDEST PUSH1 0x0 PUSH1 0x1 PUSH1 0x9C PUSH1 0x0 SWAP1 SLOAD SWAP1 PUSH2 0x100 EXP SWAP1 DIV PUSH20 0xFFFFFFFFFFFFFFFFFFFFFFFFFFFFFFFFFFFFFFFF AND PUSH20 0xFFFFFFFFFFFFFFFFFFFFFFFFFFFFFFFFFFFFFFFF AND PUSH4 0xC215290A DUP10 PUSH1 0x40 MLOAD DUP3 PUSH4 0xFFFFFFFF AND PUSH1 0xE0 SHL DUP2 MSTORE PUSH1 0x4 ADD PUSH2 0x4644 SWAP2 SWAP1 PUSH2 0x845F JUMP JUMPDEST PUSH1 0x20 PUSH1 0x40 MLOAD DUP1 DUP4 SUB DUP2 DUP7 DUP1 EXTCODESIZE ISZERO DUP1 ISZERO PUSH2 0x465C JUMPI PUSH1 0x0 DUP1 REVERT JUMPDEST POP GAS STATICCALL ISZERO DUP1 ISZERO PUSH2 0x4670 JUMPI RETURNDATASIZE PUSH1 0x0 DUP1 RETURNDATACOPY RETURNDATASIZE PUSH1 0x0 REVERT JUMPDEST POP POP POP POP PUSH1 0x40 MLOAD RETURNDATASIZE PUSH1 0x1F NOT PUSH1 0x1F DUP3 ADD AND DUP3 ADD DUP1 PUSH1 0x40 MSTORE POP DUP2 ADD SWAP1 PUSH2 0x4694 SWAP2 SWAP1 PUSH2 0x9AA2 JUMP JUMPDEST PUSH2 0x469E SWAP2 SWAP1 PUSH2 0x95D0 JUMP JUMPDEST PUSH8 0xFFFFFFFFFFFFFFFF AND SWAP1 POP PUSH1 0x0 JUMPDEST DUP6 DUP6 SWAP1 POP DUP2 LT ISZERO PUSH2 0x4799 JUMPI PUSH2 0x4786 DUP4 PUSH2 0x4781 PUSH2 0x4714 PUSH32 0xB4C3927DF079EC170B21FC4852236D72322269647BBB93A3CCF5F47D7F87FD65 DUP13 DUP13 DUP9 PUSH1 0x40 MLOAD PUSH1 0x20 ADD PUSH2 0x46F9 SWAP5 SWAP4 SWAP3 SWAP2 SWAP1 PUSH2 0x9ACF JUMP JUMPDEST PUSH1 0x40 MLOAD PUSH1 0x20 DUP2 DUP4 SUB SUB DUP2 MSTORE SWAP1 PUSH1 0x40 MSTORE DUP1 MLOAD SWAP1 PUSH1 0x20 ADD KECCAK256 PUSH2 0x5479 JUMP JUMPDEST DUP10 DUP10 DUP7 DUP2 DUP2 LT PUSH2 0x4727 JUMPI PUSH2 0x4726 PUSH2 0x990A JUMP JUMPDEST JUMPDEST SWAP1 POP PUSH1 0x20 MUL DUP2 ADD SWAP1 PUSH2 0x4739 SWAP2 SWAP1 PUSH2 0x9B23 JUMP JUMPDEST DUP1 DUP1 PUSH1 0x1F ADD PUSH1 0x20 DUP1 SWAP2 DIV MUL PUSH1 0x20 ADD PUSH1 0x40 MLOAD SWAP1 DUP2 ADD PUSH1 0x40 MSTORE DUP1 SWAP4 SWAP3 SWAP2 SWAP1 DUP2 DUP2 MSTORE PUSH1 0x20 ADD DUP4 DUP4 DUP1 DUP3 DUP5 CALLDATACOPY PUSH1 0x0 DUP2 DUP5 ADD MSTORE PUSH1 0x1F NOT PUSH1 0x1F DUP3 ADD AND SWAP1 POP DUP1 DUP4 ADD SWAP3 POP POP POP POP POP POP POP PUSH2 0x5493 JUMP JUMPDEST PUSH2 0x61F8 JUMP JUMPDEST DUP1 DUP1 PUSH2 0x4791 SWAP1 PUSH2 0x8FF3 JUMP JUMPDEST SWAP2 POP POP PUSH2 0x46AD JUMP JUMPDEST POP PUSH2 0x47A2 PUSH2 0x1E94 JUMP JUMPDEST PUSH14 0xFFFFFFFFFFFFFFFFFFFFFFFFFFFF AND PUSH2 0x47BB DUP4 PUSH2 0x2207 JUMP JUMPDEST PUSH14 0xFFFFFFFFFFFFFFFFFFFFFFFFFFFF AND LT ISZERO PUSH2 0x4841 JUMPI PUSH32 0xFFFFFFFFFFFFFFFFFFFFFFFFFFFFFFFFFFFFFFFFFFFFFFFFFFFFFFFFFFFFFFFF PUSH2 0x47FB DUP4 PUSH2 0x2207 JUMP JUMPDEST PUSH2 0x4803 PUSH2 0x1E94 JUMP JUMPDEST PUSH1 0x40 MLOAD PUSH32 0x21C1F97D00000000000000000000000000000000000000000000000000000000 DUP2 MSTORE PUSH1 0x4 ADD PUSH2 0x4838 SWAP4 SWAP3 SWAP2 SWAP1 PUSH2 0x96DA JUMP JUMPDEST PUSH1 0x40 MLOAD DUP1 SWAP2 SUB SWAP1 REVERT JUMPDEST PUSH1 0x9C PUSH1 0x0 SWAP1 SLOAD SWAP1 PUSH2 0x100 EXP SWAP1 DIV PUSH20 0xFFFFFFFFFFFFFFFFFFFFFFFFFFFFFFFFFFFFFFFF AND PUSH20 0xFFFFFFFFFFFFFFFFFFFFFFFFFFFFFFFFFFFFFFFF AND PUSH4 0xACB88986 DUP9 PUSH3 0x15180 PUSH1 0x9D PUSH1 0x0 SWAP1 SLOAD SWAP1 PUSH2 0x100 EXP SWAP1 DIV PUSH8 0xFFFFFFFFFFFFFFFF AND PUSH1 0x9C PUSH1 0x14 SWAP1 SLOAD SWAP1 PUSH2 0x100 EXP SWAP1 DIV PUSH8 0xFFFFFFFFFFFFFFFF AND TIMESTAMP PUSH2 0x48BD SWAP2 SWAP1 PUSH2 0x95D0 JUMP JUMPDEST PUSH2 0x48C7 SWAP2 SWAP1 PUSH2 0x95D0 JUMP JUMPDEST PUSH2 0x48D1 SWAP2 SWAP1 PUSH2 0x95D0 JUMP JUMPDEST PUSH1 0x40 MLOAD DUP4 PUSH4 0xFFFFFFFF AND PUSH1 0xE0 SHL DUP2 MSTORE PUSH1 0x4 ADD PUSH2 0x48EE SWAP3 SWAP2 SWAP1 PUSH2 0x9B86 JUMP JUMPDEST PUSH1 0x0 PUSH1 0x40 MLOAD DUP1 DUP4 SUB DUP2 PUSH1 0x0 DUP8 DUP1 EXTCODESIZE ISZERO DUP1 ISZERO PUSH2 0x4908 JUMPI PUSH1 0x0 DUP1 REVERT JUMPDEST POP GAS CALL ISZERO DUP1 ISZERO PUSH2 0x491C JUMPI RETURNDATASIZE PUSH1 0x0 DUP1 RETURNDATACOPY RETURNDATASIZE PUSH1 0x0 REVERT JUMPDEST POP POP POP POP POP JUMPDEST SWAP6 SWAP5 POP POP POP POP POP JUMP JUMPDEST PUSH1 0x0 PUSH1 0x9F PUSH1 0x0 DUP4 DUP2 MSTORE PUSH1 0x20 ADD SWAP1 DUP2 MSTORE PUSH1 0x20 ADD PUSH1 0x0 KECCAK256 PUSH1 0x0 ADD PUSH1 0x1F SWAP1 SLOAD SWAP1 PUSH2 0x100 EXP SWAP1 DIV PUSH1 0xFF AND SWAP1 POP SWAP2 SWAP1 POP JUMP JUMPDEST PUSH1 0x0 PUSH2 0x49F8 PUSH2 0x49AE PUSH32 0x7810DD197AC7D3D75533BE9075215C92ADAF5980BA9875B2D92F9D3C2C1C98C9 DUP7 PUSH1 0x40 MLOAD PUSH1 0x20 ADD PUSH2 0x4993 SWAP3 SWAP2 SWAP1 PUSH2 0x9BAF JUMP JUMPDEST PUSH1 0x40 MLOAD PUSH1 0x20 DUP2 DUP4 SUB SUB DUP2 MSTORE SWAP1 PUSH1 0x40 MSTORE DUP1 MLOAD SWAP1 PUSH1 0x20 ADD KECCAK256 PUSH2 0x5479 JUMP JUMPDEST DUP5 DUP5 DUP1 DUP1 PUSH1 0x1F ADD PUSH1 0x20 DUP1 SWAP2 DIV MUL PUSH1 0x20 ADD PUSH1 0x40 MLOAD SWAP1 DUP2 ADD PUSH1 0x40 MSTORE DUP1 SWAP4 SWAP3 SWAP2 SWAP1 DUP2 DUP2 MSTORE PUSH1 0x20 ADD DUP4 DUP4 DUP1 DUP3 DUP5 CALLDATACOPY PUSH1 0x0 DUP2 DUP5 ADD MSTORE PUSH1 0x1F NOT PUSH1 0x1F DUP3 ADD AND SWAP1 POP DUP1 DUP4 ADD SWAP3 POP POP POP POP POP POP POP PUSH2 0x5493 JUMP JUMPDEST SWAP1 POP PUSH1 0x9C PUSH1 0x0 SWAP1 SLOAD SWAP1 PUSH2 0x100 EXP SWAP1 DIV PUSH20 0xFFFFFFFFFFFFFFFFFFFFFFFFFFFFFFFFFFFFFFFF AND PUSH20 0xFFFFFFFFFFFFFFFFFFFFFFFFFFFFFFFFFFFFFFFF AND PUSH4 0x5249E862 DUP3 PUSH1 0x40 MLOAD DUP3 PUSH4 0xFFFFFFFF AND PUSH1 0xE0 SHL DUP2 MSTORE PUSH1 0x4 ADD PUSH2 0x4A55 SWAP2 SWAP1 PUSH2 0x845F JUMP JUMPDEST PUSH1 0x20 PUSH1 0x40 MLOAD DUP1 DUP4 SUB DUP2 DUP7 DUP1 EXTCODESIZE ISZERO DUP1 ISZERO PUSH2 0x4A6D JUMPI PUSH1 0x0 DUP1 REVERT JUMPDEST POP GAS STATICCALL ISZERO DUP1 ISZERO PUSH2 0x4A81 JUMPI RETURNDATASIZE PUSH1 0x0 DUP1 RETURNDATACOPY RETURNDATASIZE PUSH1 0x0 REVERT JUMPDEST POP POP POP POP PUSH1 0x40 MLOAD RETURNDATASIZE PUSH1 0x1F NOT PUSH1 0x1F DUP3 ADD AND DUP3 ADD DUP1 PUSH1 0x40 MSTORE POP DUP2 ADD SWAP1 PUSH2 0x4AA5 SWAP2 SWAP1 PUSH2 0x9726 JUMP JUMPDEST PUSH2 0x4AE6 JUMPI DUP1 PUSH1 0x40 MLOAD PUSH32 0x9941450D00000000000000000000000000000000000000000000000000000000 DUP2 MSTORE PUSH1 0x4 ADD PUSH2 0x4ADD SWAP2 SWAP1 PUSH2 0x845F JUMP JUMPDEST PUSH1 0x40 MLOAD DUP1 SWAP2 SUB SWAP1 REVERT JUMPDEST PUSH1 0x5 PUSH1 0x7 DUP2 GT ISZERO PUSH2 0x4AFA JUMPI PUSH2 0x4AF9 PUSH2 0x804D JUMP JUMPDEST JUMPDEST PUSH2 0x16D PUSH1 0x0 DUP4 PUSH20 0xFFFFFFFFFFFFFFFFFFFFFFFFFFFFFFFFFFFFFFFF AND PUSH20 0xFFFFFFFFFFFFFFFFFFFFFFFFFFFFFFFFFFFFFFFF AND DUP2 MSTORE PUSH1 0x20 ADD SWAP1 DUP2 MSTORE PUSH1 0x20 ADD PUSH1 0x0 KECCAK256 PUSH1 0x0 SWAP1 SLOAD SWAP1 PUSH2 0x100 EXP SWAP1 DIV PUSH1 0xFF AND PUSH1 0x7 DUP2 GT ISZERO PUSH2 0x4B5A JUMPI PUSH2 0x4B59 PUSH2 0x804D JUMP JUMPDEST JUMPDEST EQ PUSH2 0x4C3E JUMPI PUSH1 0x6 PUSH2 0x175 PUSH1 0x0 DUP4 PUSH20 0xFFFFFFFFFFFFFFFFFFFFFFFFFFFFFFFFFFFFFFFF AND PUSH20 0xFFFFFFFFFFFFFFFFFFFFFFFFFFFFFFFFFFFFFFFF AND DUP2 MSTORE PUSH1 0x20 ADD SWAP1 DUP2 MSTORE PUSH1 0x20 ADD PUSH1 0x0 KECCAK256 SLOAD EQ ISZERO PUSH2 0x4BE5 JUMPI DUP1 PUSH1 0x40 MLOAD PUSH32 0x2D4CC33300000000000000000000000000000000000000000000000000000000 DUP2 MSTORE PUSH1 0x4 ADD PUSH2 0x4BDC SWAP2 SWAP1 PUSH2 0x845F JUMP JUMPDEST PUSH1 0x40 MLOAD DUP1 SWAP2 SUB SWAP1 REVERT JUMPDEST PUSH1 0x1 PUSH2 0x175 PUSH1 0x0 DUP4 PUSH20 0xFFFFFFFFFFFFFFFFFFFFFFFFFFFFFFFFFFFFFFFF AND PUSH20 0xFFFFFFFFFFFFFFFFFFFFFFFFFFFFFFFFFFFFFFFF AND DUP2 MSTORE PUSH1 0x20 ADD SWAP1 DUP2 MSTORE PUSH1 0x20 ADD PUSH1 0x0 KECCAK256 PUSH1 0x0 DUP3 DUP3 SLOAD PUSH2 0x4C36 SWAP2 SWAP1 PUSH2 0x8F74 JUMP JUMPDEST SWAP3 POP POP DUP2 SWAP1 SSTORE POP JUMPDEST PUSH1 0x9C PUSH1 0x0 SWAP1 SLOAD SWAP1 PUSH2 0x100 EXP SWAP1 DIV PUSH20 0xFFFFFFFFFFFFFFFFFFFFFFFFFFFFFFFFFFFFFFFF AND PUSH20 0xFFFFFFFFFFFFFFFFFFFFFFFFFFFFFFFFFFFFFFFF AND PUSH4 0x9B19251A DUP6 PUSH1 0x40 MLOAD DUP3 PUSH4 0xFFFFFFFF AND PUSH1 0xE0 SHL DUP2 MSTORE PUSH1 0x4 ADD PUSH2 0x4C99 SWAP2 SWAP1 PUSH2 0x845F JUMP JUMPDEST PUSH1 0x0 PUSH1 0x40 MLOAD DUP1 DUP4 SUB DUP2 PUSH1 0x0 DUP8 DUP1 EXTCODESIZE ISZERO DUP1 ISZERO PUSH2 0x4CB3 JUMPI PUSH1 0x0 DUP1 REVERT JUMPDEST POP GAS CALL ISZERO DUP1 ISZERO PUSH2 0x4CC7 JUMPI RETURNDATASIZE PUSH1 0x0 DUP1 RETURNDATACOPY RETURNDATASIZE PUSH1 0x0 REVERT JUMPDEST POP POP POP POP DUP4 PUSH20 0xFFFFFFFFFFFFFFFFFFFFFFFFFFFFFFFFFFFFFFFF AND DUP2 PUSH20 0xFFFFFFFFFFFFFFFFFFFFFFFFFFFFFFFFFFFFFFFF AND PUSH32 0xF349B542B30498EE9489CE96497606E076FE44B27A40C5CF9D3E7E6DFDB9AFC PUSH1 0x40 MLOAD PUSH1 0x40 MLOAD DUP1 SWAP2 SUB SWAP1 LOG3 POP POP POP POP JUMP JUMPDEST PUSH1 0x9D PUSH1 0x8 SWAP1 SLOAD SWAP1 PUSH2 0x100 EXP SWAP1 DIV PUSH8 0xFFFFFFFFFFFFFFFF AND DUP2 JUMP JUMPDEST DUP1 MLOAD DUP3 MLOAD EQ PUSH2 0x4D8F JUMPI DUP2 MLOAD DUP2 MLOAD PUSH1 0x40 MLOAD PUSH32 0x5778839300000000000000000000000000000000000000000000000000000000 DUP2 MSTORE PUSH1 0x4 ADD PUSH2 0x4D86 SWAP3 SWAP2 SWAP1 PUSH2 0x8FCA JUMP JUMPDEST PUSH1 0x40 MLOAD DUP1 SWAP2 SUB SWAP1 REVERT JUMPDEST PUSH1 0x9C PUSH1 0x0 SWAP1 SLOAD SWAP1 PUSH2 0x100 EXP SWAP1 DIV PUSH20 0xFFFFFFFFFFFFFFFFFFFFFFFFFFFFFFFFFFFFFFFF AND PUSH20 0xFFFFFFFFFFFFFFFFFFFFFFFFFFFFFFFFFFFFFFFF AND PUSH4 0x5249E862 CALLER PUSH1 0x40 MLOAD DUP3 PUSH4 0xFFFFFFFF AND PUSH1 0xE0 SHL DUP2 MSTORE PUSH1 0x4 ADD PUSH2 0x4DEA SWAP2 SWAP1 PUSH2 0x845F JUMP JUMPDEST PUSH1 0x20 PUSH1 0x40 MLOAD DUP1 DUP4 SUB DUP2 DUP7 DUP1 EXTCODESIZE ISZERO DUP1 ISZERO PUSH2 0x4E02 JUMPI PUSH1 0x0 DUP1 REVERT JUMPDEST POP GAS STATICCALL ISZERO DUP1 ISZERO PUSH2 0x4E16 JUMPI RETURNDATASIZE PUSH1 0x0 DUP1 RETURNDATACOPY RETURNDATASIZE PUSH1 0x0 REVERT JUMPDEST POP POP POP POP PUSH1 0x40 MLOAD RETURNDATASIZE PUSH1 0x1F NOT PUSH1 0x1F DUP3 ADD AND DUP3 ADD DUP1 PUSH1 0x40 MSTORE POP DUP2 ADD SWAP1 PUSH2 0x4E3A SWAP2 SWAP1 PUSH2 0x9726 JUMP JUMPDEST PUSH2 0x4E7B JUMPI CALLER PUSH1 0x40 MLOAD PUSH32 0x9941450D00000000000000000000000000000000000000000000000000000000 DUP2 MSTORE PUSH1 0x4 ADD PUSH2 0x4E72 SWAP2 SWAP1 PUSH2 0x845F JUMP JUMPDEST PUSH1 0x40 MLOAD DUP1 SWAP2 SUB SWAP1 REVERT JUMPDEST PUSH1 0x0 JUMPDEST DUP3 MLOAD DUP2 LT ISZERO PUSH2 0x5044 JUMPI PUSH1 0x0 PUSH2 0x4EAC DUP5 DUP4 DUP2 MLOAD DUP2 LT PUSH2 0x4E9F JUMPI PUSH2 0x4E9E PUSH2 0x990A JUMP JUMPDEST JUMPDEST PUSH1 0x20 MUL PUSH1 0x20 ADD ADD MLOAD PUSH2 0x63A8 JUMP JUMPDEST SWAP1 POP PUSH1 0x0 PUSH1 0x9C PUSH1 0x0 SWAP1 SLOAD SWAP1 PUSH2 0x100 EXP SWAP1 DIV PUSH20 0xFFFFFFFFFFFFFFFFFFFFFFFFFFFFFFFFFFFFFFFF AND PUSH20 0xFFFFFFFFFFFFFFFFFFFFFFFFFFFFFFFFFFFFFFFF AND PUSH4 0x3A46B1A8 CALLER DUP5 PUSH1 0x2 ADD PUSH1 0x1C SWAP1 SLOAD SWAP1 PUSH2 0x100 EXP SWAP1 DIV PUSH4 0xFFFFFFFF AND PUSH1 0x40 MLOAD DUP4 PUSH4 0xFFFFFFFF AND PUSH1 0xE0 SHL DUP2 MSTORE PUSH1 0x4 ADD PUSH2 0x4F21 SWAP3 SWAP2 SWAP1 PUSH2 0x9BD8 JUMP JUMPDEST PUSH1 0x20 PUSH1 0x40 MLOAD DUP1 DUP4 SUB DUP2 DUP7 DUP1 EXTCODESIZE ISZERO DUP1 ISZERO PUSH2 0x4F39 JUMPI PUSH1 0x0 DUP1 REVERT JUMPDEST POP GAS STATICCALL ISZERO DUP1 ISZERO PUSH2 0x4F4D JUMPI RETURNDATASIZE PUSH1 0x0 DUP1 RETURNDATACOPY RETURNDATASIZE PUSH1 0x0 REVERT JUMPDEST POP POP POP POP PUSH1 0x40 MLOAD RETURNDATASIZE PUSH1 0x1F NOT PUSH1 0x1F DUP3 ADD AND DUP3 ADD DUP1 PUSH1 0x40 MSTORE POP DUP2 ADD SWAP1 PUSH2 0x4F71 SWAP2 SWAP1 PUSH2 0x91D6 JUMP JUMPDEST SWAP1 POP PUSH1 0x0 DUP2 PUSH1 0xD SIGNEXTEND EQ ISZERO PUSH2 0x4F87 JUMPI POP POP POP PUSH2 0x5046 JUMP JUMPDEST PUSH1 0x0 DUP5 DUP5 DUP2 MLOAD DUP2 LT PUSH2 0x4F9C JUMPI PUSH2 0x4F9B PUSH2 0x990A JUMP JUMPDEST JUMPDEST PUSH1 0x20 MUL PUSH1 0x20 ADD ADD MLOAD SWAP1 POP PUSH1 0x0 DUP1 DUP3 PUSH1 0xD SIGNEXTEND EQ ISZERO PUSH2 0x4FBC JUMPI PUSH1 0x0 SWAP1 POP PUSH2 0x5006 JUMP JUMPDEST PUSH1 0x0 DUP3 PUSH1 0xD SIGNEXTEND SGT PUSH2 0x4FD6 JUMPI DUP2 PUSH2 0x4FD1 SWAP1 PUSH2 0x9C01 JUMP JUMPDEST PUSH2 0x4FD8 JUMP JUMPDEST DUP2 JUMPDEST SWAP1 POP DUP3 PUSH1 0xD SIGNEXTEND DUP2 PUSH1 0xD SIGNEXTEND SGT ISZERO PUSH2 0x5005 JUMPI DUP1 DUP3 PUSH2 0x4FF4 SWAP2 SWAP1 PUSH2 0x9C4A JUMP JUMPDEST DUP4 PUSH2 0x4FFF SWAP2 SWAP1 PUSH2 0x9CB4 JUMP JUMPDEST SWAP2 POP DUP3 SWAP1 POP JUMPDEST JUMPDEST PUSH2 0x502D CALLER DUP9 DUP8 DUP2 MLOAD DUP2 LT PUSH2 0x501D JUMPI PUSH2 0x501C PUSH2 0x990A JUMP JUMPDEST JUMPDEST PUSH1 0x20 MUL PUSH1 0x20 ADD ADD MLOAD DUP7 DUP6 DUP6 PUSH2 0x640E JUMP JUMPDEST POP POP POP POP DUP1 DUP1 PUSH2 0x503C SWAP1 PUSH2 0x8FF3 JUMP JUMPDEST SWAP2 POP POP PUSH2 0x4E7E JUMP JUMPDEST POP JUMPDEST POP POP JUMP JUMPDEST PUSH1 0x0 DUP1 DUP3 PUSH20 0xFFFFFFFFFFFFFFFFFFFFFFFFFFFFFFFFFFFFFFFF AND EXTCODESIZE GT SWAP1 POP SWAP2 SWAP1 POP JUMP JUMPDEST PUSH1 0x0 PUSH1 0x1 PUSH1 0x8 DUP4 PUSH2 0xFFFF AND SWAP1 SHR PUSH2 0xFFFF AND EQ SWAP1 POP SWAP2 SWAP1 POP JUMP JUMPDEST PUSH1 0x0 PUSH2 0x5091 DUP4 PUSH2 0x67F8 JUMP JUMPDEST DUP1 ISZERO PUSH2 0x50A3 JUMPI POP PUSH2 0x50A2 DUP4 DUP4 PUSH2 0x6845 JUMP JUMPDEST JUMPDEST SWAP1 POP SWAP3 SWAP2 POP POP JUMP JUMPDEST PUSH1 0x0 PUSH2 0x50B6 CALLER PUSH2 0x1592 JUMP JUMPDEST PUSH2 0x50F7 JUMPI CALLER PUSH1 0x40 MLOAD PUSH32 0xDF17E31600000000000000000000000000000000000000000000000000000000 DUP2 MSTORE PUSH1 0x4 ADD PUSH2 0x50EE SWAP2 SWAP1 PUSH2 0x845F JUMP JUMPDEST PUSH1 0x40 MLOAD DUP1 SWAP2 SUB SWAP1 REVERT JUMPDEST PUSH1 0x9E SLOAD SWAP1 POP PUSH1 0x9E PUSH1 0x0 DUP2 SLOAD DUP1 SWAP3 SWAP2 SWAP1 PUSH2 0x510F SWAP1 PUSH2 0x8FF3 JUMP JUMPDEST SWAP2 SWAP1 POP SSTORE POP PUSH1 0x0 PUSH1 0x9F PUSH1 0x0 DUP4 DUP2 MSTORE PUSH1 0x20 ADD SWAP1 DUP2 MSTORE PUSH1 0x20 ADD PUSH1 0x0 KECCAK256 SWAP1 POP CALLER DUP2 PUSH1 0x0 ADD PUSH1 0x0 PUSH2 0x100 EXP DUP2 SLOAD DUP2 PUSH20 0xFFFFFFFFFFFFFFFFFFFFFFFFFFFFFFFFFFFFFFFF MUL NOT AND SWAP1 DUP4 PUSH20 0xFFFFFFFFFFFFFFFFFFFFFFFFFFFFFFFFFFFFFFFF AND MUL OR SWAP1 SSTORE POP PUSH1 0x1 DUP2 PUSH1 0x0 ADD PUSH1 0x14 PUSH2 0x100 EXP DUP2 SLOAD DUP2 PUSH1 0xFF MUL NOT AND SWAP1 DUP4 PUSH1 0x4 DUP2 GT ISZERO PUSH2 0x5196 JUMPI PUSH2 0x5195 PUSH2 0x804D JUMP JUMPDEST JUMPDEST MUL OR SWAP1 SSTORE POP TIMESTAMP DUP2 PUSH1 0x0 ADD PUSH1 0x15 PUSH2 0x100 EXP DUP2 SLOAD DUP2 PUSH8 0xFFFFFFFFFFFFFFFF MUL NOT AND SWAP1 DUP4 PUSH8 0xFFFFFFFFFFFFFFFF AND MUL OR SWAP1 SSTORE POP PUSH1 0x1 NUMBER PUSH2 0x51D3 SWAP2 SWAP1 PUSH2 0x9DA7 JUMP JUMPDEST DUP2 PUSH1 0x2 ADD PUSH1 0x1C PUSH2 0x100 EXP DUP2 SLOAD DUP2 PUSH4 0xFFFFFFFF MUL NOT AND SWAP1 DUP4 PUSH4 0xFFFFFFFF AND MUL OR SWAP1 SSTORE POP DUP5 DUP2 PUSH1 0x0 ADD PUSH1 0x1D PUSH2 0x100 EXP DUP2 SLOAD DUP2 PUSH2 0xFFFF MUL NOT AND SWAP1 DUP4 PUSH2 0xFFFF AND MUL OR SWAP1 SSTORE POP DUP4 DUP2 PUSH1 0x0 ADD PUSH1 0x1F PUSH2 0x100 EXP DUP2 SLOAD DUP2 PUSH1 0xFF MUL NOT AND SWAP1 DUP4 ISZERO ISZERO MUL OR SWAP1 SSTORE POP DUP1 PUSH1 0x0 ADD PUSH1 0x0 SWAP1 SLOAD SWAP1 PUSH2 0x100 EXP SWAP1 DIV PUSH20 0xFFFFFFFFFFFFFFFFFFFFFFFFFFFFFFFFFFFFFFFF AND PUSH20 0xFFFFFFFFFFFFFFFFFFFFFFFFFFFFFFFFFFFFFFFF AND DUP6 PUSH2 0xFFFF AND DUP4 PUSH32 0xA66D3D6A278ED13A784F39214D0C40CBA80E5FDC1FC26663F35330E33214F913 DUP8 DUP8 PUSH1 0x40 MLOAD PUSH2 0x52A2 SWAP3 SWAP2 SWAP1 PUSH2 0x9DDB JUMP JUMPDEST PUSH1 0x40 MLOAD DUP1 SWAP2 SUB SWAP1 LOG4 DUP1 PUSH1 0x0 ADD PUSH1 0x14 SWAP1 SLOAD SWAP1 PUSH2 0x100 EXP SWAP1 DIV PUSH1 0xFF AND PUSH1 0x4 DUP2 GT ISZERO PUSH2 0x52CE JUMPI PUSH2 0x52CD PUSH2 0x804D JUMP JUMPDEST JUMPDEST DUP3 PUSH32 0xAE774EE17B72F8C8F4C7144D988D61A4DA4DF057D2B0F9EB733E5A4E3912A8FB PUSH1 0x40 MLOAD PUSH1 0x40 MLOAD DUP1 SWAP2 SUB SWAP1 LOG3 PUSH2 0x5305 DUP3 CALLER PUSH2 0x61F8 JUMP JUMPDEST POP SWAP4 SWAP3 POP POP POP JUMP JUMPDEST PUSH1 0x0 PUSH1 0x1 PUSH1 0x4 DUP2 GT ISZERO PUSH2 0x5323 JUMPI PUSH2 0x5322 PUSH2 0x804D JUMP JUMPDEST JUMPDEST DUP3 PUSH1 0x0 ADD PUSH1 0x14 SWAP1 SLOAD SWAP1 PUSH2 0x100 EXP SWAP1 DIV PUSH1 0xFF AND PUSH1 0x4 DUP2 GT ISZERO PUSH2 0x5347 JUMPI PUSH2 0x5346 PUSH2 0x804D JUMP JUMPDEST JUMPDEST EQ DUP1 ISZERO PUSH2 0x5396 JUMPI POP PUSH1 0x9C PUSH1 0x14 SWAP1 SLOAD SWAP1 PUSH2 0x100 EXP SWAP1 DIV PUSH8 0xFFFFFFFFFFFFFFFF AND DUP3 PUSH1 0x0 ADD PUSH1 0x15 SWAP1 SLOAD SWAP1 PUSH2 0x100 EXP SWAP1 DIV PUSH8 0xFFFFFFFFFFFFFFFF AND PUSH2 0x5389 SWAP2 SWAP1 PUSH2 0x95D0 JUMP JUMPDEST PUSH8 0xFFFFFFFFFFFFFFFF AND TIMESTAMP LT JUMPDEST SWAP1 POP SWAP2 SWAP1 POP JUMP JUMPDEST PUSH1 0x0 DUP2 SWAP1 POP SWAP2 SWAP1 POP JUMP JUMPDEST PUSH2 0x53D9 DUP2 PUSH1 0x3 DUP4 PUSH1 0x40 MLOAD PUSH1 0x20 ADD PUSH2 0x53BE SWAP2 SWAP1 PUSH2 0x9EA3 JUMP JUMPDEST PUSH1 0x40 MLOAD PUSH1 0x20 DUP2 DUP4 SUB SUB DUP2 MSTORE SWAP1 PUSH1 0x40 MSTORE DUP1 MLOAD SWAP1 PUSH1 0x20 ADD KECCAK256 PUSH2 0x53DC JUMP JUMPDEST POP JUMP JUMPDEST PUSH1 0x9C PUSH1 0x0 SWAP1 SLOAD SWAP1 PUSH2 0x100 EXP SWAP1 DIV PUSH20 0xFFFFFFFFFFFFFFFFFFFFFFFFFFFFFFFFFFFFFFFF AND PUSH20 0xFFFFFFFFFFFFFFFFFFFFFFFFFFFFFFFFFFFFFFFF AND PUSH4 0x9B19251A DUP5 PUSH1 0x40 MLOAD DUP3 PUSH4 0xFFFFFFFF AND PUSH1 0xE0 SHL DUP2 MSTORE PUSH1 0x4 ADD PUSH2 0x5437 SWAP2 SWAP1 PUSH2 0x845F JUMP JUMPDEST PUSH1 0x0 PUSH1 0x40 MLOAD DUP1 DUP4 SUB DUP2 PUSH1 0x0 DUP8 DUP1 EXTCODESIZE ISZERO DUP1 ISZERO PUSH2 0x5451 JUMPI PUSH1 0x0 DUP1 REVERT JUMPDEST POP GAS CALL ISZERO DUP1 ISZERO PUSH2 0x5465 JUMPI RETURNDATASIZE PUSH1 0x0 DUP1 RETURNDATACOPY RETURNDATASIZE PUSH1 0x0 REVERT JUMPDEST POP POP POP POP PUSH2 0x5474 DUP4 DUP4 DUP4 PUSH2 0x54BA JUMP JUMPDEST POP POP POP JUMP JUMPDEST PUSH1 0x0 PUSH2 0x548C PUSH2 0x5486 PUSH2 0x6904 JUMP JUMPDEST DUP4 PUSH2 0x6944 JUMP JUMPDEST SWAP1 POP SWAP2 SWAP1 POP JUMP JUMPDEST PUSH1 0x0 DUP1 PUSH1 0x0 PUSH2 0x54A2 DUP6 DUP6 PUSH2 0x6977 JUMP JUMPDEST SWAP2 POP SWAP2 POP PUSH2 0x54AF DUP2 PUSH2 0x69C9 JUMP JUMPDEST DUP2 SWAP3 POP POP POP SWAP3 SWAP2 POP POP JUMP JUMPDEST PUSH2 0x54C4 DUP4 DUP4 PUSH2 0x6B37 JUMP JUMPDEST PUSH1 0x9C PUSH1 0x0 SWAP1 SLOAD SWAP1 PUSH2 0x100 EXP SWAP1 DIV PUSH20 0xFFFFFFFFFFFFFFFFFFFFFFFFFFFFFFFFFFFFFFFF AND PUSH20 0xFFFFFFFFFFFFFFFFFFFFFFFFFFFFFFFFFFFFFFFF AND PUSH4 0x4514CDDA DUP5 DUP4 PUSH1 0x0 PUSH1 0x40 MLOAD DUP5 PUSH4 0xFFFFFFFF AND PUSH1 0xE0 SHL DUP2 MSTORE PUSH1 0x4 ADD PUSH2 0x5524 SWAP4 SWAP3 SWAP2 SWAP1 PUSH2 0x9EFA JUMP JUMPDEST PUSH1 0x0 PUSH1 0x40 MLOAD DUP1 DUP4 SUB DUP2 PUSH1 0x0 DUP8 DUP1 EXTCODESIZE ISZERO DUP1 ISZERO PUSH2 0x553E JUMPI PUSH1 0x0 DUP1 REVERT JUMPDEST POP GAS CALL ISZERO DUP1 ISZERO PUSH2 0x5552 JUMPI RETURNDATASIZE PUSH1 0x0 DUP1 RETURNDATACOPY RETURNDATASIZE PUSH1 0x0 REVERT JUMPDEST POP POP POP POP POP POP POP JUMP JUMPDEST PUSH2 0x5564 DUP4 PUSH2 0x506D JUMP JUMPDEST ISZERO PUSH2 0x61E3 JUMPI PUSH1 0x0 PUSH2 0x100 DUP5 XOR PUSH2 0xFFFF AND PUSH1 0x3 DUP2 GT ISZERO PUSH2 0x5586 JUMPI PUSH2 0x5585 PUSH2 0x804D JUMP JUMPDEST JUMPDEST SWAP1 POP PUSH1 0x0 PUSH1 0x3 DUP2 GT ISZERO PUSH2 0x559C JUMPI PUSH2 0x559B PUSH2 0x804D JUMP JUMPDEST JUMPDEST DUP2 PUSH1 0x3 DUP2 GT ISZERO PUSH2 0x55AF JUMPI PUSH2 0x55AE PUSH2 0x804D JUMP JUMPDEST JUMPDEST EQ ISZERO PUSH2 0x55BA JUMPI PUSH2 0x61DD JUMP JUMPDEST PUSH1 0x1 PUSH1 0x3 DUP2 GT ISZERO PUSH2 0x55CE JUMPI PUSH2 0x55CD PUSH2 0x804D JUMP JUMPDEST JUMPDEST DUP2 PUSH1 0x3 DUP2 GT ISZERO PUSH2 0x55E1 JUMPI PUSH2 0x55E0 PUSH2 0x804D JUMP JUMPDEST JUMPDEST EQ ISZERO PUSH2 0x578D JUMPI PUSH1 0x0 PUSH2 0x106 PUSH1 0x0 DUP8 DUP2 MSTORE PUSH1 0x20 ADD SWAP1 DUP2 MSTORE PUSH1 0x20 ADD PUSH1 0x0 KECCAK256 SWAP1 POP DUP1 PUSH1 0x0 ADD PUSH1 0x0 SWAP1 SLOAD SWAP1 PUSH2 0x100 EXP SWAP1 DIV PUSH20 0xFFFFFFFFFFFFFFFFFFFFFFFFFFFFFFFFFFFFFFFF AND PUSH20 0xFFFFFFFFFFFFFFFFFFFFFFFFFFFFFFFFFFFFFFFF AND PUSH4 0x6D8C7CE5 DUP3 PUSH1 0x1 ADD PUSH1 0x0 SWAP1 SLOAD SWAP1 PUSH2 0x100 EXP SWAP1 DIV PUSH20 0xFFFFFFFFFFFFFFFFFFFFFFFFFFFFFFFFFFFFFFFF AND DUP4 PUSH1 0x3 ADD SLOAD DUP5 PUSH1 0x2 ADD PUSH1 0x0 SWAP1 SLOAD SWAP1 PUSH2 0x100 EXP SWAP1 DIV PUSH20 0xFFFFFFFFFFFFFFFFFFFFFFFFFFFFFFFFFFFFFFFF AND DUP6 PUSH1 0x4 ADD PUSH1 0x40 MLOAD DUP6 PUSH4 0xFFFFFFFF AND PUSH1 0xE0 SHL DUP2 MSTORE PUSH1 0x4 ADD PUSH2 0x56B1 SWAP5 SWAP4 SWAP3 SWAP2 SWAP1 PUSH2 0xA027 JUMP JUMPDEST PUSH1 0x0 PUSH1 0x40 MLOAD DUP1 DUP4 SUB DUP2 PUSH1 0x0 DUP8 DUP1 EXTCODESIZE ISZERO DUP1 ISZERO PUSH2 0x56CB JUMPI PUSH1 0x0 DUP1 REVERT JUMPDEST POP GAS CALL ISZERO DUP1 ISZERO PUSH2 0x56DF JUMPI RETURNDATASIZE PUSH1 0x0 DUP1 RETURNDATACOPY RETURNDATASIZE PUSH1 0x0 REVERT JUMPDEST POP POP POP POP PUSH2 0x106 PUSH1 0x0 DUP8 DUP2 MSTORE PUSH1 0x20 ADD SWAP1 DUP2 MSTORE PUSH1 0x20 ADD PUSH1 0x0 KECCAK256 PUSH1 0x0 DUP1 DUP3 ADD PUSH1 0x0 PUSH2 0x100 EXP DUP2 SLOAD SWAP1 PUSH20 0xFFFFFFFFFFFFFFFFFFFFFFFFFFFFFFFFFFFFFFFF MUL NOT AND SWAP1 SSTORE PUSH1 0x1 DUP3 ADD PUSH1 0x0 PUSH2 0x100 EXP DUP2 SLOAD SWAP1 PUSH20 0xFFFFFFFFFFFFFFFFFFFFFFFFFFFFFFFFFFFFFFFF MUL NOT AND SWAP1 SSTORE PUSH1 0x2 DUP3 ADD PUSH1 0x0 PUSH2 0x100 EXP DUP2 SLOAD SWAP1 PUSH20 0xFFFFFFFFFFFFFFFFFFFFFFFFFFFFFFFFFFFFFFFF MUL NOT AND SWAP1 SSTORE PUSH1 0x3 DUP3 ADD PUSH1 0x0 SWAP1 SSTORE PUSH1 0x4 DUP3 ADD PUSH1 0x0 PUSH2 0x5785 SWAP2 SWAP1 PUSH2 0x7CFA JUMP JUMPDEST POP POP POP PUSH2 0x61DC JUMP JUMPDEST PUSH1 0x2 PUSH1 0x3 DUP2 GT ISZERO PUSH2 0x57A1 JUMPI PUSH2 0x57A0 PUSH2 0x804D JUMP JUMPDEST JUMPDEST DUP2 PUSH1 0x3 DUP2 GT ISZERO PUSH2 0x57B4 JUMPI PUSH2 0x57B3 PUSH2 0x804D JUMP JUMPDEST JUMPDEST EQ ISZERO PUSH2 0x6010 JUMPI PUSH1 0x0 PUSH2 0x107 PUSH1 0x0 DUP8 DUP2 MSTORE PUSH1 0x20 ADD SWAP1 DUP2 MSTORE PUSH1 0x20 ADD PUSH1 0x0 KECCAK256 SWAP1 POP PUSH1 0x0 DUP2 PUSH1 0x3 ADD SLOAD EQ ISZERO PUSH2 0x58F1 JUMPI PUSH1 0x0 DUP5 DUP5 DUP2 ADD SWAP1 PUSH2 0x57F0 SWAP2 SWAP1 PUSH2 0x7FAF JUMP JUMPDEST SWAP1 POP DUP2 PUSH1 0x0 ADD PUSH1 0x0 SWAP1 SLOAD SWAP1 PUSH2 0x100 EXP SWAP1 DIV PUSH20 0xFFFFFFFFFFFFFFFFFFFFFFFFFFFFFFFFFFFFFFFF AND PUSH20 0xFFFFFFFFFFFFFFFFFFFFFFFFFFFFFFFFFFFFFFFF AND PUSH4 0xB6ED0632 DUP4 PUSH1 0x2 ADD SLOAD DUP4 PUSH1 0x40 MLOAD DUP4 PUSH4 0xFFFFFFFF AND PUSH1 0xE0 SHL DUP2 MSTORE PUSH1 0x4 ADD PUSH2 0x5855 SWAP3 SWAP2 SWAP1 PUSH2 0x8FCA JUMP JUMPDEST PUSH1 0x20 PUSH1 0x40 MLOAD DUP1 DUP4 SUB DUP2 PUSH1 0x0 DUP8 DUP1 EXTCODESIZE ISZERO DUP1 ISZERO PUSH2 0x586F JUMPI PUSH1 0x0 DUP1 REVERT JUMPDEST POP GAS CALL ISZERO DUP1 ISZERO PUSH2 0x5883 JUMPI RETURNDATASIZE PUSH1 0x0 DUP1 RETURNDATACOPY RETURNDATASIZE PUSH1 0x0 REVERT JUMPDEST POP POP POP POP PUSH1 0x40 MLOAD RETURNDATASIZE PUSH1 0x1F NOT PUSH1 0x1F DUP3 ADD AND DUP3 ADD DUP1 PUSH1 0x40 MSTORE POP DUP2 ADD SWAP1 PUSH2 0x58A7 SWAP2 SWAP1 PUSH2 0x9726 JUMP JUMPDEST PUSH2 0x58EB JUMPI ADDRESS PUSH1 0x0 PUSH1 0x40 MLOAD PUSH32 0x5964884100000000000000000000000000000000000000000000000000000000 DUP2 MSTORE PUSH1 0x4 ADD PUSH2 0x58E2 SWAP3 SWAP2 SWAP1 PUSH2 0x8F1C JUMP JUMPDEST PUSH1 0x40 MLOAD DUP1 SWAP2 SUB SWAP1 REVERT JUMPDEST POP PUSH2 0x5F81 JUMP JUMPDEST PUSH1 0x0 PUSH1 0x9C PUSH1 0x0 SWAP1 SLOAD SWAP1 PUSH2 0x100 EXP SWAP1 DIV PUSH20 0xFFFFFFFFFFFFFFFFFFFFFFFFFFFFFFFFFFFFFFFF AND PUSH20 0xFFFFFFFFFFFFFFFFFFFFFFFFFFFFFFFFFFFFFFFF AND PUSH4 0x7D9F6DB5 PUSH1 0x40 MLOAD DUP2 PUSH4 0xFFFFFFFF AND PUSH1 0xE0 SHL DUP2 MSTORE PUSH1 0x4 ADD PUSH1 0x20 PUSH1 0x40 MLOAD DUP1 DUP4 SUB DUP2 DUP7 DUP1 EXTCODESIZE ISZERO DUP1 ISZERO PUSH2 0x595B JUMPI PUSH1 0x0 DUP1 REVERT JUMPDEST POP GAS STATICCALL ISZERO DUP1 ISZERO PUSH2 0x596F JUMPI RETURNDATASIZE PUSH1 0x0 DUP1 RETURNDATACOPY RETURNDATASIZE PUSH1 0x0 REVERT JUMPDEST POP POP POP POP PUSH1 0x40 MLOAD RETURNDATASIZE PUSH1 0x1F NOT PUSH1 0x1F DUP3 ADD AND DUP3 ADD DUP1 PUSH1 0x40 MSTORE POP DUP2 ADD SWAP1 PUSH2 0x5993 SWAP2 SWAP1 PUSH2 0xA088 JUMP JUMPDEST PUSH20 0xFFFFFFFFFFFFFFFFFFFFFFFFFFFFFFFFFFFFFFFF AND DUP3 PUSH1 0x1 ADD PUSH1 0x0 SWAP1 SLOAD SWAP1 PUSH2 0x100 EXP SWAP1 DIV PUSH20 0xFFFFFFFFFFFFFFFFFFFFFFFFFFFFFFFFFFFFFFFF AND PUSH20 0xFFFFFFFFFFFFFFFFFFFFFFFFFFFFFFFFFFFFFFFF AND EQ SWAP1 POP DUP1 PUSH2 0x5B4A JUMPI DUP2 PUSH1 0x1 ADD PUSH1 0x14 SWAP1 SLOAD SWAP1 PUSH2 0x100 EXP SWAP1 DIV PUSH1 0xFF AND ISZERO PUSH2 0x5ABF JUMPI PUSH1 0x9C PUSH1 0x0 SWAP1 SLOAD SWAP1 PUSH2 0x100 EXP SWAP1 DIV PUSH20 0xFFFFFFFFFFFFFFFFFFFFFFFFFFFFFFFFFFFFFFFF AND PUSH20 0xFFFFFFFFFFFFFFFFFFFFFFFFFFFFFFFFFFFFFFFF AND PUSH4 0x40C10F19 DUP4 PUSH1 0x1 ADD PUSH1 0x0 SWAP1 SLOAD SWAP1 PUSH2 0x100 EXP SWAP1 DIV PUSH20 0xFFFFFFFFFFFFFFFFFFFFFFFFFFFFFFFFFFFFFFFF AND DUP5 PUSH1 0x3 ADD SLOAD PUSH1 0x40 MLOAD DUP4 PUSH4 0xFFFFFFFF AND PUSH1 0xE0 SHL DUP2 MSTORE PUSH1 0x4 ADD PUSH2 0x5A88 SWAP3 SWAP2 SWAP1 PUSH2 0xA0B5 JUMP JUMPDEST PUSH1 0x0 PUSH1 0x40 MLOAD DUP1 DUP4 SUB DUP2 PUSH1 0x0 DUP8 DUP1 EXTCODESIZE ISZERO DUP1 ISZERO PUSH2 0x5AA2 JUMPI PUSH1 0x0 DUP1 REVERT JUMPDEST POP GAS CALL ISZERO DUP1 ISZERO PUSH2 0x5AB6 JUMPI RETURNDATASIZE PUSH1 0x0 DUP1 RETURNDATACOPY RETURNDATASIZE PUSH1 0x0 REVERT JUMPDEST POP POP POP POP PUSH2 0x5B45 JUMP JUMPDEST PUSH1 0x0 DUP3 PUSH1 0x2 ADD SLOAD EQ ISZERO PUSH2 0x5B44 JUMPI PUSH2 0x5B43 DUP3 PUSH1 0x1 ADD PUSH1 0x0 SWAP1 SLOAD SWAP1 PUSH2 0x100 EXP SWAP1 DIV PUSH20 0xFFFFFFFFFFFFFFFFFFFFFFFFFFFFFFFFFFFFFFFF AND DUP4 PUSH1 0x3 ADD SLOAD DUP5 PUSH1 0x0 ADD PUSH1 0x0 SWAP1 SLOAD SWAP1 PUSH2 0x100 EXP SWAP1 DIV PUSH20 0xFFFFFFFFFFFFFFFFFFFFFFFFFFFFFFFFFFFFFFFF AND PUSH20 0xFFFFFFFFFFFFFFFFFFFFFFFFFFFFFFFFFFFFFFFF AND PUSH2 0x6BF9 SWAP1 SWAP3 SWAP2 SWAP1 PUSH4 0xFFFFFFFF AND JUMP JUMPDEST JUMPDEST JUMPDEST PUSH2 0x5BF6 JUMP JUMPDEST DUP2 PUSH1 0x1 ADD PUSH1 0x14 SWAP1 SLOAD SWAP1 PUSH2 0x100 EXP SWAP1 DIV PUSH1 0xFF AND ISZERO PUSH2 0x5BF5 JUMPI PUSH1 0x9C PUSH1 0x0 SWAP1 SLOAD SWAP1 PUSH2 0x100 EXP SWAP1 DIV PUSH20 0xFFFFFFFFFFFFFFFFFFFFFFFFFFFFFFFFFFFFFFFF AND PUSH20 0xFFFFFFFFFFFFFFFFFFFFFFFFFFFFFFFFFFFFFFFF AND PUSH4 0x40C10F19 ADDRESS DUP5 PUSH1 0x3 ADD SLOAD PUSH1 0x40 MLOAD DUP4 PUSH4 0xFFFFFFFF AND PUSH1 0xE0 SHL DUP2 MSTORE PUSH1 0x4 ADD PUSH2 0x5BC2 SWAP3 SWAP2 SWAP1 PUSH2 0xA0B5 JUMP JUMPDEST PUSH1 0x0 PUSH1 0x40 MLOAD DUP1 DUP4 SUB DUP2 PUSH1 0x0 DUP8 DUP1 EXTCODESIZE ISZERO DUP1 ISZERO PUSH2 0x5BDC JUMPI PUSH1 0x0 DUP1 REVERT JUMPDEST POP GAS CALL ISZERO DUP1 ISZERO PUSH2 0x5BF0 JUMPI RETURNDATASIZE PUSH1 0x0 DUP1 RETURNDATACOPY RETURNDATASIZE PUSH1 0x0 REVERT JUMPDEST POP POP POP POP JUMPDEST JUMPDEST PUSH1 0x0 DUP3 PUSH1 0x2 ADD SLOAD EQ PUSH2 0x5D79 JUMPI DUP2 PUSH1 0x0 ADD PUSH1 0x0 SWAP1 SLOAD SWAP1 PUSH2 0x100 EXP SWAP1 DIV PUSH20 0xFFFFFFFFFFFFFFFFFFFFFFFFFFFFFFFFFFFFFFFF AND PUSH20 0xFFFFFFFFFFFFFFFFFFFFFFFFFFFFFFFFFFFFFFFF AND PUSH4 0xD79875EB DUP4 PUSH1 0x2 ADD SLOAD DUP5 PUSH1 0x0 ADD PUSH1 0x0 SWAP1 SLOAD SWAP1 PUSH2 0x100 EXP SWAP1 DIV PUSH20 0xFFFFFFFFFFFFFFFFFFFFFFFFFFFFFFFFFFFFFFFF AND PUSH20 0xFFFFFFFFFFFFFFFFFFFFFFFFFFFFFFFFFFFFFFFF AND PUSH4 0x313CE567 PUSH1 0x40 MLOAD DUP2 PUSH4 0xFFFFFFFF AND PUSH1 0xE0 SHL DUP2 MSTORE PUSH1 0x4 ADD PUSH1 0x20 PUSH1 0x40 MLOAD DUP1 DUP4 SUB DUP2 DUP7 DUP1 EXTCODESIZE ISZERO DUP1 ISZERO PUSH2 0x5CB1 JUMPI PUSH1 0x0 DUP1 REVERT JUMPDEST POP GAS STATICCALL ISZERO DUP1 ISZERO PUSH2 0x5CC5 JUMPI RETURNDATASIZE PUSH1 0x0 DUP1 RETURNDATACOPY RETURNDATASIZE PUSH1 0x0 REVERT JUMPDEST POP POP POP POP PUSH1 0x40 MLOAD RETURNDATASIZE PUSH1 0x1F NOT PUSH1 0x1F DUP3 ADD AND DUP3 ADD DUP1 PUSH1 0x40 MSTORE POP DUP2 ADD SWAP1 PUSH2 0x5CE9 SWAP2 SWAP1 PUSH2 0x9363 JUMP JUMPDEST PUSH1 0xA PUSH2 0x5CF5 SWAP2 SWAP1 PUSH2 0x94C3 JUMP JUMPDEST DUP6 PUSH1 0x3 ADD SLOAD PUSH2 0x5D04 SWAP2 SWAP1 PUSH2 0x950E JUMP JUMPDEST PUSH1 0x40 MLOAD DUP4 PUSH4 0xFFFFFFFF AND PUSH1 0xE0 SHL DUP2 MSTORE PUSH1 0x4 ADD PUSH2 0x5D21 SWAP3 SWAP2 SWAP1 PUSH2 0x8FCA JUMP JUMPDEST PUSH1 0x20 PUSH1 0x40 MLOAD DUP1 DUP4 SUB DUP2 PUSH1 0x0 DUP8 DUP1 EXTCODESIZE ISZERO DUP1 ISZERO PUSH2 0x5D3B JUMPI PUSH1 0x0 DUP1 REVERT JUMPDEST POP GAS CALL ISZERO DUP1 ISZERO PUSH2 0x5D4F JUMPI RETURNDATASIZE PUSH1 0x0 DUP1 RETURNDATACOPY RETURNDATASIZE PUSH1 0x0 REVERT JUMPDEST POP POP POP POP PUSH1 0x40 MLOAD RETURNDATASIZE PUSH1 0x1F NOT PUSH1 0x1F DUP3 ADD AND DUP3 ADD DUP1 PUSH1 0x40 MSTORE POP DUP2 ADD SWAP1 PUSH2 0x5D73 SWAP2 SWAP1 PUSH2 0x91D6 JUMP JUMPDEST POP PUSH2 0x5F7F JUMP JUMPDEST DUP1 ISZERO PUSH2 0x5F7E JUMPI PUSH2 0x5DF6 DUP3 PUSH1 0x1 ADD PUSH1 0x0 SWAP1 SLOAD SWAP1 PUSH2 0x100 EXP SWAP1 DIV PUSH20 0xFFFFFFFFFFFFFFFFFFFFFFFFFFFFFFFFFFFFFFFF AND DUP4 PUSH1 0x3 ADD SLOAD DUP5 PUSH1 0x0 ADD PUSH1 0x0 SWAP1 SLOAD SWAP1 PUSH2 0x100 EXP SWAP1 DIV PUSH20 0xFFFFFFFFFFFFFFFFFFFFFFFFFFFFFFFFFFFFFFFF AND PUSH20 0xFFFFFFFFFFFFFFFFFFFFFFFFFFFFFFFFFFFFFFFF AND PUSH2 0x6C7F SWAP1 SWAP3 SWAP2 SWAP1 PUSH4 0xFFFFFFFF AND JUMP JUMPDEST DUP2 PUSH1 0x1 ADD PUSH1 0x0 SWAP1 SLOAD SWAP1 PUSH2 0x100 EXP SWAP1 DIV PUSH20 0xFFFFFFFFFFFFFFFFFFFFFFFFFFFFFFFFFFFFFFFF AND PUSH20 0xFFFFFFFFFFFFFFFFFFFFFFFFFFFFFFFFFFFFFFFF AND PUSH4 0xBDD98DD1 ADDRESS DUP5 PUSH1 0x0 ADD PUSH1 0x0 SWAP1 SLOAD SWAP1 PUSH2 0x100 EXP SWAP1 DIV PUSH20 0xFFFFFFFFFFFFFFFFFFFFFFFFFFFFFFFFFFFFFFFF AND PUSH1 0x9C PUSH1 0x0 SWAP1 SLOAD SWAP1 PUSH2 0x100 EXP SWAP1 DIV PUSH20 0xFFFFFFFFFFFFFFFFFFFFFFFFFFFFFFFFFFFFFFFF AND PUSH20 0xFFFFFFFFFFFFFFFFFFFFFFFFFFFFFFFFFFFFFFFF AND PUSH4 0xD83678AC PUSH1 0x40 MLOAD DUP2 PUSH4 0xFFFFFFFF AND PUSH1 0xE0 SHL DUP2 MSTORE PUSH1 0x4 ADD PUSH1 0x20 PUSH1 0x40 MLOAD DUP1 DUP4 SUB DUP2 DUP7 DUP1 EXTCODESIZE ISZERO DUP1 ISZERO PUSH2 0x5EC4 JUMPI PUSH1 0x0 DUP1 REVERT JUMPDEST POP GAS STATICCALL ISZERO DUP1 ISZERO PUSH2 0x5ED8 JUMPI RETURNDATASIZE PUSH1 0x0 DUP1 RETURNDATACOPY RETURNDATASIZE PUSH1 0x0 REVERT JUMPDEST POP POP POP POP PUSH1 0x40 MLOAD RETURNDATASIZE PUSH1 0x1F NOT PUSH1 0x1F DUP3 ADD AND DUP3 ADD DUP1 PUSH1 0x40 MSTORE POP DUP2 ADD SWAP1 PUSH2 0x5EFC SWAP2 SWAP1 PUSH2 0xA088 JUMP JUMPDEST DUP7 PUSH1 0x3 ADD SLOAD PUSH1 0x1 TIMESTAMP PUSH3 0x93A80 PUSH1 0x40 MLOAD DUP9 PUSH4 0xFFFFFFFF AND PUSH1 0xE0 SHL DUP2 MSTORE PUSH1 0x4 ADD PUSH2 0x5F2A SWAP8 SWAP7 SWAP6 SWAP5 SWAP4 SWAP3 SWAP2 SWAP1 PUSH2 0xA154 JUMP JUMPDEST PUSH1 0x20 PUSH1 0x40 MLOAD DUP1 DUP4 SUB DUP2 PUSH1 0x0 DUP8 DUP1 EXTCODESIZE ISZERO DUP1 ISZERO PUSH2 0x5F44 JUMPI PUSH1 0x0 DUP1 REVERT JUMPDEST POP GAS CALL ISZERO DUP1 ISZERO PUSH2 0x5F58 JUMPI RETURNDATASIZE PUSH1 0x0 DUP1 RETURNDATACOPY RETURNDATASIZE PUSH1 0x0 REVERT JUMPDEST POP POP POP POP PUSH1 0x40 MLOAD RETURNDATASIZE PUSH1 0x1F NOT PUSH1 0x1F DUP3 ADD AND DUP3 ADD DUP1 PUSH1 0x40 MSTORE POP DUP2 ADD SWAP1 PUSH2 0x5F7C SWAP2 SWAP1 PUSH2 0x91D6 JUMP JUMPDEST POP JUMPDEST JUMPDEST POP JUMPDEST PUSH2 0x107 PUSH1 0x0 DUP8 DUP2 MSTORE PUSH1 0x20 ADD SWAP1 DUP2 MSTORE PUSH1 0x20 ADD PUSH1 0x0 KECCAK256 PUSH1 0x0 DUP1 DUP3 ADD PUSH1 0x0 PUSH2 0x100 EXP DUP2 SLOAD SWAP1 PUSH20 0xFFFFFFFFFFFFFFFFFFFFFFFFFFFFFFFFFFFFFFFF MUL NOT AND SWAP1 SSTORE PUSH1 0x1 DUP3 ADD PUSH1 0x0 PUSH2 0x100 EXP DUP2 SLOAD SWAP1 PUSH20 0xFFFFFFFFFFFFFFFFFFFFFFFFFFFFFFFFFFFFFFFF MUL NOT AND SWAP1 SSTORE PUSH1 0x1 DUP3 ADD PUSH1 0x14 PUSH2 0x100 EXP DUP2 SLOAD SWAP1 PUSH1 0xFF MUL NOT AND SWAP1 SSTORE PUSH1 0x2 DUP3 ADD PUSH1 0x0 SWAP1 SSTORE PUSH1 0x3 DUP3 ADD PUSH1 0x0 SWAP1 SSTORE POP POP POP PUSH2 0x61DB JUMP JUMPDEST PUSH1 0x3 DUP1 DUP2 GT ISZERO PUSH2 0x6023 JUMPI PUSH2 0x6022 PUSH2 0x804D JUMP JUMPDEST JUMPDEST DUP2 PUSH1 0x3 DUP2 GT ISZERO PUSH2 0x6036 JUMPI PUSH2 0x6035 PUSH2 0x804D JUMP JUMPDEST JUMPDEST EQ ISZERO PUSH2 0x619D JUMPI PUSH1 0x0 PUSH2 0x108 PUSH1 0x0 DUP8 DUP2 MSTORE PUSH1 0x20 ADD SWAP1 DUP2 MSTORE PUSH1 0x20 ADD PUSH1 0x0 KECCAK256 SWAP1 POP PUSH1 0x9C PUSH1 0x0 SWAP1 SLOAD SWAP1 PUSH2 0x100 EXP SWAP1 DIV PUSH20 0xFFFFFFFFFFFFFFFFFFFFFFFFFFFFFFFFFFFFFFFF AND PUSH20 0xFFFFFFFFFFFFFFFFFFFFFFFFFFFFFFFFFFFFFFFF AND PUSH4 0xCBC7D0B8 DUP3 PUSH1 0x0 ADD PUSH1 0x0 SWAP1 SLOAD SWAP1 PUSH2 0x100 EXP SWAP1 DIV PUSH20 0xFFFFFFFFFFFFFFFFFFFFFFFFFFFFFFFFFFFFFFFF AND DUP4 PUSH1 0x0 ADD PUSH1 0x14 SWAP1 SLOAD SWAP1 PUSH2 0x100 EXP SWAP1 DIV PUSH1 0xFF AND PUSH1 0x40 MLOAD DUP4 PUSH4 0xFFFFFFFF AND PUSH1 0xE0 SHL DUP2 MSTORE PUSH1 0x4 ADD PUSH2 0x60E6 SWAP3 SWAP2 SWAP1 PUSH2 0x9A4D JUMP JUMPDEST PUSH1 0x0 PUSH1 0x40 MLOAD DUP1 DUP4 SUB DUP2 PUSH1 0x0 DUP8 DUP1 EXTCODESIZE ISZERO DUP1 ISZERO PUSH2 0x6100 JUMPI PUSH1 0x0 DUP1 REVERT JUMPDEST POP GAS CALL ISZERO DUP1 ISZERO PUSH2 0x6114 JUMPI RETURNDATASIZE PUSH1 0x0 DUP1 RETURNDATACOPY RETURNDATASIZE PUSH1 0x0 REVERT JUMPDEST POP POP POP POP PUSH2 0x6145 DUP2 PUSH1 0x0 ADD PUSH1 0x0 SWAP1 SLOAD SWAP1 PUSH2 0x100 EXP SWAP1 DIV PUSH20 0xFFFFFFFFFFFFFFFFFFFFFFFFFFFFFFFFFFFFFFFF AND PUSH2 0x6DA0 JUMP JUMPDEST PUSH2 0x108 PUSH1 0x0 DUP8 DUP2 MSTORE PUSH1 0x20 ADD SWAP1 DUP2 MSTORE PUSH1 0x20 ADD PUSH1 0x0 KECCAK256 PUSH1 0x0 DUP1 DUP3 ADD PUSH1 0x0 PUSH2 0x100 EXP DUP2 SLOAD SWAP1 PUSH20 0xFFFFFFFFFFFFFFFFFFFFFFFFFFFFFFFFFFFFFFFF MUL NOT AND SWAP1 SSTORE PUSH1 0x0 DUP3 ADD PUSH1 0x14 PUSH2 0x100 EXP DUP2 SLOAD SWAP1 PUSH1 0xFF MUL NOT AND SWAP1 SSTORE POP POP POP PUSH2 0x61DA JUMP JUMPDEST DUP4 PUSH1 0x40 MLOAD PUSH32 0x83FB3B9300000000000000000000000000000000000000000000000000000000 DUP2 MSTORE PUSH1 0x4 ADD PUSH2 0x61D1 SWAP2 SWAP1 PUSH2 0xA235 JUMP JUMPDEST PUSH1 0x40 MLOAD DUP1 SWAP2 SUB SWAP1 REVERT JUMPDEST JUMPDEST JUMPDEST JUMPDEST POP PUSH2 0x61F2 JUMP JUMPDEST PUSH2 0x61F1 DUP5 DUP5 PUSH2 0xFFFF AND PUSH2 0x6E91 JUMP JUMPDEST JUMPDEST POP POP POP POP JUMP JUMPDEST PUSH1 0x0 PUSH1 0x9F PUSH1 0x0 DUP5 DUP2 MSTORE PUSH1 0x20 ADD SWAP1 DUP2 MSTORE PUSH1 0x20 ADD PUSH1 0x0 KECCAK256 SWAP1 POP PUSH1 0x0 PUSH1 0x9C PUSH1 0x0 SWAP1 SLOAD SWAP1 PUSH2 0x100 EXP SWAP1 DIV PUSH20 0xFFFFFFFFFFFFFFFFFFFFFFFFFFFFFFFFFFFFFFFF AND PUSH20 0xFFFFFFFFFFFFFFFFFFFFFFFFFFFFFFFFFFFFFFFF AND PUSH4 0x3A46B1A8 DUP5 DUP5 PUSH1 0x2 ADD PUSH1 0x1C SWAP1 SLOAD SWAP1 PUSH2 0x100 EXP SWAP1 DIV PUSH4 0xFFFFFFFF AND PUSH1 0x40 MLOAD DUP4 PUSH4 0xFFFFFFFF AND PUSH1 0xE0 SHL DUP2 MSTORE PUSH1 0x4 ADD PUSH2 0x6282 SWAP3 SWAP2 SWAP1 PUSH2 0x9BD8 JUMP JUMPDEST PUSH1 0x20 PUSH1 0x40 MLOAD DUP1 DUP4 SUB DUP2 DUP7 DUP1 EXTCODESIZE ISZERO DUP1 ISZERO PUSH2 0x629A JUMPI PUSH1 0x0 DUP1 REVERT JUMPDEST POP GAS STATICCALL ISZERO DUP1 ISZERO PUSH2 0x62AE JUMPI RETURNDATASIZE PUSH1 0x0 DUP1 RETURNDATACOPY RETURNDATASIZE PUSH1 0x0 REVERT JUMPDEST POP POP POP POP PUSH1 0x40 MLOAD RETURNDATASIZE PUSH1 0x1F NOT PUSH1 0x1F DUP3 ADD AND DUP3 ADD DUP1 PUSH1 0x40 MSTORE POP DUP2 ADD SWAP1 PUSH2 0x62D2 SWAP2 SWAP1 PUSH2 0x91D6 JUMP JUMPDEST SWAP1 POP PUSH1 0x0 DUP2 PUSH1 0xD SIGNEXTEND EQ ISZERO DUP1 ISZERO PUSH2 0x638F JUMPI POP PUSH1 0x9C PUSH1 0x0 SWAP1 SLOAD SWAP1 PUSH2 0x100 EXP SWAP1 DIV PUSH20 0xFFFFFFFFFFFFFFFFFFFFFFFFFFFFFFFFFFFFFFFF AND PUSH20 0xFFFFFFFFFFFFFFFFFFFFFFFFFFFFFFFFFFFFFFFF AND PUSH4 0x5249E862 DUP5 PUSH1 0x40 MLOAD DUP3 PUSH4 0xFFFFFFFF AND PUSH1 0xE0 SHL DUP2 MSTORE PUSH1 0x4 ADD PUSH2 0x633E SWAP2 SWAP1 PUSH2 0x845F JUMP JUMPDEST PUSH1 0x20 PUSH1 0x40 MLOAD DUP1 DUP4 SUB DUP2 DUP7 DUP1 EXTCODESIZE ISZERO DUP1 ISZERO PUSH2 0x6356 JUMPI PUSH1 0x0 DUP1 REVERT JUMPDEST POP GAS STATICCALL ISZERO DUP1 ISZERO PUSH2 0x636A JUMPI RETURNDATASIZE PUSH1 0x0 DUP1 RETURNDATACOPY RETURNDATASIZE PUSH1 0x0 REVERT JUMPDEST POP POP POP POP PUSH1 0x40 MLOAD RETURNDATASIZE PUSH1 0x1F NOT PUSH1 0x1F DUP3 ADD AND DUP3 ADD DUP1 PUSH1 0x40 MSTORE POP DUP2 ADD SWAP1 PUSH2 0x638E SWAP2 SWAP1 PUSH2 0x9726 JUMP JUMPDEST JUMPDEST ISZERO PUSH2 0x63A2 JUMPI PUSH2 0x63A1 DUP4 DUP6 DUP5 DUP5 DUP6 PUSH2 0x640E JUMP JUMPDEST JUMPDEST POP POP POP POP JUMP JUMPDEST PUSH1 0x0 PUSH1 0x9F PUSH1 0x0 DUP4 DUP2 MSTORE PUSH1 0x20 ADD SWAP1 DUP2 MSTORE PUSH1 0x20 ADD PUSH1 0x0 KECCAK256 SWAP1 POP PUSH2 0x63C8 DUP2 PUSH2 0x530D JUMP JUMPDEST PUSH2 0x6409 JUMPI DUP2 PUSH1 0x40 MLOAD PUSH32 0x8166C02700000000000000000000000000000000000000000000000000000000 DUP2 MSTORE PUSH1 0x4 ADD PUSH2 0x6400 SWAP2 SWAP1 PUSH2 0x824B JUMP JUMPDEST PUSH1 0x40 MLOAD DUP1 SWAP2 SUB SWAP1 REVERT JUMPDEST SWAP2 SWAP1 POP JUMP JUMPDEST PUSH1 0x0 PUSH1 0xA PUSH1 0x9C PUSH1 0x0 SWAP1 SLOAD SWAP1 PUSH2 0x100 EXP SWAP1 DIV PUSH20 0xFFFFFFFFFFFFFFFFFFFFFFFFFFFFFFFFFFFFFFFF AND PUSH20 0xFFFFFFFFFFFFFFFFFFFFFFFFFFFFFFFFFFFFFFFF AND PUSH4 0x8E539E8C DUP7 PUSH1 0x2 ADD PUSH1 0x1C SWAP1 SLOAD SWAP1 PUSH2 0x100 EXP SWAP1 DIV PUSH4 0xFFFFFFFF AND PUSH1 0x40 MLOAD DUP3 PUSH4 0xFFFFFFFF AND PUSH1 0xE0 SHL DUP2 MSTORE PUSH1 0x4 ADD PUSH2 0x6481 SWAP2 SWAP1 PUSH2 0x98EF JUMP JUMPDEST PUSH1 0x20 PUSH1 0x40 MLOAD DUP1 DUP4 SUB DUP2 DUP7 DUP1 EXTCODESIZE ISZERO DUP1 ISZERO PUSH2 0x6499 JUMPI PUSH1 0x0 DUP1 REVERT JUMPDEST POP GAS STATICCALL ISZERO DUP1 ISZERO PUSH2 0x64AD JUMPI RETURNDATASIZE PUSH1 0x0 DUP1 RETURNDATACOPY RETURNDATASIZE PUSH1 0x0 REVERT JUMPDEST POP POP POP POP PUSH1 0x40 MLOAD RETURNDATASIZE PUSH1 0x1F NOT PUSH1 0x1F DUP3 ADD AND DUP3 ADD DUP1 PUSH1 0x40 MSTORE POP DUP2 ADD SWAP1 PUSH2 0x64D1 SWAP2 SWAP1 PUSH2 0x91D6 JUMP JUMPDEST PUSH2 0x64DB SWAP2 SWAP1 PUSH2 0x950E JUMP JUMPDEST SWAP1 POP DUP1 PUSH1 0xD SIGNEXTEND DUP3 PUSH1 0xD SIGNEXTEND SGT ISZERO PUSH2 0x6508 JUMPI DUP2 DUP4 PUSH2 0x64F7 SWAP2 SWAP1 PUSH2 0x9C4A JUMP JUMPDEST DUP2 PUSH2 0x6502 SWAP2 SWAP1 PUSH2 0x9CB4 JUMP JUMPDEST SWAP3 POP DUP1 SWAP2 POP JUMPDEST PUSH1 0x0 DUP5 PUSH1 0x1 ADD PUSH1 0x0 DUP9 PUSH20 0xFFFFFFFFFFFFFFFFFFFFFFFFFFFFFFFFFFFFFFFF AND PUSH20 0xFFFFFFFFFFFFFFFFFFFFFFFFFFFFFFFFFFFFFFFF AND DUP2 MSTORE PUSH1 0x20 ADD SWAP1 DUP2 MSTORE PUSH1 0x20 ADD PUSH1 0x0 KECCAK256 PUSH1 0x0 SWAP1 SLOAD SWAP1 PUSH2 0x100 EXP SWAP1 DIV PUSH1 0xD SIGNEXTEND SWAP1 POP PUSH1 0x0 DUP2 PUSH1 0xD SIGNEXTEND EQ PUSH2 0x6634 JUMPI DUP1 DUP6 PUSH1 0x2 ADD PUSH1 0x0 DUP3 DUP3 DUP3 SWAP1 SLOAD SWAP1 PUSH2 0x100 EXP SWAP1 DIV PUSH1 0xD SIGNEXTEND PUSH2 0x6586 SWAP2 SWAP1 PUSH2 0x9962 JUMP JUMPDEST SWAP3 POP PUSH2 0x100 EXP DUP2 SLOAD DUP2 PUSH14 0xFFFFFFFFFFFFFFFFFFFFFFFFFFFF MUL NOT AND SWAP1 DUP4 PUSH1 0xD SIGNEXTEND PUSH14 0xFFFFFFFFFFFFFFFFFFFFFFFFFFFF AND MUL OR SWAP1 SSTORE POP PUSH1 0x0 DUP2 PUSH1 0xD SIGNEXTEND SLT ISZERO PUSH2 0x65D4 JUMPI DUP1 PUSH2 0x65D1 SWAP1 PUSH2 0x9C01 JUMP JUMPDEST SWAP1 POP JUMPDEST DUP1 DUP6 PUSH1 0x2 ADD PUSH1 0xE DUP3 DUP3 DUP3 SWAP1 SLOAD SWAP1 PUSH2 0x100 EXP SWAP1 DIV PUSH14 0xFFFFFFFFFFFFFFFFFFFFFFFFFFFF AND PUSH2 0x6601 SWAP2 SWAP1 PUSH2 0xA263 JUMP JUMPDEST SWAP3 POP PUSH2 0x100 EXP DUP2 SLOAD DUP2 PUSH14 0xFFFFFFFFFFFFFFFFFFFFFFFFFFFF MUL NOT AND SWAP1 DUP4 PUSH14 0xFFFFFFFFFFFFFFFFFFFFFFFFFFFF AND MUL OR SWAP1 SSTORE POP JUMPDEST DUP3 DUP6 PUSH1 0x2 ADD PUSH1 0xE DUP3 DUP3 DUP3 SWAP1 SLOAD SWAP1 PUSH2 0x100 EXP SWAP1 DIV PUSH14 0xFFFFFFFFFFFFFFFFFFFFFFFFFFFF AND PUSH2 0x6661 SWAP2 SWAP1 PUSH2 0xA297 JUMP JUMPDEST SWAP3 POP PUSH2 0x100 EXP DUP2 SLOAD DUP2 PUSH14 0xFFFFFFFFFFFFFFFFFFFFFFFFFFFF MUL NOT AND SWAP1 DUP4 PUSH14 0xFFFFFFFFFFFFFFFFFFFFFFFFFFFF AND MUL OR SWAP1 SSTORE POP DUP4 DUP6 PUSH1 0x1 ADD PUSH1 0x0 DUP10 PUSH20 0xFFFFFFFFFFFFFFFFFFFFFFFFFFFFFFFFFFFFFFFF AND PUSH20 0xFFFFFFFFFFFFFFFFFFFFFFFFFFFFFFFFFFFFFFFF AND DUP2 MSTORE PUSH1 0x20 ADD SWAP1 DUP2 MSTORE PUSH1 0x20 ADD PUSH1 0x0 KECCAK256 PUSH1 0x0 PUSH2 0x100 EXP DUP2 SLOAD DUP2 PUSH14 0xFFFFFFFFFFFFFFFFFFFFFFFFFFFF MUL NOT AND SWAP1 DUP4 PUSH1 0xD SIGNEXTEND PUSH14 0xFFFFFFFFFFFFFFFFFFFFFFFFFFFF AND MUL OR SWAP1 SSTORE POP PUSH1 0x0 DUP1 DUP6 PUSH1 0xD SIGNEXTEND EQ PUSH2 0x6787 JUMPI DUP5 DUP7 PUSH1 0x2 ADD PUSH1 0x0 DUP3 DUP3 DUP3 SWAP1 SLOAD SWAP1 PUSH2 0x100 EXP SWAP1 DIV PUSH1 0xD SIGNEXTEND PUSH2 0x6736 SWAP2 SWAP1 PUSH2 0xA2DB JUMP JUMPDEST SWAP3 POP PUSH2 0x100 EXP DUP2 SLOAD DUP2 PUSH14 0xFFFFFFFFFFFFFFFFFFFFFFFFFFFF MUL NOT AND SWAP1 DUP4 PUSH1 0xD SIGNEXTEND PUSH14 0xFFFFFFFFFFFFFFFFFFFFFFFFFFFF AND MUL OR SWAP1 SSTORE POP PUSH1 0x0 DUP6 PUSH1 0xD SIGNEXTEND SGT PUSH2 0x677D JUMPI PUSH1 0x2 PUSH2 0x6780 JUMP JUMPDEST PUSH1 0x1 JUMPDEST SWAP1 POP PUSH2 0x678C JUMP JUMPDEST PUSH1 0x0 SWAP1 POP JUMPDEST DUP8 PUSH20 0xFFFFFFFFFFFFFFFFFFFFFFFFFFFFFFFFFFFFFFFF AND DUP2 PUSH1 0x2 DUP2 GT ISZERO PUSH2 0x67B6 JUMPI PUSH2 0x67B5 PUSH2 0x804D JUMP JUMPDEST JUMPDEST DUP9 PUSH32 0xA6BAE9B19900C330E860468FA0EFA50BF517F267CF2451AA7F743BB317A50CEB DUP8 PUSH1 0x40 MLOAD PUSH2 0x67E6 SWAP2 SWAP1 PUSH2 0x8005 JUMP JUMPDEST PUSH1 0x40 MLOAD DUP1 SWAP2 SUB SWAP1 LOG4 POP POP POP POP POP POP POP POP JUMP JUMPDEST PUSH1 0x0 PUSH2 0x6824 DUP3 PUSH32 0x1FFC9A700000000000000000000000000000000000000000000000000000000 PUSH2 0x6845 JUMP JUMPDEST DUP1 ISZERO PUSH2 0x683E JUMPI POP PUSH2 0x683C DUP3 PUSH4 0xFFFFFFFF PUSH1 0xE0 SHL PUSH2 0x6845 JUMP JUMPDEST ISZERO JUMPDEST SWAP1 POP SWAP2 SWAP1 POP JUMP JUMPDEST PUSH1 0x0 DUP1 PUSH4 0x1FFC9A7 PUSH1 0xE0 SHL DUP4 PUSH1 0x40 MLOAD PUSH1 0x24 ADD PUSH2 0x6861 SWAP2 SWAP1 PUSH2 0xA35D JUMP JUMPDEST PUSH1 0x40 MLOAD PUSH1 0x20 DUP2 DUP4 SUB SUB DUP2 MSTORE SWAP1 PUSH1 0x40 MSTORE SWAP1 PUSH28 0xFFFFFFFFFFFFFFFFFFFFFFFFFFFFFFFFFFFFFFFFFFFFFFFFFFFFFFFF NOT AND PUSH1 0x20 DUP3 ADD DUP1 MLOAD PUSH28 0xFFFFFFFFFFFFFFFFFFFFFFFFFFFFFFFFFFFFFFFFFFFFFFFFFFFFFFFF DUP4 DUP2 DUP4 AND OR DUP4 MSTORE POP POP POP POP SWAP1 POP PUSH1 0x0 DUP1 PUSH1 0x0 PUSH1 0x20 PUSH1 0x0 DUP6 MLOAD PUSH1 0x20 DUP8 ADD DUP11 PUSH2 0x7530 STATICCALL SWAP3 POP RETURNDATASIZE SWAP2 POP PUSH1 0x0 MLOAD SWAP1 POP DUP3 DUP1 ISZERO PUSH2 0x68EC JUMPI POP PUSH1 0x20 DUP3 LT ISZERO JUMPDEST DUP1 ISZERO PUSH2 0x68F8 JUMPI POP PUSH1 0x0 DUP2 GT JUMPDEST SWAP5 POP POP POP POP POP SWAP3 SWAP2 POP POP JUMP JUMPDEST PUSH1 0x0 PUSH2 0x693F PUSH32 0x8B73C3C69BB8FE3D512ECC4CF759CC79239F7B179B0FFACAA9A75D522B39400F PUSH2 0x6932 PUSH2 0x77C5 JUMP JUMPDEST PUSH2 0x693A PUSH2 0x77CF JUMP JUMPDEST PUSH2 0x77D9 JUMP JUMPDEST SWAP1 POP SWAP1 JUMP JUMPDEST PUSH1 0x0 DUP3 DUP3 PUSH1 0x40 MLOAD PUSH1 0x20 ADD PUSH2 0x6959 SWAP3 SWAP2 SWAP1 PUSH2 0xA3E5 JUMP JUMPDEST PUSH1 0x40 MLOAD PUSH1 0x20 DUP2 DUP4 SUB SUB DUP2 MSTORE SWAP1 PUSH1 0x40 MSTORE DUP1 MLOAD SWAP1 PUSH1 0x20 ADD KECCAK256 SWAP1 POP SWAP3 SWAP2 POP POP JUMP JUMPDEST PUSH1 0x0 DUP1 PUSH1 0x41 DUP4 MLOAD EQ ISZERO PUSH2 0x69B9 JUMPI PUSH1 0x0 DUP1 PUSH1 0x0 PUSH1 0x20 DUP7 ADD MLOAD SWAP3 POP PUSH1 0x40 DUP7 ADD MLOAD SWAP2 POP PUSH1 0x60 DUP7 ADD MLOAD PUSH1 0x0 BYTE SWAP1 POP PUSH2 0x69AD DUP8 DUP3 DUP6 DUP6 PUSH2 0x7813 JUMP JUMPDEST SWAP5 POP SWAP5 POP POP POP POP PUSH2 0x69C2 JUMP JUMPDEST PUSH1 0x0 PUSH1 0x2 SWAP2 POP SWAP2 POP JUMPDEST SWAP3 POP SWAP3 SWAP1 POP JUMP JUMPDEST PUSH1 0x0 PUSH1 0x4 DUP2 GT ISZERO PUSH2 0x69DD JUMPI PUSH2 0x69DC PUSH2 0x804D JUMP JUMPDEST JUMPDEST DUP2 PUSH1 0x4 DUP2 GT ISZERO PUSH2 0x69F0 JUMPI PUSH2 0x69EF PUSH2 0x804D JUMP JUMPDEST JUMPDEST EQ ISZERO PUSH2 0x69FB JUMPI PUSH2 0x6B34 JUMP JUMPDEST PUSH1 0x1 PUSH1 0x4 DUP2 GT ISZERO PUSH2 0x6A0F JUMPI PUSH2 0x6A0E PUSH2 0x804D JUMP JUMPDEST JUMPDEST DUP2 PUSH1 0x4 DUP2 GT ISZERO PUSH2 0x6A22 JUMPI PUSH2 0x6A21 PUSH2 0x804D JUMP JUMPDEST JUMPDEST EQ ISZERO PUSH2 0x6A63 JUMPI PUSH1 0x40 MLOAD PUSH32 0x8C379A000000000000000000000000000000000000000000000000000000000 DUP2 MSTORE PUSH1 0x4 ADD PUSH2 0x6A5A SWAP1 PUSH2 0xA468 JUMP JUMPDEST PUSH1 0x40 MLOAD DUP1 SWAP2 SUB SWAP1 REVERT JUMPDEST PUSH1 0x2 PUSH1 0x4 DUP2 GT ISZERO PUSH2 0x6A77 JUMPI PUSH2 0x6A76 PUSH2 0x804D JUMP JUMPDEST JUMPDEST DUP2 PUSH1 0x4 DUP2 GT ISZERO PUSH2 0x6A8A JUMPI PUSH2 0x6A89 PUSH2 0x804D JUMP JUMPDEST JUMPDEST EQ ISZERO PUSH2 0x6ACB JUMPI PUSH1 0x40 MLOAD PUSH32 0x8C379A000000000000000000000000000000000000000000000000000000000 DUP2 MSTORE PUSH1 0x4 ADD PUSH2 0x6AC2 SWAP1 PUSH2 0xA4D4 JUMP JUMPDEST PUSH1 0x40 MLOAD DUP1 SWAP2 SUB SWAP1 REVERT JUMPDEST PUSH1 0x3 PUSH1 0x4 DUP2 GT ISZERO PUSH2 0x6ADF JUMPI PUSH2 0x6ADE PUSH2 0x804D JUMP JUMPDEST JUMPDEST DUP2 PUSH1 0x4 DUP2 GT ISZERO PUSH2 0x6AF2 JUMPI PUSH2 0x6AF1 PUSH2 0x804D JUMP JUMPDEST JUMPDEST EQ ISZERO PUSH2 0x6B33 JUMPI PUSH1 0x40 MLOAD PUSH32 0x8C379A000000000000000000000000000000000000000000000000000000000 DUP2 MSTORE PUSH1 0x4 ADD PUSH2 0x6B2A SWAP1 PUSH2 0xA566 JUMP JUMPDEST PUSH1 0x40 MLOAD DUP1 SWAP2 SUB SWAP1 REVERT JUMPDEST JUMPDEST POP JUMP JUMPDEST DUP1 PUSH2 0x16D PUSH1 0x0 DUP5 PUSH20 0xFFFFFFFFFFFFFFFFFFFFFFFFFFFFFFFFFFFFFFFF AND PUSH20 0xFFFFFFFFFFFFFFFFFFFFFFFFFFFFFFFFFFFFFFFF AND DUP2 MSTORE PUSH1 0x20 ADD SWAP1 DUP2 MSTORE PUSH1 0x20 ADD PUSH1 0x0 KECCAK256 PUSH1 0x0 PUSH2 0x100 EXP DUP2 SLOAD DUP2 PUSH1 0xFF MUL NOT AND SWAP1 DUP4 PUSH1 0x7 DUP2 GT ISZERO PUSH2 0x6B9A JUMPI PUSH2 0x6B99 PUSH2 0x804D JUMP JUMPDEST JUMPDEST MUL OR SWAP1 SSTORE POP DUP2 PUSH20 0xFFFFFFFFFFFFFFFFFFFFFFFFFFFFFFFFFFFFFFFF AND DUP2 PUSH1 0x7 DUP2 GT ISZERO PUSH2 0x6BC9 JUMPI PUSH2 0x6BC8 PUSH2 0x804D JUMP JUMPDEST JUMPDEST PUSH32 0xB427957068710160DCA4325B010BE41A84621DAAC3C801EF5523759CE4F43360 PUSH1 0x40 MLOAD PUSH1 0x40 MLOAD DUP1 SWAP2 SUB SWAP1 LOG3 POP POP JUMP JUMPDEST PUSH2 0x6C7A DUP4 PUSH4 0xA9059CBB PUSH1 0xE0 SHL DUP5 DUP5 PUSH1 0x40 MLOAD PUSH1 0x24 ADD PUSH2 0x6C18 SWAP3 SWAP2 SWAP1 PUSH2 0xA0B5 JUMP JUMPDEST PUSH1 0x40 MLOAD PUSH1 0x20 DUP2 DUP4 SUB SUB DUP2 MSTORE SWAP1 PUSH1 0x40 MSTORE SWAP1 PUSH28 0xFFFFFFFFFFFFFFFFFFFFFFFFFFFFFFFFFFFFFFFFFFFFFFFFFFFFFFFF NOT AND PUSH1 0x20 DUP3 ADD DUP1 MLOAD PUSH28 0xFFFFFFFFFFFFFFFFFFFFFFFFFFFFFFFFFFFFFFFFFFFFFFFFFFFFFFFF DUP4 DUP2 DUP4 AND OR DUP4 MSTORE POP POP POP POP PUSH2 0x78F6 JUMP JUMPDEST POP POP POP JUMP JUMPDEST PUSH1 0x0 DUP2 DUP5 PUSH20 0xFFFFFFFFFFFFFFFFFFFFFFFFFFFFFFFFFFFFFFFF AND PUSH4 0xDD62ED3E ADDRESS DUP7 PUSH1 0x40 MLOAD DUP4 PUSH4 0xFFFFFFFF AND PUSH1 0xE0 SHL DUP2 MSTORE PUSH1 0x4 ADD PUSH2 0x6CBD SWAP3 SWAP2 SWAP1 PUSH2 0x8F1C JUMP JUMPDEST PUSH1 0x20 PUSH1 0x40 MLOAD DUP1 DUP4 SUB DUP2 DUP7 DUP1 EXTCODESIZE ISZERO DUP1 ISZERO PUSH2 0x6CD5 JUMPI PUSH1 0x0 DUP1 REVERT JUMPDEST POP GAS STATICCALL ISZERO DUP1 ISZERO PUSH2 0x6CE9 JUMPI RETURNDATASIZE PUSH1 0x0 DUP1 RETURNDATACOPY RETURNDATASIZE PUSH1 0x0 REVERT JUMPDEST POP POP POP POP PUSH1 0x40 MLOAD RETURNDATASIZE PUSH1 0x1F NOT PUSH1 0x1F DUP3 ADD AND DUP3 ADD DUP1 PUSH1 0x40 MSTORE POP DUP2 ADD SWAP1 PUSH2 0x6D0D SWAP2 SWAP1 PUSH2 0x91D6 JUMP JUMPDEST PUSH2 0x6D17 SWAP2 SWAP1 PUSH2 0x8F74 JUMP JUMPDEST SWAP1 POP PUSH2 0x6D9A DUP5 PUSH4 0x95EA7B3 PUSH1 0xE0 SHL DUP6 DUP5 PUSH1 0x40 MLOAD PUSH1 0x24 ADD PUSH2 0x6D38 SWAP3 SWAP2 SWAP1 PUSH2 0xA0B5 JUMP JUMPDEST PUSH1 0x40 MLOAD PUSH1 0x20 DUP2 DUP4 SUB SUB DUP2 MSTORE SWAP1 PUSH1 0x40 MSTORE SWAP1 PUSH28 0xFFFFFFFFFFFFFFFFFFFFFFFFFFFFFFFFFFFFFFFFFFFFFFFFFFFFFFFF NOT AND PUSH1 0x20 DUP3 ADD DUP1 MLOAD PUSH28 0xFFFFFFFFFFFFFFFFFFFFFFFFFFFFFFFFFFFFFFFFFFFFFFFFFFFFFFFF DUP4 DUP2 DUP4 AND OR DUP4 MSTORE POP POP POP POP PUSH2 0x78F6 JUMP JUMPDEST POP POP POP POP JUMP JUMPDEST PUSH1 0x0 PUSH1 0x2 DUP2 GT ISZERO PUSH2 0x6DB4 JUMPI PUSH2 0x6DB3 PUSH2 0x804D JUMP JUMPDEST JUMPDEST PUSH2 0x16E PUSH1 0x0 DUP4 PUSH20 0xFFFFFFFFFFFFFFFFFFFFFFFFFFFFFFFFFFFFFFFF AND PUSH20 0xFFFFFFFFFFFFFFFFFFFFFFFFFFFFFFFFFFFFFFFF AND DUP2 MSTORE PUSH1 0x20 ADD SWAP1 DUP2 MSTORE PUSH1 0x20 ADD PUSH1 0x0 KECCAK256 PUSH1 0x0 SWAP1 SLOAD SWAP1 PUSH2 0x100 EXP SWAP1 DIV PUSH1 0xFF AND PUSH1 0x2 DUP2 GT ISZERO PUSH2 0x6E14 JUMPI PUSH2 0x6E13 PUSH2 0x804D JUMP JUMPDEST JUMPDEST EQ PUSH2 0x6E83 JUMPI PUSH1 0x2 PUSH2 0x16E PUSH1 0x0 DUP4 PUSH20 0xFFFFFFFFFFFFFFFFFFFFFFFFFFFFFFFFFFFFFFFF AND PUSH20 0xFFFFFFFFFFFFFFFFFFFFFFFFFFFFFFFFFFFFFFFF AND DUP2 MSTORE PUSH1 0x20 ADD SWAP1 DUP2 MSTORE PUSH1 0x20 ADD PUSH1 0x0 KECCAK256 PUSH1 0x0 PUSH2 0x100 EXP DUP2 SLOAD DUP2 PUSH1 0xFF MUL NOT AND SWAP1 DUP4 PUSH1 0x2 DUP2 GT ISZERO PUSH2 0x6E7D JUMPI PUSH2 0x6E7C PUSH2 0x804D JUMP JUMPDEST JUMPDEST MUL OR SWAP1 SSTORE POP JUMPDEST PUSH2 0x6E8E DUP2 PUSH1 0x1 PUSH2 0x6B37 JUMP JUMPDEST POP JUMP JUMPDEST PUSH1 0x0 DUP2 PUSH1 0x3 DUP2 GT ISZERO PUSH2 0x6EA6 JUMPI PUSH2 0x6EA5 PUSH2 0x804D JUMP JUMPDEST JUMPDEST SWAP1 POP PUSH1 0x0 PUSH1 0x3 DUP2 GT ISZERO PUSH2 0x6EBC JUMPI PUSH2 0x6EBB PUSH2 0x804D JUMP JUMPDEST JUMPDEST DUP2 PUSH1 0x3 DUP2 GT ISZERO PUSH2 0x6ECF JUMPI PUSH2 0x6ECE PUSH2 0x804D JUMP JUMPDEST JUMPDEST EQ ISZERO PUSH2 0x715D JUMPI PUSH1 0x0 PUSH2 0x171 PUSH1 0x0 DUP6 DUP2 MSTORE PUSH1 0x20 ADD SWAP1 DUP2 MSTORE PUSH1 0x20 ADD PUSH1 0x0 KECCAK256 SWAP1 POP PUSH1 0x0 PUSH1 0x7 DUP2 GT ISZERO PUSH2 0x6F01 JUMPI PUSH2 0x6F00 PUSH2 0x804D JUMP JUMPDEST JUMPDEST PUSH2 0x16D PUSH1 0x0 DUP4 PUSH1 0x0 ADD PUSH1 0x1 SWAP1 SLOAD SWAP1 PUSH2 0x100 EXP SWAP1 DIV PUSH20 0xFFFFFFFFFFFFFFFFFFFFFFFFFFFFFFFFFFFFFFFF AND PUSH20 0xFFFFFFFFFFFFFFFFFFFFFFFFFFFFFFFFFFFFFFFF AND PUSH20 0xFFFFFFFFFFFFFFFFFFFFFFFFFFFFFFFFFFFFFFFF AND DUP2 MSTORE PUSH1 0x20 ADD SWAP1 DUP2 MSTORE PUSH1 0x20 ADD PUSH1 0x0 KECCAK256 PUSH1 0x0 SWAP1 SLOAD SWAP1 PUSH2 0x100 EXP SWAP1 DIV PUSH1 0xFF AND PUSH1 0x7 DUP2 GT ISZERO PUSH2 0x6F85 JUMPI PUSH2 0x6F84 PUSH2 0x804D JUMP JUMPDEST JUMPDEST EQ PUSH2 0x6FE3 JUMPI PUSH2 0x171 PUSH1 0x0 DUP6 DUP2 MSTORE PUSH1 0x20 ADD SWAP1 DUP2 MSTORE PUSH1 0x20 ADD PUSH1 0x0 KECCAK256 PUSH1 0x0 DUP1 DUP3 ADD PUSH1 0x0 PUSH2 0x100 EXP DUP2 SLOAD SWAP1 PUSH1 0xFF MUL NOT AND SWAP1 SSTORE PUSH1 0x0 DUP3 ADD PUSH1 0x1 PUSH2 0x100 EXP DUP2 SLOAD SWAP1 PUSH20 0xFFFFFFFFFFFFFFFFFFFFFFFFFFFFFFFFFFFFFFFF MUL NOT AND SWAP1 SSTORE POP POP POP POP PUSH2 0x77C1 JUMP JUMPDEST PUSH1 0x3 PUSH1 0x7 DUP2 GT ISZERO PUSH2 0x6FF7 JUMPI PUSH2 0x6FF6 PUSH2 0x804D JUMP JUMPDEST JUMPDEST DUP2 PUSH1 0x0 ADD PUSH1 0x0 SWAP1 SLOAD SWAP1 PUSH2 0x100 EXP SWAP1 DIV PUSH1 0xFF AND PUSH1 0x7 DUP2 GT ISZERO PUSH2 0x701B JUMPI PUSH2 0x701A PUSH2 0x804D JUMP JUMPDEST JUMPDEST EQ ISZERO PUSH2 0x70A5 JUMPI PUSH2 0x704E DUP2 PUSH1 0x0 ADD PUSH1 0x1 SWAP1 SLOAD SWAP1 PUSH2 0x100 EXP SWAP1 DIV PUSH20 0xFFFFFFFFFFFFFFFFFFFFFFFFFFFFFFFFFFFFFFFF AND PUSH2 0x53A7 JUMP JUMPDEST PUSH2 0x171 PUSH1 0x0 DUP6 DUP2 MSTORE PUSH1 0x20 ADD SWAP1 DUP2 MSTORE PUSH1 0x20 ADD PUSH1 0x0 KECCAK256 PUSH1 0x0 DUP1 DUP3 ADD PUSH1 0x0 PUSH2 0x100 EXP DUP2 SLOAD SWAP1 PUSH1 0xFF MUL NOT AND SWAP1 SSTORE PUSH1 0x0 DUP3 ADD PUSH1 0x1 PUSH2 0x100 EXP DUP2 SLOAD SWAP1 PUSH20 0xFFFFFFFFFFFFFFFFFFFFFFFFFFFFFFFFFFFFFFFF MUL NOT AND SWAP1 SSTORE POP POP PUSH2 0x7157 JUMP JUMPDEST PUSH1 0x9C PUSH1 0x0 SWAP1 SLOAD SWAP1 PUSH2 0x100 EXP SWAP1 DIV PUSH20 0xFFFFFFFFFFFFFFFFFFFFFFFFFFFFFFFFFFFFFFFF AND PUSH20 0xFFFFFFFFFFFFFFFFFFFFFFFFFFFFFFFFFFFFFFFF AND PUSH4 0x9B19251A DUP3 PUSH1 0x0 ADD PUSH1 0x1 SWAP1 SLOAD SWAP1 PUSH2 0x100 EXP SWAP1 DIV PUSH20 0xFFFFFFFFFFFFFFFFFFFFFFFFFFFFFFFFFFFFFFFF AND PUSH1 0x40 MLOAD DUP3 PUSH4 0xFFFFFFFF AND PUSH1 0xE0 SHL DUP2 MSTORE PUSH1 0x4 ADD PUSH2 0x7124 SWAP2 SWAP1 PUSH2 0x845F JUMP JUMPDEST PUSH1 0x0 PUSH1 0x40 MLOAD DUP1 DUP4 SUB DUP2 PUSH1 0x0 DUP8 DUP1 EXTCODESIZE ISZERO DUP1 ISZERO PUSH2 0x713E JUMPI PUSH1 0x0 DUP1 REVERT JUMPDEST POP GAS CALL ISZERO DUP1 ISZERO PUSH2 0x7152 JUMPI RETURNDATASIZE PUSH1 0x0 DUP1 RETURNDATACOPY RETURNDATASIZE PUSH1 0x0 REVERT JUMPDEST POP POP POP POP JUMPDEST POP PUSH2 0x77BF JUMP JUMPDEST PUSH1 0x1 PUSH1 0x3 DUP2 GT ISZERO PUSH2 0x7171 JUMPI PUSH2 0x7170 PUSH2 0x804D JUMP JUMPDEST JUMPDEST DUP2 PUSH1 0x3 DUP2 GT ISZERO PUSH2 0x7184 JUMPI PUSH2 0x7183 PUSH2 0x804D JUMP JUMPDEST JUMPDEST EQ ISZERO PUSH2 0x73DC JUMPI PUSH1 0x2 PUSH1 0x36 SLOAD LT ISZERO PUSH2 0x71D7 JUMPI PUSH1 0x36 SLOAD PUSH1 0x2 PUSH1 0x40 MLOAD PUSH32 0x19CFB74D00000000000000000000000000000000000000000000000000000000 DUP2 MSTORE PUSH1 0x4 ADD PUSH2 0x71CE SWAP3 SWAP2 SWAP1 PUSH2 0x92D2 JUMP JUMPDEST PUSH1 0x40 MLOAD DUP1 SWAP2 SUB SWAP1 REVERT JUMPDEST PUSH1 0x0 PUSH2 0x172 PUSH1 0x0 DUP6 DUP2 MSTORE PUSH1 0x20 ADD SWAP1 DUP2 MSTORE PUSH1 0x20 ADD PUSH1 0x0 KECCAK256 SWAP1 POP DUP1 PUSH1 0x0 ADD PUSH1 0x14 SWAP1 SLOAD SWAP1 PUSH2 0x100 EXP SWAP1 DIV PUSH1 0xFF AND ISZERO PUSH2 0x72C3 JUMPI PUSH2 0x16F PUSH1 0x0 SWAP1 SLOAD SWAP1 PUSH2 0x100 EXP SWAP1 DIV PUSH20 0xFFFFFFFFFFFFFFFFFFFFFFFFFFFFFFFFFFFFFFFF AND PUSH20 0xFFFFFFFFFFFFFFFFFFFFFFFFFFFFFFFFFFFFFFFF AND PUSH4 0x2FB4D85 DUP3 PUSH1 0x0 ADD PUSH1 0x0 SWAP1 SLOAD SWAP1 PUSH2 0x100 EXP SWAP1 DIV PUSH20 0xFFFFFFFFFFFFFFFFFFFFFFFFFFFFFFFFFFFFFFFF AND DUP4 PUSH1 0x1 ADD SLOAD PUSH1 0x40 MLOAD DUP4 PUSH4 0xFFFFFFFF AND PUSH1 0xE0 SHL DUP2 MSTORE PUSH1 0x4 ADD PUSH2 0x728C SWAP3 SWAP2 SWAP1 PUSH2 0xA0B5 JUMP JUMPDEST PUSH1 0x0 PUSH1 0x40 MLOAD DUP1 DUP4 SUB DUP2 PUSH1 0x0 DUP8 DUP1 EXTCODESIZE ISZERO DUP1 ISZERO PUSH2 0x72A6 JUMPI PUSH1 0x0 DUP1 REVERT JUMPDEST POP GAS CALL ISZERO DUP1 ISZERO PUSH2 0x72BA JUMPI RETURNDATASIZE PUSH1 0x0 DUP1 RETURNDATACOPY RETURNDATASIZE PUSH1 0x0 REVERT JUMPDEST POP POP POP POP PUSH2 0x737C JUMP JUMPDEST PUSH2 0x16F PUSH1 0x0 SWAP1 SLOAD SWAP1 PUSH2 0x100 EXP SWAP1 DIV PUSH20 0xFFFFFFFFFFFFFFFFFFFFFFFFFFFFFFFFFFFFFFFF AND PUSH20 0xFFFFFFFFFFFFFFFFFFFFFFFFFFFFFFFFFFFFFFFF AND PUSH4 0xA5D059CA DUP3 PUSH1 0x0 ADD PUSH1 0x0 SWAP1 SLOAD SWAP1 PUSH2 0x100 EXP SWAP1 DIV PUSH20 0xFFFFFFFFFFFFFFFFFFFFFFFFFFFFFFFFFFFFFFFF AND DUP4 PUSH1 0x1 ADD SLOAD PUSH1 0x40 MLOAD DUP4 PUSH4 0xFFFFFFFF AND PUSH1 0xE0 SHL DUP2 MSTORE PUSH1 0x4 ADD PUSH2 0x7349 SWAP3 SWAP2 SWAP1 PUSH2 0xA0B5 JUMP JUMPDEST PUSH1 0x0 PUSH1 0x40 MLOAD DUP1 DUP4 SUB DUP2 PUSH1 0x0 DUP8 DUP1 EXTCODESIZE ISZERO DUP1 ISZERO PUSH2 0x7363 JUMPI PUSH1 0x0 DUP1 REVERT JUMPDEST POP GAS CALL ISZERO DUP1 ISZERO PUSH2 0x7377 JUMPI RETURNDATASIZE PUSH1 0x0 DUP1 RETURNDATACOPY RETURNDATASIZE PUSH1 0x0 REVERT JUMPDEST POP POP POP POP JUMPDEST PUSH2 0x172 PUSH1 0x0 DUP6 DUP2 MSTORE PUSH1 0x20 ADD SWAP1 DUP2 MSTORE PUSH1 0x20 ADD PUSH1 0x0 KECCAK256 PUSH1 0x0 DUP1 DUP3 ADD PUSH1 0x0 PUSH2 0x100 EXP DUP2 SLOAD SWAP1 PUSH20 0xFFFFFFFFFFFFFFFFFFFFFFFFFFFFFFFFFFFFFFFF MUL NOT AND SWAP1 SSTORE PUSH1 0x0 DUP3 ADD PUSH1 0x14 PUSH2 0x100 EXP DUP2 SLOAD SWAP1 PUSH1 0xFF MUL NOT AND SWAP1 SSTORE PUSH1 0x1 DUP3 ADD PUSH1 0x0 SWAP1 SSTORE POP POP POP PUSH2 0x77BE JUMP JUMPDEST PUSH1 0x2 PUSH1 0x3 DUP2 GT ISZERO PUSH2 0x73F0 JUMPI PUSH2 0x73EF PUSH2 0x804D JUMP JUMPDEST JUMPDEST DUP2 PUSH1 0x3 DUP2 GT ISZERO PUSH2 0x7403 JUMPI PUSH2 0x7402 PUSH2 0x804D JUMP JUMPDEST JUMPDEST EQ ISZERO PUSH2 0x758B JUMPI PUSH1 0x0 PUSH2 0x173 PUSH1 0x0 DUP6 DUP2 MSTORE PUSH1 0x20 ADD SWAP1 DUP2 MSTORE PUSH1 0x20 ADD PUSH1 0x0 KECCAK256 SWAP1 POP PUSH2 0x170 PUSH1 0x0 SWAP1 SLOAD SWAP1 PUSH2 0x100 EXP SWAP1 DIV PUSH20 0xFFFFFFFFFFFFFFFFFFFFFFFFFFFFFFFFFFFFFFFF AND PUSH20 0xFFFFFFFFFFFFFFFFFFFFFFFFFFFFFFFFFFFFFFFF AND PUSH4 0x76B81EE9 DUP3 PUSH1 0x0 ADD PUSH1 0x0 SWAP1 SLOAD SWAP1 PUSH2 0x100 EXP SWAP1 DIV PUSH1 0xFF AND DUP4 PUSH1 0x3 ADD DUP5 PUSH1 0x1 ADD DUP6 PUSH1 0x2 ADD SLOAD DUP7 PUSH1 0x0 ADD PUSH1 0x1 SWAP1 SLOAD SWAP1 PUSH2 0x100 EXP SWAP1 DIV PUSH20 0xFFFFFFFFFFFFFFFFFFFFFFFFFFFFFFFFFFFFFFFF AND DUP8 PUSH1 0x4 ADD PUSH1 0x40 MLOAD DUP8 PUSH4 0xFFFFFFFF AND PUSH1 0xE0 SHL DUP2 MSTORE PUSH1 0x4 ADD PUSH2 0x74C9 SWAP7 SWAP6 SWAP5 SWAP4 SWAP3 SWAP2 SWAP1 PUSH2 0xA61B JUMP JUMPDEST PUSH1 0x0 PUSH1 0x40 MLOAD DUP1 DUP4 SUB DUP2 PUSH1 0x0 DUP8 DUP1 EXTCODESIZE ISZERO DUP1 ISZERO PUSH2 0x74E3 JUMPI PUSH1 0x0 DUP1 REVERT JUMPDEST POP GAS CALL ISZERO DUP1 ISZERO PUSH2 0x74F7 JUMPI RETURNDATASIZE PUSH1 0x0 DUP1 RETURNDATACOPY RETURNDATASIZE PUSH1 0x0 REVERT JUMPDEST POP POP POP POP PUSH2 0x173 PUSH1 0x0 DUP6 DUP2 MSTORE PUSH1 0x20 ADD SWAP1 DUP2 MSTORE PUSH1 0x20 ADD PUSH1 0x0 KECCAK256 PUSH1 0x0 DUP1 DUP3 ADD PUSH1 0x0 PUSH2 0x100 EXP DUP2 SLOAD SWAP1 PUSH1 0xFF MUL NOT AND SWAP1 SSTORE PUSH1 0x0 DUP3 ADD PUSH1 0x1 PUSH2 0x100 EXP DUP2 SLOAD SWAP1 PUSH20 0xFFFFFFFFFFFFFFFFFFFFFFFFFFFFFFFFFFFFFFFF MUL NOT AND SWAP1 SSTORE PUSH1 0x1 DUP3 ADD PUSH1 0x0 PUSH2 0x755B SWAP2 SWAP1 PUSH2 0x7D3A JUMP JUMPDEST PUSH1 0x2 DUP3 ADD PUSH1 0x0 SWAP1 SSTORE PUSH1 0x3 DUP3 ADD PUSH1 0x0 PUSH2 0x7573 SWAP2 SWAP1 PUSH2 0x7D3A JUMP JUMPDEST PUSH1 0x4 DUP3 ADD PUSH1 0x0 PUSH2 0x7583 SWAP2 SWAP1 PUSH2 0x7CFA JUMP JUMPDEST POP POP POP PUSH2 0x77BD JUMP JUMPDEST PUSH1 0x3 DUP1 DUP2 GT ISZERO PUSH2 0x759E JUMPI PUSH2 0x759D PUSH2 0x804D JUMP JUMPDEST JUMPDEST DUP2 PUSH1 0x3 DUP2 GT ISZERO PUSH2 0x75B1 JUMPI PUSH2 0x75B0 PUSH2 0x804D JUMP JUMPDEST JUMPDEST EQ ISZERO PUSH2 0x777F JUMPI PUSH1 0x0 PUSH2 0x174 PUSH1 0x0 DUP6 DUP2 MSTORE PUSH1 0x20 ADD SWAP1 DUP2 MSTORE PUSH1 0x20 ADD PUSH1 0x0 KECCAK256 SWAP1 POP PUSH1 0x0 DUP1 DUP3 PUSH1 0x0 ADD PUSH1 0x0 SWAP1 SLOAD SWAP1 PUSH2 0x100 EXP SWAP1 DIV PUSH20 0xFFFFFFFFFFFFFFFFFFFFFFFFFFFFFFFFFFFFFFFF AND PUSH20 0xFFFFFFFFFFFFFFFFFFFFFFFFFFFFFFFFFFFFFFFF AND DUP4 PUSH1 0x0 ADD PUSH1 0x14 SWAP1 SLOAD SWAP1 PUSH2 0x100 EXP SWAP1 DIV PUSH1 0xE0 SHL DUP5 PUSH1 0x1 ADD PUSH1 0x40 MLOAD PUSH1 0x20 ADD PUSH2 0x7634 SWAP3 SWAP2 SWAP1 PUSH2 0xA73C JUMP JUMPDEST PUSH1 0x40 MLOAD PUSH1 0x20 DUP2 DUP4 SUB SUB DUP2 MSTORE SWAP1 PUSH1 0x40 MSTORE PUSH1 0x40 MLOAD PUSH2 0x7650 SWAP2 SWAP1 PUSH2 0xA7D3 JUMP JUMPDEST PUSH1 0x0 PUSH1 0x40 MLOAD DUP1 DUP4 SUB DUP2 PUSH1 0x0 DUP7 GAS CALL SWAP2 POP POP RETURNDATASIZE DUP1 PUSH1 0x0 DUP2 EQ PUSH2 0x768D JUMPI PUSH1 0x40 MLOAD SWAP2 POP PUSH1 0x1F NOT PUSH1 0x3F RETURNDATASIZE ADD AND DUP3 ADD PUSH1 0x40 MSTORE RETURNDATASIZE DUP3 MSTORE RETURNDATASIZE PUSH1 0x0 PUSH1 0x20 DUP5 ADD RETURNDATACOPY PUSH2 0x7692 JUMP JUMPDEST PUSH1 0x60 SWAP2 POP JUMPDEST POP SWAP2 POP SWAP2 POP DUP2 PUSH2 0x7712 JUMPI DUP3 PUSH1 0x0 ADD PUSH1 0x0 SWAP1 SLOAD SWAP1 PUSH2 0x100 EXP SWAP1 DIV PUSH20 0xFFFFFFFFFFFFFFFFFFFFFFFFFFFFFFFFFFFFFFFF AND DUP4 PUSH1 0x0 ADD PUSH1 0x14 SWAP1 SLOAD SWAP1 PUSH2 0x100 EXP SWAP1 DIV PUSH1 0xE0 SHL DUP3 PUSH1 0x40 MLOAD PUSH32 0xEAA424CC00000000000000000000000000000000000000000000000000000000 DUP2 MSTORE PUSH1 0x4 ADD PUSH2 0x7709 SWAP4 SWAP3 SWAP2 SWAP1 PUSH2 0xA823 JUMP JUMPDEST PUSH1 0x40 MLOAD DUP1 SWAP2 SUB SWAP1 REVERT JUMPDEST PUSH2 0x174 PUSH1 0x0 DUP8 DUP2 MSTORE PUSH1 0x20 ADD SWAP1 DUP2 MSTORE PUSH1 0x20 ADD PUSH1 0x0 KECCAK256 PUSH1 0x0 DUP1 DUP3 ADD PUSH1 0x0 PUSH2 0x100 EXP DUP2 SLOAD SWAP1 PUSH20 0xFFFFFFFFFFFFFFFFFFFFFFFFFFFFFFFFFFFFFFFF MUL NOT AND SWAP1 SSTORE PUSH1 0x0 DUP3 ADD PUSH1 0x14 PUSH2 0x100 EXP DUP2 SLOAD SWAP1 PUSH4 0xFFFFFFFF MUL NOT AND SWAP1 SSTORE PUSH1 0x1 DUP3 ADD PUSH1 0x0 PUSH2 0x7775 SWAP2 SWAP1 PUSH2 0x7CFA JUMP JUMPDEST POP POP POP POP POP PUSH2 0x77BC JUMP JUMPDEST DUP2 PUSH1 0x40 MLOAD PUSH32 0x83FB3B9300000000000000000000000000000000000000000000000000000000 DUP2 MSTORE PUSH1 0x4 ADD PUSH2 0x77B3 SWAP2 SWAP1 PUSH2 0xA8D3 JUMP JUMPDEST PUSH1 0x40 MLOAD DUP1 SWAP2 SUB SWAP1 REVERT JUMPDEST JUMPDEST JUMPDEST JUMPDEST POP JUMPDEST POP POP JUMP JUMPDEST PUSH1 0x0 PUSH1 0x1 SLOAD SWAP1 POP SWAP1 JUMP JUMPDEST PUSH1 0x0 PUSH1 0x2 SLOAD SWAP1 POP SWAP1 JUMP JUMPDEST PUSH1 0x0 DUP4 DUP4 DUP4 CHAINID ADDRESS PUSH1 0x40 MLOAD PUSH1 0x20 ADD PUSH2 0x77F4 SWAP6 SWAP5 SWAP4 SWAP3 SWAP2 SWAP1 PUSH2 0xA901 JUMP JUMPDEST PUSH1 0x40 MLOAD PUSH1 0x20 DUP2 DUP4 SUB SUB DUP2 MSTORE SWAP1 PUSH1 0x40 MSTORE DUP1 MLOAD SWAP1 PUSH1 0x20 ADD KECCAK256 SWAP1 POP SWAP4 SWAP3 POP POP POP JUMP JUMPDEST PUSH1 0x0 DUP1 PUSH32 0x7FFFFFFFFFFFFFFFFFFFFFFFFFFFFFFF5D576E7357A4501DDFE92F46681B20A0 DUP4 PUSH1 0x0 SHR GT ISZERO PUSH2 0x784E JUMPI PUSH1 0x0 PUSH1 0x3 SWAP2 POP SWAP2 POP PUSH2 0x78ED JUMP JUMPDEST PUSH1 0x0 PUSH1 0x1 DUP8 DUP8 DUP8 DUP8 PUSH1 0x40 MLOAD PUSH1 0x0 DUP2 MSTORE PUSH1 0x20 ADD PUSH1 0x40 MSTORE PUSH1 0x40 MLOAD PUSH2 0x7873 SWAP5 SWAP4 SWAP3 SWAP2 SWAP1 PUSH2 0xA954 JUMP JUMPDEST PUSH1 0x20 PUSH1 0x40 MLOAD PUSH1 0x20 DUP2 SUB SWAP1 DUP1 DUP5 SUB SWAP1 DUP6 GAS STATICCALL ISZERO DUP1 ISZERO PUSH2 0x7895 JUMPI RETURNDATASIZE PUSH1 0x0 DUP1 RETURNDATACOPY RETURNDATASIZE PUSH1 0x0 REVERT JUMPDEST POP POP POP PUSH1 0x20 PUSH1 0x40 MLOAD SUB MLOAD SWAP1 POP PUSH1 0x0 PUSH20 0xFFFFFFFFFFFFFFFFFFFFFFFFFFFFFFFFFFFFFFFF AND DUP2 PUSH20 0xFFFFFFFFFFFFFFFFFFFFFFFFFFFFFFFFFFFFFFFF AND EQ ISZERO PUSH2 0x78E4 JUMPI PUSH1 0x0 PUSH1 0x1 SWAP3 POP SWAP3 POP POP PUSH2 0x78ED JUMP JUMPDEST DUP1 PUSH1 0x0 SWAP3 POP SWAP3 POP POP JUMPDEST SWAP5 POP SWAP5 SWAP3 POP POP POP JUMP JUMPDEST PUSH1 0x0 PUSH2 0x7958 DUP3 PUSH1 0x40 MLOAD DUP1 PUSH1 0x40 ADD PUSH1 0x40 MSTORE DUP1 PUSH1 0x20 DUP2 MSTORE PUSH1 0x20 ADD PUSH32 0x5361666545524332303A206C6F772D6C6576656C2063616C6C206661696C6564 DUP2 MSTORE POP DUP6 PUSH20 0xFFFFFFFFFFFFFFFFFFFFFFFFFFFFFFFFFFFFFFFF AND PUSH2 0x79BD SWAP1 SWAP3 SWAP2 SWAP1 PUSH4 0xFFFFFFFF AND JUMP JUMPDEST SWAP1 POP PUSH1 0x0 DUP2 MLOAD GT ISZERO PUSH2 0x79B8 JUMPI DUP1 DUP1 PUSH1 0x20 ADD SWAP1 MLOAD DUP2 ADD SWAP1 PUSH2 0x7978 SWAP2 SWAP1 PUSH2 0x9726 JUMP JUMPDEST PUSH2 0x79B7 JUMPI PUSH1 0x40 MLOAD PUSH32 0x8C379A000000000000000000000000000000000000000000000000000000000 DUP2 MSTORE PUSH1 0x4 ADD PUSH2 0x79AE SWAP1 PUSH2 0xAA0B JUMP JUMPDEST PUSH1 0x40 MLOAD DUP1 SWAP2 SUB SWAP1 REVERT JUMPDEST JUMPDEST POP POP POP JUMP JUMPDEST PUSH1 0x60 PUSH2 0x79CC DUP5 DUP5 PUSH1 0x0 DUP6 PUSH2 0x79D5 JUMP JUMPDEST SWAP1 POP SWAP4 SWAP3 POP POP POP JUMP JUMPDEST PUSH1 0x60 DUP3 SELFBALANCE LT ISZERO PUSH2 0x7A1A JUMPI PUSH1 0x40 MLOAD PUSH32 0x8C379A000000000000000000000000000000000000000000000000000000000 DUP2 MSTORE PUSH1 0x4 ADD PUSH2 0x7A11 SWAP1 PUSH2 0xAA9D JUMP JUMPDEST PUSH1 0x40 MLOAD DUP1 SWAP2 SUB SWAP1 REVERT JUMPDEST PUSH1 0x0 DUP1 DUP7 PUSH20 0xFFFFFFFFFFFFFFFFFFFFFFFFFFFFFFFFFFFFFFFF AND DUP6 DUP8 PUSH1 0x40 MLOAD PUSH2 0x7A43 SWAP2 SWAP1 PUSH2 0xA7D3 JUMP JUMPDEST PUSH1 0x0 PUSH1 0x40 MLOAD DUP1 DUP4 SUB DUP2 DUP6 DUP8 GAS CALL SWAP3 POP POP POP RETURNDATASIZE DUP1 PUSH1 0x0 DUP2 EQ PUSH2 0x7A80 JUMPI PUSH1 0x40 MLOAD SWAP2 POP PUSH1 0x1F NOT PUSH1 0x3F RETURNDATASIZE ADD AND DUP3 ADD PUSH1 0x40 MSTORE RETURNDATASIZE DUP3 MSTORE RETURNDATASIZE PUSH1 0x0 PUSH1 0x20 DUP5 ADD RETURNDATACOPY PUSH2 0x7A85 JUMP JUMPDEST PUSH1 0x60 SWAP2 POP JUMPDEST POP SWAP2 POP SWAP2 POP PUSH2 0x7A96 DUP8 DUP4 DUP4 DUP8 PUSH2 0x7AA2 JUMP JUMPDEST SWAP3 POP POP POP SWAP5 SWAP4 POP POP POP POP JUMP JUMPDEST PUSH1 0x60 DUP4 ISZERO PUSH2 0x7B05 JUMPI PUSH1 0x0 DUP4 MLOAD EQ ISZERO PUSH2 0x7AFD JUMPI PUSH2 0x7ABD DUP6 PUSH2 0x504A JUMP JUMPDEST PUSH2 0x7AFC JUMPI PUSH1 0x40 MLOAD PUSH32 0x8C379A000000000000000000000000000000000000000000000000000000000 DUP2 MSTORE PUSH1 0x4 ADD PUSH2 0x7AF3 SWAP1 PUSH2 0xAB09 JUMP JUMPDEST PUSH1 0x40 MLOAD DUP1 SWAP2 SUB SWAP1 REVERT JUMPDEST JUMPDEST DUP3 SWAP1 POP PUSH2 0x7B10 JUMP JUMPDEST PUSH2 0x7B0F DUP4 DUP4 PUSH2 0x7B18 JUMP JUMPDEST JUMPDEST SWAP5 SWAP4 POP POP POP POP JUMP JUMPDEST PUSH1 0x0 DUP3 MLOAD GT ISZERO PUSH2 0x7B2B JUMPI DUP2 MLOAD DUP1 DUP4 PUSH1 0x20 ADD REVERT JUMPDEST DUP1 PUSH1 0x40 MLOAD PUSH32 0x8C379A000000000000000000000000000000000000000000000000000000000 DUP2 MSTORE PUSH1 0x4 ADD PUSH2 0x7B5F SWAP2 SWAP1 PUSH2 0xAB6D JUMP JUMPDEST PUSH1 0x40 MLOAD DUP1 SWAP2 SUB SWAP1 REVERT JUMPDEST DUP3 DUP1 SLOAD PUSH2 0x7B74 SWAP1 PUSH2 0x9F60 JUMP JUMPDEST SWAP1 PUSH1 0x0 MSTORE PUSH1 0x20 PUSH1 0x0 KECCAK256 SWAP1 PUSH1 0x1F ADD PUSH1 0x20 SWAP1 DIV DUP2 ADD SWAP3 DUP3 PUSH2 0x7B96 JUMPI PUSH1 0x0 DUP6 SSTORE PUSH2 0x7BDD JUMP JUMPDEST DUP3 PUSH1 0x1F LT PUSH2 0x7BAF JUMPI DUP1 MLOAD PUSH1 0xFF NOT AND DUP4 DUP1 ADD OR DUP6 SSTORE PUSH2 0x7BDD JUMP JUMPDEST DUP3 DUP1 ADD PUSH1 0x1 ADD DUP6 SSTORE DUP3 ISZERO PUSH2 0x7BDD JUMPI SWAP2 DUP3 ADD JUMPDEST DUP3 DUP2 GT ISZERO PUSH2 0x7BDC JUMPI DUP3 MLOAD DUP3 SSTORE SWAP2 PUSH1 0x20 ADD SWAP2 SWAP1 PUSH1 0x1 ADD SWAP1 PUSH2 0x7BC1 JUMP JUMPDEST JUMPDEST POP SWAP1 POP PUSH2 0x7BEA SWAP2 SWAP1 PUSH2 0x7D7A JUMP JUMPDEST POP SWAP1 JUMP JUMPDEST DUP3 DUP1 SLOAD PUSH2 0x7BFA SWAP1 PUSH2 0x9F60 JUMP JUMPDEST SWAP1 PUSH1 0x0 MSTORE PUSH1 0x20 PUSH1 0x0 KECCAK256 SWAP1 PUSH1 0x1F ADD PUSH1 0x20 SWAP1 DIV DUP2 ADD SWAP3 DUP3 PUSH2 0x7C1C JUMPI PUSH1 0x0 DUP6 SSTORE PUSH2 0x7C63 JUMP JUMPDEST DUP3 PUSH1 0x1F LT PUSH2 0x7C35 JUMPI DUP1 CALLDATALOAD PUSH1 0xFF NOT AND DUP4 DUP1 ADD OR DUP6 SSTORE PUSH2 0x7C63 JUMP JUMPDEST DUP3 DUP1 ADD PUSH1 0x1 ADD DUP6 SSTORE DUP3 ISZERO PUSH2 0x7C63 JUMPI SWAP2 DUP3 ADD JUMPDEST DUP3 DUP2 GT ISZERO PUSH2 0x7C62 JUMPI DUP3 CALLDATALOAD DUP3 SSTORE SWAP2 PUSH1 0x20 ADD SWAP2 SWAP1 PUSH1 0x1 ADD SWAP1 PUSH2 0x7C47 JUMP JUMPDEST JUMPDEST POP SWAP1 POP PUSH2 0x7C70 SWAP2 SWAP1 PUSH2 0x7D7A JUMP JUMPDEST POP SWAP1 JUMP JUMPDEST DUP3 DUP1 SLOAD PUSH2 0x7C80 SWAP1 PUSH2 0x9F60 JUMP JUMPDEST SWAP1 PUSH1 0x0 MSTORE PUSH1 0x20 PUSH1 0x0 KECCAK256 SWAP1 PUSH1 0x1F ADD PUSH1 0x20 SWAP1 DIV DUP2 ADD SWAP3 DUP3 PUSH2 0x7CA2 JUMPI PUSH1 0x0 DUP6 SSTORE PUSH2 0x7CE9 JUMP JUMPDEST DUP3 PUSH1 0x1F LT PUSH2 0x7CBB JUMPI DUP1 CALLDATALOAD PUSH1 0xFF NOT AND DUP4 DUP1 ADD OR DUP6 SSTORE PUSH2 0x7CE9 JUMP JUMPDEST DUP3 DUP1 ADD PUSH1 0x1 ADD DUP6 SSTORE DUP3 ISZERO PUSH2 0x7CE9 JUMPI SWAP2 DUP3 ADD JUMPDEST DUP3 DUP2 GT ISZERO PUSH2 0x7CE8 JUMPI DUP3 CALLDATALOAD DUP3 SSTORE SWAP2 PUSH1 0x20 ADD SWAP2 SWAP1 PUSH1 0x1 ADD SWAP1 PUSH2 0x7CCD JUMP JUMPDEST JUMPDEST POP SWAP1 POP PUSH2 0x7CF6 SWAP2 SWAP1 PUSH2 0x7D7A JUMP JUMPDEST POP SWAP1 JUMP JUMPDEST POP DUP1 SLOAD PUSH2 0x7D06 SWAP1 PUSH2 0x9F60 JUMP JUMPDEST PUSH1 0x0 DUP3 SSTORE DUP1 PUSH1 0x1F LT PUSH2 0x7D18 JUMPI POP PUSH2 0x7D37 JUMP JUMPDEST PUSH1 0x1F ADD PUSH1 0x20 SWAP1 DIV SWAP1 PUSH1 0x0 MSTORE PUSH1 0x20 PUSH1 0x0 KECCAK256 SWAP1 DUP2 ADD SWAP1 PUSH2 0x7D36 SWAP2 SWAP1 PUSH2 0x7D7A JUMP JUMPDEST JUMPDEST POP JUMP JUMPDEST POP DUP1 SLOAD PUSH2 0x7D46 SWAP1 PUSH2 0x9F60 JUMP JUMPDEST PUSH1 0x0 DUP3 SSTORE DUP1 PUSH1 0x1F LT PUSH2 0x7D58 JUMPI POP PUSH2 0x7D77 JUMP JUMPDEST PUSH1 0x1F ADD PUSH1 0x20 SWAP1 DIV SWAP1 PUSH1 0x0 MSTORE PUSH1 0x20 PUSH1 0x0 KECCAK256 SWAP1 DUP2 ADD SWAP1 PUSH2 0x7D76 SWAP2 SWAP1 PUSH2 0x7D7A JUMP JUMPDEST JUMPDEST POP JUMP JUMPDEST JUMPDEST DUP1 DUP3 GT ISZERO PUSH2 0x7D93 JUMPI PUSH1 0x0 DUP2 PUSH1 0x0 SWAP1 SSTORE POP PUSH1 0x1 ADD PUSH2 0x7D7B JUMP JUMPDEST POP SWAP1 JUMP JUMPDEST PUSH1 0x0 PUSH1 0x40 MLOAD SWAP1 POP SWAP1 JUMP JUMPDEST PUSH1 0x0 DUP1 REVERT JUMPDEST PUSH1 0x0 DUP1 REVERT JUMPDEST PUSH1 0x0 DUP2 SWAP1 POP SWAP2 SWAP1 POP JUMP JUMPDEST PUSH2 0x7DBE DUP2 PUSH2 0x7DAB JUMP JUMPDEST DUP2 EQ PUSH2 0x7DC9 JUMPI PUSH1 0x0 DUP1 REVERT JUMPDEST POP JUMP JUMPDEST PUSH1 0x0 DUP2 CALLDATALOAD SWAP1 POP PUSH2 0x7DDB DUP2 PUSH2 0x7DB5 JUMP JUMPDEST SWAP3 SWAP2 POP POP JUMP JUMPDEST PUSH1 0x0 PUSH20 0xFFFFFFFFFFFFFFFFFFFFFFFFFFFFFFFFFFFFFFFF DUP3 AND SWAP1 POP SWAP2 SWAP1 POP JUMP JUMPDEST PUSH1 0x0 PUSH2 0x7E0C DUP3 PUSH2 0x7DE1 JUMP JUMPDEST SWAP1 POP SWAP2 SWAP1 POP JUMP JUMPDEST PUSH2 0x7E1C DUP2 PUSH2 0x7E01 JUMP JUMPDEST DUP2 EQ PUSH2 0x7E27 JUMPI PUSH1 0x0 DUP1 REVERT JUMPDEST POP JUMP JUMPDEST PUSH1 0x0 DUP2 CALLDATALOAD SWAP1 POP PUSH2 0x7E39 DUP2 PUSH2 0x7E13 JUMP JUMPDEST SWAP3 SWAP2 POP POP JUMP JUMPDEST PUSH1 0x0 DUP1 PUSH1 0x40 DUP4 DUP6 SUB SLT ISZERO PUSH2 0x7E56 JUMPI PUSH2 0x7E55 PUSH2 0x7DA1 JUMP JUMPDEST JUMPDEST PUSH1 0x0 PUSH2 0x7E64 DUP6 DUP3 DUP7 ADD PUSH2 0x7DCC JUMP JUMPDEST SWAP3 POP POP PUSH1 0x20 PUSH2 0x7E75 DUP6 DUP3 DUP7 ADD PUSH2 0x7E2A JUMP JUMPDEST SWAP2 POP POP SWAP3 POP SWAP3 SWAP1 POP JUMP JUMPDEST PUSH1 0x0 DUP2 PUSH1 0xD SIGNEXTEND SWAP1 POP SWAP2 SWAP1 POP JUMP JUMPDEST PUSH2 0x7E95 DUP2 PUSH2 0x7E7F JUMP JUMPDEST DUP3 MSTORE POP POP JUMP JUMPDEST PUSH1 0x0 PUSH1 0x20 DUP3 ADD SWAP1 POP PUSH2 0x7EB0 PUSH1 0x0 DUP4 ADD DUP5 PUSH2 0x7E8C JUMP JUMPDEST SWAP3 SWAP2 POP POP JUMP JUMPDEST PUSH1 0x0 PUSH32 0xFFFFFFFF00000000000000000000000000000000000000000000000000000000 DUP3 AND SWAP1 POP SWAP2 SWAP1 POP JUMP JUMPDEST PUSH2 0x7EEB DUP2 PUSH2 0x7EB6 JUMP JUMPDEST DUP2 EQ PUSH2 0x7EF6 JUMPI PUSH1 0x0 DUP1 REVERT JUMPDEST POP JUMP JUMPDEST PUSH1 0x0 DUP2 CALLDATALOAD SWAP1 POP PUSH2 0x7F08 DUP2 PUSH2 0x7EE2 JUMP JUMPDEST SWAP3 SWAP2 POP POP JUMP JUMPDEST PUSH1 0x0 PUSH1 0x20 DUP3 DUP5 SUB SLT ISZERO PUSH2 0x7F24 JUMPI PUSH2 0x7F23 PUSH2 0x7DA1 JUMP JUMPDEST JUMPDEST PUSH1 0x0 PUSH2 0x7F32 DUP5 DUP3 DUP6 ADD PUSH2 0x7EF9 JUMP JUMPDEST SWAP2 POP POP SWAP3 SWAP2 POP POP JUMP JUMPDEST PUSH1 0x0 DUP2 ISZERO ISZERO SWAP1 POP SWAP2 SWAP1 POP JUMP JUMPDEST PUSH2 0x7F50 DUP2 PUSH2 0x7F3B JUMP JUMPDEST DUP3 MSTORE POP POP JUMP JUMPDEST PUSH1 0x0 PUSH1 0x20 DUP3 ADD SWAP1 POP PUSH2 0x7F6B PUSH1 0x0 DUP4 ADD DUP5 PUSH2 0x7F47 JUMP JUMPDEST SWAP3 SWAP2 POP POP JUMP JUMPDEST PUSH1 0x0 PUSH8 0xFFFFFFFFFFFFFFFF DUP3 AND SWAP1 POP SWAP2 SWAP1 POP JUMP JUMPDEST PUSH2 0x7F8E DUP2 PUSH2 0x7F71 JUMP JUMPDEST DUP3 MSTORE POP POP JUMP JUMPDEST PUSH1 0x0 PUSH1 0x20 DUP3 ADD SWAP1 POP PUSH2 0x7FA9 PUSH1 0x0 DUP4 ADD DUP5 PUSH2 0x7F85 JUMP JUMPDEST SWAP3 SWAP2 POP POP JUMP JUMPDEST PUSH1 0x0 PUSH1 0x20 DUP3 DUP5 SUB SLT ISZERO PUSH2 0x7FC5 JUMPI PUSH2 0x7FC4 PUSH2 0x7DA1 JUMP JUMPDEST JUMPDEST PUSH1 0x0 PUSH2 0x7FD3 DUP5 DUP3 DUP6 ADD PUSH2 0x7DCC JUMP JUMPDEST SWAP2 POP POP SWAP3 SWAP2 POP POP JUMP JUMPDEST PUSH1 0x0 PUSH14 0xFFFFFFFFFFFFFFFFFFFFFFFFFFFF DUP3 AND SWAP1 POP SWAP2 SWAP1 POP JUMP JUMPDEST PUSH2 0x7FFF DUP2 PUSH2 0x7FDC JUMP JUMPDEST DUP3 MSTORE POP POP JUMP JUMPDEST PUSH1 0x0 PUSH1 0x20 DUP3 ADD SWAP1 POP PUSH2 0x801A PUSH1 0x0 DUP4 ADD DUP5 PUSH2 0x7FF6 JUMP JUMPDEST SWAP3 SWAP2 POP POP JUMP JUMPDEST PUSH1 0x0 PUSH1 0x20 DUP3 DUP5 SUB SLT ISZERO PUSH2 0x8036 JUMPI PUSH2 0x8035 PUSH2 0x7DA1 JUMP JUMPDEST JUMPDEST PUSH1 0x0 PUSH2 0x8044 DUP5 DUP3 DUP6 ADD PUSH2 0x7E2A JUMP JUMPDEST SWAP2 POP POP SWAP3 SWAP2 POP POP JUMP JUMPDEST PUSH32 0x4E487B7100000000000000000000000000000000000000000000000000000000 PUSH1 0x0 MSTORE PUSH1 0x21 PUSH1 0x4 MSTORE PUSH1 0x24 PUSH1 0x0 REVERT JUMPDEST PUSH1 0x8 DUP2 LT PUSH2 0x808D JUMPI PUSH2 0x808C PUSH2 0x804D JUMP JUMPDEST JUMPDEST POP JUMP JUMPDEST PUSH1 0x0 DUP2 SWAP1 POP PUSH2 0x809E DUP3 PUSH2 0x807C JUMP JUMPDEST SWAP2 SWAP1 POP JUMP JUMPDEST PUSH1 0x0 PUSH2 0x80AE DUP3 PUSH2 0x8090 JUMP JUMPDEST SWAP1 POP SWAP2 SWAP1 POP JUMP JUMPDEST PUSH2 0x80BE DUP2 PUSH2 0x80A3 JUMP JUMPDEST DUP3 MSTORE POP POP JUMP JUMPDEST PUSH1 0x0 PUSH1 0x20 DUP3 ADD SWAP1 POP PUSH2 0x80D9 PUSH1 0x0 DUP4 ADD DUP5 PUSH2 0x80B5 JUMP JUMPDEST SWAP3 SWAP2 POP POP JUMP JUMPDEST PUSH1 0x0 PUSH2 0xFFFF DUP3 AND SWAP1 POP SWAP2 SWAP1 POP JUMP JUMPDEST PUSH2 0x80F6 DUP2 PUSH2 0x80DF JUMP JUMPDEST DUP2 EQ PUSH2 0x8101 JUMPI PUSH1 0x0 DUP1 REVERT JUMPDEST POP JUMP JUMPDEST PUSH1 0x0 DUP2 CALLDATALOAD SWAP1 POP PUSH2 0x8113 DUP2 PUSH2 0x80ED JUMP JUMPDEST SWAP3 SWAP2 POP POP JUMP JUMPDEST PUSH1 0x0 DUP1 REVERT JUMPDEST PUSH1 0x0 DUP1 REVERT JUMPDEST PUSH1 0x0 DUP1 REVERT JUMPDEST PUSH1 0x0 DUP1 DUP4 PUSH1 0x1F DUP5 ADD SLT PUSH2 0x813E JUMPI PUSH2 0x813D PUSH2 0x8119 JUMP JUMPDEST JUMPDEST DUP3 CALLDATALOAD SWAP1 POP PUSH8 0xFFFFFFFFFFFFFFFF DUP2 GT ISZERO PUSH2 0x815B JUMPI PUSH2 0x815A PUSH2 0x811E JUMP JUMPDEST JUMPDEST PUSH1 0x20 DUP4 ADD SWAP2 POP DUP4 PUSH1 0x1 DUP3 MUL DUP4 ADD GT ISZERO PUSH2 0x8177 JUMPI PUSH2 0x8176 PUSH2 0x8123 JUMP JUMPDEST JUMPDEST SWAP3 POP SWAP3 SWAP1 POP JUMP JUMPDEST PUSH1 0x0 DUP2 SWAP1 POP SWAP2 SWAP1 POP JUMP JUMPDEST PUSH2 0x8191 DUP2 PUSH2 0x817E JUMP JUMPDEST DUP2 EQ PUSH2 0x819C JUMPI PUSH1 0x0 DUP1 REVERT JUMPDEST POP JUMP JUMPDEST PUSH1 0x0 DUP2 CALLDATALOAD SWAP1 POP PUSH2 0x81AE DUP2 PUSH2 0x8188 JUMP JUMPDEST SWAP3 SWAP2 POP POP JUMP JUMPDEST PUSH1 0x0 DUP1 PUSH1 0x0 DUP1 PUSH1 0x0 PUSH1 0x80 DUP7 DUP9 SUB SLT ISZERO PUSH2 0x81D0 JUMPI PUSH2 0x81CF PUSH2 0x7DA1 JUMP JUMPDEST JUMPDEST PUSH1 0x0 PUSH2 0x81DE DUP9 DUP3 DUP10 ADD PUSH2 0x7E2A JUMP JUMPDEST SWAP6 POP POP PUSH1 0x20 PUSH2 0x81EF DUP9 DUP3 DUP10 ADD PUSH2 0x8104 JUMP JUMPDEST SWAP5 POP POP PUSH1 0x40 DUP7 ADD CALLDATALOAD PUSH8 0xFFFFFFFFFFFFFFFF DUP2 GT ISZERO PUSH2 0x8210 JUMPI PUSH2 0x820F PUSH2 0x7DA6 JUMP JUMPDEST JUMPDEST PUSH2 0x821C DUP9 DUP3 DUP10 ADD PUSH2 0x8128 JUMP JUMPDEST SWAP4 POP SWAP4 POP POP PUSH1 0x60 PUSH2 0x822F DUP9 DUP3 DUP10 ADD PUSH2 0x819F JUMP JUMPDEST SWAP2 POP POP SWAP3 SWAP6 POP SWAP3 SWAP6 SWAP1 SWAP4 POP JUMP JUMPDEST PUSH2 0x8245 DUP2 PUSH2 0x7DAB JUMP JUMPDEST DUP3 MSTORE POP POP JUMP JUMPDEST PUSH1 0x0 PUSH1 0x20 DUP3 ADD SWAP1 POP PUSH2 0x8260 PUSH1 0x0 DUP4 ADD DUP5 PUSH2 0x823C JUMP JUMPDEST SWAP3 SWAP2 POP POP JUMP JUMPDEST PUSH1 0x0 PUSH4 0xFFFFFFFF DUP3 AND SWAP1 POP SWAP2 SWAP1 POP JUMP JUMPDEST PUSH2 0x827F DUP2 PUSH2 0x8266 JUMP JUMPDEST DUP3 MSTORE POP POP JUMP JUMPDEST PUSH1 0x0 PUSH1 0x20 DUP3 ADD SWAP1 POP PUSH2 0x829A PUSH1 0x0 DUP4 ADD DUP5 PUSH2 0x8276 JUMP JUMPDEST SWAP3 SWAP2 POP POP JUMP JUMPDEST PUSH1 0x0 DUP1 PUSH1 0x0 PUSH1 0x40 DUP5 DUP7 SUB SLT ISZERO PUSH2 0x82B9 JUMPI PUSH2 0x82B8 PUSH2 0x7DA1 JUMP JUMPDEST JUMPDEST PUSH1 0x0 PUSH2 0x82C7 DUP7 DUP3 DUP8 ADD PUSH2 0x7DCC JUMP JUMPDEST SWAP4 POP POP PUSH1 0x20 DUP5 ADD CALLDATALOAD PUSH8 0xFFFFFFFFFFFFFFFF DUP2 GT ISZERO PUSH2 0x82E8 JUMPI PUSH2 0x82E7 PUSH2 0x7DA6 JUMP JUMPDEST JUMPDEST PUSH2 0x82F4 DUP7 DUP3 DUP8 ADD PUSH2 0x8128 JUMP JUMPDEST SWAP3 POP SWAP3 POP POP SWAP3 POP SWAP3 POP SWAP3 JUMP JUMPDEST PUSH1 0x8 DUP2 LT PUSH2 0x830D JUMPI PUSH1 0x0 DUP1 REVERT JUMPDEST POP JUMP JUMPDEST PUSH1 0x0 DUP2 CALLDATALOAD SWAP1 POP PUSH2 0x831F DUP2 PUSH2 0x8300 JUMP JUMPDEST SWAP3 SWAP2 POP POP JUMP JUMPDEST PUSH1 0x0 DUP1 PUSH1 0x0 DUP1 PUSH1 0x0 PUSH1 0x80 DUP7 DUP9 SUB SLT ISZERO PUSH2 0x8341 JUMPI PUSH2 0x8340 PUSH2 0x7DA1 JUMP JUMPDEST JUMPDEST PUSH1 0x0 PUSH2 0x834F DUP9 DUP3 DUP10 ADD PUSH2 0x8310 JUMP JUMPDEST SWAP6 POP POP PUSH1 0x20 PUSH2 0x8360 DUP9 DUP3 DUP10 ADD PUSH2 0x7E2A JUMP JUMPDEST SWAP5 POP POP PUSH1 0x40 PUSH2 0x8371 DUP9 DUP3 DUP10 ADD PUSH2 0x819F JUMP JUMPDEST SWAP4 POP POP PUSH1 0x60 DUP7 ADD CALLDATALOAD PUSH8 0xFFFFFFFFFFFFFFFF DUP2 GT ISZERO PUSH2 0x8392 JUMPI PUSH2 0x8391 PUSH2 0x7DA6 JUMP JUMPDEST JUMPDEST PUSH2 0x839E DUP9 DUP3 DUP10 ADD PUSH2 0x8128 JUMP JUMPDEST SWAP3 POP SWAP3 POP POP SWAP3 SWAP6 POP SWAP3 SWAP6 SWAP1 SWAP4 POP JUMP JUMPDEST PUSH2 0x83B6 DUP2 PUSH2 0x7F3B JUMP JUMPDEST DUP2 EQ PUSH2 0x83C1 JUMPI PUSH1 0x0 DUP1 REVERT JUMPDEST POP JUMP JUMPDEST PUSH1 0x0 DUP2 CALLDATALOAD SWAP1 POP PUSH2 0x83D3 DUP2 PUSH2 0x83AD JUMP JUMPDEST SWAP3 SWAP2 POP POP JUMP JUMPDEST PUSH1 0x0 DUP1 PUSH1 0x40 DUP4 DUP6 SUB SLT ISZERO PUSH2 0x83F0 JUMPI PUSH2 0x83EF PUSH2 0x7DA1 JUMP JUMPDEST JUMPDEST PUSH1 0x0 PUSH2 0x83FE DUP6 DUP3 DUP7 ADD PUSH2 0x83C4 JUMP JUMPDEST SWAP3 POP POP PUSH1 0x20 PUSH2 0x840F DUP6 DUP3 DUP7 ADD PUSH2 0x819F JUMP JUMPDEST SWAP2 POP POP SWAP3 POP SWAP3 SWAP1 POP JUMP JUMPDEST PUSH1 0x0 PUSH1 0xFF DUP3 AND SWAP1 POP SWAP2 SWAP1 POP JUMP JUMPDEST PUSH2 0x842F DUP2 PUSH2 0x8419 JUMP JUMPDEST DUP3 MSTORE POP POP JUMP JUMPDEST PUSH1 0x0 PUSH1 0x20 DUP3 ADD SWAP1 POP PUSH2 0x844A PUSH1 0x0 DUP4 ADD DUP5 PUSH2 0x8426 JUMP JUMPDEST SWAP3 SWAP2 POP POP JUMP JUMPDEST PUSH2 0x8459 DUP2 PUSH2 0x7E01 JUMP JUMPDEST DUP3 MSTORE POP POP JUMP JUMPDEST PUSH1 0x0 PUSH1 0x20 DUP3 ADD SWAP1 POP PUSH2 0x8474 PUSH1 0x0 DUP4 ADD DUP5 PUSH2 0x8450 JUMP JUMPDEST SWAP3 SWAP2 POP POP JUMP JUMPDEST PUSH1 0x0 DUP1 PUSH1 0x0 DUP1 PUSH1 0x80 DUP6 DUP8 SUB SLT ISZERO PUSH2 0x8494 JUMPI PUSH2 0x8493 PUSH2 0x7DA1 JUMP JUMPDEST JUMPDEST PUSH1 0x0 PUSH2 0x84A2 DUP8 DUP3 DUP9 ADD PUSH2 0x7E2A JUMP JUMPDEST SWAP5 POP POP PUSH1 0x20 PUSH2 0x84B3 DUP8 DUP3 DUP9 ADD PUSH2 0x83C4 JUMP JUMPDEST SWAP4 POP POP PUSH1 0x40 PUSH2 0x84C4 DUP8 DUP3 DUP9 ADD PUSH2 0x7DCC JUMP JUMPDEST SWAP3 POP POP PUSH1 0x60 PUSH2 0x84D5 DUP8 DUP3 DUP9 ADD PUSH2 0x819F JUMP JUMPDEST SWAP2 POP POP SWAP3 SWAP6 SWAP2 SWAP5 POP SWAP3 POP JUMP JUMPDEST PUSH1 0x3 DUP2 LT PUSH2 0x84F2 JUMPI PUSH2 0x84F1 PUSH2 0x804D JUMP JUMPDEST JUMPDEST POP JUMP JUMPDEST PUSH1 0x0 DUP2 SWAP1 POP PUSH2 0x8503 DUP3 PUSH2 0x84E1 JUMP JUMPDEST SWAP2 SWAP1 POP JUMP JUMPDEST PUSH1 0x0 PUSH2 0x8513 DUP3 PUSH2 0x84F5 JUMP JUMPDEST SWAP1 POP SWAP2 SWAP1 POP JUMP JUMPDEST PUSH2 0x8523 DUP2 PUSH2 0x8508 JUMP JUMPDEST DUP3 MSTORE POP POP JUMP JUMPDEST PUSH1 0x0 PUSH1 0x20 DUP3 ADD SWAP1 POP PUSH2 0x853E PUSH1 0x0 DUP4 ADD DUP5 PUSH2 0x851A JUMP JUMPDEST SWAP3 SWAP2 POP POP JUMP JUMPDEST PUSH2 0x854D DUP2 PUSH2 0x817E JUMP JUMPDEST DUP3 MSTORE POP POP JUMP JUMPDEST PUSH1 0x0 PUSH1 0x20 DUP3 ADD SWAP1 POP PUSH2 0x8568 PUSH1 0x0 DUP4 ADD DUP5 PUSH2 0x8544 JUMP JUMPDEST SWAP3 SWAP2 POP POP JUMP JUMPDEST PUSH2 0x8577 DUP2 PUSH2 0x80DF JUMP JUMPDEST DUP3 MSTORE POP POP JUMP JUMPDEST PUSH1 0x0 PUSH1 0x20 DUP3 ADD SWAP1 POP PUSH2 0x8592 PUSH1 0x0 DUP4 ADD DUP5 PUSH2 0x856E JUMP JUMPDEST SWAP3 SWAP2 POP POP JUMP JUMPDEST PUSH1 0x0 DUP1 PUSH1 0x0 DUP1 PUSH1 0x0 DUP1 PUSH1 0xC0 DUP8 DUP10 SUB SLT ISZERO PUSH2 0x85B5 JUMPI PUSH2 0x85B4 PUSH2 0x7DA1 JUMP JUMPDEST JUMPDEST PUSH1 0x0 PUSH2 0x85C3 DUP10 DUP3 DUP11 ADD PUSH2 0x7E2A JUMP JUMPDEST SWAP7 POP POP PUSH1 0x20 PUSH2 0x85D4 DUP10 DUP3 DUP11 ADD PUSH2 0x7E2A JUMP JUMPDEST SWAP6 POP POP PUSH1 0x40 PUSH2 0x85E5 DUP10 DUP3 DUP11 ADD PUSH2 0x83C4 JUMP JUMPDEST SWAP5 POP POP PUSH1 0x60 PUSH2 0x85F6 DUP10 DUP3 DUP11 ADD PUSH2 0x7DCC JUMP JUMPDEST SWAP4 POP POP PUSH1 0x80 PUSH2 0x8607 DUP10 DUP3 DUP11 ADD PUSH2 0x7DCC JUMP JUMPDEST SWAP3 POP POP PUSH1 0xA0 PUSH2 0x8618 DUP10 DUP3 DUP11 ADD PUSH2 0x819F JUMP JUMPDEST SWAP2 POP POP SWAP3 SWAP6 POP SWAP3 SWAP6 POP SWAP3 SWAP6 JUMP JUMPDEST PUSH1 0x0 DUP1 PUSH1 0x0 PUSH1 0x60 DUP5 DUP7 SUB SLT ISZERO PUSH2 0x863E JUMPI PUSH2 0x863D PUSH2 0x7DA1 JUMP JUMPDEST JUMPDEST PUSH1 0x0 PUSH2 0x864C DUP7 DUP3 DUP8 ADD PUSH2 0x8310 JUMP JUMPDEST SWAP4 POP POP PUSH1 0x20 PUSH2 0x865D DUP7 DUP3 DUP8 ADD PUSH2 0x7E2A JUMP JUMPDEST SWAP3 POP POP PUSH1 0x40 PUSH2 0x866E DUP7 DUP3 DUP8 ADD PUSH2 0x819F JUMP JUMPDEST SWAP2 POP POP SWAP3 POP SWAP3 POP SWAP3 JUMP JUMPDEST PUSH2 0x8681 DUP2 PUSH2 0x8419 JUMP JUMPDEST DUP2 EQ PUSH2 0x868C JUMPI PUSH1 0x0 DUP1 REVERT JUMPDEST POP JUMP JUMPDEST PUSH1 0x0 DUP2 CALLDATALOAD SWAP1 POP PUSH2 0x869E DUP2 PUSH2 0x8678 JUMP JUMPDEST SWAP3 SWAP2 POP POP JUMP JUMPDEST PUSH1 0x0 DUP1 DUP4 PUSH1 0x1F DUP5 ADD SLT PUSH2 0x86BA JUMPI PUSH2 0x86B9 PUSH2 0x8119 JUMP JUMPDEST JUMPDEST DUP3 CALLDATALOAD SWAP1 POP PUSH8 0xFFFFFFFFFFFFFFFF DUP2 GT ISZERO PUSH2 0x86D7 JUMPI PUSH2 0x86D6 PUSH2 0x811E JUMP JUMPDEST JUMPDEST PUSH1 0x20 DUP4 ADD SWAP2 POP DUP4 PUSH1 0x1 DUP3 MUL DUP4 ADD GT ISZERO PUSH2 0x86F3 JUMPI PUSH2 0x86F2 PUSH2 0x8123 JUMP JUMPDEST JUMPDEST SWAP3 POP SWAP3 SWAP1 POP JUMP JUMPDEST PUSH1 0x0 DUP1 PUSH1 0x0 DUP1 PUSH1 0x0 DUP1 PUSH1 0x0 DUP1 PUSH1 0x0 PUSH1 0xC0 DUP11 DUP13 SUB SLT ISZERO PUSH2 0x871C JUMPI PUSH2 0x871B PUSH2 0x7DA1 JUMP JUMPDEST JUMPDEST PUSH1 0x0 PUSH2 0x872A DUP13 DUP3 DUP14 ADD PUSH2 0x868F JUMP JUMPDEST SWAP10 POP POP PUSH1 0x20 DUP11 ADD CALLDATALOAD PUSH8 0xFFFFFFFFFFFFFFFF DUP2 GT ISZERO PUSH2 0x874B JUMPI PUSH2 0x874A PUSH2 0x7DA6 JUMP JUMPDEST JUMPDEST PUSH2 0x8757 DUP13 DUP3 DUP14 ADD PUSH2 0x86A4 JUMP JUMPDEST SWAP9 POP SWAP9 POP POP PUSH1 0x40 DUP11 ADD CALLDATALOAD PUSH8 0xFFFFFFFFFFFFFFFF DUP2 GT ISZERO PUSH2 0x877A JUMPI PUSH2 0x8779 PUSH2 0x7DA6 JUMP JUMPDEST JUMPDEST PUSH2 0x8786 DUP13 DUP3 DUP14 ADD PUSH2 0x86A4 JUMP JUMPDEST SWAP7 POP SWAP7 POP POP PUSH1 0x60 PUSH2 0x8799 DUP13 DUP3 DUP14 ADD PUSH2 0x819F JUMP JUMPDEST SWAP5 POP POP PUSH1 0x80 DUP11 ADD CALLDATALOAD PUSH8 0xFFFFFFFFFFFFFFFF DUP2 GT ISZERO PUSH2 0x87BA JUMPI PUSH2 0x87B9 PUSH2 0x7DA6 JUMP JUMPDEST JUMPDEST PUSH2 0x87C6 DUP13 DUP3 DUP14 ADD PUSH2 0x8128 JUMP JUMPDEST SWAP4 POP SWAP4 POP POP PUSH1 0xA0 PUSH2 0x87D9 DUP13 DUP3 DUP14 ADD PUSH2 0x819F JUMP JUMPDEST SWAP2 POP POP SWAP3 SWAP6 SWAP9 POP SWAP3 SWAP6 SWAP9 POP SWAP3 SWAP6 SWAP9 JUMP JUMPDEST PUSH1 0x0 DUP1 DUP4 PUSH1 0x1F DUP5 ADD SLT PUSH2 0x87FF JUMPI PUSH2 0x87FE PUSH2 0x8119 JUMP JUMPDEST JUMPDEST DUP3 CALLDATALOAD SWAP1 POP PUSH8 0xFFFFFFFFFFFFFFFF DUP2 GT ISZERO PUSH2 0x881C JUMPI PUSH2 0x881B PUSH2 0x811E JUMP JUMPDEST JUMPDEST PUSH1 0x20 DUP4 ADD SWAP2 POP DUP4 PUSH1 0x20 DUP3 MUL DUP4 ADD GT ISZERO PUSH2 0x8838 JUMPI PUSH2 0x8837 PUSH2 0x8123 JUMP JUMPDEST JUMPDEST SWAP3 POP SWAP3 SWAP1 POP JUMP JUMPDEST PUSH1 0x0 DUP1 PUSH1 0x0 PUSH1 0x40 DUP5 DUP7 SUB SLT ISZERO PUSH2 0x8858 JUMPI PUSH2 0x8857 PUSH2 0x7DA1 JUMP JUMPDEST JUMPDEST PUSH1 0x0 PUSH2 0x8866 DUP7 DUP3 DUP8 ADD PUSH2 0x7DCC JUMP JUMPDEST SWAP4 POP POP PUSH1 0x20 DUP5 ADD CALLDATALOAD PUSH8 0xFFFFFFFFFFFFFFFF DUP2 GT ISZERO PUSH2 0x8887 JUMPI PUSH2 0x8886 PUSH2 0x7DA6 JUMP JUMPDEST JUMPDEST PUSH2 0x8893 DUP7 DUP3 DUP8 ADD PUSH2 0x87E9 JUMP JUMPDEST SWAP3 POP SWAP3 POP POP SWAP3 POP SWAP3 POP SWAP3 JUMP JUMPDEST PUSH1 0x0 DUP1 PUSH1 0x0 DUP1 PUSH1 0x0 DUP1 PUSH1 0x0 PUSH1 0xC0 DUP9 DUP11 SUB SLT ISZERO PUSH2 0x88BE JUMPI PUSH2 0x88BD PUSH2 0x7DA1 JUMP JUMPDEST JUMPDEST PUSH1 0x0 PUSH2 0x88CC DUP11 DUP3 DUP12 ADD PUSH2 0x7E2A JUMP JUMPDEST SWAP8 POP POP PUSH1 0x20 PUSH2 0x88DD DUP11 DUP3 DUP12 ADD PUSH2 0x7E2A JUMP JUMPDEST SWAP7 POP POP PUSH1 0x40 PUSH2 0x88EE DUP11 DUP3 DUP12 ADD PUSH2 0x7DCC JUMP JUMPDEST SWAP6 POP POP PUSH1 0x60 PUSH2 0x88FF DUP11 DUP3 DUP12 ADD PUSH2 0x7E2A JUMP JUMPDEST SWAP5 POP POP PUSH1 0x80 DUP9 ADD CALLDATALOAD PUSH8 0xFFFFFFFFFFFFFFFF DUP2 GT ISZERO PUSH2 0x8920 JUMPI PUSH2 0x891F PUSH2 0x7DA6 JUMP JUMPDEST JUMPDEST PUSH2 0x892C DUP11 DUP3 DUP12 ADD PUSH2 0x8128 JUMP JUMPDEST SWAP4 POP SWAP4 POP POP PUSH1 0xA0 PUSH2 0x893F DUP11 DUP3 DUP12 ADD PUSH2 0x819F JUMP JUMPDEST SWAP2 POP POP SWAP3 SWAP6 SWAP9 SWAP2 SWAP5 SWAP8 POP SWAP3 SWAP6 POP JUMP JUMPDEST PUSH1 0x0 DUP1 DUP4 PUSH1 0x1F DUP5 ADD SLT PUSH2 0x8964 JUMPI PUSH2 0x8963 PUSH2 0x8119 JUMP JUMPDEST JUMPDEST DUP3 CALLDATALOAD SWAP1 POP PUSH8 0xFFFFFFFFFFFFFFFF DUP2 GT ISZERO PUSH2 0x8981 JUMPI PUSH2 0x8980 PUSH2 0x811E JUMP JUMPDEST JUMPDEST PUSH1 0x20 DUP4 ADD SWAP2 POP DUP4 PUSH1 0x20 DUP3 MUL DUP4 ADD GT ISZERO PUSH2 0x899D JUMPI PUSH2 0x899C PUSH2 0x8123 JUMP JUMPDEST JUMPDEST SWAP3 POP SWAP3 SWAP1 POP JUMP JUMPDEST PUSH1 0x0 DUP1 PUSH1 0x0 DUP1 PUSH1 0x0 PUSH1 0x80 DUP7 DUP9 SUB SLT ISZERO PUSH2 0x89C0 JUMPI PUSH2 0x89BF PUSH2 0x7DA1 JUMP JUMPDEST JUMPDEST PUSH1 0x0 PUSH2 0x89CE DUP9 DUP3 DUP10 ADD PUSH2 0x7E2A JUMP JUMPDEST SWAP6 POP POP PUSH1 0x20 PUSH2 0x89DF DUP9 DUP3 DUP10 ADD PUSH2 0x868F JUMP JUMPDEST SWAP5 POP POP PUSH1 0x40 DUP7 ADD CALLDATALOAD PUSH8 0xFFFFFFFFFFFFFFFF DUP2 GT ISZERO PUSH2 0x8A00 JUMPI PUSH2 0x89FF PUSH2 0x7DA6 JUMP JUMPDEST JUMPDEST PUSH2 0x8A0C DUP9 DUP3 DUP10 ADD PUSH2 0x894E JUMP JUMPDEST SWAP4 POP SWAP4 POP POP PUSH1 0x60 PUSH2 0x8A1F DUP9 DUP3 DUP10 ADD PUSH2 0x819F JUMP JUMPDEST SWAP2 POP POP SWAP3 SWAP6 POP SWAP3 SWAP6 SWAP1 SWAP4 POP JUMP JUMPDEST PUSH1 0x0 DUP1 PUSH1 0x0 PUSH1 0x40 DUP5 DUP7 SUB SLT ISZERO PUSH2 0x8A45 JUMPI PUSH2 0x8A44 PUSH2 0x7DA1 JUMP JUMPDEST JUMPDEST PUSH1 0x0 PUSH2 0x8A53 DUP7 DUP3 DUP8 ADD PUSH2 0x7E2A JUMP JUMPDEST SWAP4 POP POP PUSH1 0x20 DUP5 ADD CALLDATALOAD PUSH8 0xFFFFFFFFFFFFFFFF DUP2 GT ISZERO PUSH2 0x8A74 JUMPI PUSH2 0x8A73 PUSH2 0x7DA6 JUMP JUMPDEST JUMPDEST PUSH2 0x8A80 DUP7 DUP3 DUP8 ADD PUSH2 0x8128 JUMP JUMPDEST SWAP3 POP SWAP3 POP POP SWAP3 POP SWAP3 POP SWAP3 JUMP JUMPDEST PUSH1 0x0 PUSH1 0x1F NOT PUSH1 0x1F DUP4 ADD AND SWAP1 POP SWAP2 SWAP1 POP JUMP JUMPDEST PUSH32 0x4E487B7100000000000000000000000000000000000000000000000000000000 PUSH1 0x0 MSTORE PUSH1 0x41 PUSH1 0x4 MSTORE PUSH1 0x24 PUSH1 0x0 REVERT JUMPDEST PUSH2 0x8AD5 DUP3 PUSH2 0x8A8C JUMP JUMPDEST DUP2 ADD DUP2 DUP2 LT PUSH8 0xFFFFFFFFFFFFFFFF DUP3 GT OR ISZERO PUSH2 0x8AF4 JUMPI PUSH2 0x8AF3 PUSH2 0x8A9D JUMP JUMPDEST JUMPDEST DUP1 PUSH1 0x40 MSTORE POP POP POP JUMP JUMPDEST PUSH1 0x0 PUSH2 0x8B07 PUSH2 0x7D97 JUMP JUMPDEST SWAP1 POP PUSH2 0x8B13 DUP3 DUP3 PUSH2 0x8ACC JUMP JUMPDEST SWAP2 SWAP1 POP JUMP JUMPDEST PUSH1 0x0 PUSH8 0xFFFFFFFFFFFFFFFF DUP3 GT ISZERO PUSH2 0x8B33 JUMPI PUSH2 0x8B32 PUSH2 0x8A9D JUMP JUMPDEST JUMPDEST PUSH1 0x20 DUP3 MUL SWAP1 POP PUSH1 0x20 DUP2 ADD SWAP1 POP SWAP2 SWAP1 POP JUMP JUMPDEST PUSH1 0x0 PUSH2 0x8B57 PUSH2 0x8B52 DUP5 PUSH2 0x8B18 JUMP JUMPDEST PUSH2 0x8AFD JUMP JUMPDEST SWAP1 POP DUP1 DUP4 DUP3 MSTORE PUSH1 0x20 DUP3 ADD SWAP1 POP PUSH1 0x20 DUP5 MUL DUP4 ADD DUP6 DUP2 GT ISZERO PUSH2 0x8B7A JUMPI PUSH2 0x8B79 PUSH2 0x8123 JUMP JUMPDEST JUMPDEST DUP4 JUMPDEST DUP2 DUP2 LT ISZERO PUSH2 0x8BA3 JUMPI DUP1 PUSH2 0x8B8F DUP9 DUP3 PUSH2 0x7DCC JUMP JUMPDEST DUP5 MSTORE PUSH1 0x20 DUP5 ADD SWAP4 POP POP PUSH1 0x20 DUP2 ADD SWAP1 POP PUSH2 0x8B7C JUMP JUMPDEST POP POP POP SWAP4 SWAP3 POP POP POP JUMP JUMPDEST PUSH1 0x0 DUP3 PUSH1 0x1F DUP4 ADD SLT PUSH2 0x8BC2 JUMPI PUSH2 0x8BC1 PUSH2 0x8119 JUMP JUMPDEST JUMPDEST DUP2 CALLDATALOAD PUSH2 0x8BD2 DUP5 DUP3 PUSH1 0x20 DUP7 ADD PUSH2 0x8B44 JUMP JUMPDEST SWAP2 POP POP SWAP3 SWAP2 POP POP JUMP JUMPDEST PUSH1 0x0 PUSH8 0xFFFFFFFFFFFFFFFF DUP3 GT ISZERO PUSH2 0x8BF6 JUMPI PUSH2 0x8BF5 PUSH2 0x8A9D JUMP JUMPDEST JUMPDEST PUSH1 0x20 DUP3 MUL SWAP1 POP PUSH1 0x20 DUP2 ADD SWAP1 POP SWAP2 SWAP1 POP JUMP JUMPDEST PUSH2 0x8C10 DUP2 PUSH2 0x7E7F JUMP JUMPDEST DUP2 EQ PUSH2 0x8C1B JUMPI PUSH1 0x0 DUP1 REVERT JUMPDEST POP JUMP JUMPDEST PUSH1 0x0 DUP2 CALLDATALOAD SWAP1 POP PUSH2 0x8C2D DUP2 PUSH2 0x8C07 JUMP JUMPDEST SWAP3 SWAP2 POP POP JUMP JUMPDEST PUSH1 0x0 PUSH2 0x8C46 PUSH2 0x8C41 DUP5 PUSH2 0x8BDB JUMP JUMPDEST PUSH2 0x8AFD JUMP JUMPDEST SWAP1 POP DUP1 DUP4 DUP3 MSTORE PUSH1 0x20 DUP3 ADD SWAP1 POP PUSH1 0x20 DUP5 MUL DUP4 ADD DUP6 DUP2 GT ISZERO PUSH2 0x8C69 JUMPI PUSH2 0x8C68 PUSH2 0x8123 JUMP JUMPDEST JUMPDEST DUP4 JUMPDEST DUP2 DUP2 LT ISZERO PUSH2 0x8C92 JUMPI DUP1 PUSH2 0x8C7E DUP9 DUP3 PUSH2 0x8C1E JUMP JUMPDEST DUP5 MSTORE PUSH1 0x20 DUP5 ADD SWAP4 POP POP PUSH1 0x20 DUP2 ADD SWAP1 POP PUSH2 0x8C6B JUMP JUMPDEST POP POP POP SWAP4 SWAP3 POP POP POP JUMP JUMPDEST PUSH1 0x0 DUP3 PUSH1 0x1F DUP4 ADD SLT PUSH2 0x8CB1 JUMPI PUSH2 0x8CB0 PUSH2 0x8119 JUMP JUMPDEST JUMPDEST DUP2 CALLDATALOAD PUSH2 0x8CC1 DUP5 DUP3 PUSH1 0x20 DUP7 ADD PUSH2 0x8C33 JUMP JUMPDEST SWAP2 POP POP SWAP3 SWAP2 POP POP JUMP JUMPDEST PUSH1 0x0 DUP1 PUSH1 0x40 DUP4 DUP6 SUB SLT ISZERO PUSH2 0x8CE1 JUMPI PUSH2 0x8CE0 PUSH2 0x7DA1 JUMP JUMPDEST JUMPDEST PUSH1 0x0 DUP4 ADD CALLDATALOAD PUSH8 0xFFFFFFFFFFFFFFFF DUP2 GT ISZERO PUSH2 0x8CFF JUMPI PUSH2 0x8CFE PUSH2 0x7DA6 JUMP JUMPDEST JUMPDEST PUSH2 0x8D0B DUP6 DUP3 DUP7 ADD PUSH2 0x8BAD JUMP JUMPDEST SWAP3 POP POP PUSH1 0x20 DUP4 ADD CALLDATALOAD PUSH8 0xFFFFFFFFFFFFFFFF DUP2 GT ISZERO PUSH2 0x8D2C JUMPI PUSH2 0x8D2B PUSH2 0x7DA6 JUMP JUMPDEST JUMPDEST PUSH2 0x8D38 DUP6 DUP3 DUP7 ADD PUSH2 0x8C9C JUMP JUMPDEST SWAP2 POP POP SWAP3 POP SWAP3 SWAP1 POP JUMP JUMPDEST PUSH1 0x0 DUP2 MLOAD SWAP1 POP PUSH2 0x8D51 DUP2 PUSH2 0x8188 JUMP JUMPDEST SWAP3 SWAP2 POP POP JUMP JUMPDEST PUSH1 0x0 PUSH1 0x20 DUP3 DUP5 SUB SLT ISZERO PUSH2 0x8D6D JUMPI PUSH2 0x8D6C PUSH2 0x7DA1 JUMP JUMPDEST JUMPDEST PUSH1 0x0 PUSH2 0x8D7B DUP5 DUP3 DUP6 ADD PUSH2 0x8D42 JUMP JUMPDEST SWAP2 POP POP SWAP3 SWAP2 POP POP JUMP JUMPDEST PUSH1 0x0 PUSH1 0x40 DUP3 ADD SWAP1 POP PUSH2 0x8D99 PUSH1 0x0 DUP4 ADD DUP6 PUSH2 0x8544 JUMP JUMPDEST PUSH2 0x8DA6 PUSH1 0x20 DUP4 ADD DUP5 PUSH2 0x8544 JUMP JUMPDEST SWAP4 SWAP3 POP POP POP JUMP JUMPDEST PUSH2 0x8DB6 DUP2 PUSH2 0x7EB6 JUMP JUMPDEST DUP3 MSTORE POP POP JUMP JUMPDEST PUSH1 0x0 PUSH1 0x40 DUP3 ADD SWAP1 POP PUSH2 0x8DD1 PUSH1 0x0 DUP4 ADD DUP6 PUSH2 0x8450 JUMP JUMPDEST PUSH2 0x8DDE PUSH1 0x20 DUP4 ADD DUP5 PUSH2 0x8DAD JUMP JUMPDEST SWAP4 SWAP3 POP POP POP JUMP JUMPDEST PUSH1 0x0 DUP3 DUP3 MSTORE PUSH1 0x20 DUP3 ADD SWAP1 POP SWAP3 SWAP2 POP POP JUMP JUMPDEST PUSH32 0x467261627269632070726F706F736554687265616450726F706F73616C000000 PUSH1 0x0 DUP3 ADD MSTORE POP JUMP JUMPDEST PUSH1 0x0 PUSH2 0x8E2C PUSH1 0x1D DUP4 PUSH2 0x8DE5 JUMP JUMPDEST SWAP2 POP PUSH2 0x8E37 DUP3 PUSH2 0x8DF6 JUMP JUMPDEST PUSH1 0x20 DUP3 ADD SWAP1 POP SWAP2 SWAP1 POP JUMP JUMPDEST PUSH1 0x0 DUP2 SWAP1 POP SWAP2 SWAP1 POP JUMP JUMPDEST PUSH1 0x0 PUSH2 0x8E67 PUSH2 0x8E62 PUSH2 0x8E5D DUP5 PUSH2 0x80DF JUMP JUMPDEST PUSH2 0x8E42 JUMP JUMPDEST PUSH2 0x7DAB JUMP JUMPDEST SWAP1 POP SWAP2 SWAP1 POP JUMP JUMPDEST PUSH2 0x8E77 DUP2 PUSH2 0x8E4C JUMP JUMPDEST DUP3 MSTORE POP POP JUMP JUMPDEST PUSH1 0x0 PUSH1 0x40 DUP3 ADD SWAP1 POP DUP2 DUP2 SUB PUSH1 0x0 DUP4 ADD MSTORE PUSH2 0x8E96 DUP2 PUSH2 0x8E1F JUMP JUMPDEST SWAP1 POP PUSH2 0x8EA5 PUSH1 0x20 DUP4 ADD DUP5 PUSH2 0x8E6E JUMP JUMPDEST SWAP3 SWAP2 POP POP JUMP JUMPDEST PUSH1 0x0 DUP3 DUP3 MSTORE PUSH1 0x20 DUP3 ADD SWAP1 POP SWAP3 SWAP2 POP POP JUMP JUMPDEST DUP3 DUP2 DUP4 CALLDATACOPY PUSH1 0x0 DUP4 DUP4 ADD MSTORE POP POP POP JUMP JUMPDEST PUSH1 0x0 PUSH2 0x8ED7 DUP4 DUP6 PUSH2 0x8EAB JUMP JUMPDEST SWAP4 POP PUSH2 0x8EE4 DUP4 DUP6 DUP5 PUSH2 0x8EBC JUMP JUMPDEST PUSH2 0x8EED DUP4 PUSH2 0x8A8C JUMP JUMPDEST DUP5 ADD SWAP1 POP SWAP4 SWAP3 POP POP POP JUMP JUMPDEST PUSH1 0x0 PUSH1 0x20 DUP3 ADD SWAP1 POP DUP2 DUP2 SUB PUSH1 0x0 DUP4 ADD MSTORE PUSH2 0x8F13 DUP2 DUP5 DUP7 PUSH2 0x8ECB JUMP JUMPDEST SWAP1 POP SWAP4 SWAP3 POP POP POP JUMP JUMPDEST PUSH1 0x0 PUSH1 0x40 DUP3 ADD SWAP1 POP PUSH2 0x8F31 PUSH1 0x0 DUP4 ADD DUP6 PUSH2 0x8450 JUMP JUMPDEST PUSH2 0x8F3E PUSH1 0x20 DUP4 ADD DUP5 PUSH2 0x8450 JUMP JUMPDEST SWAP4 SWAP3 POP POP POP JUMP JUMPDEST PUSH32 0x4E487B7100000000000000000000000000000000000000000000000000000000 PUSH1 0x0 MSTORE PUSH1 0x11 PUSH1 0x4 MSTORE PUSH1 0x24 PUSH1 0x0 REVERT JUMPDEST PUSH1 0x0 PUSH2 0x8F7F DUP3 PUSH2 0x7DAB JUMP JUMPDEST SWAP2 POP PUSH2 0x8F8A DUP4 PUSH2 0x7DAB JUMP JUMPDEST SWAP3 POP DUP3 PUSH32 0xFFFFFFFFFFFFFFFFFFFFFFFFFFFFFFFFFFFFFFFFFFFFFFFFFFFFFFFFFFFFFFFF SUB DUP3 GT ISZERO PUSH2 0x8FBF JUMPI PUSH2 0x8FBE PUSH2 0x8F45 JUMP JUMPDEST JUMPDEST DUP3 DUP3 ADD SWAP1 POP SWAP3 SWAP2 POP POP JUMP JUMPDEST PUSH1 0x0 PUSH1 0x40 DUP3 ADD SWAP1 POP PUSH2 0x8FDF PUSH1 0x0 DUP4 ADD DUP6 PUSH2 0x823C JUMP JUMPDEST PUSH2 0x8FEC PUSH1 0x20 DUP4 ADD DUP5 PUSH2 0x823C JUMP JUMPDEST SWAP4 SWAP3 POP POP POP JUMP JUMPDEST PUSH1 0x0 PUSH2 0x8FFE DUP3 PUSH2 0x7DAB JUMP JUMPDEST SWAP2 POP PUSH32 0xFFFFFFFFFFFFFFFFFFFFFFFFFFFFFFFFFFFFFFFFFFFFFFFFFFFFFFFFFFFFFFFF DUP3 EQ ISZERO PUSH2 0x9031 JUMPI PUSH2 0x9030 PUSH2 0x8F45 JUMP JUMPDEST JUMPDEST PUSH1 0x1 DUP3 ADD SWAP1 POP SWAP2 SWAP1 POP JUMP JUMPDEST PUSH1 0x0 PUSH2 0x9047 DUP3 PUSH2 0x7DE1 JUMP JUMPDEST SWAP1 POP SWAP2 SWAP1 POP JUMP JUMPDEST PUSH2 0x9057 DUP2 PUSH2 0x903C JUMP JUMPDEST DUP2 EQ PUSH2 0x9062 JUMPI PUSH1 0x0 DUP1 REVERT JUMPDEST POP JUMP JUMPDEST PUSH1 0x0 DUP2 CALLDATALOAD SWAP1 POP PUSH2 0x9074 DUP2 PUSH2 0x904E JUMP JUMPDEST SWAP3 SWAP2 POP POP JUMP JUMPDEST PUSH1 0x0 DUP1 PUSH1 0x0 DUP1 PUSH1 0x80 DUP6 DUP8 SUB SLT ISZERO PUSH2 0x9094 JUMPI PUSH2 0x9093 PUSH2 0x7DA1 JUMP JUMPDEST JUMPDEST PUSH1 0x0 PUSH2 0x90A2 DUP8 DUP3 DUP9 ADD PUSH2 0x9065 JUMP JUMPDEST SWAP5 POP POP PUSH1 0x20 PUSH2 0x90B3 DUP8 DUP3 DUP9 ADD PUSH2 0x9065 JUMP JUMPDEST SWAP4 POP POP PUSH1 0x40 PUSH2 0x90C4 DUP8 DUP3 DUP9 ADD PUSH2 0x9065 JUMP JUMPDEST SWAP3 POP POP PUSH1 0x60 PUSH2 0x90D5 DUP8 DUP3 DUP9 ADD PUSH2 0x9065 JUMP JUMPDEST SWAP2 POP POP SWAP3 SWAP6 SWAP2 SWAP5 POP SWAP3 POP JUMP JUMPDEST PUSH1 0x0 DUP2 SWAP1 POP SWAP2 SWAP1 POP JUMP JUMPDEST PUSH1 0x0 PUSH2 0x9106 PUSH2 0x9101 PUSH2 0x90FC DUP5 PUSH2 0x90E1 JUMP JUMPDEST PUSH2 0x8E42 JUMP JUMPDEST PUSH2 0x8419 JUMP JUMPDEST SWAP1 POP SWAP2 SWAP1 POP JUMP JUMPDEST PUSH2 0x9116 DUP2 PUSH2 0x90EB JUMP JUMPDEST DUP3 MSTORE POP POP JUMP JUMPDEST PUSH1 0x0 PUSH1 0xA0 DUP3 ADD SWAP1 POP PUSH2 0x9131 PUSH1 0x0 DUP4 ADD DUP9 PUSH2 0x8544 JUMP JUMPDEST PUSH2 0x913E PUSH1 0x20 DUP4 ADD DUP8 PUSH2 0x80B5 JUMP JUMPDEST PUSH2 0x914B PUSH1 0x40 DUP4 ADD DUP7 PUSH2 0x8450 JUMP JUMPDEST PUSH2 0x9158 PUSH1 0x60 DUP4 ADD DUP6 PUSH2 0x8544 JUMP JUMPDEST PUSH2 0x9165 PUSH1 0x80 DUP4 ADD DUP5 PUSH2 0x910D JUMP JUMPDEST SWAP7 SWAP6 POP POP POP POP POP POP JUMP JUMPDEST PUSH1 0x0 PUSH1 0x40 DUP3 ADD SWAP1 POP PUSH2 0x9184 PUSH1 0x0 DUP4 ADD DUP6 PUSH2 0x8450 JUMP JUMPDEST PUSH2 0x9191 PUSH1 0x20 DUP4 ADD DUP5 PUSH2 0x80B5 JUMP JUMPDEST SWAP4 SWAP3 POP POP POP JUMP JUMPDEST PUSH1 0x0 PUSH1 0x40 DUP3 ADD SWAP1 POP PUSH2 0x91AD PUSH1 0x0 DUP4 ADD DUP6 PUSH2 0x8450 JUMP JUMPDEST PUSH2 0x91BA PUSH1 0x20 DUP4 ADD DUP5 PUSH2 0x851A JUMP JUMPDEST SWAP4 SWAP3 POP POP POP JUMP JUMPDEST PUSH1 0x0 DUP2 MLOAD SWAP1 POP PUSH2 0x91D0 DUP2 PUSH2 0x7DB5 JUMP JUMPDEST SWAP3 SWAP2 POP POP JUMP JUMPDEST PUSH1 0x0 PUSH1 0x20 DUP3 DUP5 SUB SLT ISZERO PUSH2 0x91EC JUMPI PUSH2 0x91EB PUSH2 0x7DA1 JUMP JUMPDEST JUMPDEST PUSH1 0x0 PUSH2 0x91FA DUP5 DUP3 DUP6 ADD PUSH2 0x91C1 JUMP JUMPDEST SWAP2 POP POP SWAP3 SWAP2 POP POP JUMP JUMPDEST PUSH1 0x0 PUSH2 0x920E DUP3 PUSH2 0x7DAB JUMP JUMPDEST SWAP2 POP PUSH2 0x9219 DUP4 PUSH2 0x7DAB JUMP JUMPDEST SWAP3 POP DUP3 DUP3 LT ISZERO PUSH2 0x922C JUMPI PUSH2 0x922B PUSH2 0x8F45 JUMP JUMPDEST JUMPDEST DUP3 DUP3 SUB SWAP1 POP SWAP3 SWAP2 POP POP JUMP JUMPDEST PUSH32 0x4E487B7100000000000000000000000000000000000000000000000000000000 PUSH1 0x0 MSTORE PUSH1 0x12 PUSH1 0x4 MSTORE PUSH1 0x24 PUSH1 0x0 REVERT JUMPDEST PUSH1 0x0 PUSH2 0x9271 DUP3 PUSH2 0x7FDC JUMP JUMPDEST SWAP2 POP PUSH2 0x927C DUP4 PUSH2 0x7FDC JUMP JUMPDEST SWAP3 POP DUP3 PUSH2 0x928C JUMPI PUSH2 0x928B PUSH2 0x9237 JUMP JUMPDEST JUMPDEST DUP3 DUP3 DIV SWAP1 POP SWAP3 SWAP2 POP POP JUMP JUMPDEST PUSH1 0x0 DUP2 SWAP1 POP SWAP2 SWAP1 POP JUMP JUMPDEST PUSH1 0x0 PUSH2 0x92BC PUSH2 0x92B7 PUSH2 0x92B2 DUP5 PUSH2 0x9297 JUMP JUMPDEST PUSH2 0x8E42 JUMP JUMPDEST PUSH2 0x7DAB JUMP JUMPDEST SWAP1 POP SWAP2 SWAP1 POP JUMP JUMPDEST PUSH2 0x92CC DUP2 PUSH2 0x92A1 JUMP JUMPDEST DUP3 MSTORE POP POP JUMP JUMPDEST PUSH1 0x0 PUSH1 0x40 DUP3 ADD SWAP1 POP PUSH2 0x92E7 PUSH1 0x0 DUP4 ADD DUP6 PUSH2 0x823C JUMP JUMPDEST PUSH2 0x92F4 PUSH1 0x20 DUP4 ADD DUP5 PUSH2 0x92C3 JUMP JUMPDEST SWAP4 SWAP3 POP POP POP JUMP JUMPDEST PUSH1 0x0 DUP1 PUSH1 0x0 PUSH1 0x60 DUP5 DUP7 SUB SLT ISZERO PUSH2 0x9314 JUMPI PUSH2 0x9313 PUSH2 0x7DA1 JUMP JUMPDEST JUMPDEST PUSH1 0x0 PUSH2 0x9322 DUP7 DUP3 DUP8 ADD PUSH2 0x9065 JUMP JUMPDEST SWAP4 POP POP PUSH1 0x20 PUSH2 0x9333 DUP7 DUP3 DUP8 ADD PUSH2 0x9065 JUMP JUMPDEST SWAP3 POP POP PUSH1 0x40 PUSH2 0x9344 DUP7 DUP3 DUP8 ADD PUSH2 0x9065 JUMP JUMPDEST SWAP2 POP POP SWAP3 POP SWAP3 POP SWAP3 JUMP JUMPDEST PUSH1 0x0 DUP2 MLOAD SWAP1 POP PUSH2 0x935D DUP2 PUSH2 0x8678 JUMP JUMPDEST SWAP3 SWAP2 POP POP JUMP JUMPDEST PUSH1 0x0 PUSH1 0x20 DUP3 DUP5 SUB SLT ISZERO PUSH2 0x9379 JUMPI PUSH2 0x9378 PUSH2 0x7DA1 JUMP JUMPDEST JUMPDEST PUSH1 0x0 PUSH2 0x9387 DUP5 DUP3 DUP6 ADD PUSH2 0x934E JUMP JUMPDEST SWAP2 POP POP SWAP3 SWAP2 POP POP JUMP JUMPDEST PUSH1 0x0 DUP2 PUSH1 0x1 SHR SWAP1 POP SWAP2 SWAP1 POP JUMP JUMPDEST PUSH1 0x0 DUP1 DUP3 SWAP2 POP DUP4 SWAP1 POP JUMPDEST PUSH1 0x1 DUP6 GT ISZERO PUSH2 0x93E7 JUMPI DUP1 DUP7 DIV DUP2 GT ISZERO PUSH2 0x93C3 JUMPI PUSH2 0x93C2 PUSH2 0x8F45 JUMP JUMPDEST JUMPDEST PUSH1 0x1 DUP6 AND ISZERO PUSH2 0x93D2 JUMPI DUP1 DUP3 MUL SWAP2 POP JUMPDEST DUP1 DUP2 MUL SWAP1 POP PUSH2 0x93E0 DUP6 PUSH2 0x9390 JUMP JUMPDEST SWAP5 POP PUSH2 0x93A7 JUMP JUMPDEST SWAP5 POP SWAP5 SWAP3 POP POP POP JUMP JUMPDEST PUSH1 0x0 DUP3 PUSH2 0x9400 JUMPI PUSH1 0x1 SWAP1 POP PUSH2 0x94BC JUMP JUMPDEST DUP2 PUSH2 0x940E JUMPI PUSH1 0x0 SWAP1 POP PUSH2 0x94BC JUMP JUMPDEST DUP2 PUSH1 0x1 DUP2 EQ PUSH2 0x9424 JUMPI PUSH1 0x2 DUP2 EQ PUSH2 0x942E JUMPI PUSH2 0x945D JUMP JUMPDEST PUSH1 0x1 SWAP2 POP POP PUSH2 0x94BC JUMP JUMPDEST PUSH1 0xFF DUP5 GT ISZERO PUSH2 0x9440 JUMPI PUSH2 0x943F PUSH2 0x8F45 JUMP JUMPDEST JUMPDEST DUP4 PUSH1 0x2 EXP SWAP2 POP DUP5 DUP3 GT ISZERO PUSH2 0x9457 JUMPI PUSH2 0x9456 PUSH2 0x8F45 JUMP JUMPDEST JUMPDEST POP PUSH2 0x94BC JUMP JUMPDEST POP PUSH1 0x20 DUP4 LT PUSH2 0x133 DUP4 LT AND PUSH1 0x4E DUP5 LT PUSH1 0xB DUP5 LT AND OR ISZERO PUSH2 0x9492 JUMPI DUP3 DUP3 EXP SWAP1 POP DUP4 DUP2 GT ISZERO PUSH2 0x948D JUMPI PUSH2 0x948C PUSH2 0x8F45 JUMP JUMPDEST JUMPDEST PUSH2 0x94BC JUMP JUMPDEST PUSH2 0x949F DUP5 DUP5 DUP5 PUSH1 0x1 PUSH2 0x939D JUMP JUMPDEST SWAP3 POP SWAP1 POP DUP2 DUP5 DIV DUP2 GT ISZERO PUSH2 0x94B6 JUMPI PUSH2 0x94B5 PUSH2 0x8F45 JUMP JUMPDEST JUMPDEST DUP2 DUP2 MUL SWAP1 POP JUMPDEST SWAP4 SWAP3 POP POP POP JUMP JUMPDEST PUSH1 0x0 PUSH2 0x94CE DUP3 PUSH2 0x7DAB JUMP JUMPDEST SWAP2 POP PUSH2 0x94D9 DUP4 PUSH2 0x8419 JUMP JUMPDEST SWAP3 POP PUSH2 0x9506 PUSH32 0xFFFFFFFFFFFFFFFFFFFFFFFFFFFFFFFFFFFFFFFFFFFFFFFFFFFFFFFFFFFFFFFF DUP5 DUP5 PUSH2 0x93F0 JUMP JUMPDEST SWAP1 POP SWAP3 SWAP2 POP POP JUMP JUMPDEST PUSH1 0x0 PUSH2 0x9519 DUP3 PUSH2 0x7DAB JUMP JUMPDEST SWAP2 POP PUSH2 0x9524 DUP4 PUSH2 0x7DAB JUMP JUMPDEST SWAP3 POP DUP3 PUSH2 0x9534 JUMPI PUSH2 0x9533 PUSH2 0x9237 JUMP JUMPDEST JUMPDEST DUP3 DUP3 DIV SWAP1 POP SWAP3 SWAP2 POP POP JUMP JUMPDEST PUSH1 0x0 PUSH2 0x954A DUP3 PUSH2 0x7DAB JUMP JUMPDEST SWAP2 POP PUSH2 0x9555 DUP4 PUSH2 0x7DAB JUMP JUMPDEST SWAP3 POP DUP2 PUSH32 0xFFFFFFFFFFFFFFFFFFFFFFFFFFFFFFFFFFFFFFFFFFFFFFFFFFFFFFFFFFFFFFFF DIV DUP4 GT DUP3 ISZERO ISZERO AND ISZERO PUSH2 0x958E JUMPI PUSH2 0x958D PUSH2 0x8F45 JUMP JUMPDEST JUMPDEST DUP3 DUP3 MUL SWAP1 POP SWAP3 SWAP2 POP POP JUMP JUMPDEST PUSH1 0x0 PUSH1 0x60 DUP3 ADD SWAP1 POP PUSH2 0x95AE PUSH1 0x0 DUP4 ADD DUP7 PUSH2 0x7F47 JUMP JUMPDEST PUSH2 0x95BB PUSH1 0x20 DUP4 ADD DUP6 PUSH2 0x823C JUMP JUMPDEST PUSH2 0x95C8 PUSH1 0x40 DUP4 ADD DUP5 PUSH2 0x823C JUMP JUMPDEST SWAP5 SWAP4 POP POP POP POP JUMP JUMPDEST PUSH1 0x0 PUSH2 0x95DB DUP3 PUSH2 0x7F71 JUMP JUMPDEST SWAP2 POP PUSH2 0x95E6 DUP4 PUSH2 0x7F71 JUMP JUMPDEST SWAP3 POP DUP3 PUSH8 0xFFFFFFFFFFFFFFFF SUB DUP3 GT ISZERO PUSH2 0x9603 JUMPI PUSH2 0x9602 PUSH2 0x8F45 JUMP JUMPDEST JUMPDEST DUP3 DUP3 ADD SWAP1 POP SWAP3 SWAP2 POP POP JUMP JUMPDEST PUSH1 0x0 PUSH1 0x60 DUP3 ADD SWAP1 POP PUSH2 0x9623 PUSH1 0x0 DUP4 ADD DUP7 PUSH2 0x823C JUMP JUMPDEST PUSH2 0x9630 PUSH1 0x20 DUP4 ADD DUP6 PUSH2 0x823C JUMP JUMPDEST PUSH2 0x963D PUSH1 0x40 DUP4 ADD DUP5 PUSH2 0x823C JUMP JUMPDEST SWAP5 SWAP4 POP POP POP POP JUMP JUMPDEST PUSH1 0x0 DUP2 SWAP1 POP SWAP2 SWAP1 POP JUMP JUMPDEST PUSH1 0x0 PUSH2 0x966A PUSH2 0x9665 PUSH2 0x9660 DUP5 PUSH2 0x7E7F JUMP JUMPDEST PUSH2 0x8E42 JUMP JUMPDEST PUSH2 0x9645 JUMP JUMPDEST SWAP1 POP SWAP2 SWAP1 POP JUMP JUMPDEST PUSH2 0x967A DUP2 PUSH2 0x964F JUMP JUMPDEST DUP3 MSTORE POP POP JUMP JUMPDEST PUSH1 0x0 PUSH1 0x40 DUP3 ADD SWAP1 POP PUSH2 0x9695 PUSH1 0x0 DUP4 ADD DUP6 PUSH2 0x823C JUMP JUMPDEST PUSH2 0x96A2 PUSH1 0x20 DUP4 ADD DUP5 PUSH2 0x9671 JUMP JUMPDEST SWAP4 SWAP3 POP POP POP JUMP JUMPDEST PUSH1 0x0 PUSH2 0x96C4 PUSH2 0x96BF PUSH2 0x96BA DUP5 PUSH2 0x7FDC JUMP JUMPDEST PUSH2 0x8E42 JUMP JUMPDEST PUSH2 0x7DAB JUMP JUMPDEST SWAP1 POP SWAP2 SWAP1 POP JUMP JUMPDEST PUSH2 0x96D4 DUP2 PUSH2 0x96A9 JUMP JUMPDEST DUP3 MSTORE POP POP JUMP JUMPDEST PUSH1 0x0 PUSH1 0x60 DUP3 ADD SWAP1 POP PUSH2 0x96EF PUSH1 0x0 DUP4 ADD DUP7 PUSH2 0x823C JUMP JUMPDEST PUSH2 0x96FC PUSH1 0x20 DUP4 ADD DUP6 PUSH2 0x96CB JUMP JUMPDEST PUSH2 0x9709 PUSH1 0x40 DUP4 ADD DUP5 PUSH2 0x96CB JUMP JUMPDEST SWAP5 SWAP4 POP POP POP POP JUMP JUMPDEST PUSH1 0x0 DUP2 MLOAD SWAP1 POP PUSH2 0x9720 DUP2 PUSH2 0x83AD JUMP JUMPDEST SWAP3 SWAP2 POP POP JUMP JUMPDEST PUSH1 0x0 PUSH1 0x20 DUP3 DUP5 SUB SLT ISZERO PUSH2 0x973C JUMPI PUSH2 0x973B PUSH2 0x7DA1 JUMP JUMPDEST JUMPDEST PUSH1 0x0 PUSH2 0x974A DUP5 DUP3 DUP6 ADD PUSH2 0x9711 JUMP JUMPDEST SWAP2 POP POP SWAP3 SWAP2 POP POP JUMP JUMPDEST PUSH1 0x5 DUP2 LT PUSH2 0x9764 JUMPI PUSH2 0x9763 PUSH2 0x804D JUMP JUMPDEST JUMPDEST POP JUMP JUMPDEST PUSH1 0x0 DUP2 SWAP1 POP PUSH2 0x9775 DUP3 PUSH2 0x9753 JUMP JUMPDEST SWAP2 SWAP1 POP JUMP JUMPDEST PUSH1 0x0 PUSH2 0x9785 DUP3 PUSH2 0x9767 JUMP JUMPDEST SWAP1 POP SWAP2 SWAP1 POP JUMP JUMPDEST PUSH2 0x9795 DUP2 PUSH2 0x977A JUMP JUMPDEST DUP3 MSTORE POP POP JUMP JUMPDEST PUSH1 0x0 PUSH1 0x40 DUP3 ADD SWAP1 POP PUSH2 0x97B0 PUSH1 0x0 DUP4 ADD DUP6 PUSH2 0x823C JUMP JUMPDEST PUSH2 0x97BD PUSH1 0x20 DUP4 ADD DUP5 PUSH2 0x978C JUMP JUMPDEST SWAP4 SWAP3 POP POP POP JUMP JUMPDEST PUSH1 0x0 PUSH2 0x97D0 DUP4 DUP6 PUSH2 0x8DE5 JUMP JUMPDEST SWAP4 POP PUSH2 0x97DD DUP4 DUP6 DUP5 PUSH2 0x8EBC JUMP JUMPDEST PUSH2 0x97E6 DUP4 PUSH2 0x8A8C JUMP JUMPDEST DUP5 ADD SWAP1 POP SWAP4 SWAP3 POP POP POP JUMP JUMPDEST PUSH1 0x0 PUSH1 0x40 DUP3 ADD SWAP1 POP DUP2 DUP2 SUB PUSH1 0x0 DUP4 ADD MSTORE PUSH2 0x980C DUP2 DUP7 DUP9 PUSH2 0x97C4 JUMP JUMPDEST SWAP1 POP DUP2 DUP2 SUB PUSH1 0x20 DUP4 ADD MSTORE PUSH2 0x9821 DUP2 DUP5 DUP7 PUSH2 0x97C4 JUMP JUMPDEST SWAP1 POP SWAP6 SWAP5 POP POP POP POP POP JUMP JUMPDEST PUSH1 0x0 PUSH1 0x40 DUP3 ADD SWAP1 POP PUSH2 0x9841 PUSH1 0x0 DUP4 ADD DUP7 PUSH2 0x8426 JUMP JUMPDEST DUP2 DUP2 SUB PUSH1 0x20 DUP4 ADD MSTORE PUSH2 0x9854 DUP2 DUP5 DUP7 PUSH2 0x8ECB JUMP JUMPDEST SWAP1 POP SWAP5 SWAP4 POP POP POP POP JUMP JUMPDEST PUSH1 0x0 PUSH1 0x80 DUP3 ADD SWAP1 POP DUP2 DUP2 SUB PUSH1 0x0 DUP4 ADD MSTORE PUSH2 0x9879 DUP2 DUP10 DUP12 PUSH2 0x97C4 JUMP JUMPDEST SWAP1 POP DUP2 DUP2 SUB PUSH1 0x20 DUP4 ADD MSTORE PUSH2 0x988E DUP2 DUP8 DUP10 PUSH2 0x97C4 JUMP JUMPDEST SWAP1 POP PUSH2 0x989D PUSH1 0x40 DUP4 ADD DUP7 PUSH2 0x8544 JUMP JUMPDEST DUP2 DUP2 SUB PUSH1 0x60 DUP4 ADD MSTORE PUSH2 0x98B0 DUP2 DUP5 DUP7 PUSH2 0x8ECB JUMP JUMPDEST SWAP1 POP SWAP9 SWAP8 POP POP POP POP POP POP POP POP JUMP JUMPDEST PUSH1 0x0 PUSH2 0x98D9 PUSH2 0x98D4 PUSH2 0x98CF DUP5 PUSH2 0x8266 JUMP JUMPDEST PUSH2 0x8E42 JUMP JUMPDEST PUSH2 0x7DAB JUMP JUMPDEST SWAP1 POP SWAP2 SWAP1 POP JUMP JUMPDEST PUSH2 0x98E9 DUP2 PUSH2 0x98BE JUMP JUMPDEST DUP3 MSTORE POP POP JUMP JUMPDEST PUSH1 0x0 PUSH1 0x20 DUP3 ADD SWAP1 POP PUSH2 0x9904 PUSH1 0x0 DUP4 ADD DUP5 PUSH2 0x98E0 JUMP JUMPDEST SWAP3 SWAP2 POP POP JUMP JUMPDEST PUSH32 0x4E487B7100000000000000000000000000000000000000000000000000000000 PUSH1 0x0 MSTORE PUSH1 0x32 PUSH1 0x4 MSTORE PUSH1 0x24 PUSH1 0x0 REVERT JUMPDEST PUSH1 0x0 PUSH1 0x40 DUP3 ADD SWAP1 POP PUSH2 0x994E PUSH1 0x0 DUP4 ADD DUP6 PUSH2 0x823C JUMP JUMPDEST PUSH2 0x995B PUSH1 0x20 DUP4 ADD DUP5 PUSH2 0x8450 JUMP JUMPDEST SWAP4 SWAP3 POP POP POP JUMP JUMPDEST PUSH1 0x0 PUSH2 0x996D DUP3 PUSH2 0x7E7F JUMP JUMPDEST SWAP2 POP PUSH2 0x9978 DUP4 PUSH2 0x7E7F JUMP JUMPDEST SWAP3 POP DUP3 PUSH32 0xFFFFFFFFFFFFFFFFFFFFFFFFFFFFFFFFFFFF8000000000000000000000000000 ADD DUP3 SLT PUSH1 0x0 DUP5 SLT ISZERO AND ISZERO PUSH2 0x99B3 JUMPI PUSH2 0x99B2 PUSH2 0x8F45 JUMP JUMPDEST JUMPDEST DUP3 PUSH14 0x7FFFFFFFFFFFFFFFFFFFFFFFFFFF ADD DUP3 SGT PUSH1 0x0 DUP5 SLT AND ISZERO PUSH2 0x99D9 JUMPI PUSH2 0x99D8 PUSH2 0x8F45 JUMP JUMPDEST JUMPDEST DUP3 DUP3 SUB SWAP1 POP SWAP3 SWAP2 POP POP JUMP JUMPDEST PUSH1 0x0 PUSH1 0x60 DUP3 ADD SWAP1 POP PUSH2 0x99F9 PUSH1 0x0 DUP4 ADD DUP8 PUSH2 0x823C JUMP JUMPDEST PUSH2 0x9A06 PUSH1 0x20 DUP4 ADD DUP7 PUSH2 0x8450 JUMP JUMPDEST DUP2 DUP2 SUB PUSH1 0x40 DUP4 ADD MSTORE PUSH2 0x9A19 DUP2 DUP5 DUP7 PUSH2 0x8ECB JUMP JUMPDEST SWAP1 POP SWAP6 SWAP5 POP POP POP POP POP JUMP JUMPDEST PUSH1 0x0 PUSH1 0x40 DUP3 ADD SWAP1 POP PUSH2 0x9A39 PUSH1 0x0 DUP4 ADD DUP6 PUSH2 0x8426 JUMP JUMPDEST PUSH2 0x9A46 PUSH1 0x20 DUP4 ADD DUP5 PUSH2 0x8426 JUMP JUMPDEST SWAP4 SWAP3 POP POP POP JUMP JUMPDEST PUSH1 0x0 PUSH1 0x40 DUP3 ADD SWAP1 POP PUSH2 0x9A62 PUSH1 0x0 DUP4 ADD DUP6 PUSH2 0x8450 JUMP JUMPDEST PUSH2 0x9A6F PUSH1 0x20 DUP4 ADD DUP5 PUSH2 0x8426 JUMP JUMPDEST SWAP4 SWAP3 POP POP POP JUMP JUMPDEST PUSH2 0x9A7F DUP2 PUSH2 0x7F71 JUMP JUMPDEST DUP2 EQ PUSH2 0x9A8A JUMPI PUSH1 0x0 DUP1 REVERT JUMPDEST POP JUMP JUMPDEST PUSH1 0x0 DUP2 MLOAD SWAP1 POP PUSH2 0x9A9C DUP2 PUSH2 0x9A76 JUMP JUMPDEST SWAP3 SWAP2 POP POP JUMP JUMPDEST PUSH1 0x0 PUSH1 0x20 DUP3 DUP5 SUB SLT ISZERO PUSH2 0x9AB8 JUMPI PUSH2 0x9AB7 PUSH2 0x7DA1 JUMP JUMPDEST JUMPDEST PUSH1 0x0 PUSH2 0x9AC6 DUP5 DUP3 DUP6 ADD PUSH2 0x9A8D JUMP JUMPDEST SWAP2 POP POP SWAP3 SWAP2 POP POP JUMP JUMPDEST PUSH1 0x0 PUSH1 0x80 DUP3 ADD SWAP1 POP PUSH2 0x9AE4 PUSH1 0x0 DUP4 ADD DUP8 PUSH2 0x8544 JUMP JUMPDEST PUSH2 0x9AF1 PUSH1 0x20 DUP4 ADD DUP7 PUSH2 0x8450 JUMP JUMPDEST PUSH2 0x9AFE PUSH1 0x40 DUP4 ADD DUP6 PUSH2 0x8426 JUMP JUMPDEST PUSH2 0x9B0B PUSH1 0x60 DUP4 ADD DUP5 PUSH2 0x823C JUMP JUMPDEST SWAP6 SWAP5 POP POP POP POP POP JUMP JUMPDEST PUSH1 0x0 DUP1 REVERT JUMPDEST PUSH1 0x0 DUP1 REVERT JUMPDEST PUSH1 0x0 DUP1 REVERT JUMPDEST PUSH1 0x0 DUP1 DUP4 CALLDATALOAD PUSH1 0x1 PUSH1 0x20 SUB DUP5 CALLDATASIZE SUB SUB DUP2 SLT PUSH2 0x9B40 JUMPI PUSH2 0x9B3F PUSH2 0x9B14 JUMP JUMPDEST JUMPDEST DUP1 DUP5 ADD SWAP3 POP DUP3 CALLDATALOAD SWAP2 POP PUSH8 0xFFFFFFFFFFFFFFFF DUP3 GT ISZERO PUSH2 0x9B62 JUMPI PUSH2 0x9B61 PUSH2 0x9B19 JUMP JUMPDEST JUMPDEST PUSH1 0x20 DUP4 ADD SWAP3 POP PUSH1 0x1 DUP3 MUL CALLDATASIZE SUB DUP4 SGT ISZERO PUSH2 0x9B7E JUMPI PUSH2 0x9B7D PUSH2 0x9B1E JUMP JUMPDEST JUMPDEST POP SWAP3 POP SWAP3 SWAP1 POP JUMP JUMPDEST PUSH1 0x0 PUSH1 0x40 DUP3 ADD SWAP1 POP PUSH2 0x9B9B PUSH1 0x0 DUP4 ADD DUP6 PUSH2 0x8450 JUMP JUMPDEST PUSH2 0x9BA8 PUSH1 0x20 DUP4 ADD DUP5 PUSH2 0x7F85 JUMP JUMPDEST SWAP4 SWAP3 POP POP POP JUMP JUMPDEST PUSH1 0x0 PUSH1 0x40 DUP3 ADD SWAP1 POP PUSH2 0x9BC4 PUSH1 0x0 DUP4 ADD DUP6 PUSH2 0x8544 JUMP JUMPDEST PUSH2 0x9BD1 PUSH1 0x20 DUP4 ADD DUP5 PUSH2 0x8450 JUMP JUMPDEST SWAP4 SWAP3 POP POP POP JUMP JUMPDEST PUSH1 0x0 PUSH1 0x40 DUP3 ADD SWAP1 POP PUSH2 0x9BED PUSH1 0x0 DUP4 ADD DUP6 PUSH2 0x8450 JUMP JUMPDEST PUSH2 0x9BFA PUSH1 0x20 DUP4 ADD DUP5 PUSH2 0x98E0 JUMP JUMPDEST SWAP4 SWAP3 POP POP POP JUMP JUMPDEST PUSH1 0x0 PUSH2 0x9C0C DUP3 PUSH2 0x7E7F JUMP JUMPDEST SWAP2 POP PUSH32 0xFFFFFFFFFFFFFFFFFFFFFFFFFFFFFFFFFFFF8000000000000000000000000000 DUP3 EQ ISZERO PUSH2 0x9C3F JUMPI PUSH2 0x9C3E PUSH2 0x8F45 JUMP JUMPDEST JUMPDEST DUP2 PUSH1 0x0 SUB SWAP1 POP SWAP2 SWAP1 POP JUMP JUMPDEST PUSH1 0x0 PUSH2 0x9C55 DUP3 PUSH2 0x7E7F JUMP JUMPDEST SWAP2 POP PUSH2 0x9C60 DUP4 PUSH2 0x7E7F JUMP JUMPDEST SWAP3 POP DUP3 PUSH2 0x9C70 JUMPI PUSH2 0x9C6F PUSH2 0x9237 JUMP JUMPDEST JUMPDEST PUSH1 0x1 PUSH1 0x0 SUB DUP4 EQ PUSH32 0xFFFFFFFFFFFFFFFFFFFFFFFFFFFFFFFFFFFF8000000000000000000000000000 DUP4 EQ AND ISZERO PUSH2 0x9CA9 JUMPI PUSH2 0x9CA8 PUSH2 0x8F45 JUMP JUMPDEST JUMPDEST DUP3 DUP3 SDIV SWAP1 POP SWAP3 SWAP2 POP POP JUMP JUMPDEST PUSH1 0x0 PUSH2 0x9CBF DUP3 PUSH2 0x7E7F JUMP JUMPDEST SWAP2 POP PUSH2 0x9CCA DUP4 PUSH2 0x7E7F JUMP JUMPDEST SWAP3 POP DUP3 PUSH14 0x7FFFFFFFFFFFFFFFFFFFFFFFFFFF DIV DUP3 GT PUSH1 0x0 DUP5 SGT PUSH1 0x0 DUP5 SGT AND AND ISZERO PUSH2 0x9CF7 JUMPI PUSH2 0x9CF6 PUSH2 0x8F45 JUMP JUMPDEST JUMPDEST DUP2 PUSH32 0xFFFFFFFFFFFFFFFFFFFFFFFFFFFFFFFFFFFF8000000000000000000000000000 SDIV DUP4 SLT PUSH1 0x0 DUP5 SLT PUSH1 0x0 DUP5 SGT AND AND ISZERO PUSH2 0x9D34 JUMPI PUSH2 0x9D33 PUSH2 0x8F45 JUMP JUMPDEST JUMPDEST DUP3 PUSH32 0xFFFFFFFFFFFFFFFFFFFFFFFFFFFFFFFFFFFF8000000000000000000000000000 SDIV DUP3 SLT PUSH1 0x0 DUP5 SGT PUSH1 0x0 DUP5 SLT AND AND ISZERO PUSH2 0x9D71 JUMPI PUSH2 0x9D70 PUSH2 0x8F45 JUMP JUMPDEST JUMPDEST DUP3 PUSH14 0x7FFFFFFFFFFFFFFFFFFFFFFFFFFF SDIV DUP3 SLT PUSH1 0x0 DUP5 SLT PUSH1 0x0 DUP5 SLT AND AND ISZERO PUSH2 0x9D9C JUMPI PUSH2 0x9D9B PUSH2 0x8F45 JUMP JUMPDEST JUMPDEST DUP3 DUP3 MUL SWAP1 POP SWAP3 SWAP2 POP POP JUMP JUMPDEST PUSH1 0x0 PUSH2 0x9DB2 DUP3 PUSH2 0x8266 JUMP JUMPDEST SWAP2 POP PUSH2 0x9DBD DUP4 PUSH2 0x8266 JUMP JUMPDEST SWAP3 POP DUP3 DUP3 LT ISZERO PUSH2 0x9DD0 JUMPI PUSH2 0x9DCF PUSH2 0x8F45 JUMP JUMPDEST JUMPDEST DUP3 DUP3 SUB SWAP1 POP SWAP3 SWAP2 POP POP JUMP JUMPDEST PUSH1 0x0 PUSH1 0x40 DUP3 ADD SWAP1 POP PUSH2 0x9DF0 PUSH1 0x0 DUP4 ADD DUP6 PUSH2 0x7F47 JUMP JUMPDEST PUSH2 0x9DFD PUSH1 0x20 DUP4 ADD DUP5 PUSH2 0x8544 JUMP JUMPDEST SWAP4 SWAP3 POP POP POP JUMP JUMPDEST PUSH1 0x0 DUP2 SWAP1 POP SWAP3 SWAP2 POP POP JUMP JUMPDEST PUSH32 0x4B59432000000000000000000000000000000000000000000000000000000000 PUSH1 0x0 DUP3 ADD MSTORE POP JUMP JUMPDEST PUSH1 0x0 PUSH2 0x9E45 PUSH1 0x4 DUP4 PUSH2 0x9E04 JUMP JUMPDEST SWAP2 POP PUSH2 0x9E50 DUP3 PUSH2 0x9E0F JUMP JUMPDEST PUSH1 0x4 DUP3 ADD SWAP1 POP SWAP2 SWAP1 POP JUMP JUMPDEST PUSH1 0x0 DUP2 PUSH1 0x60 SHL SWAP1 POP SWAP2 SWAP1 POP JUMP JUMPDEST PUSH1 0x0 PUSH2 0x9E73 DUP3 PUSH2 0x9E5B JUMP JUMPDEST SWAP1 POP SWAP2 SWAP1 POP JUMP JUMPDEST PUSH1 0x0 PUSH2 0x9E85 DUP3 PUSH2 0x9E68 JUMP JUMPDEST SWAP1 POP SWAP2 SWAP1 POP JUMP JUMPDEST PUSH2 0x9E9D PUSH2 0x9E98 DUP3 PUSH2 0x7E01 JUMP JUMPDEST PUSH2 0x9E7A JUMP JUMPDEST DUP3 MSTORE POP POP JUMP JUMPDEST PUSH1 0x0 PUSH2 0x9EAE DUP3 PUSH2 0x9E38 JUMP JUMPDEST SWAP2 POP PUSH2 0x9EBA DUP3 DUP5 PUSH2 0x9E8C JUMP JUMPDEST PUSH1 0x14 DUP3 ADD SWAP2 POP DUP2 SWAP1 POP SWAP3 SWAP2 POP POP JUMP JUMPDEST PUSH1 0x0 PUSH2 0x9EE4 PUSH2 0x9EDF PUSH2 0x9EDA DUP5 PUSH2 0x90E1 JUMP JUMPDEST PUSH2 0x8E42 JUMP JUMPDEST PUSH2 0x7DAB JUMP JUMPDEST SWAP1 POP SWAP2 SWAP1 POP JUMP JUMPDEST PUSH2 0x9EF4 DUP2 PUSH2 0x9EC9 JUMP JUMPDEST DUP3 MSTORE POP POP JUMP JUMPDEST PUSH1 0x0 PUSH1 0x60 DUP3 ADD SWAP1 POP PUSH2 0x9F0F PUSH1 0x0 DUP4 ADD DUP7 PUSH2 0x8450 JUMP JUMPDEST PUSH2 0x9F1C PUSH1 0x20 DUP4 ADD DUP6 PUSH2 0x8544 JUMP JUMPDEST PUSH2 0x9F29 PUSH1 0x40 DUP4 ADD DUP5 PUSH2 0x9EEB JUMP JUMPDEST SWAP5 SWAP4 POP POP POP POP JUMP JUMPDEST PUSH32 0x4E487B7100000000000000000000000000000000000000000000000000000000 PUSH1 0x0 MSTORE PUSH1 0x22 PUSH1 0x4 MSTORE PUSH1 0x24 PUSH1 0x0 REVERT JUMPDEST PUSH1 0x0 PUSH1 0x2 DUP3 DIV SWAP1 POP PUSH1 0x1 DUP3 AND DUP1 PUSH2 0x9F78 JUMPI PUSH1 0x7F DUP3 AND SWAP2 POP JUMPDEST PUSH1 0x20 DUP3 LT DUP2 EQ ISZERO PUSH2 0x9F8C JUMPI PUSH2 0x9F8B PUSH2 0x9F31 JUMP JUMPDEST JUMPDEST POP SWAP2 SWAP1 POP JUMP JUMPDEST PUSH1 0x0 DUP2 SWAP1 POP DUP2 PUSH1 0x0 MSTORE PUSH1 0x20 PUSH1 0x0 KECCAK256 SWAP1 POP SWAP2 SWAP1 POP JUMP JUMPDEST PUSH1 0x0 DUP2 SLOAD PUSH2 0x9FB4 DUP2 PUSH2 0x9F60 JUMP JUMPDEST PUSH2 0x9FBE DUP2 DUP7 PUSH2 0x8EAB JUMP JUMPDEST SWAP5 POP PUSH1 0x1 DUP3 AND PUSH1 0x0 DUP2 EQ PUSH2 0x9FD9 JUMPI PUSH1 0x1 DUP2 EQ PUSH2 0x9FEB JUMPI PUSH2 0xA01E JUMP JUMPDEST PUSH1 0xFF NOT DUP4 AND DUP7 MSTORE PUSH1 0x20 DUP7 ADD SWAP4 POP PUSH2 0xA01E JUMP JUMPDEST PUSH2 0x9FF4 DUP6 PUSH2 0x9F92 JUMP JUMPDEST PUSH1 0x0 JUMPDEST DUP4 DUP2 LT ISZERO PUSH2 0xA016 JUMPI DUP2 SLOAD DUP2 DUP10 ADD MSTORE PUSH1 0x1 DUP3 ADD SWAP2 POP PUSH1 0x20 DUP2 ADD SWAP1 POP PUSH2 0x9FF7 JUMP JUMPDEST DUP1 DUP9 ADD SWAP6 POP POP POP JUMPDEST POP POP POP SWAP3 SWAP2 POP POP JUMP JUMPDEST PUSH1 0x0 PUSH1 0x80 DUP3 ADD SWAP1 POP PUSH2 0xA03C PUSH1 0x0 DUP4 ADD DUP8 PUSH2 0x8450 JUMP JUMPDEST PUSH2 0xA049 PUSH1 0x20 DUP4 ADD DUP7 PUSH2 0x823C JUMP JUMPDEST PUSH2 0xA056 PUSH1 0x40 DUP4 ADD DUP6 PUSH2 0x8450 JUMP JUMPDEST DUP2 DUP2 SUB PUSH1 0x60 DUP4 ADD MSTORE PUSH2 0xA068 DUP2 DUP5 PUSH2 0x9FA7 JUMP JUMPDEST SWAP1 POP SWAP6 SWAP5 POP POP POP POP POP JUMP JUMPDEST PUSH1 0x0 DUP2 MLOAD SWAP1 POP PUSH2 0xA082 DUP2 PUSH2 0x7E13 JUMP JUMPDEST SWAP3 SWAP2 POP POP JUMP JUMPDEST PUSH1 0x0 PUSH1 0x20 DUP3 DUP5 SUB SLT ISZERO PUSH2 0xA09E JUMPI PUSH2 0xA09D PUSH2 0x7DA1 JUMP JUMPDEST JUMPDEST PUSH1 0x0 PUSH2 0xA0AC DUP5 DUP3 DUP6 ADD PUSH2 0xA073 JUMP JUMPDEST SWAP2 POP POP SWAP3 SWAP2 POP POP JUMP JUMPDEST PUSH1 0x0 PUSH1 0x40 DUP3 ADD SWAP1 POP PUSH2 0xA0CA PUSH1 0x0 DUP4 ADD DUP6 PUSH2 0x8450 JUMP JUMPDEST PUSH2 0xA0D7 PUSH1 0x20 DUP4 ADD DUP5 PUSH2 0x823C JUMP JUMPDEST SWAP4 SWAP3 POP POP POP JUMP JUMPDEST PUSH1 0x0 DUP2 SWAP1 POP SWAP2 SWAP1 POP JUMP JUMPDEST PUSH1 0x0 PUSH2 0xA103 PUSH2 0xA0FE PUSH2 0xA0F9 DUP5 PUSH2 0xA0DE JUMP JUMPDEST PUSH2 0x8E42 JUMP JUMPDEST PUSH2 0x8419 JUMP JUMPDEST SWAP1 POP SWAP2 SWAP1 POP JUMP JUMPDEST PUSH2 0xA113 DUP2 PUSH2 0xA0E8 JUMP JUMPDEST DUP3 MSTORE POP POP JUMP JUMPDEST PUSH1 0x0 DUP2 SWAP1 POP SWAP2 SWAP1 POP JUMP JUMPDEST PUSH1 0x0 PUSH2 0xA13E PUSH2 0xA139 PUSH2 0xA134 DUP5 PUSH2 0xA119 JUMP JUMPDEST PUSH2 0x8E42 JUMP JUMPDEST PUSH2 0x8266 JUMP JUMPDEST SWAP1 POP SWAP2 SWAP1 POP JUMP JUMPDEST PUSH2 0xA14E DUP2 PUSH2 0xA123 JUMP JUMPDEST DUP3 MSTORE POP POP JUMP JUMPDEST PUSH1 0x0 PUSH1 0xE0 DUP3 ADD SWAP1 POP PUSH2 0xA169 PUSH1 0x0 DUP4 ADD DUP11 PUSH2 0x8450 JUMP JUMPDEST PUSH2 0xA176 PUSH1 0x20 DUP4 ADD DUP10 PUSH2 0x8450 JUMP JUMPDEST PUSH2 0xA183 PUSH1 0x40 DUP4 ADD DUP9 PUSH2 0x8450 JUMP JUMPDEST PUSH2 0xA190 PUSH1 0x60 DUP4 ADD DUP8 PUSH2 0x823C JUMP JUMPDEST PUSH2 0xA19D PUSH1 0x80 DUP4 ADD DUP7 PUSH2 0xA10A JUMP JUMPDEST PUSH2 0xA1AA PUSH1 0xA0 DUP4 ADD DUP6 PUSH2 0x7F85 JUMP JUMPDEST PUSH2 0xA1B7 PUSH1 0xC0 DUP4 ADD DUP5 PUSH2 0xA145 JUMP JUMPDEST SWAP9 SWAP8 POP POP POP POP POP POP POP POP JUMP JUMPDEST PUSH32 0x4672616272696344414F205F636F6D706C65746550726F706F73616C20436F6D PUSH1 0x0 DUP3 ADD MSTORE PUSH32 0x6D6F6E50726F706F73616C000000000000000000000000000000000000000000 PUSH1 0x20 DUP3 ADD MSTORE POP JUMP JUMPDEST PUSH1 0x0 PUSH2 0xA21F PUSH1 0x2B DUP4 PUSH2 0x8DE5 JUMP JUMPDEST SWAP2 POP PUSH2 0xA22A DUP3 PUSH2 0xA1C3 JUMP JUMPDEST PUSH1 0x40 DUP3 ADD SWAP1 POP SWAP2 SWAP1 POP JUMP JUMPDEST PUSH1 0x0 PUSH1 0x40 DUP3 ADD SWAP1 POP DUP2 DUP2 SUB PUSH1 0x0 DUP4 ADD MSTORE PUSH2 0xA24E DUP2 PUSH2 0xA212 JUMP JUMPDEST SWAP1 POP PUSH2 0xA25D PUSH1 0x20 DUP4 ADD DUP5 PUSH2 0x8E6E JUMP JUMPDEST SWAP3 SWAP2 POP POP JUMP JUMPDEST PUSH1 0x0 PUSH2 0xA26E DUP3 PUSH2 0x7FDC JUMP JUMPDEST SWAP2 POP PUSH2 0xA279 DUP4 PUSH2 0x7FDC JUMP JUMPDEST SWAP3 POP DUP3 DUP3 LT ISZERO PUSH2 0xA28C JUMPI PUSH2 0xA28B PUSH2 0x8F45 JUMP JUMPDEST JUMPDEST DUP3 DUP3 SUB SWAP1 POP SWAP3 SWAP2 POP POP JUMP JUMPDEST PUSH1 0x0 PUSH2 0xA2A2 DUP3 PUSH2 0x7FDC JUMP JUMPDEST SWAP2 POP PUSH2 0xA2AD DUP4 PUSH2 0x7FDC JUMP JUMPDEST SWAP3 POP DUP3 PUSH14 0xFFFFFFFFFFFFFFFFFFFFFFFFFFFF SUB DUP3 GT ISZERO PUSH2 0xA2D0 JUMPI PUSH2 0xA2CF PUSH2 0x8F45 JUMP JUMPDEST JUMPDEST DUP3 DUP3 ADD SWAP1 POP SWAP3 SWAP2 POP POP JUMP JUMPDEST PUSH1 0x0 PUSH2 0xA2E6 DUP3 PUSH2 0x7E7F JUMP JUMPDEST SWAP2 POP PUSH2 0xA2F1 DUP4 PUSH2 0x7E7F JUMP JUMPDEST SWAP3 POP DUP2 PUSH14 0x7FFFFFFFFFFFFFFFFFFFFFFFFFFF SUB DUP4 SGT PUSH1 0x0 DUP4 SLT ISZERO AND ISZERO PUSH2 0xA31A JUMPI PUSH2 0xA319 PUSH2 0x8F45 JUMP JUMPDEST JUMPDEST DUP2 PUSH32 0xFFFFFFFFFFFFFFFFFFFFFFFFFFFFFFFFFFFF8000000000000000000000000000 SUB DUP4 SLT PUSH1 0x0 DUP4 SLT AND ISZERO PUSH2 0xA352 JUMPI PUSH2 0xA351 PUSH2 0x8F45 JUMP JUMPDEST JUMPDEST DUP3 DUP3 ADD SWAP1 POP SWAP3 SWAP2 POP POP JUMP JUMPDEST PUSH1 0x0 PUSH1 0x20 DUP3 ADD SWAP1 POP PUSH2 0xA372 PUSH1 0x0 DUP4 ADD DUP5 PUSH2 0x8DAD JUMP JUMPDEST SWAP3 SWAP2 POP POP JUMP JUMPDEST PUSH32 0x1901000000000000000000000000000000000000000000000000000000000000 PUSH1 0x0 DUP3 ADD MSTORE POP JUMP JUMPDEST PUSH1 0x0 PUSH2 0xA3AE PUSH1 0x2 DUP4 PUSH2 0x9E04 JUMP JUMPDEST SWAP2 POP PUSH2 0xA3B9 DUP3 PUSH2 0xA378 JUMP JUMPDEST PUSH1 0x2 DUP3 ADD SWAP1 POP SWAP2 SWAP1 POP JUMP JUMPDEST PUSH1 0x0 DUP2 SWAP1 POP SWAP2 SWAP1 POP JUMP JUMPDEST PUSH2 0xA3DF PUSH2 0xA3DA DUP3 PUSH2 0x817E JUMP JUMPDEST PUSH2 0xA3C4 JUMP JUMPDEST DUP3 MSTORE POP POP JUMP JUMPDEST PUSH1 0x0 PUSH2 0xA3F0 DUP3 PUSH2 0xA3A1 JUMP JUMPDEST SWAP2 POP PUSH2 0xA3FC DUP3 DUP6 PUSH2 0xA3CE JUMP JUMPDEST PUSH1 0x20 DUP3 ADD SWAP2 POP PUSH2 0xA40C DUP3 DUP5 PUSH2 0xA3CE JUMP JUMPDEST PUSH1 0x20 DUP3 ADD SWAP2 POP DUP2 SWAP1 POP SWAP4 SWAP3 POP POP POP JUMP JUMPDEST PUSH32 0x45434453413A20696E76616C6964207369676E61747572650000000000000000 PUSH1 0x0 DUP3 ADD MSTORE POP JUMP JUMPDEST PUSH1 0x0 PUSH2 0xA452 PUSH1 0x18 DUP4 PUSH2 0x8DE5 JUMP JUMPDEST SWAP2 POP PUSH2 0xA45D DUP3 PUSH2 0xA41C JUMP JUMPDEST PUSH1 0x20 DUP3 ADD SWAP1 POP SWAP2 SWAP1 POP JUMP JUMPDEST PUSH1 0x0 PUSH1 0x20 DUP3 ADD SWAP1 POP DUP2 DUP2 SUB PUSH1 0x0 DUP4 ADD MSTORE PUSH2 0xA481 DUP2 PUSH2 0xA445 JUMP JUMPDEST SWAP1 POP SWAP2 SWAP1 POP JUMP JUMPDEST PUSH32 0x45434453413A20696E76616C6964207369676E6174757265206C656E67746800 PUSH1 0x0 DUP3 ADD MSTORE POP JUMP JUMPDEST PUSH1 0x0 PUSH2 0xA4BE PUSH1 0x1F DUP4 PUSH2 0x8DE5 JUMP JUMPDEST SWAP2 POP PUSH2 0xA4C9 DUP3 PUSH2 0xA488 JUMP JUMPDEST PUSH1 0x20 DUP3 ADD SWAP1 POP SWAP2 SWAP1 POP JUMP JUMPDEST PUSH1 0x0 PUSH1 0x20 DUP3 ADD SWAP1 POP DUP2 DUP2 SUB PUSH1 0x0 DUP4 ADD MSTORE PUSH2 0xA4ED DUP2 PUSH2 0xA4B1 JUMP JUMPDEST SWAP1 POP SWAP2 SWAP1 POP JUMP JUMPDEST PUSH32 0x45434453413A20696E76616C6964207369676E6174757265202773272076616C PUSH1 0x0 DUP3 ADD MSTORE PUSH32 0x7565000000000000000000000000000000000000000000000000000000000000 PUSH1 0x20 DUP3 ADD MSTORE POP JUMP JUMPDEST PUSH1 0x0 PUSH2 0xA550 PUSH1 0x22 DUP4 PUSH2 0x8DE5 JUMP JUMPDEST SWAP2 POP PUSH2 0xA55B DUP3 PUSH2 0xA4F4 JUMP JUMPDEST PUSH1 0x40 DUP3 ADD SWAP1 POP SWAP2 SWAP1 POP JUMP JUMPDEST PUSH1 0x0 PUSH1 0x20 DUP3 ADD SWAP1 POP DUP2 DUP2 SUB PUSH1 0x0 DUP4 ADD MSTORE PUSH2 0xA57F DUP2 PUSH2 0xA543 JUMP JUMPDEST SWAP1 POP SWAP2 SWAP1 POP JUMP JUMPDEST PUSH1 0x0 DUP2 SWAP1 POP DUP2 PUSH1 0x0 MSTORE PUSH1 0x20 PUSH1 0x0 KECCAK256 SWAP1 POP SWAP2 SWAP1 POP JUMP JUMPDEST PUSH1 0x0 DUP2 SLOAD PUSH2 0xA5A8 DUP2 PUSH2 0x9F60 JUMP JUMPDEST PUSH2 0xA5B2 DUP2 DUP7 PUSH2 0x8DE5 JUMP JUMPDEST SWAP5 POP PUSH1 0x1 DUP3 AND PUSH1 0x0 DUP2 EQ PUSH2 0xA5CD JUMPI PUSH1 0x1 DUP2 EQ PUSH2 0xA5DF JUMPI PUSH2 0xA612 JUMP JUMPDEST PUSH1 0xFF NOT DUP4 AND DUP7 MSTORE PUSH1 0x20 DUP7 ADD SWAP4 POP PUSH2 0xA612 JUMP JUMPDEST PUSH2 0xA5E8 DUP6 PUSH2 0xA586 JUMP JUMPDEST PUSH1 0x0 JUMPDEST DUP4 DUP2 LT ISZERO PUSH2 0xA60A JUMPI DUP2 SLOAD DUP2 DUP10 ADD MSTORE PUSH1 0x1 DUP3 ADD SWAP2 POP PUSH1 0x20 DUP2 ADD SWAP1 POP PUSH2 0xA5EB JUMP JUMPDEST DUP1 DUP9 ADD SWAP6 POP POP POP JUMPDEST POP POP POP SWAP3 SWAP2 POP POP JUMP JUMPDEST PUSH1 0x0 PUSH1 0xC0 DUP3 ADD SWAP1 POP PUSH2 0xA630 PUSH1 0x0 DUP4 ADD DUP10 PUSH2 0x8426 JUMP JUMPDEST DUP2 DUP2 SUB PUSH1 0x20 DUP4 ADD MSTORE PUSH2 0xA642 DUP2 DUP9 PUSH2 0xA59B JUMP JUMPDEST SWAP1 POP DUP2 DUP2 SUB PUSH1 0x40 DUP4 ADD MSTORE PUSH2 0xA656 DUP2 DUP8 PUSH2 0xA59B JUMP JUMPDEST SWAP1 POP PUSH2 0xA665 PUSH1 0x60 DUP4 ADD DUP7 PUSH2 0x8544 JUMP JUMPDEST PUSH2 0xA672 PUSH1 0x80 DUP4 ADD DUP6 PUSH2 0x8450 JUMP JUMPDEST DUP2 DUP2 SUB PUSH1 0xA0 DUP4 ADD MSTORE PUSH2 0xA684 DUP2 DUP5 PUSH2 0x9FA7 JUMP JUMPDEST SWAP1 POP SWAP8 SWAP7 POP POP POP POP POP POP POP JUMP JUMPDEST PUSH1 0x0 DUP2 SWAP1 POP SWAP2 SWAP1 POP JUMP JUMPDEST PUSH2 0xA6AC PUSH2 0xA6A7 DUP3 PUSH2 0x7EB6 JUMP JUMPDEST PUSH2 0xA691 JUMP JUMPDEST DUP3 MSTORE POP POP JUMP JUMPDEST PUSH1 0x0 DUP2 SWAP1 POP SWAP3 SWAP2 POP POP JUMP JUMPDEST PUSH1 0x0 DUP2 SLOAD PUSH2 0xA6CA DUP2 PUSH2 0x9F60 JUMP JUMPDEST PUSH2 0xA6D4 DUP2 DUP7 PUSH2 0xA6B2 JUMP JUMPDEST SWAP5 POP PUSH1 0x1 DUP3 AND PUSH1 0x0 DUP2 EQ PUSH2 0xA6EF JUMPI PUSH1 0x1 DUP2 EQ PUSH2 0xA700 JUMPI PUSH2 0xA733 JUMP JUMPDEST PUSH1 0xFF NOT DUP4 AND DUP7 MSTORE DUP2 DUP7 ADD SWAP4 POP PUSH2 0xA733 JUMP JUMPDEST PUSH2 0xA709 DUP6 PUSH2 0x9F92 JUMP JUMPDEST PUSH1 0x0 JUMPDEST DUP4 DUP2 LT ISZERO PUSH2 0xA72B JUMPI DUP2 SLOAD DUP2 DUP10 ADD MSTORE PUSH1 0x1 DUP3 ADD SWAP2 POP PUSH1 0x20 DUP2 ADD SWAP1 POP PUSH2 0xA70C JUMP JUMPDEST DUP4 DUP9 ADD SWAP6 POP POP POP JUMPDEST POP POP POP SWAP3 SWAP2 POP POP JUMP JUMPDEST PUSH1 0x0 PUSH2 0xA748 DUP3 DUP6 PUSH2 0xA69B JUMP JUMPDEST PUSH1 0x4 DUP3 ADD SWAP2 POP PUSH2 0xA758 DUP3 DUP5 PUSH2 0xA6BD JUMP JUMPDEST SWAP2 POP DUP2 SWAP1 POP SWAP4 SWAP3 POP POP POP JUMP JUMPDEST PUSH1 0x0 DUP2 MLOAD SWAP1 POP SWAP2 SWAP1 POP JUMP JUMPDEST PUSH1 0x0 JUMPDEST DUP4 DUP2 LT ISZERO PUSH2 0xA78D JUMPI DUP1 DUP3 ADD MLOAD DUP2 DUP5 ADD MSTORE PUSH1 0x20 DUP2 ADD SWAP1 POP PUSH2 0xA772 JUMP JUMPDEST DUP4 DUP2 GT ISZERO PUSH2 0xA79C JUMPI PUSH1 0x0 DUP5 DUP5 ADD MSTORE JUMPDEST POP POP POP POP JUMP JUMPDEST PUSH1 0x0 PUSH2 0xA7AD DUP3 PUSH2 0xA764 JUMP JUMPDEST PUSH2 0xA7B7 DUP2 DUP6 PUSH2 0xA6B2 JUMP JUMPDEST SWAP4 POP PUSH2 0xA7C7 DUP2 DUP6 PUSH1 0x20 DUP7 ADD PUSH2 0xA76F JUMP JUMPDEST DUP1 DUP5 ADD SWAP2 POP POP SWAP3 SWAP2 POP POP JUMP JUMPDEST PUSH1 0x0 PUSH2 0xA7DF DUP3 DUP5 PUSH2 0xA7A2 JUMP JUMPDEST SWAP2 POP DUP2 SWAP1 POP SWAP3 SWAP2 POP POP JUMP JUMPDEST PUSH1 0x0 PUSH2 0xA7F5 DUP3 PUSH2 0xA764 JUMP JUMPDEST PUSH2 0xA7FF DUP2 DUP6 PUSH2 0x8EAB JUMP JUMPDEST SWAP4 POP PUSH2 0xA80F DUP2 DUP6 PUSH1 0x20 DUP7 ADD PUSH2 0xA76F JUMP JUMPDEST PUSH2 0xA818 DUP2 PUSH2 0x8A8C JUMP JUMPDEST DUP5 ADD SWAP2 POP POP SWAP3 SWAP2 POP POP JUMP JUMPDEST PUSH1 0x0 PUSH1 0x60 DUP3 ADD SWAP1 POP PUSH2 0xA838 PUSH1 0x0 DUP4 ADD DUP7 PUSH2 0x8450 JUMP JUMPDEST PUSH2 0xA845 PUSH1 0x20 DUP4 ADD DUP6 PUSH2 0x8DAD JUMP JUMPDEST DUP2 DUP2 SUB PUSH1 0x40 DUP4 ADD MSTORE PUSH2 0xA857 DUP2 DUP5 PUSH2 0xA7EA JUMP JUMPDEST SWAP1 POP SWAP5 SWAP4 POP POP POP POP JUMP JUMPDEST PUSH32 0x46726162726963205F636F6D706C657465537065636966696350726F706F7361 PUSH1 0x0 DUP3 ADD MSTORE PUSH32 0x6C00000000000000000000000000000000000000000000000000000000000000 PUSH1 0x20 DUP3 ADD MSTORE POP JUMP JUMPDEST PUSH1 0x0 PUSH2 0xA8BD PUSH1 0x21 DUP4 PUSH2 0x8DE5 JUMP JUMPDEST SWAP2 POP PUSH2 0xA8C8 DUP3 PUSH2 0xA861 JUMP JUMPDEST PUSH1 0x40 DUP3 ADD SWAP1 POP SWAP2 SWAP1 POP JUMP JUMPDEST PUSH1 0x0 PUSH1 0x40 DUP3 ADD SWAP1 POP DUP2 DUP2 SUB PUSH1 0x0 DUP4 ADD MSTORE PUSH2 0xA8EC DUP2 PUSH2 0xA8B0 JUMP JUMPDEST SWAP1 POP PUSH2 0xA8FB PUSH1 0x20 DUP4 ADD DUP5 PUSH2 0x823C JUMP JUMPDEST SWAP3 SWAP2 POP POP JUMP JUMPDEST PUSH1 0x0 PUSH1 0xA0 DUP3 ADD SWAP1 POP PUSH2 0xA916 PUSH1 0x0 DUP4 ADD DUP9 PUSH2 0x8544 JUMP JUMPDEST PUSH2 0xA923 PUSH1 0x20 DUP4 ADD DUP8 PUSH2 0x8544 JUMP JUMPDEST PUSH2 0xA930 PUSH1 0x40 DUP4 ADD DUP7 PUSH2 0x8544 JUMP JUMPDEST PUSH2 0xA93D PUSH1 0x60 DUP4 ADD DUP6 PUSH2 0x823C JUMP JUMPDEST PUSH2 0xA94A PUSH1 0x80 DUP4 ADD DUP5 PUSH2 0x8450 JUMP JUMPDEST SWAP7 SWAP6 POP POP POP POP POP POP JUMP JUMPDEST PUSH1 0x0 PUSH1 0x80 DUP3 ADD SWAP1 POP PUSH2 0xA969 PUSH1 0x0 DUP4 ADD DUP8 PUSH2 0x8544 JUMP JUMPDEST PUSH2 0xA976 PUSH1 0x20 DUP4 ADD DUP7 PUSH2 0x8426 JUMP JUMPDEST PUSH2 0xA983 PUSH1 0x40 DUP4 ADD DUP6 PUSH2 0x8544 JUMP JUMPDEST PUSH2 0xA990 PUSH1 0x60 DUP4 ADD DUP5 PUSH2 0x8544 JUMP JUMPDEST SWAP6 SWAP5 POP POP POP POP POP JUMP JUMPDEST PUSH32 0x5361666545524332303A204552433230206F7065726174696F6E20646964206E PUSH1 0x0 DUP3 ADD MSTORE PUSH32 0x6F74207375636365656400000000000000000000000000000000000000000000 PUSH1 0x20 DUP3 ADD MSTORE POP JUMP JUMPDEST PUSH1 0x0 PUSH2 0xA9F5 PUSH1 0x2A DUP4 PUSH2 0x8DE5 JUMP JUMPDEST SWAP2 POP PUSH2 0xAA00 DUP3 PUSH2 0xA999 JUMP JUMPDEST PUSH1 0x40 DUP3 ADD SWAP1 POP SWAP2 SWAP1 POP JUMP JUMPDEST PUSH1 0x0 PUSH1 0x20 DUP3 ADD SWAP1 POP DUP2 DUP2 SUB PUSH1 0x0 DUP4 ADD MSTORE PUSH2 0xAA24 DUP2 PUSH2 0xA9E8 JUMP JUMPDEST SWAP1 POP SWAP2 SWAP1 POP JUMP JUMPDEST PUSH32 0x416464726573733A20696E73756666696369656E742062616C616E636520666F PUSH1 0x0 DUP3 ADD MSTORE PUSH32 0x722063616C6C0000000000000000000000000000000000000000000000000000 PUSH1 0x20 DUP3 ADD MSTORE POP JUMP JUMPDEST PUSH1 0x0 PUSH2 0xAA87 PUSH1 0x26 DUP4 PUSH2 0x8DE5 JUMP JUMPDEST SWAP2 POP PUSH2 0xAA92 DUP3 PUSH2 0xAA2B JUMP JUMPDEST PUSH1 0x40 DUP3 ADD SWAP1 POP SWAP2 SWAP1 POP JUMP JUMPDEST PUSH1 0x0 PUSH1 0x20 DUP3 ADD SWAP1 POP DUP2 DUP2 SUB PUSH1 0x0 DUP4 ADD MSTORE PUSH2 0xAAB6 DUP2 PUSH2 0xAA7A JUMP JUMPDEST SWAP1 POP SWAP2 SWAP1 POP JUMP JUMPDEST PUSH32 0x416464726573733A2063616C6C20746F206E6F6E2D636F6E7472616374000000 PUSH1 0x0 DUP3 ADD MSTORE POP JUMP JUMPDEST PUSH1 0x0 PUSH2 0xAAF3 PUSH1 0x1D DUP4 PUSH2 0x8DE5 JUMP JUMPDEST SWAP2 POP PUSH2 0xAAFE DUP3 PUSH2 0xAABD JUMP JUMPDEST PUSH1 0x20 DUP3 ADD SWAP1 POP SWAP2 SWAP1 POP JUMP JUMPDEST PUSH1 0x0 PUSH1 0x20 DUP3 ADD SWAP1 POP DUP2 DUP2 SUB PUSH1 0x0 DUP4 ADD MSTORE PUSH2 0xAB22 DUP2 PUSH2 0xAAE6 JUMP JUMPDEST SWAP1 POP SWAP2 SWAP1 POP JUMP JUMPDEST PUSH1 0x0 DUP2 MLOAD SWAP1 POP SWAP2 SWAP1 POP JUMP JUMPDEST PUSH1 0x0 PUSH2 0xAB3F DUP3 PUSH2 0xAB29 JUMP JUMPDEST PUSH2 0xAB49 DUP2 DUP6 PUSH2 0x8DE5 JUMP JUMPDEST SWAP4 POP PUSH2 0xAB59 DUP2 DUP6 PUSH1 0x20 DUP7 ADD PUSH2 0xA76F JUMP JUMPDEST PUSH2 0xAB62 DUP2 PUSH2 0x8A8C JUMP JUMPDEST DUP5 ADD SWAP2 POP POP SWAP3 SWAP2 POP POP JUMP JUMPDEST PUSH1 0x0 PUSH1 0x20 DUP3 ADD SWAP1 POP DUP2 DUP2 SUB PUSH1 0x0 DUP4 ADD MSTORE PUSH2 0xAB87 DUP2 DUP5 PUSH2 0xAB34 JUMP JUMPDEST SWAP1 POP SWAP3 SWAP2 POP POP JUMP INVALID LOG2 PUSH5 0x6970667358 0x22 SLT KECCAK256 DUP1 LOG0 0xE0 MSTORE SLOAD CREATE 0xC0 0xC3 0xE2 0xC4 0x2A BYTE PUSH16 0xA9020ED403881E97D50418AF015D5DA7 ORIGIN 0xAB PUSH22 0x64736F6C634300080900330000000000000000000000 "
    },
    "gasEstimates": {
      "creation": {
        "codeDepositCost": "8794600",
        "executionCost": "infinite",
        "totalCost": "infinite"
      },
      "external": {
        "approve(uint8,address,bytes32,bytes)": "infinite",
        "bond()": "2603",
        "canPropose(address)": "3002",
        "cancelProposal(uint256,address[])": "infinite",
        "commonProposalBit()": "424",
        "completeProposal(uint256,bytes)": "infinite",
        "contractName()": "2519",
        "erc20()": "2648",
        "governor(address)": "3002",
        "lapsePeriod()": "2653",
        "maxRemovalFee()": "2516",
        "netVotes(uint256)": "2877",
        "nextProposalID()": "2548",
        "participant(address)": "2980",
        "passed(uint256)": "2909",
        "proposalActive(uint256)": "infinite",
        "proposeBondRemoval(address,bool,uint256,bytes32)": "infinite",
        "proposePaper(bool,bytes32)": "infinite",
        "proposeParticipant(uint8,address,bytes32)": "infinite",
        "proposeParticipantRemoval(address,uint8,bytes[],bytes32)": "infinite",
        "proposeThread(uint8,string,string,bytes32,bytes,bytes32)": "infinite",
        "proposeThreadProposal(address,uint16,bytes,bytes32)": "infinite",
        "proposeTokenAction(address,address,bool,uint256,uint256,bytes32)": "infinite",
        "proposeUpgrade(address,address,uint256,address,bytes,bytes32)": "infinite",
        "queuePeriod()": "2538",
        "queueProposal(uint256)": "infinite",
        "requiredParticipation()": "infinite",
        "supermajorityRequired(uint256)": "2966",
        "supportsInterface(bytes4)": "2871",
        "threadDeployer()": "2581",
        "totalVotes(uint256)": "3013",
        "upgrade(uint256,bytes)": "infinite",
        "validateUpgrade(uint256,bytes)": "infinite",
        "version()": "2519",
        "vote(uint256[],int112[])": "infinite",
        "voteBlock(uint256)": "2990",
        "voteRecord(uint256,address)": "3191",
        "votingPeriod()": "2612",
        "vouch(address,bytes)": "infinite",
        "vouchers(address)": "2882",
        "withdrawProposal(uint256)": "infinite"
      },
      "internal": {
        "_addKYC(address)": "infinite",
        "_changeParticipant(address,enum IFrabric.ParticipantType)": "25964",
        "_changeParticipantAndKYC(address,enum IFrabric.ParticipantType,bytes32)": "infinite",
        "_completeSpecificProposal(uint256,uint256)": "infinite",
        "_participantRemoval(address)": "52674",
        "_whitelistAndAdd(address,enum IFrabric.ParticipantType,bytes32)": "infinite"
      }
    },
    "methodIdentifiers": {
      "approve(uint8,address,bytes32,bytes)": "57e0ac90",
      "bond()": "64c9ec6f",
      "canPropose(address)": "42b4632e",
      "cancelProposal(uint256,address[])": "d8965f55",
      "commonProposalBit()": "8eb98e37",
      "completeProposal(uint256,bytes)": "b4c863dd",
      "contractName()": "75d0c0dc",
      "erc20()": "785e9e86",
      "governor(address)": "70ec42e8",
      "lapsePeriod()": "fee62bc3",
      "maxRemovalFee()": "5e51bd05",
      "netVotes(uint256)": "8788cc53",
      "nextProposalID()": "662457c6",
      "participant(address)": "2605b3c7",
      "passed(uint256)": "0a0155e5",
      "proposalActive(uint256)": "35743ac9",
      "proposeBondRemoval(address,bool,uint256,bytes32)": "67b48e98",
      "proposePaper(bool,bytes32)": "5be59cc0",
      "proposeParticipant(uint8,address,bytes32)": "a42e9fb0",
      "proposeParticipantRemoval(address,uint8,bytes[],bytes32)": "ed29ce98",
      "proposeThread(uint8,string,string,bytes32,bytes,bytes32)": "bf84bf5b",
      "proposeThreadProposal(address,uint16,bytes,bytes32)": "2e98bda5",
      "proposeTokenAction(address,address,bool,uint256,uint256,bytes32)": "8fff0fed",
      "proposeUpgrade(address,address,uint256,address,bytes,bytes32)": "e9f4741a",
      "queuePeriod()": "8b5d4b2c",
      "queueProposal(uint256)": "94a14a34",
      "requiredParticipation()": "6b83cd68",
      "supermajorityRequired(uint256)": "ef46d90b",
      "supportsInterface(bytes4)": "01ffc9a7",
      "threadDeployer()": "64691e5e",
      "totalVotes(uint256)": "19e6e158",
      "upgrade(uint256,bytes)": "3b99bcee",
      "validateUpgrade(uint256,bytes)": "77173c1e",
      "version()": "54fd4d50",
      "vote(uint256[],int112[])": "ff383e1b",
      "voteBlock(uint256)": "37716745",
      "voteRecord(uint256,address)": "0117c909",
      "votingPeriod()": "02a251a3",
      "vouch(address,bytes)": "f2d8323c",
      "vouchers(address)": "450b9743",
      "withdrawProposal(uint256)": "e1f02ffa"
    }
  },
  "abi": [
    {
      "inputs": [],
      "stateMutability": "nonpayable",
      "type": "constructor"
    },
    {
      "inputs": [
        {
          "internalType": "uint256",
          "name": "id",
          "type": "uint256"
        },
        {
          "internalType": "uint256",
          "name": "time",
          "type": "uint256"
        },
        {
          "internalType": "uint256",
          "name": "endTime",
          "type": "uint256"
        }
      ],
      "name": "ActiveProposal",
      "type": "error"
    },
    {
      "inputs": [
        {
          "internalType": "bytes32",
          "name": "oldName",
          "type": "bytes32"
        },
        {
          "internalType": "bytes32",
          "name": "newName",
          "type": "bytes32"
        }
      ],
      "name": "DifferentContract",
      "type": "error"
    },
    {
      "inputs": [
        {
          "internalType": "uint256",
          "name": "lengthA",
          "type": "uint256"
        },
        {
          "internalType": "uint256",
          "name": "lengthB",
          "type": "uint256"
        }
      ],
      "name": "DifferentLengths",
      "type": "error"
    },
    {
      "inputs": [
        {
          "internalType": "address",
          "name": "called",
          "type": "address"
        },
        {
          "internalType": "bytes4",
          "name": "selector",
          "type": "bytes4"
        },
        {
          "internalType": "bytes",
          "name": "error",
          "type": "bytes"
        }
      ],
      "name": "ExternalCallFailed",
      "type": "error"
    },
    {
      "inputs": [
        {
          "internalType": "uint256",
          "name": "id",
          "type": "uint256"
        }
      ],
      "name": "InactiveProposal",
      "type": "error"
    },
    {
      "inputs": [
        {
          "internalType": "address",
          "name": "signer",
          "type": "address"
        },
        {
          "internalType": "enum IFrabric.ParticipantType",
          "name": "status",
          "type": "uint8"
        }
      ],
      "name": "InvalidKYCSignature",
      "type": "error"
    },
    {
      "inputs": [
        {
          "internalType": "string",
          "name": "name",
          "type": "string"
        },
        {
          "internalType": "string",
          "name": "symbol",
          "type": "string"
        }
      ],
      "name": "InvalidName",
      "type": "error"
    },
    {
      "inputs": [
        {
          "internalType": "enum IFrabric.ParticipantType",
          "name": "pType",
          "type": "uint8"
        }
      ],
      "name": "InvalidParticipantType",
      "type": "error"
    },
    {
      "inputs": [
        {
          "internalType": "uint8",
          "name": "fee",
          "type": "uint8"
        },
        {
          "internalType": "uint8",
          "name": "max",
          "type": "uint8"
        }
      ],
      "name": "InvalidRemovalFee",
      "type": "error"
    },
    {
      "inputs": [
        {
          "internalType": "uint256",
          "name": "version",
          "type": "uint256"
        },
        {
          "internalType": "uint256",
          "name": "expectedVersion",
          "type": "uint256"
        }
      ],
      "name": "InvalidVersion",
      "type": "error"
    },
    {
      "inputs": [
        {
          "internalType": "address",
          "name": "participant",
          "type": "address"
        }
      ],
      "name": "Irremovable",
      "type": "error"
    },
    {
      "inputs": [
        {
          "internalType": "address",
          "name": "specified",
          "type": "address"
        },
        {
          "internalType": "address",
          "name": "token",
          "type": "address"
        }
      ],
      "name": "MintingDifferentToken",
      "type": "error"
    },
    {
      "inputs": [
        {
          "internalType": "address",
          "name": "governor",
          "type": "address"
        },
        {
          "internalType": "enum IFrabricCore.GovernorStatus",
          "name": "status",
          "type": "uint8"
        }
      ],
      "name": "NotActiveGovernor",
      "type": "error"
    },
    {
      "inputs": [
        {
          "internalType": "address",
          "name": "caller",
          "type": "address"
        },
        {
          "internalType": "address",
          "name": "beacon",
          "type": "address"
        }
      ],
      "name": "NotBeacon",
      "type": "error"
    },
    {
      "inputs": [
        {
          "internalType": "uint256",
          "name": "id",
          "type": "uint256"
        },
        {
          "internalType": "uint256",
          "name": "totalVotes",
          "type": "uint256"
        },
        {
          "internalType": "uint256",
          "name": "required",
          "type": "uint256"
        }
      ],
      "name": "NotEnoughParticipation",
      "type": "error"
    },
    {
      "inputs": [
        {
          "internalType": "address",
          "name": "person",
          "type": "address"
        }
      ],
      "name": "NotKYC",
      "type": "error"
    },
    {
      "inputs": [
        {
          "internalType": "address",
          "name": "caller",
          "type": "address"
        },
        {
          "internalType": "address",
          "name": "trader",
          "type": "address"
        }
      ],
      "name": "NotOrderTrader",
      "type": "error"
    },
    {
      "inputs": [
        {
          "internalType": "uint256",
          "name": "id",
          "type": "uint256"
        },
        {
          "internalType": "enum IDAOCore.ProposalState",
          "name": "state",
          "type": "uint8"
        }
      ],
      "name": "NotQueued",
      "type": "error"
    },
    {
      "inputs": [
        {
          "internalType": "uint256",
          "name": "amount",
          "type": "uint256"
        }
      ],
      "name": "NotRoundAmount",
      "type": "error"
    },
    {
      "inputs": [
        {
          "internalType": "uint256",
          "name": "version",
          "type": "uint256"
        },
        {
          "internalType": "uint256",
          "name": "versionRequired",
          "type": "uint256"
        }
      ],
      "name": "NotUpgraded",
      "type": "error"
    },
    {
      "inputs": [
        {
          "internalType": "address",
          "name": "person",
          "type": "address"
        }
      ],
      "name": "NotWhitelisted",
      "type": "error"
    },
    {
      "inputs": [
        {
          "internalType": "uint256",
          "name": "id",
          "type": "uint256"
        },
        {
          "internalType": "address",
          "name": "voter",
          "type": "address"
        }
      ],
      "name": "NotYesVote",
      "type": "error"
    },
    {
      "inputs": [
        {
          "internalType": "address",
          "name": "voucher",
          "type": "address"
        }
      ],
      "name": "OutOfVouchers",
      "type": "error"
    },
    {
      "inputs": [
        {
          "internalType": "address",
          "name": "participant",
          "type": "address"
        }
      ],
      "name": "ParticipantAlreadyApproved",
      "type": "error"
    },
    {
      "inputs": [
        {
          "internalType": "uint256",
          "name": "id",
          "type": "uint256"
        },
        {
          "internalType": "int256",
          "name": "votes",
          "type": "int256"
        }
      ],
      "name": "ProposalFailed",
      "type": "error"
    },
    {
      "inputs": [
        {
          "internalType": "uint256",
          "name": "id",
          "type": "uint256"
        },
        {
          "internalType": "int256",
          "name": "votes",
          "type": "int256"
        }
      ],
      "name": "ProposalPassed",
      "type": "error"
    },
    {
      "inputs": [
        {
          "internalType": "uint256",
          "name": "id",
          "type": "uint256"
        },
        {
          "internalType": "uint256",
          "name": "time",
          "type": "uint256"
        },
        {
          "internalType": "uint256",
          "name": "queuedUntil",
          "type": "uint256"
        }
      ],
      "name": "StillQueued",
      "type": "error"
    },
    {
      "inputs": [
        {
          "internalType": "address",
          "name": "target",
          "type": "address"
        },
        {
          "internalType": "address",
          "name": "expected",
          "type": "address"
        }
      ],
      "name": "TargetMalleability",
      "type": "error"
    },
    {
      "inputs": [
        {
          "internalType": "address",
          "name": "caller",
          "type": "address"
        },
        {
          "internalType": "address",
          "name": "user",
          "type": "address"
        }
      ],
      "name": "Unauthorized",
      "type": "error"
    },
    {
      "inputs": [
        {
          "internalType": "string",
          "name": "label",
          "type": "string"
        },
        {
          "internalType": "uint256",
          "name": "enumValue",
          "type": "uint256"
        }
      ],
      "name": "UnhandledEnumCase",
      "type": "error"
    },
    {
      "inputs": [
        {
          "internalType": "address",
          "name": "voter",
          "type": "address"
        }
      ],
      "name": "UnsortedVoter",
      "type": "error"
    },
    {
      "inputs": [
        {
          "internalType": "address",
          "name": "contractAddress",
          "type": "address"
        },
        {
          "internalType": "bytes4",
          "name": "interfaceID",
          "type": "bytes4"
        }
      ],
      "name": "UnsupportedInterface",
      "type": "error"
    },
    {
      "inputs": [],
      "name": "ZeroAmount",
      "type": "error"
    },
    {
      "anonymous": false,
      "inputs": [
        {
          "indexed": true,
          "internalType": "uint256",
          "name": "id",
          "type": "uint256"
        },
        {
          "indexed": true,
          "internalType": "address",
          "name": "participant",
          "type": "address"
        },
        {
          "indexed": true,
          "internalType": "bool",
          "name": "slash",
          "type": "bool"
        },
        {
          "indexed": false,
          "internalType": "uint256",
          "name": "amount",
          "type": "uint256"
        }
      ],
      "name": "BondRemovalProposal",
      "type": "event"
    },
    {
      "anonymous": false,
      "inputs": [
        {
          "indexed": false,
          "internalType": "uint8",
          "name": "version",
          "type": "uint8"
        }
      ],
      "name": "Initialized",
      "type": "event"
    },
    {
      "anonymous": false,
      "inputs": [
        {
          "indexed": true,
          "internalType": "enum IFrabric.ParticipantType",
          "name": "participantType",
          "type": "uint8"
        },
        {
          "indexed": true,
          "internalType": "address",
          "name": "participant",
          "type": "address"
        }
      ],
      "name": "ParticipantChange",
      "type": "event"
    },
    {
      "anonymous": false,
      "inputs": [
        {
          "indexed": true,
          "internalType": "uint256",
          "name": "id",
          "type": "uint256"
        },
        {
          "indexed": true,
          "internalType": "enum IFrabric.ParticipantType",
          "name": "participantType",
          "type": "uint8"
        },
        {
          "indexed": true,
          "internalType": "address",
          "name": "proposer",
          "type": "address"
        },
        {
          "indexed": false,
          "internalType": "address",
          "name": "participant",
          "type": "address"
        }
      ],
      "name": "ParticipantProposal",
      "type": "event"
    },
    {
      "anonymous": false,
      "inputs": [
        {
          "indexed": true,
          "internalType": "uint256",
          "name": "id",
          "type": "uint256"
        },
        {
          "indexed": false,
          "internalType": "address",
          "name": "participant",
          "type": "address"
        },
        {
          "indexed": false,
          "internalType": "uint8",
          "name": "fee",
          "type": "uint8"
        }
      ],
      "name": "ParticipantRemovalProposal",
      "type": "event"
    },
    {
      "anonymous": false,
      "inputs": [
        {
          "indexed": true,
          "internalType": "uint256",
          "name": "id",
          "type": "uint256"
        },
        {
          "indexed": true,
          "internalType": "uint256",
          "name": "proposalType",
          "type": "uint256"
        },
        {
          "indexed": true,
          "internalType": "address",
          "name": "creator",
          "type": "address"
        },
        {
          "indexed": false,
          "internalType": "bool",
          "name": "supermajority",
          "type": "bool"
        },
        {
          "indexed": false,
          "internalType": "bytes32",
          "name": "info",
          "type": "bytes32"
        }
      ],
      "name": "Proposal",
      "type": "event"
    },
    {
      "anonymous": false,
      "inputs": [
        {
          "indexed": true,
          "internalType": "uint256",
          "name": "id",
          "type": "uint256"
        },
        {
          "indexed": true,
          "internalType": "enum IDAOCore.ProposalState",
          "name": "state",
          "type": "uint8"
        }
      ],
      "name": "ProposalStateChange",
      "type": "event"
    },
    {
      "anonymous": false,
      "inputs": [
        {
          "indexed": true,
          "internalType": "uint256",
          "name": "id",
          "type": "uint256"
        },
        {
          "indexed": true,
          "internalType": "uint256",
          "name": "variant",
          "type": "uint256"
        },
        {
          "indexed": true,
          "internalType": "address",
          "name": "governor",
          "type": "address"
        },
        {
          "indexed": false,
          "internalType": "string",
          "name": "name",
          "type": "string"
        },
        {
          "indexed": false,
          "internalType": "string",
          "name": "symbol",
          "type": "string"
        },
        {
          "indexed": false,
          "internalType": "bytes32",
          "name": "descriptor",
          "type": "bytes32"
        },
        {
          "indexed": false,
          "internalType": "bytes",
          "name": "data",
          "type": "bytes"
        }
      ],
      "name": "ThreadProposal",
      "type": "event"
    },
    {
      "anonymous": false,
      "inputs": [
        {
          "indexed": true,
          "internalType": "uint256",
          "name": "id",
          "type": "uint256"
        },
        {
          "indexed": true,
          "internalType": "address",
          "name": "thread",
          "type": "address"
        },
        {
          "indexed": true,
          "internalType": "uint256",
          "name": "proposalType",
          "type": "uint256"
        },
        {
          "indexed": false,
          "internalType": "bytes",
          "name": "data",
          "type": "bytes"
        }
      ],
      "name": "ThreadProposalProposal",
      "type": "event"
    },
    {
      "anonymous": false,
      "inputs": [
        {
          "indexed": true,
          "internalType": "uint256",
          "name": "id",
          "type": "uint256"
        },
        {
          "indexed": true,
          "internalType": "address",
          "name": "token",
          "type": "address"
        },
        {
          "indexed": true,
          "internalType": "address",
          "name": "target",
          "type": "address"
        },
        {
          "indexed": false,
          "internalType": "bool",
          "name": "mint",
          "type": "bool"
        },
        {
          "indexed": false,
          "internalType": "uint256",
          "name": "price",
          "type": "uint256"
        },
        {
          "indexed": false,
          "internalType": "uint256",
          "name": "amount",
          "type": "uint256"
        }
      ],
      "name": "TokenActionProposal",
      "type": "event"
    },
    {
      "anonymous": false,
      "inputs": [
        {
          "indexed": true,
          "internalType": "uint256",
          "name": "id",
          "type": "uint256"
        },
        {
          "indexed": true,
          "internalType": "address",
          "name": "beacon",
          "type": "address"
        },
        {
          "indexed": true,
          "internalType": "address",
          "name": "instance",
          "type": "address"
        },
        {
          "indexed": false,
          "internalType": "uint256",
          "name": "version",
          "type": "uint256"
        },
        {
          "indexed": false,
          "internalType": "address",
          "name": "code",
          "type": "address"
        },
        {
          "indexed": false,
          "internalType": "bytes",
          "name": "data",
          "type": "bytes"
        }
      ],
      "name": "UpgradeProposal",
      "type": "event"
    },
    {
      "anonymous": false,
      "inputs": [
        {
          "indexed": true,
          "internalType": "uint256",
          "name": "id",
          "type": "uint256"
        },
        {
          "indexed": true,
          "internalType": "enum IDAO.VoteDirection",
          "name": "direction",
          "type": "uint8"
        },
        {
          "indexed": true,
          "internalType": "address",
          "name": "voter",
          "type": "address"
        },
        {
          "indexed": false,
          "internalType": "uint112",
          "name": "votes",
          "type": "uint112"
        }
      ],
      "name": "Vote",
      "type": "event"
    },
    {
      "anonymous": false,
      "inputs": [
        {
          "indexed": true,
          "internalType": "address",
          "name": "voucher",
          "type": "address"
        },
        {
          "indexed": true,
          "internalType": "address",
          "name": "vouchee",
          "type": "address"
        }
      ],
      "name": "Vouch",
      "type": "event"
    },
    {
      "inputs": [
        {
          "internalType": "enum IFrabric.ParticipantType",
          "name": "pType",
          "type": "uint8"
        },
        {
          "internalType": "address",
          "name": "approving",
          "type": "address"
        },
        {
          "internalType": "bytes32",
          "name": "kycHash",
          "type": "bytes32"
        },
        {
          "internalType": "bytes",
          "name": "signature",
          "type": "bytes"
        }
      ],
      "name": "approve",
      "outputs": [],
      "stateMutability": "nonpayable",
      "type": "function"
    },
    {
      "inputs": [],
      "name": "bond",
      "outputs": [
        {
          "internalType": "address",
          "name": "",
          "type": "address"
        }
      ],
      "stateMutability": "view",
      "type": "function"
    },
    {
      "inputs": [
        {
          "internalType": "address",
          "name": "proposer",
          "type": "address"
        }
      ],
      "name": "canPropose",
      "outputs": [
        {
          "internalType": "bool",
          "name": "",
          "type": "bool"
        }
      ],
      "stateMutability": "view",
      "type": "function"
    },
    {
      "inputs": [
        {
          "internalType": "uint256",
          "name": "id",
          "type": "uint256"
        },
        {
          "internalType": "address[]",
          "name": "voters",
          "type": "address[]"
        }
      ],
      "name": "cancelProposal",
      "outputs": [],
      "stateMutability": "nonpayable",
      "type": "function"
    },
    {
      "inputs": [],
      "name": "commonProposalBit",
      "outputs": [
        {
          "internalType": "uint16",
          "name": "",
          "type": "uint16"
        }
      ],
      "stateMutability": "view",
      "type": "function"
    },
    {
      "inputs": [
        {
          "internalType": "uint256",
          "name": "id",
          "type": "uint256"
        },
        {
          "internalType": "bytes",
          "name": "data",
          "type": "bytes"
        }
      ],
      "name": "completeProposal",
      "outputs": [],
      "stateMutability": "nonpayable",
      "type": "function"
    },
    {
      "inputs": [],
      "name": "contractName",
      "outputs": [
        {
          "internalType": "bytes32",
          "name": "",
          "type": "bytes32"
        }
      ],
      "stateMutability": "view",
      "type": "function"
    },
    {
      "inputs": [],
      "name": "erc20",
      "outputs": [
        {
          "internalType": "address",
          "name": "",
          "type": "address"
        }
      ],
      "stateMutability": "view",
      "type": "function"
    },
    {
      "inputs": [
        {
          "internalType": "address",
          "name": "",
          "type": "address"
        }
      ],
      "name": "governor",
      "outputs": [
        {
          "internalType": "enum IFrabricCore.GovernorStatus",
          "name": "",
          "type": "uint8"
        }
      ],
      "stateMutability": "view",
      "type": "function"
    },
    {
      "inputs": [],
      "name": "lapsePeriod",
      "outputs": [
        {
          "internalType": "uint64",
          "name": "",
          "type": "uint64"
        }
      ],
      "stateMutability": "view",
      "type": "function"
    },
    {
      "inputs": [],
      "name": "maxRemovalFee",
      "outputs": [
        {
          "internalType": "uint8",
          "name": "",
          "type": "uint8"
        }
      ],
      "stateMutability": "view",
      "type": "function"
    },
    {
      "inputs": [
        {
          "internalType": "uint256",
          "name": "id",
          "type": "uint256"
        }
      ],
      "name": "netVotes",
      "outputs": [
        {
          "internalType": "int112",
          "name": "",
          "type": "int112"
        }
      ],
      "stateMutability": "view",
      "type": "function"
    },
    {
      "inputs": [],
      "name": "nextProposalID",
      "outputs": [
        {
          "internalType": "uint256",
          "name": "",
          "type": "uint256"
        }
      ],
      "stateMutability": "view",
      "type": "function"
    },
    {
      "inputs": [
        {
          "internalType": "address",
          "name": "",
          "type": "address"
        }
      ],
      "name": "participant",
      "outputs": [
        {
          "internalType": "enum IFrabric.ParticipantType",
          "name": "",
          "type": "uint8"
        }
      ],
      "stateMutability": "view",
      "type": "function"
    },
    {
      "inputs": [
        {
          "internalType": "uint256",
          "name": "",
          "type": "uint256"
        }
      ],
      "name": "passed",
      "outputs": [
        {
          "internalType": "bool",
          "name": "",
          "type": "bool"
        }
      ],
      "stateMutability": "view",
      "type": "function"
    },
    {
      "inputs": [
        {
          "internalType": "uint256",
          "name": "id",
          "type": "uint256"
        }
      ],
      "name": "proposalActive",
      "outputs": [
        {
          "internalType": "bool",
          "name": "",
          "type": "bool"
        }
      ],
      "stateMutability": "view",
      "type": "function"
    },
    {
      "inputs": [
        {
          "internalType": "address",
          "name": "_governor",
          "type": "address"
        },
        {
          "internalType": "bool",
          "name": "slash",
          "type": "bool"
        },
        {
          "internalType": "uint256",
          "name": "amount",
          "type": "uint256"
        },
        {
          "internalType": "bytes32",
          "name": "info",
          "type": "bytes32"
        }
      ],
      "name": "proposeBondRemoval",
      "outputs": [
        {
          "internalType": "uint256",
          "name": "id",
          "type": "uint256"
        }
      ],
      "stateMutability": "nonpayable",
      "type": "function"
    },
    {
      "inputs": [
        {
          "internalType": "bool",
          "name": "supermajority",
          "type": "bool"
        },
        {
          "internalType": "bytes32",
          "name": "info",
          "type": "bytes32"
        }
      ],
      "name": "proposePaper",
      "outputs": [
        {
          "internalType": "uint256",
          "name": "",
          "type": "uint256"
        }
      ],
      "stateMutability": "nonpayable",
      "type": "function"
    },
    {
      "inputs": [
        {
          "internalType": "enum IFrabric.ParticipantType",
          "name": "participantType",
          "type": "uint8"
        },
        {
          "internalType": "address",
          "name": "_participant",
          "type": "address"
        },
        {
          "internalType": "bytes32",
          "name": "info",
          "type": "bytes32"
        }
      ],
      "name": "proposeParticipant",
      "outputs": [
        {
          "internalType": "uint256",
          "name": "id",
          "type": "uint256"
        }
      ],
      "stateMutability": "nonpayable",
      "type": "function"
    },
    {
      "inputs": [
        {
          "internalType": "address",
          "name": "participant",
          "type": "address"
        },
        {
          "internalType": "uint8",
          "name": "removalFee",
          "type": "uint8"
        },
        {
          "internalType": "bytes[]",
          "name": "signatures",
          "type": "bytes[]"
        },
        {
          "internalType": "bytes32",
          "name": "info",
          "type": "bytes32"
        }
      ],
      "name": "proposeParticipantRemoval",
      "outputs": [
        {
          "internalType": "uint256",
          "name": "id",
          "type": "uint256"
        }
      ],
      "stateMutability": "nonpayable",
      "type": "function"
    },
    {
      "inputs": [
        {
          "internalType": "uint8",
          "name": "variant",
          "type": "uint8"
        },
        {
          "internalType": "string",
          "name": "name",
          "type": "string"
        },
        {
          "internalType": "string",
          "name": "symbol",
          "type": "string"
        },
        {
          "internalType": "bytes32",
          "name": "descriptor",
          "type": "bytes32"
        },
        {
          "internalType": "bytes",
          "name": "data",
          "type": "bytes"
        },
        {
          "internalType": "bytes32",
          "name": "info",
          "type": "bytes32"
        }
      ],
      "name": "proposeThread",
      "outputs": [
        {
          "internalType": "uint256",
          "name": "id",
          "type": "uint256"
        }
      ],
      "stateMutability": "nonpayable",
      "type": "function"
    },
    {
      "inputs": [
        {
          "internalType": "address",
          "name": "thread",
          "type": "address"
        },
        {
          "internalType": "uint16",
          "name": "_proposalType",
          "type": "uint16"
        },
        {
          "internalType": "bytes",
          "name": "data",
          "type": "bytes"
        },
        {
          "internalType": "bytes32",
          "name": "info",
          "type": "bytes32"
        }
      ],
      "name": "proposeThreadProposal",
      "outputs": [
        {
          "internalType": "uint256",
          "name": "id",
          "type": "uint256"
        }
      ],
      "stateMutability": "nonpayable",
      "type": "function"
    },
    {
      "inputs": [
        {
          "internalType": "address",
          "name": "token",
          "type": "address"
        },
        {
          "internalType": "address",
          "name": "target",
          "type": "address"
        },
        {
          "internalType": "bool",
          "name": "mint",
          "type": "bool"
        },
        {
          "internalType": "uint256",
          "name": "price",
          "type": "uint256"
        },
        {
          "internalType": "uint256",
          "name": "amount",
          "type": "uint256"
        },
        {
          "internalType": "bytes32",
          "name": "info",
          "type": "bytes32"
        }
      ],
      "name": "proposeTokenAction",
      "outputs": [
        {
          "internalType": "uint256",
          "name": "id",
          "type": "uint256"
        }
      ],
      "stateMutability": "nonpayable",
      "type": "function"
    },
    {
      "inputs": [
        {
          "internalType": "address",
          "name": "beacon",
          "type": "address"
        },
        {
          "internalType": "address",
          "name": "instance",
          "type": "address"
        },
        {
          "internalType": "uint256",
          "name": "version",
          "type": "uint256"
        },
        {
          "internalType": "address",
          "name": "code",
          "type": "address"
        },
        {
          "internalType": "bytes",
          "name": "data",
          "type": "bytes"
        },
        {
          "internalType": "bytes32",
          "name": "info",
          "type": "bytes32"
        }
      ],
      "name": "proposeUpgrade",
      "outputs": [
        {
          "internalType": "uint256",
          "name": "id",
          "type": "uint256"
        }
      ],
      "stateMutability": "nonpayable",
      "type": "function"
    },
    {
      "inputs": [],
      "name": "queuePeriod",
      "outputs": [
        {
          "internalType": "uint64",
          "name": "",
          "type": "uint64"
        }
      ],
      "stateMutability": "view",
      "type": "function"
    },
    {
      "inputs": [
        {
          "internalType": "uint256",
          "name": "id",
          "type": "uint256"
        }
      ],
      "name": "queueProposal",
      "outputs": [],
      "stateMutability": "nonpayable",
      "type": "function"
    },
    {
      "inputs": [],
      "name": "requiredParticipation",
      "outputs": [
        {
          "internalType": "uint112",
          "name": "",
          "type": "uint112"
        }
      ],
      "stateMutability": "view",
      "type": "function"
    },
    {
      "inputs": [
        {
          "internalType": "uint256",
          "name": "id",
          "type": "uint256"
        }
      ],
      "name": "supermajorityRequired",
      "outputs": [
        {
          "internalType": "bool",
          "name": "",
          "type": "bool"
        }
      ],
      "stateMutability": "view",
      "type": "function"
    },
    {
      "inputs": [
        {
          "internalType": "bytes4",
          "name": "",
          "type": "bytes4"
        }
      ],
      "name": "supportsInterface",
      "outputs": [
        {
          "internalType": "bool",
          "name": "",
          "type": "bool"
        }
      ],
      "stateMutability": "view",
      "type": "function"
    },
    {
      "inputs": [],
      "name": "threadDeployer",
      "outputs": [
        {
          "internalType": "address",
          "name": "",
          "type": "address"
        }
      ],
      "stateMutability": "view",
      "type": "function"
    },
    {
      "inputs": [
        {
          "internalType": "uint256",
          "name": "id",
          "type": "uint256"
        }
      ],
      "name": "totalVotes",
      "outputs": [
        {
          "internalType": "uint112",
          "name": "",
          "type": "uint112"
        }
      ],
      "stateMutability": "view",
      "type": "function"
    },
    {
      "inputs": [
        {
          "internalType": "uint256",
          "name": "_version",
          "type": "uint256"
        },
        {
          "internalType": "bytes",
          "name": "data",
          "type": "bytes"
        }
      ],
      "name": "upgrade",
      "outputs": [],
      "stateMutability": "nonpayable",
      "type": "function"
    },
    {
      "inputs": [
        {
          "internalType": "uint256",
          "name": "_version",
          "type": "uint256"
        },
        {
          "internalType": "bytes",
          "name": "data",
          "type": "bytes"
        }
      ],
      "name": "validateUpgrade",
      "outputs": [],
      "stateMutability": "view",
      "type": "function"
    },
    {
      "inputs": [],
      "name": "version",
      "outputs": [
        {
          "internalType": "uint256",
          "name": "",
          "type": "uint256"
        }
      ],
      "stateMutability": "view",
      "type": "function"
    },
    {
      "inputs": [
        {
          "internalType": "uint256[]",
          "name": "ids",
          "type": "uint256[]"
        },
        {
          "internalType": "int112[]",
          "name": "votes",
          "type": "int112[]"
        }
      ],
      "name": "vote",
      "outputs": [],
      "stateMutability": "nonpayable",
      "type": "function"
    },
    {
      "inputs": [
        {
          "internalType": "uint256",
          "name": "id",
          "type": "uint256"
        }
      ],
      "name": "voteBlock",
      "outputs": [
        {
          "internalType": "uint32",
          "name": "",
          "type": "uint32"
        }
      ],
      "stateMutability": "view",
      "type": "function"
    },
    {
      "inputs": [
        {
          "internalType": "uint256",
          "name": "id",
          "type": "uint256"
        },
        {
          "internalType": "address",
          "name": "voter",
          "type": "address"
        }
      ],
      "name": "voteRecord",
      "outputs": [
        {
          "internalType": "int112",
          "name": "",
          "type": "int112"
        }
      ],
      "stateMutability": "view",
      "type": "function"
    },
    {
      "inputs": [],
      "name": "votingPeriod",
      "outputs": [
        {
          "internalType": "uint64",
          "name": "",
          "type": "uint64"
        }
      ],
      "stateMutability": "view",
      "type": "function"
    },
    {
      "inputs": [
        {
          "internalType": "address",
          "name": "_participant",
          "type": "address"
        },
        {
          "internalType": "bytes",
          "name": "signature",
          "type": "bytes"
        }
      ],
      "name": "vouch",
      "outputs": [],
      "stateMutability": "nonpayable",
      "type": "function"
    },
    {
      "inputs": [
        {
          "internalType": "address",
          "name": "",
          "type": "address"
        }
      ],
      "name": "vouchers",
      "outputs": [
        {
          "internalType": "uint256",
          "name": "",
          "type": "uint256"
        }
      ],
      "stateMutability": "view",
      "type": "function"
    },
    {
      "inputs": [
        {
          "internalType": "uint256",
          "name": "id",
          "type": "uint256"
        }
      ],
      "name": "withdrawProposal",
      "outputs": [],
      "stateMutability": "nonpayable",
      "type": "function"
    }
  ]
}